{
	"src/ChainOfCustody.sol": {
		"Evidence": {
			"abi": [
				{
					"inputs": [
						{
							"internalType": "address",
							"name": "_evidenceLedgerAddress",
							"type": "address"
						},
						{
							"internalType": "bytes32",
							"name": "_evidenceId",
							"type": "bytes32"
						},
						{
							"internalType": "address",
							"name": "_creator",
							"type": "address"
						},
						{
							"internalType": "address",
							"name": "_initialOwner",
							"type": "address"
						},
						{
							"internalType": "string",
							"name": "_description",
							"type": "string"
						}
					],
					"stateMutability": "nonpayable",
					"type": "constructor"
				},
				{
					"inputs": [
						{
							"internalType": "address",
							"name": "owner",
							"type": "address"
						},
						{
							"internalType": "address",
							"name": "caller",
							"type": "address"
						}
					],
					"name": "CallerIsNotCurrentOwner",
					"type": "error"
				},
				{
					"inputs": [
						{
							"internalType": "address",
							"name": "creator",
							"type": "address"
						},
						{
							"internalType": "address",
							"name": "initialOwner",
							"type": "address"
						}
					],
					"name": "CreatorIsNotInitialOwner",
					"type": "error"
				},
				{
					"inputs": [
						{
							"internalType": "address",
							"name": "caller",
							"type": "address"
						}
					],
					"name": "UnauthorizedDeployment",
					"type": "error"
				},
				{
					"anonymous": false,
					"inputs": [
						{
							"indexed": true,
							"internalType": "bytes32",
							"name": "evidenceId",
							"type": "bytes32"
						}
					],
					"name": "EvindenceDiscontinued",
					"type": "event"
				},
				{
					"anonymous": false,
					"inputs": [
						{
							"indexed": true,
							"internalType": "address",
							"name": "previousOwner",
							"type": "address"
						},
						{
							"indexed": true,
							"internalType": "address",
							"name": "newOwner",
							"type": "address"
						}
					],
					"name": "OwnershipTransferred",
					"type": "event"
				},
				{
					"inputs": [],
					"name": "discontinueEvidence",
					"outputs": [],
					"stateMutability": "nonpayable",
					"type": "function"
				},
				{
					"inputs": [],
					"name": "getChainOfCustody",
					"outputs": [
						{
							"internalType": "address[]",
							"name": "",
							"type": "address[]"
						}
					],
					"stateMutability": "view",
					"type": "function"
				},
				{
					"inputs": [],
					"name": "getCurrentOwner",
					"outputs": [
						{
							"internalType": "address",
							"name": "",
							"type": "address"
						}
					],
					"stateMutability": "view",
					"type": "function"
				},
				{
					"inputs": [],
					"name": "getEvidenceCreator",
					"outputs": [
						{
							"internalType": "address",
							"name": "",
							"type": "address"
						}
					],
					"stateMutability": "view",
					"type": "function"
				},
				{
					"inputs": [],
					"name": "getEvidenceDescription",
					"outputs": [
						{
							"internalType": "string",
							"name": "",
							"type": "string"
						}
					],
					"stateMutability": "view",
					"type": "function"
				},
				{
					"inputs": [],
					"name": "getEvidenceState",
					"outputs": [
						{
							"internalType": "bool",
							"name": "",
							"type": "bool"
						}
					],
					"stateMutability": "view",
					"type": "function"
				},
				{
					"inputs": [],
					"name": "getevidenceId",
					"outputs": [
						{
							"internalType": "bytes32",
							"name": "",
							"type": "bytes32"
						}
					],
					"stateMutability": "view",
					"type": "function"
				},
				{
					"inputs": [
						{
							"internalType": "address",
							"name": "newOwner",
							"type": "address"
						}
					],
					"name": "transferOwnership",
					"outputs": [],
					"stateMutability": "nonpayable",
					"type": "function"
				}
			],
			"devdoc": {
				"author": "Kartik Kumbhar Evidence ID and Contract Address define a unique piece of evidence. 1. Evidence ID is passed through EvidenceLedger contract. 2. Contract Address is the address of this contract.",
				"kind": "dev",
				"methods": {},
				"title": "Evidence Contract for Chain of Custody",
				"version": 1
			},
			"evm": {
				"assembly": "    /* \"src/ChainOfCustody.sol\":346:3995  contract Evidence {... */\n  mstore(0x40, 0xe0)\n    /* \"src/ChainOfCustody.sol\":985:989  true */\n  0x01\n    /* \"src/ChainOfCustody.sol\":961:989  bool private isActive = true */\n  0x03\n  exp(0x0100, 0x00)\n  dup2\n  sload\n  dup2\n  0xff\n  mul\n  not\n  and\n  swap1\n  dup4\n  iszero\n  iszero\n  mul\n  or\n  swap1\n  sstore\n  pop\n    /* \"src/ChainOfCustody.sol\":1752:2631  constructor(... */\n  callvalue\n  dup1\n  iszero\n  tag_1\n  jumpi\n  revert(0x00, 0x00)\ntag_1:\n  pop\n  mload(0x40)\n  sub(codesize, bytecodeSize)\n  dup1\n  bytecodeSize\n  dup4\n  codecopy\n  dup2\n  dup2\n  add\n  0x40\n  mstore\n  dup2\n  add\n  swap1\n  tag_2\n  swap2\n  swap1\n  tag_3\n  jump\t// in\ntag_2:\n    /* \"src/ChainOfCustody.sol\":1960:1982  _evidenceLedgerAddress */\n  dup5\n    /* \"src/ChainOfCustody.sol\":1946:1982  msg.sender != _evidenceLedgerAddress */\n  0xffffffffffffffffffffffffffffffffffffffff\n  and\n    /* \"src/ChainOfCustody.sol\":1946:1956  msg.sender */\n  caller\n    /* \"src/ChainOfCustody.sol\":1946:1982  msg.sender != _evidenceLedgerAddress */\n  0xffffffffffffffffffffffffffffffffffffffff\n  and\n  eq\n    /* \"src/ChainOfCustody.sol\":1942:2025  if (msg.sender != _evidenceLedgerAddress) revert UnauthorizedDeployment(msg.sender) */\n  tag_6\n  jumpi\n    /* \"src/ChainOfCustody.sol\":2014:2024  msg.sender */\n  caller\n    /* \"src/ChainOfCustody.sol\":1991:2025  UnauthorizedDeployment(msg.sender) */\n  mload(0x40)\n  0xd41e7b4c00000000000000000000000000000000000000000000000000000000\n  dup2\n  mstore\n  0x04\n  add\n  tag_7\n  swap2\n  swap1\n  tag_8\n  jump\t// in\ntag_7:\n  mload(0x40)\n  dup1\n  swap2\n  sub\n  swap1\n  revert\n    /* \"src/ChainOfCustody.sol\":1942:2025  if (msg.sender != _evidenceLedgerAddress) revert UnauthorizedDeployment(msg.sender) */\ntag_6:\n    /* \"src/ChainOfCustody.sol\":2056:2064  _creator */\n  dup3\n    /* \"src/ChainOfCustody.sol\":2039:2064  _initialOwner != _creator */\n  0xffffffffffffffffffffffffffffffffffffffff\n  and\n    /* \"src/ChainOfCustody.sol\":2039:2052  _initialOwner */\n  dup3\n    /* \"src/ChainOfCustody.sol\":2039:2064  _initialOwner != _creator */\n  0xffffffffffffffffffffffffffffffffffffffff\n  and\n  eq\n    /* \"src/ChainOfCustody.sol\":2035:2119  if (_initialOwner != _creator) revert CreatorIsNotInitialOwner(_creator, msg.sender) */\n  tag_9\n  jumpi\n    /* \"src/ChainOfCustody.sol\":2098:2106  _creator */\n  dup3\n    /* \"src/ChainOfCustody.sol\":2108:2118  msg.sender */\n  caller\n    /* \"src/ChainOfCustody.sol\":2073:2119  CreatorIsNotInitialOwner(_creator, msg.sender) */\n  mload(0x40)\n  0xbf9348a200000000000000000000000000000000000000000000000000000000\n  dup2\n  mstore\n  0x04\n  add\n  tag_10\n  swap3\n  swap2\n  swap1\n  tag_11\n  jump\t// in\ntag_10:\n  mload(0x40)\n  dup1\n  swap2\n  sub\n  swap1\n  revert\n    /* \"src/ChainOfCustody.sol\":2035:2119  if (_initialOwner != _creator) revert CreatorIsNotInitialOwner(_creator, msg.sender) */\ntag_9:\n    /* \"src/ChainOfCustody.sol\":2153:2154  0 */\n  0x00\n    /* \"src/ChainOfCustody.sol\":2133:2155  _creator == address(0) */\n  0xffffffffffffffffffffffffffffffffffffffff\n  and\n    /* \"src/ChainOfCustody.sol\":2133:2141  _creator */\n  dup4\n    /* \"src/ChainOfCustody.sol\":2133:2155  _creator == address(0) */\n  0xffffffffffffffffffffffffffffffffffffffff\n  and\n  sub\n    /* \"src/ChainOfCustody.sol\":2129:2206  if (_creator == address(0)) revert(\"Invalid Creator: cannot be zero address\") */\n  tag_12\n  jumpi\n    /* \"src/ChainOfCustody.sol\":2157:2206  revert(\"Invalid Creator: cannot be zero address\") */\n  mload(0x40)\n  0x08c379a000000000000000000000000000000000000000000000000000000000\n  dup2\n  mstore\n  0x04\n  add\n  tag_13\n  swap1\n  tag_14\n  jump\t// in\ntag_13:\n  mload(0x40)\n  dup1\n  swap2\n  sub\n  swap1\n  revert\n    /* \"src/ChainOfCustody.sol\":2129:2206  if (_creator == address(0)) revert(\"Invalid Creator: cannot be zero address\") */\ntag_12:\n    /* \"src/ChainOfCustody.sol\":2235:2238  0x0 */\n  0x00\n    /* \"src/ChainOfCustody.sol\":2220:2238  _evidenceId == 0x0 */\n  0x00\n  shl\n    /* \"src/ChainOfCustody.sol\":2220:2231  _evidenceId */\n  dup5\n    /* \"src/ChainOfCustody.sol\":2220:2238  _evidenceId == 0x0 */\n  sub\n    /* \"src/ChainOfCustody.sol\":2216:2289  if (_evidenceId == 0x0) revert(\"Invalid evidence ID: ID cannot be empty\") */\n  tag_15\n  jumpi\n    /* \"src/ChainOfCustody.sol\":2240:2289  revert(\"Invalid evidence ID: ID cannot be empty\") */\n  mload(0x40)\n  0x08c379a000000000000000000000000000000000000000000000000000000000\n  dup2\n  mstore\n  0x04\n  add\n  tag_16\n  swap1\n  tag_17\n  jump\t// in\ntag_16:\n  mload(0x40)\n  dup1\n  swap2\n  sub\n  swap1\n  revert\n    /* \"src/ChainOfCustody.sol\":2216:2289  if (_evidenceId == 0x0) revert(\"Invalid evidence ID: ID cannot be empty\") */\ntag_15:\n    /* \"src/ChainOfCustody.sol\":2333:2334  0 */\n  0x00\n    /* \"src/ChainOfCustody.sol\":2309:2321  _description */\n  dup2\n    /* \"src/ChainOfCustody.sol\":2303:2329  bytes(_description).length */\n  mload\n    /* \"src/ChainOfCustody.sol\":2303:2334  bytes(_description).length == 0 */\n  sub\n    /* \"src/ChainOfCustody.sol\":2299:2394  if (bytes(_description).length == 0) revert(\"Invalid description: description cannot be empty\") */\n  tag_18\n  jumpi\n    /* \"src/ChainOfCustody.sol\":2336:2394  revert(\"Invalid description: description cannot be empty\") */\n  mload(0x40)\n  0x08c379a000000000000000000000000000000000000000000000000000000000\n  dup2\n  mstore\n  0x04\n  add\n  tag_19\n  swap1\n  tag_20\n  jump\t// in\ntag_19:\n  mload(0x40)\n  dup1\n  swap2\n  sub\n  swap1\n  revert\n    /* \"src/ChainOfCustody.sol\":2299:2394  if (bytes(_description).length == 0) revert(\"Invalid description: description cannot be empty\") */\ntag_18:\n    /* \"src/ChainOfCustody.sol\":2440:2462  _evidenceLedgerAddress */\n  dup5\n    /* \"src/ChainOfCustody.sol\":2405:2462  ORIGINAL_EVIDENCE_LEDGER_ADDRESS = _evidenceLedgerAddress */\n  0xffffffffffffffffffffffffffffffffffffffff\n  and\n  0x80\n  dup2\n  0xffffffffffffffffffffffffffffffffffffffff\n  and\n  dup2\n  mstore\n  pop\n  pop\n    /* \"src/ChainOfCustody.sol\":2482:2490  _creator */\n  dup3\n    /* \"src/ChainOfCustody.sol\":2472:2490  CREATOR = _creator */\n  0xffffffffffffffffffffffffffffffffffffffff\n  and\n  0xa0\n  dup2\n  0xffffffffffffffffffffffffffffffffffffffff\n  and\n  dup2\n  mstore\n  pop\n  pop\n    /* \"src/ChainOfCustody.sol\":2508:2515  CREATOR */\n  mload(0xa0)\n    /* \"src/ChainOfCustody.sol\":2500:2505  owner */\n  0x00\n  0x00\n    /* \"src/ChainOfCustody.sol\":2500:2515  owner = CREATOR */\n  0x0100\n  exp\n  dup2\n  sload\n  dup2\n  0xffffffffffffffffffffffffffffffffffffffff\n  mul\n  not\n  and\n  swap1\n  dup4\n  0xffffffffffffffffffffffffffffffffffffffff\n  and\n  mul\n  or\n  swap1\n  sstore\n  pop\n    /* \"src/ChainOfCustody.sol\":2525:2539  chainOfCustody */\n  0x01\n    /* \"src/ChainOfCustody.sol\":2545:2552  CREATOR */\n  mload(0xa0)\n    /* \"src/ChainOfCustody.sol\":2525:2553  chainOfCustody.push(CREATOR) */\n  swap1\n  dup1\n  0x01\n  dup2\n  sload\n  add\n  dup1\n  dup3\n  sstore\n  dup1\n  swap2\n  pop\n  pop\n  0x01\n  swap1\n  sub\n  swap1\n  0x00\n  mstore\n  keccak256(0x00, 0x20)\n  add\n  0x00\n  swap1\n  swap2\n  swap1\n  swap2\n  swap1\n  swap2\n  0x0100\n  exp\n  dup2\n  sload\n  dup2\n  0xffffffffffffffffffffffffffffffffffffffff\n  mul\n  not\n  and\n  swap1\n  dup4\n  0xffffffffffffffffffffffffffffffffffffffff\n  and\n  mul\n  or\n  swap1\n  sstore\n  pop\n    /* \"src/ChainOfCustody.sol\":2577:2588  _evidenceId */\n  dup4\n    /* \"src/ChainOfCustody.sol\":2563:2588  EVIDENCE_ID = _evidenceId */\n  0xc0\n  dup2\n  dup2\n  mstore\n  pop\n  pop\n    /* \"src/ChainOfCustody.sol\":2612:2624  _description */\n  dup1\n    /* \"src/ChainOfCustody.sol\":2598:2609  description */\n  0x02\n    /* \"src/ChainOfCustody.sol\":2598:2624  description = _description */\n  swap1\n  dup2\n  tag_22\n  swap2\n  swap1\n  tag_23\n  jump\t// in\ntag_22:\n  pop\n    /* \"src/ChainOfCustody.sol\":1752:2631  constructor(... */\n  pop\n  pop\n  pop\n  pop\n  pop\n    /* \"src/ChainOfCustody.sol\":346:3995  contract Evidence {... */\n  jump(tag_24)\n    /* \"#utility.yul\":7:82   */\ntag_25:\n    /* \"#utility.yul\":40:46   */\n  0x00\n    /* \"#utility.yul\":73:75   */\n  0x40\n    /* \"#utility.yul\":67:76   */\n  mload\n    /* \"#utility.yul\":57:76   */\n  swap1\n  pop\n    /* \"#utility.yul\":7:82   */\n  swap1\n  jump\t// out\n    /* \"#utility.yul\":88:205   */\ntag_26:\n    /* \"#utility.yul\":197:198   */\n  0x00\n    /* \"#utility.yul\":194:195   */\n  0x00\n    /* \"#utility.yul\":187:199   */\n  revert\n    /* \"#utility.yul\":211:328   */\ntag_27:\n    /* \"#utility.yul\":320:321   */\n  0x00\n    /* \"#utility.yul\":317:318   */\n  0x00\n    /* \"#utility.yul\":310:322   */\n  revert\n    /* \"#utility.yul\":334:460   */\ntag_28:\n    /* \"#utility.yul\":371:378   */\n  0x00\n    /* \"#utility.yul\":411:453   */\n  0xffffffffffffffffffffffffffffffffffffffff\n    /* \"#utility.yul\":404:409   */\n  dup3\n    /* \"#utility.yul\":400:454   */\n  and\n    /* \"#utility.yul\":389:454   */\n  swap1\n  pop\n    /* \"#utility.yul\":334:460   */\n  swap2\n  swap1\n  pop\n  jump\t// out\n    /* \"#utility.yul\":466:562   */\ntag_29:\n    /* \"#utility.yul\":503:510   */\n  0x00\n    /* \"#utility.yul\":532:556   */\n  tag_78\n    /* \"#utility.yul\":550:555   */\n  dup3\n    /* \"#utility.yul\":532:556   */\n  tag_28\n  jump\t// in\ntag_78:\n    /* \"#utility.yul\":521:556   */\n  swap1\n  pop\n    /* \"#utility.yul\":466:562   */\n  swap2\n  swap1\n  pop\n  jump\t// out\n    /* \"#utility.yul\":568:690   */\ntag_30:\n    /* \"#utility.yul\":641:665   */\n  tag_80\n    /* \"#utility.yul\":659:664   */\n  dup2\n    /* \"#utility.yul\":641:665   */\n  tag_29\n  jump\t// in\ntag_80:\n    /* \"#utility.yul\":634:639   */\n  dup2\n    /* \"#utility.yul\":631:666   */\n  eq\n    /* \"#utility.yul\":621:684   */\n  tag_81\n  jumpi\n    /* \"#utility.yul\":680:681   */\n  0x00\n    /* \"#utility.yul\":677:678   */\n  0x00\n    /* \"#utility.yul\":670:682   */\n  revert\n    /* \"#utility.yul\":621:684   */\ntag_81:\n    /* \"#utility.yul\":568:690   */\n  pop\n  jump\t// out\n    /* \"#utility.yul\":696:839   */\ntag_31:\n    /* \"#utility.yul\":753:758   */\n  0x00\n    /* \"#utility.yul\":784:790   */\n  dup2\n    /* \"#utility.yul\":778:791   */\n  mload\n    /* \"#utility.yul\":769:791   */\n  swap1\n  pop\n    /* \"#utility.yul\":800:833   */\n  tag_83\n    /* \"#utility.yul\":827:832   */\n  dup2\n    /* \"#utility.yul\":800:833   */\n  tag_30\n  jump\t// in\ntag_83:\n    /* \"#utility.yul\":696:839   */\n  swap3\n  swap2\n  pop\n  pop\n  jump\t// out\n    /* \"#utility.yul\":845:922   */\ntag_32:\n    /* \"#utility.yul\":882:889   */\n  0x00\n    /* \"#utility.yul\":911:916   */\n  dup2\n    /* \"#utility.yul\":900:916   */\n  swap1\n  pop\n    /* \"#utility.yul\":845:922   */\n  swap2\n  swap1\n  pop\n  jump\t// out\n    /* \"#utility.yul\":928:1050   */\ntag_33:\n    /* \"#utility.yul\":1001:1025   */\n  tag_86\n    /* \"#utility.yul\":1019:1024   */\n  dup2\n    /* \"#utility.yul\":1001:1025   */\n  tag_32\n  jump\t// in\ntag_86:\n    /* \"#utility.yul\":994:999   */\n  dup2\n    /* \"#utility.yul\":991:1026   */\n  eq\n    /* \"#utility.yul\":981:1044   */\n  tag_87\n  jumpi\n    /* \"#utility.yul\":1040:1041   */\n  0x00\n    /* \"#utility.yul\":1037:1038   */\n  0x00\n    /* \"#utility.yul\":1030:1042   */\n  revert\n    /* \"#utility.yul\":981:1044   */\ntag_87:\n    /* \"#utility.yul\":928:1050   */\n  pop\n  jump\t// out\n    /* \"#utility.yul\":1056:1199   */\ntag_34:\n    /* \"#utility.yul\":1113:1118   */\n  0x00\n    /* \"#utility.yul\":1144:1150   */\n  dup2\n    /* \"#utility.yul\":1138:1151   */\n  mload\n    /* \"#utility.yul\":1129:1151   */\n  swap1\n  pop\n    /* \"#utility.yul\":1160:1193   */\n  tag_89\n    /* \"#utility.yul\":1187:1192   */\n  dup2\n    /* \"#utility.yul\":1160:1193   */\n  tag_33\n  jump\t// in\ntag_89:\n    /* \"#utility.yul\":1056:1199   */\n  swap3\n  swap2\n  pop\n  pop\n  jump\t// out\n    /* \"#utility.yul\":1205:1322   */\ntag_35:\n    /* \"#utility.yul\":1314:1315   */\n  0x00\n    /* \"#utility.yul\":1311:1312   */\n  0x00\n    /* \"#utility.yul\":1304:1316   */\n  revert\n    /* \"#utility.yul\":1328:1445   */\ntag_36:\n    /* \"#utility.yul\":1437:1438   */\n  0x00\n    /* \"#utility.yul\":1434:1435   */\n  0x00\n    /* \"#utility.yul\":1427:1439   */\n  revert\n    /* \"#utility.yul\":1451:1553   */\ntag_37:\n    /* \"#utility.yul\":1492:1498   */\n  0x00\n    /* \"#utility.yul\":1543:1545   */\n  0x1f\n    /* \"#utility.yul\":1539:1546   */\n  not\n    /* \"#utility.yul\":1534:1536   */\n  0x1f\n    /* \"#utility.yul\":1527:1532   */\n  dup4\n    /* \"#utility.yul\":1523:1537   */\n  add\n    /* \"#utility.yul\":1519:1547   */\n  and\n    /* \"#utility.yul\":1509:1547   */\n  swap1\n  pop\n    /* \"#utility.yul\":1451:1553   */\n  swap2\n  swap1\n  pop\n  jump\t// out\n    /* \"#utility.yul\":1559:1739   */\ntag_38:\n    /* \"#utility.yul\":1607:1684   */\n  0x4e487b7100000000000000000000000000000000000000000000000000000000\n    /* \"#utility.yul\":1604:1605   */\n  0x00\n    /* \"#utility.yul\":1597:1685   */\n  mstore\n    /* \"#utility.yul\":1704:1708   */\n  0x41\n    /* \"#utility.yul\":1701:1702   */\n  0x04\n    /* \"#utility.yul\":1694:1709   */\n  mstore\n    /* \"#utility.yul\":1728:1732   */\n  0x24\n    /* \"#utility.yul\":1725:1726   */\n  0x00\n    /* \"#utility.yul\":1718:1733   */\n  revert\n    /* \"#utility.yul\":1745:2026   */\ntag_39:\n    /* \"#utility.yul\":1828:1855   */\n  tag_95\n    /* \"#utility.yul\":1850:1854   */\n  dup3\n    /* \"#utility.yul\":1828:1855   */\n  tag_37\n  jump\t// in\ntag_95:\n    /* \"#utility.yul\":1820:1826   */\n  dup2\n    /* \"#utility.yul\":1816:1856   */\n  add\n    /* \"#utility.yul\":1958:1964   */\n  dup2\n    /* \"#utility.yul\":1946:1956   */\n  dup2\n    /* \"#utility.yul\":1943:1965   */\n  lt\n    /* \"#utility.yul\":1922:1940   */\n  0xffffffffffffffff\n    /* \"#utility.yul\":1910:1920   */\n  dup3\n    /* \"#utility.yul\":1907:1941   */\n  gt\n    /* \"#utility.yul\":1904:1966   */\n  or\n    /* \"#utility.yul\":1901:1989   */\n  iszero\n  tag_96\n  jumpi\n    /* \"#utility.yul\":1969:1987   */\n  tag_97\n  tag_38\n  jump\t// in\ntag_97:\n    /* \"#utility.yul\":1901:1989   */\ntag_96:\n    /* \"#utility.yul\":2009:2019   */\n  dup1\n    /* \"#utility.yul\":2005:2007   */\n  0x40\n    /* \"#utility.yul\":1998:2020   */\n  mstore\n    /* \"#utility.yul\":1788:2026   */\n  pop\n    /* \"#utility.yul\":1745:2026   */\n  pop\n  pop\n  jump\t// out\n    /* \"#utility.yul\":2032:2161   */\ntag_40:\n    /* \"#utility.yul\":2066:2072   */\n  0x00\n    /* \"#utility.yul\":2093:2113   */\n  tag_99\n  tag_25\n  jump\t// in\ntag_99:\n    /* \"#utility.yul\":2083:2113   */\n  swap1\n  pop\n    /* \"#utility.yul\":2122:2155   */\n  tag_100\n    /* \"#utility.yul\":2150:2154   */\n  dup3\n    /* \"#utility.yul\":2142:2148   */\n  dup3\n    /* \"#utility.yul\":2122:2155   */\n  tag_39\n  jump\t// in\ntag_100:\n    /* \"#utility.yul\":2032:2161   */\n  swap2\n  swap1\n  pop\n  jump\t// out\n    /* \"#utility.yul\":2167:2475   */\ntag_41:\n    /* \"#utility.yul\":2229:2233   */\n  0x00\n    /* \"#utility.yul\":2319:2337   */\n  0xffffffffffffffff\n    /* \"#utility.yul\":2311:2317   */\n  dup3\n    /* \"#utility.yul\":2308:2338   */\n  gt\n    /* \"#utility.yul\":2305:2361   */\n  iszero\n  tag_102\n  jumpi\n    /* \"#utility.yul\":2341:2359   */\n  tag_103\n  tag_38\n  jump\t// in\ntag_103:\n    /* \"#utility.yul\":2305:2361   */\ntag_102:\n    /* \"#utility.yul\":2379:2408   */\n  tag_104\n    /* \"#utility.yul\":2401:2407   */\n  dup3\n    /* \"#utility.yul\":2379:2408   */\n  tag_37\n  jump\t// in\ntag_104:\n    /* \"#utility.yul\":2371:2408   */\n  swap1\n  pop\n    /* \"#utility.yul\":2463:2467   */\n  0x20\n    /* \"#utility.yul\":2457:2461   */\n  dup2\n    /* \"#utility.yul\":2453:2468   */\n  add\n    /* \"#utility.yul\":2445:2468   */\n  swap1\n  pop\n    /* \"#utility.yul\":2167:2475   */\n  swap2\n  swap1\n  pop\n  jump\t// out\n    /* \"#utility.yul\":2481:2620   */\ntag_42:\n    /* \"#utility.yul\":2570:2576   */\n  dup3\n    /* \"#utility.yul\":2565:2568   */\n  dup2\n    /* \"#utility.yul\":2560:2563   */\n  dup4\n    /* \"#utility.yul\":2554:2577   */\n  mcopy\n    /* \"#utility.yul\":2611:2612   */\n  0x00\n    /* \"#utility.yul\":2602:2608   */\n  dup4\n    /* \"#utility.yul\":2597:2600   */\n  dup4\n    /* \"#utility.yul\":2593:2609   */\n  add\n    /* \"#utility.yul\":2586:2613   */\n  mstore\n    /* \"#utility.yul\":2481:2620   */\n  pop\n  pop\n  pop\n  jump\t// out\n    /* \"#utility.yul\":2626:3060   */\ntag_43:\n    /* \"#utility.yul\":2715:2720   */\n  0x00\n    /* \"#utility.yul\":2740:2806   */\n  tag_107\n    /* \"#utility.yul\":2756:2805   */\n  tag_108\n    /* \"#utility.yul\":2798:2804   */\n  dup5\n    /* \"#utility.yul\":2756:2805   */\n  tag_41\n  jump\t// in\ntag_108:\n    /* \"#utility.yul\":2740:2806   */\n  tag_40\n  jump\t// in\ntag_107:\n    /* \"#utility.yul\":2731:2806   */\n  swap1\n  pop\n    /* \"#utility.yul\":2829:2835   */\n  dup3\n    /* \"#utility.yul\":2822:2827   */\n  dup2\n    /* \"#utility.yul\":2815:2836   */\n  mstore\n    /* \"#utility.yul\":2867:2871   */\n  0x20\n    /* \"#utility.yul\":2860:2865   */\n  dup2\n    /* \"#utility.yul\":2856:2872   */\n  add\n    /* \"#utility.yul\":2905:2908   */\n  dup5\n    /* \"#utility.yul\":2896:2902   */\n  dup5\n    /* \"#utility.yul\":2891:2894   */\n  dup5\n    /* \"#utility.yul\":2887:2903   */\n  add\n    /* \"#utility.yul\":2884:2909   */\n  gt\n    /* \"#utility.yul\":2881:2993   */\n  iszero\n  tag_109\n  jumpi\n    /* \"#utility.yul\":2912:2991   */\n  tag_110\n  tag_36\n  jump\t// in\ntag_110:\n    /* \"#utility.yul\":2881:2993   */\ntag_109:\n    /* \"#utility.yul\":3002:3054   */\n  tag_111\n    /* \"#utility.yul\":3047:3053   */\n  dup5\n    /* \"#utility.yul\":3042:3045   */\n  dup3\n    /* \"#utility.yul\":3037:3040   */\n  dup6\n    /* \"#utility.yul\":3002:3054   */\n  tag_42\n  jump\t// in\ntag_111:\n    /* \"#utility.yul\":2721:3060   */\n  pop\n    /* \"#utility.yul\":2626:3060   */\n  swap4\n  swap3\n  pop\n  pop\n  pop\n  jump\t// out\n    /* \"#utility.yul\":3080:3435   */\ntag_44:\n    /* \"#utility.yul\":3147:3152   */\n  0x00\n    /* \"#utility.yul\":3196:3199   */\n  dup3\n    /* \"#utility.yul\":3189:3193   */\n  0x1f\n    /* \"#utility.yul\":3181:3187   */\n  dup4\n    /* \"#utility.yul\":3177:3194   */\n  add\n    /* \"#utility.yul\":3173:3200   */\n  slt\n    /* \"#utility.yul\":3163:3285   */\n  tag_113\n  jumpi\n    /* \"#utility.yul\":3204:3283   */\n  tag_114\n  tag_35\n  jump\t// in\ntag_114:\n    /* \"#utility.yul\":3163:3285   */\ntag_113:\n    /* \"#utility.yul\":3314:3320   */\n  dup2\n    /* \"#utility.yul\":3308:3321   */\n  mload\n    /* \"#utility.yul\":3339:3429   */\n  tag_115\n    /* \"#utility.yul\":3425:3428   */\n  dup5\n    /* \"#utility.yul\":3417:3423   */\n  dup3\n    /* \"#utility.yul\":3410:3414   */\n  0x20\n    /* \"#utility.yul\":3402:3408   */\n  dup7\n    /* \"#utility.yul\":3398:3415   */\n  add\n    /* \"#utility.yul\":3339:3429   */\n  tag_43\n  jump\t// in\ntag_115:\n    /* \"#utility.yul\":3330:3429   */\n  swap2\n  pop\n    /* \"#utility.yul\":3153:3435   */\n  pop\n    /* \"#utility.yul\":3080:3435   */\n  swap3\n  swap2\n  pop\n  pop\n  jump\t// out\n    /* \"#utility.yul\":3441:4591   */\ntag_3:\n    /* \"#utility.yul\":3557:3563   */\n  0x00\n    /* \"#utility.yul\":3565:3571   */\n  0x00\n    /* \"#utility.yul\":3573:3579   */\n  0x00\n    /* \"#utility.yul\":3581:3587   */\n  0x00\n    /* \"#utility.yul\":3589:3595   */\n  0x00\n    /* \"#utility.yul\":3638:3641   */\n  0xa0\n    /* \"#utility.yul\":3626:3635   */\n  dup7\n    /* \"#utility.yul\":3617:3624   */\n  dup9\n    /* \"#utility.yul\":3613:3636   */\n  sub\n    /* \"#utility.yul\":3609:3642   */\n  slt\n    /* \"#utility.yul\":3606:3726   */\n  iszero\n  tag_117\n  jumpi\n    /* \"#utility.yul\":3645:3724   */\n  tag_118\n  tag_26\n  jump\t// in\ntag_118:\n    /* \"#utility.yul\":3606:3726   */\ntag_117:\n    /* \"#utility.yul\":3765:3766   */\n  0x00\n    /* \"#utility.yul\":3790:3854   */\n  tag_119\n    /* \"#utility.yul\":3846:3853   */\n  dup9\n    /* \"#utility.yul\":3837:3843   */\n  dup3\n    /* \"#utility.yul\":3826:3835   */\n  dup10\n    /* \"#utility.yul\":3822:3844   */\n  add\n    /* \"#utility.yul\":3790:3854   */\n  tag_31\n  jump\t// in\ntag_119:\n    /* \"#utility.yul\":3780:3854   */\n  swap6\n  pop\n    /* \"#utility.yul\":3736:3864   */\n  pop\n    /* \"#utility.yul\":3903:3905   */\n  0x20\n    /* \"#utility.yul\":3929:3993   */\n  tag_120\n    /* \"#utility.yul\":3985:3992   */\n  dup9\n    /* \"#utility.yul\":3976:3982   */\n  dup3\n    /* \"#utility.yul\":3965:3974   */\n  dup10\n    /* \"#utility.yul\":3961:3983   */\n  add\n    /* \"#utility.yul\":3929:3993   */\n  tag_34\n  jump\t// in\ntag_120:\n    /* \"#utility.yul\":3919:3993   */\n  swap5\n  pop\n    /* \"#utility.yul\":3874:4003   */\n  pop\n    /* \"#utility.yul\":4042:4044   */\n  0x40\n    /* \"#utility.yul\":4068:4132   */\n  tag_121\n    /* \"#utility.yul\":4124:4131   */\n  dup9\n    /* \"#utility.yul\":4115:4121   */\n  dup3\n    /* \"#utility.yul\":4104:4113   */\n  dup10\n    /* \"#utility.yul\":4100:4122   */\n  add\n    /* \"#utility.yul\":4068:4132   */\n  tag_31\n  jump\t// in\ntag_121:\n    /* \"#utility.yul\":4058:4132   */\n  swap4\n  pop\n    /* \"#utility.yul\":4013:4142   */\n  pop\n    /* \"#utility.yul\":4181:4183   */\n  0x60\n    /* \"#utility.yul\":4207:4271   */\n  tag_122\n    /* \"#utility.yul\":4263:4270   */\n  dup9\n    /* \"#utility.yul\":4254:4260   */\n  dup3\n    /* \"#utility.yul\":4243:4252   */\n  dup10\n    /* \"#utility.yul\":4239:4261   */\n  add\n    /* \"#utility.yul\":4207:4271   */\n  tag_31\n  jump\t// in\ntag_122:\n    /* \"#utility.yul\":4197:4271   */\n  swap3\n  pop\n    /* \"#utility.yul\":4152:4281   */\n  pop\n    /* \"#utility.yul\":4341:4344   */\n  0x80\n    /* \"#utility.yul\":4330:4339   */\n  dup7\n    /* \"#utility.yul\":4326:4345   */\n  add\n    /* \"#utility.yul\":4320:4346   */\n  mload\n    /* \"#utility.yul\":4373:4391   */\n  0xffffffffffffffff\n    /* \"#utility.yul\":4365:4371   */\n  dup2\n    /* \"#utility.yul\":4362:4392   */\n  gt\n    /* \"#utility.yul\":4359:4476   */\n  iszero\n  tag_123\n  jumpi\n    /* \"#utility.yul\":4395:4474   */\n  tag_124\n  tag_27\n  jump\t// in\ntag_124:\n    /* \"#utility.yul\":4359:4476   */\ntag_123:\n    /* \"#utility.yul\":4500:4574   */\n  tag_125\n    /* \"#utility.yul\":4566:4573   */\n  dup9\n    /* \"#utility.yul\":4557:4563   */\n  dup3\n    /* \"#utility.yul\":4546:4555   */\n  dup10\n    /* \"#utility.yul\":4542:4564   */\n  add\n    /* \"#utility.yul\":4500:4574   */\n  tag_44\n  jump\t// in\ntag_125:\n    /* \"#utility.yul\":4490:4574   */\n  swap2\n  pop\n    /* \"#utility.yul\":4291:4584   */\n  pop\n    /* \"#utility.yul\":3441:4591   */\n  swap3\n  swap6\n  pop\n  swap3\n  swap6\n  swap1\n  swap4\n  pop\n  jump\t// out\n    /* \"#utility.yul\":4597:4715   */\ntag_45:\n    /* \"#utility.yul\":4684:4708   */\n  tag_127\n    /* \"#utility.yul\":4702:4707   */\n  dup2\n    /* \"#utility.yul\":4684:4708   */\n  tag_29\n  jump\t// in\ntag_127:\n    /* \"#utility.yul\":4679:4682   */\n  dup3\n    /* \"#utility.yul\":4672:4709   */\n  mstore\n    /* \"#utility.yul\":4597:4715   */\n  pop\n  pop\n  jump\t// out\n    /* \"#utility.yul\":4721:4943   */\ntag_8:\n    /* \"#utility.yul\":4814:4818   */\n  0x00\n    /* \"#utility.yul\":4852:4854   */\n  0x20\n    /* \"#utility.yul\":4841:4850   */\n  dup3\n    /* \"#utility.yul\":4837:4855   */\n  add\n    /* \"#utility.yul\":4829:4855   */\n  swap1\n  pop\n    /* \"#utility.yul\":4865:4936   */\n  tag_129\n    /* \"#utility.yul\":4933:4934   */\n  0x00\n    /* \"#utility.yul\":4922:4931   */\n  dup4\n    /* \"#utility.yul\":4918:4935   */\n  add\n    /* \"#utility.yul\":4909:4915   */\n  dup5\n    /* \"#utility.yul\":4865:4936   */\n  tag_45\n  jump\t// in\ntag_129:\n    /* \"#utility.yul\":4721:4943   */\n  swap3\n  swap2\n  pop\n  pop\n  jump\t// out\n    /* \"#utility.yul\":4949:5281   */\ntag_11:\n    /* \"#utility.yul\":5070:5074   */\n  0x00\n    /* \"#utility.yul\":5108:5110   */\n  0x40\n    /* \"#utility.yul\":5097:5106   */\n  dup3\n    /* \"#utility.yul\":5093:5111   */\n  add\n    /* \"#utility.yul\":5085:5111   */\n  swap1\n  pop\n    /* \"#utility.yul\":5121:5192   */\n  tag_131\n    /* \"#utility.yul\":5189:5190   */\n  0x00\n    /* \"#utility.yul\":5178:5187   */\n  dup4\n    /* \"#utility.yul\":5174:5191   */\n  add\n    /* \"#utility.yul\":5165:5171   */\n  dup6\n    /* \"#utility.yul\":5121:5192   */\n  tag_45\n  jump\t// in\ntag_131:\n    /* \"#utility.yul\":5202:5274   */\n  tag_132\n    /* \"#utility.yul\":5270:5272   */\n  0x20\n    /* \"#utility.yul\":5259:5268   */\n  dup4\n    /* \"#utility.yul\":5255:5273   */\n  add\n    /* \"#utility.yul\":5246:5252   */\n  dup5\n    /* \"#utility.yul\":5202:5274   */\n  tag_45\n  jump\t// in\ntag_132:\n    /* \"#utility.yul\":4949:5281   */\n  swap4\n  swap3\n  pop\n  pop\n  pop\n  jump\t// out\n    /* \"#utility.yul\":5287:5456   */\ntag_46:\n    /* \"#utility.yul\":5371:5382   */\n  0x00\n    /* \"#utility.yul\":5405:5411   */\n  dup3\n    /* \"#utility.yul\":5400:5403   */\n  dup3\n    /* \"#utility.yul\":5393:5412   */\n  mstore\n    /* \"#utility.yul\":5445:5449   */\n  0x20\n    /* \"#utility.yul\":5440:5443   */\n  dup3\n    /* \"#utility.yul\":5436:5450   */\n  add\n    /* \"#utility.yul\":5421:5450   */\n  swap1\n  pop\n    /* \"#utility.yul\":5287:5456   */\n  swap3\n  swap2\n  pop\n  pop\n  jump\t// out\n    /* \"#utility.yul\":5462:5688   */\ntag_47:\n    /* \"#utility.yul\":5602:5636   */\n  0x496e76616c69642043726561746f723a2063616e6e6f74206265207a65726f20\n    /* \"#utility.yul\":5598:5599   */\n  0x00\n    /* \"#utility.yul\":5590:5596   */\n  dup3\n    /* \"#utility.yul\":5586:5600   */\n  add\n    /* \"#utility.yul\":5579:5637   */\n  mstore\n    /* \"#utility.yul\":5671:5680   */\n  0x6164647265737300000000000000000000000000000000000000000000000000\n    /* \"#utility.yul\":5666:5668   */\n  0x20\n    /* \"#utility.yul\":5658:5664   */\n  dup3\n    /* \"#utility.yul\":5654:5669   */\n  add\n    /* \"#utility.yul\":5647:5681   */\n  mstore\n    /* \"#utility.yul\":5462:5688   */\n  pop\n  jump\t// out\n    /* \"#utility.yul\":5694:6060   */\ntag_48:\n    /* \"#utility.yul\":5836:5839   */\n  0x00\n    /* \"#utility.yul\":5857:5924   */\n  tag_136\n    /* \"#utility.yul\":5921:5923   */\n  0x27\n    /* \"#utility.yul\":5916:5919   */\n  dup4\n    /* \"#utility.yul\":5857:5924   */\n  tag_46\n  jump\t// in\ntag_136:\n    /* \"#utility.yul\":5850:5924   */\n  swap2\n  pop\n    /* \"#utility.yul\":5933:6026   */\n  tag_137\n    /* \"#utility.yul\":6022:6025   */\n  dup3\n    /* \"#utility.yul\":5933:6026   */\n  tag_47\n  jump\t// in\ntag_137:\n    /* \"#utility.yul\":6051:6053   */\n  0x40\n    /* \"#utility.yul\":6046:6049   */\n  dup3\n    /* \"#utility.yul\":6042:6054   */\n  add\n    /* \"#utility.yul\":6035:6054   */\n  swap1\n  pop\n    /* \"#utility.yul\":5694:6060   */\n  swap2\n  swap1\n  pop\n  jump\t// out\n    /* \"#utility.yul\":6066:6485   */\ntag_14:\n    /* \"#utility.yul\":6232:6236   */\n  0x00\n    /* \"#utility.yul\":6270:6272   */\n  0x20\n    /* \"#utility.yul\":6259:6268   */\n  dup3\n    /* \"#utility.yul\":6255:6273   */\n  add\n    /* \"#utility.yul\":6247:6273   */\n  swap1\n  pop\n    /* \"#utility.yul\":6319:6328   */\n  dup2\n    /* \"#utility.yul\":6313:6317   */\n  dup2\n    /* \"#utility.yul\":6309:6329   */\n  sub\n    /* \"#utility.yul\":6305:6306   */\n  0x00\n    /* \"#utility.yul\":6294:6303   */\n  dup4\n    /* \"#utility.yul\":6290:6307   */\n  add\n    /* \"#utility.yul\":6283:6330   */\n  mstore\n    /* \"#utility.yul\":6347:6478   */\n  tag_139\n    /* \"#utility.yul\":6473:6477   */\n  dup2\n    /* \"#utility.yul\":6347:6478   */\n  tag_48\n  jump\t// in\ntag_139:\n    /* \"#utility.yul\":6339:6478   */\n  swap1\n  pop\n    /* \"#utility.yul\":6066:6485   */\n  swap2\n  swap1\n  pop\n  jump\t// out\n    /* \"#utility.yul\":6491:6717   */\ntag_49:\n    /* \"#utility.yul\":6631:6665   */\n  0x496e76616c69642065766964656e63652049443a2049442063616e6e6f742062\n    /* \"#utility.yul\":6627:6628   */\n  0x00\n    /* \"#utility.yul\":6619:6625   */\n  dup3\n    /* \"#utility.yul\":6615:6629   */\n  add\n    /* \"#utility.yul\":6608:6666   */\n  mstore\n    /* \"#utility.yul\":6700:6709   */\n  0x6520656d70747900000000000000000000000000000000000000000000000000\n    /* \"#utility.yul\":6695:6697   */\n  0x20\n    /* \"#utility.yul\":6687:6693   */\n  dup3\n    /* \"#utility.yul\":6683:6698   */\n  add\n    /* \"#utility.yul\":6676:6710   */\n  mstore\n    /* \"#utility.yul\":6491:6717   */\n  pop\n  jump\t// out\n    /* \"#utility.yul\":6723:7089   */\ntag_50:\n    /* \"#utility.yul\":6865:6868   */\n  0x00\n    /* \"#utility.yul\":6886:6953   */\n  tag_142\n    /* \"#utility.yul\":6950:6952   */\n  0x27\n    /* \"#utility.yul\":6945:6948   */\n  dup4\n    /* \"#utility.yul\":6886:6953   */\n  tag_46\n  jump\t// in\ntag_142:\n    /* \"#utility.yul\":6879:6953   */\n  swap2\n  pop\n    /* \"#utility.yul\":6962:7055   */\n  tag_143\n    /* \"#utility.yul\":7051:7054   */\n  dup3\n    /* \"#utility.yul\":6962:7055   */\n  tag_49\n  jump\t// in\ntag_143:\n    /* \"#utility.yul\":7080:7082   */\n  0x40\n    /* \"#utility.yul\":7075:7078   */\n  dup3\n    /* \"#utility.yul\":7071:7083   */\n  add\n    /* \"#utility.yul\":7064:7083   */\n  swap1\n  pop\n    /* \"#utility.yul\":6723:7089   */\n  swap2\n  swap1\n  pop\n  jump\t// out\n    /* \"#utility.yul\":7095:7514   */\ntag_17:\n    /* \"#utility.yul\":7261:7265   */\n  0x00\n    /* \"#utility.yul\":7299:7301   */\n  0x20\n    /* \"#utility.yul\":7288:7297   */\n  dup3\n    /* \"#utility.yul\":7284:7302   */\n  add\n    /* \"#utility.yul\":7276:7302   */\n  swap1\n  pop\n    /* \"#utility.yul\":7348:7357   */\n  dup2\n    /* \"#utility.yul\":7342:7346   */\n  dup2\n    /* \"#utility.yul\":7338:7358   */\n  sub\n    /* \"#utility.yul\":7334:7335   */\n  0x00\n    /* \"#utility.yul\":7323:7332   */\n  dup4\n    /* \"#utility.yul\":7319:7336   */\n  add\n    /* \"#utility.yul\":7312:7359   */\n  mstore\n    /* \"#utility.yul\":7376:7507   */\n  tag_145\n    /* \"#utility.yul\":7502:7506   */\n  dup2\n    /* \"#utility.yul\":7376:7507   */\n  tag_50\n  jump\t// in\ntag_145:\n    /* \"#utility.yul\":7368:7507   */\n  swap1\n  pop\n    /* \"#utility.yul\":7095:7514   */\n  swap2\n  swap1\n  pop\n  jump\t// out\n    /* \"#utility.yul\":7520:7755   */\ntag_51:\n    /* \"#utility.yul\":7660:7694   */\n  0x496e76616c6964206465736372697074696f6e3a206465736372697074696f6e\n    /* \"#utility.yul\":7656:7657   */\n  0x00\n    /* \"#utility.yul\":7648:7654   */\n  dup3\n    /* \"#utility.yul\":7644:7658   */\n  add\n    /* \"#utility.yul\":7637:7695   */\n  mstore\n    /* \"#utility.yul\":7729:7747   */\n  0x2063616e6e6f7420626520656d70747900000000000000000000000000000000\n    /* \"#utility.yul\":7724:7726   */\n  0x20\n    /* \"#utility.yul\":7716:7722   */\n  dup3\n    /* \"#utility.yul\":7712:7727   */\n  add\n    /* \"#utility.yul\":7705:7748   */\n  mstore\n    /* \"#utility.yul\":7520:7755   */\n  pop\n  jump\t// out\n    /* \"#utility.yul\":7761:8127   */\ntag_52:\n    /* \"#utility.yul\":7903:7906   */\n  0x00\n    /* \"#utility.yul\":7924:7991   */\n  tag_148\n    /* \"#utility.yul\":7988:7990   */\n  0x30\n    /* \"#utility.yul\":7983:7986   */\n  dup4\n    /* \"#utility.yul\":7924:7991   */\n  tag_46\n  jump\t// in\ntag_148:\n    /* \"#utility.yul\":7917:7991   */\n  swap2\n  pop\n    /* \"#utility.yul\":8000:8093   */\n  tag_149\n    /* \"#utility.yul\":8089:8092   */\n  dup3\n    /* \"#utility.yul\":8000:8093   */\n  tag_51\n  jump\t// in\ntag_149:\n    /* \"#utility.yul\":8118:8120   */\n  0x40\n    /* \"#utility.yul\":8113:8116   */\n  dup3\n    /* \"#utility.yul\":8109:8121   */\n  add\n    /* \"#utility.yul\":8102:8121   */\n  swap1\n  pop\n    /* \"#utility.yul\":7761:8127   */\n  swap2\n  swap1\n  pop\n  jump\t// out\n    /* \"#utility.yul\":8133:8552   */\ntag_20:\n    /* \"#utility.yul\":8299:8303   */\n  0x00\n    /* \"#utility.yul\":8337:8339   */\n  0x20\n    /* \"#utility.yul\":8326:8335   */\n  dup3\n    /* \"#utility.yul\":8322:8340   */\n  add\n    /* \"#utility.yul\":8314:8340   */\n  swap1\n  pop\n    /* \"#utility.yul\":8386:8395   */\n  dup2\n    /* \"#utility.yul\":8380:8384   */\n  dup2\n    /* \"#utility.yul\":8376:8396   */\n  sub\n    /* \"#utility.yul\":8372:8373   */\n  0x00\n    /* \"#utility.yul\":8361:8370   */\n  dup4\n    /* \"#utility.yul\":8357:8374   */\n  add\n    /* \"#utility.yul\":8350:8397   */\n  mstore\n    /* \"#utility.yul\":8414:8545   */\n  tag_151\n    /* \"#utility.yul\":8540:8544   */\n  dup2\n    /* \"#utility.yul\":8414:8545   */\n  tag_52\n  jump\t// in\ntag_151:\n    /* \"#utility.yul\":8406:8545   */\n  swap1\n  pop\n    /* \"#utility.yul\":8133:8552   */\n  swap2\n  swap1\n  pop\n  jump\t// out\n    /* \"#utility.yul\":8558:8657   */\ntag_53:\n    /* \"#utility.yul\":8610:8616   */\n  0x00\n    /* \"#utility.yul\":8644:8649   */\n  dup2\n    /* \"#utility.yul\":8638:8650   */\n  mload\n    /* \"#utility.yul\":8628:8650   */\n  swap1\n  pop\n    /* \"#utility.yul\":8558:8657   */\n  swap2\n  swap1\n  pop\n  jump\t// out\n    /* \"#utility.yul\":8663:8843   */\ntag_54:\n    /* \"#utility.yul\":8711:8788   */\n  0x4e487b7100000000000000000000000000000000000000000000000000000000\n    /* \"#utility.yul\":8708:8709   */\n  0x00\n    /* \"#utility.yul\":8701:8789   */\n  mstore\n    /* \"#utility.yul\":8808:8812   */\n  0x22\n    /* \"#utility.yul\":8805:8806   */\n  0x04\n    /* \"#utility.yul\":8798:8813   */\n  mstore\n    /* \"#utility.yul\":8832:8836   */\n  0x24\n    /* \"#utility.yul\":8829:8830   */\n  0x00\n    /* \"#utility.yul\":8822:8837   */\n  revert\n    /* \"#utility.yul\":8849:9169   */\ntag_55:\n    /* \"#utility.yul\":8893:8899   */\n  0x00\n    /* \"#utility.yul\":8930:8931   */\n  0x02\n    /* \"#utility.yul\":8924:8928   */\n  dup3\n    /* \"#utility.yul\":8920:8932   */\n  div\n    /* \"#utility.yul\":8910:8932   */\n  swap1\n  pop\n    /* \"#utility.yul\":8977:8978   */\n  0x01\n    /* \"#utility.yul\":8971:8975   */\n  dup3\n    /* \"#utility.yul\":8967:8979   */\n  and\n    /* \"#utility.yul\":8998:9016   */\n  dup1\n    /* \"#utility.yul\":8988:9069   */\n  tag_155\n  jumpi\n    /* \"#utility.yul\":9054:9058   */\n  0x7f\n    /* \"#utility.yul\":9046:9052   */\n  dup3\n    /* \"#utility.yul\":9042:9059   */\n  and\n    /* \"#utility.yul\":9032:9059   */\n  swap2\n  pop\n    /* \"#utility.yul\":8988:9069   */\ntag_155:\n    /* \"#utility.yul\":9116:9118   */\n  0x20\n    /* \"#utility.yul\":9108:9114   */\n  dup3\n    /* \"#utility.yul\":9105:9119   */\n  lt\n    /* \"#utility.yul\":9085:9103   */\n  dup2\n    /* \"#utility.yul\":9082:9120   */\n  sub\n    /* \"#utility.yul\":9079:9163   */\n  tag_156\n  jumpi\n    /* \"#utility.yul\":9135:9153   */\n  tag_157\n  tag_54\n  jump\t// in\ntag_157:\n    /* \"#utility.yul\":9079:9163   */\ntag_156:\n    /* \"#utility.yul\":8900:9169   */\n  pop\n    /* \"#utility.yul\":8849:9169   */\n  swap2\n  swap1\n  pop\n  jump\t// out\n    /* \"#utility.yul\":9175:9316   */\ntag_56:\n    /* \"#utility.yul\":9224:9228   */\n  0x00\n    /* \"#utility.yul\":9247:9250   */\n  dup2\n    /* \"#utility.yul\":9239:9250   */\n  swap1\n  pop\n    /* \"#utility.yul\":9270:9273   */\n  dup2\n    /* \"#utility.yul\":9267:9268   */\n  0x00\n    /* \"#utility.yul\":9260:9274   */\n  mstore\n    /* \"#utility.yul\":9304:9308   */\n  0x20\n    /* \"#utility.yul\":9301:9302   */\n  0x00\n    /* \"#utility.yul\":9291:9309   */\n  keccak256\n    /* \"#utility.yul\":9283:9309   */\n  swap1\n  pop\n    /* \"#utility.yul\":9175:9316   */\n  swap2\n  swap1\n  pop\n  jump\t// out\n    /* \"#utility.yul\":9322:9415   */\ntag_57:\n    /* \"#utility.yul\":9359:9365   */\n  0x00\n    /* \"#utility.yul\":9406:9408   */\n  0x20\n    /* \"#utility.yul\":9401:9403   */\n  0x1f\n    /* \"#utility.yul\":9394:9399   */\n  dup4\n    /* \"#utility.yul\":9390:9404   */\n  add\n    /* \"#utility.yul\":9386:9409   */\n  div\n    /* \"#utility.yul\":9376:9409   */\n  swap1\n  pop\n    /* \"#utility.yul\":9322:9415   */\n  swap2\n  swap1\n  pop\n  jump\t// out\n    /* \"#utility.yul\":9421:9528   */\ntag_58:\n    /* \"#utility.yul\":9465:9473   */\n  0x00\n    /* \"#utility.yul\":9515:9520   */\n  dup3\n    /* \"#utility.yul\":9509:9513   */\n  dup3\n    /* \"#utility.yul\":9505:9521   */\n  shl\n    /* \"#utility.yul\":9484:9521   */\n  swap1\n  pop\n    /* \"#utility.yul\":9421:9528   */\n  swap3\n  swap2\n  pop\n  pop\n  jump\t// out\n    /* \"#utility.yul\":9534:9927   */\ntag_59:\n    /* \"#utility.yul\":9603:9609   */\n  0x00\n    /* \"#utility.yul\":9653:9654   */\n  0x08\n    /* \"#utility.yul\":9641:9651   */\n  dup4\n    /* \"#utility.yul\":9637:9655   */\n  mul\n    /* \"#utility.yul\":9676:9773   */\n  tag_162\n    /* \"#utility.yul\":9706:9772   */\n  0xffffffffffffffffffffffffffffffffffffffffffffffffffffffffffffffff\n    /* \"#utility.yul\":9695:9704   */\n  dup3\n    /* \"#utility.yul\":9676:9773   */\n  tag_58\n  jump\t// in\ntag_162:\n    /* \"#utility.yul\":9794:9833   */\n  tag_163\n    /* \"#utility.yul\":9824:9832   */\n  dup7\n    /* \"#utility.yul\":9813:9822   */\n  dup4\n    /* \"#utility.yul\":9794:9833   */\n  tag_58\n  jump\t// in\ntag_163:\n    /* \"#utility.yul\":9782:9833   */\n  swap6\n  pop\n    /* \"#utility.yul\":9866:9870   */\n  dup1\n    /* \"#utility.yul\":9862:9871   */\n  not\n    /* \"#utility.yul\":9855:9860   */\n  dup5\n    /* \"#utility.yul\":9851:9872   */\n  and\n    /* \"#utility.yul\":9842:9872   */\n  swap4\n  pop\n    /* \"#utility.yul\":9915:9919   */\n  dup1\n    /* \"#utility.yul\":9905:9913   */\n  dup7\n    /* \"#utility.yul\":9901:9920   */\n  and\n    /* \"#utility.yul\":9894:9899   */\n  dup5\n    /* \"#utility.yul\":9891:9921   */\n  or\n    /* \"#utility.yul\":9881:9921   */\n  swap3\n  pop\n    /* \"#utility.yul\":9610:9927   */\n  pop\n  pop\n    /* \"#utility.yul\":9534:9927   */\n  swap4\n  swap3\n  pop\n  pop\n  pop\n  jump\t// out\n    /* \"#utility.yul\":9933:10010   */\ntag_60:\n    /* \"#utility.yul\":9970:9977   */\n  0x00\n    /* \"#utility.yul\":9999:10004   */\n  dup2\n    /* \"#utility.yul\":9988:10004   */\n  swap1\n  pop\n    /* \"#utility.yul\":9933:10010   */\n  swap2\n  swap1\n  pop\n  jump\t// out\n    /* \"#utility.yul\":10016:10076   */\ntag_61:\n    /* \"#utility.yul\":10044:10047   */\n  0x00\n    /* \"#utility.yul\":10065:10070   */\n  dup2\n    /* \"#utility.yul\":10058:10070   */\n  swap1\n  pop\n    /* \"#utility.yul\":10016:10076   */\n  swap2\n  swap1\n  pop\n  jump\t// out\n    /* \"#utility.yul\":10082:10224   */\ntag_62:\n    /* \"#utility.yul\":10132:10141   */\n  0x00\n    /* \"#utility.yul\":10165:10218   */\n  tag_167\n    /* \"#utility.yul\":10183:10217   */\n  tag_168\n    /* \"#utility.yul\":10192:10216   */\n  tag_169\n    /* \"#utility.yul\":10210:10215   */\n  dup5\n    /* \"#utility.yul\":10192:10216   */\n  tag_60\n  jump\t// in\ntag_169:\n    /* \"#utility.yul\":10183:10217   */\n  tag_61\n  jump\t// in\ntag_168:\n    /* \"#utility.yul\":10165:10218   */\n  tag_60\n  jump\t// in\ntag_167:\n    /* \"#utility.yul\":10152:10218   */\n  swap1\n  pop\n    /* \"#utility.yul\":10082:10224   */\n  swap2\n  swap1\n  pop\n  jump\t// out\n    /* \"#utility.yul\":10230:10305   */\ntag_63:\n    /* \"#utility.yul\":10273:10276   */\n  0x00\n    /* \"#utility.yul\":10294:10299   */\n  dup2\n    /* \"#utility.yul\":10287:10299   */\n  swap1\n  pop\n    /* \"#utility.yul\":10230:10305   */\n  swap2\n  swap1\n  pop\n  jump\t// out\n    /* \"#utility.yul\":10311:10580   */\ntag_64:\n    /* \"#utility.yul\":10421:10460   */\n  tag_172\n    /* \"#utility.yul\":10452:10459   */\n  dup4\n    /* \"#utility.yul\":10421:10460   */\n  tag_62\n  jump\t// in\ntag_172:\n    /* \"#utility.yul\":10482:10573   */\n  tag_173\n    /* \"#utility.yul\":10531:10572   */\n  tag_174\n    /* \"#utility.yul\":10555:10571   */\n  dup3\n    /* \"#utility.yul\":10531:10572   */\n  tag_63\n  jump\t// in\ntag_174:\n    /* \"#utility.yul\":10523:10529   */\n  dup5\n    /* \"#utility.yul\":10516:10520   */\n  dup5\n    /* \"#utility.yul\":10510:10521   */\n  sload\n    /* \"#utility.yul\":10482:10573   */\n  tag_59\n  jump\t// in\ntag_173:\n    /* \"#utility.yul\":10476:10480   */\n  dup3\n    /* \"#utility.yul\":10469:10574   */\n  sstore\n    /* \"#utility.yul\":10387:10580   */\n  pop\n    /* \"#utility.yul\":10311:10580   */\n  pop\n  pop\n  pop\n  jump\t// out\n    /* \"#utility.yul\":10586:10659   */\ntag_65:\n    /* \"#utility.yul\":10631:10634   */\n  0x00\n    /* \"#utility.yul\":10652:10653   */\n  0x00\n    /* \"#utility.yul\":10645:10653   */\n  swap1\n  pop\n    /* \"#utility.yul\":10586:10659   */\n  swap1\n  jump\t// out\n    /* \"#utility.yul\":10665:10854   */\ntag_66:\n    /* \"#utility.yul\":10742:10774   */\n  tag_177\n  tag_65\n  jump\t// in\ntag_177:\n    /* \"#utility.yul\":10783:10848   */\n  tag_178\n    /* \"#utility.yul\":10841:10847   */\n  dup2\n    /* \"#utility.yul\":10833:10839   */\n  dup5\n    /* \"#utility.yul\":10827:10831   */\n  dup5\n    /* \"#utility.yul\":10783:10848   */\n  tag_64\n  jump\t// in\ntag_178:\n    /* \"#utility.yul\":10718:10854   */\n  pop\n    /* \"#utility.yul\":10665:10854   */\n  pop\n  pop\n  jump\t// out\n    /* \"#utility.yul\":10860:11046   */\ntag_67:\n    /* \"#utility.yul\":10920:11040   */\ntag_180:\n    /* \"#utility.yul\":10937:10940   */\n  dup2\n    /* \"#utility.yul\":10930:10935   */\n  dup2\n    /* \"#utility.yul\":10927:10941   */\n  lt\n    /* \"#utility.yul\":10920:11040   */\n  iszero\n  tag_182\n  jumpi\n    /* \"#utility.yul\":10991:11030   */\n  tag_183\n    /* \"#utility.yul\":11028:11029   */\n  0x00\n    /* \"#utility.yul\":11021:11026   */\n  dup3\n    /* \"#utility.yul\":10991:11030   */\n  tag_66\n  jump\t// in\ntag_183:\n    /* \"#utility.yul\":10964:10965   */\n  0x01\n    /* \"#utility.yul\":10957:10962   */\n  dup2\n    /* \"#utility.yul\":10953:10966   */\n  add\n    /* \"#utility.yul\":10944:10966   */\n  swap1\n  pop\n    /* \"#utility.yul\":10920:11040   */\n  jump(tag_180)\ntag_182:\n    /* \"#utility.yul\":10860:11046   */\n  pop\n  pop\n  jump\t// out\n    /* \"#utility.yul\":11052:11595   */\ntag_68:\n    /* \"#utility.yul\":11153:11155   */\n  0x1f\n    /* \"#utility.yul\":11148:11151   */\n  dup3\n    /* \"#utility.yul\":11145:11156   */\n  gt\n    /* \"#utility.yul\":11142:11588   */\n  iszero\n  tag_185\n  jumpi\n    /* \"#utility.yul\":11187:11225   */\n  tag_186\n    /* \"#utility.yul\":11219:11224   */\n  dup2\n    /* \"#utility.yul\":11187:11225   */\n  tag_56\n  jump\t// in\ntag_186:\n    /* \"#utility.yul\":11271:11300   */\n  tag_187\n    /* \"#utility.yul\":11289:11299   */\n  dup5\n    /* \"#utility.yul\":11271:11300   */\n  tag_57\n  jump\t// in\ntag_187:\n    /* \"#utility.yul\":11261:11269   */\n  dup2\n    /* \"#utility.yul\":11257:11301   */\n  add\n    /* \"#utility.yul\":11454:11456   */\n  0x20\n    /* \"#utility.yul\":11442:11452   */\n  dup6\n    /* \"#utility.yul\":11439:11457   */\n  lt\n    /* \"#utility.yul\":11436:11485   */\n  iszero\n  tag_188\n  jumpi\n    /* \"#utility.yul\":11475:11483   */\n  dup2\n    /* \"#utility.yul\":11460:11483   */\n  swap1\n  pop\n    /* \"#utility.yul\":11436:11485   */\ntag_188:\n    /* \"#utility.yul\":11498:11578   */\n  tag_189\n    /* \"#utility.yul\":11554:11576   */\n  tag_190\n    /* \"#utility.yul\":11572:11575   */\n  dup6\n    /* \"#utility.yul\":11554:11576   */\n  tag_57\n  jump\t// in\ntag_190:\n    /* \"#utility.yul\":11544:11552   */\n  dup4\n    /* \"#utility.yul\":11540:11577   */\n  add\n    /* \"#utility.yul\":11527:11538   */\n  dup3\n    /* \"#utility.yul\":11498:11578   */\n  tag_67\n  jump\t// in\ntag_189:\n    /* \"#utility.yul\":11157:11588   */\n  pop\n  pop\n    /* \"#utility.yul\":11142:11588   */\ntag_185:\n    /* \"#utility.yul\":11052:11595   */\n  pop\n  pop\n  pop\n  jump\t// out\n    /* \"#utility.yul\":11601:11718   */\ntag_69:\n    /* \"#utility.yul\":11655:11663   */\n  0x00\n    /* \"#utility.yul\":11705:11710   */\n  dup3\n    /* \"#utility.yul\":11699:11703   */\n  dup3\n    /* \"#utility.yul\":11695:11711   */\n  shr\n    /* \"#utility.yul\":11674:11711   */\n  swap1\n  pop\n    /* \"#utility.yul\":11601:11718   */\n  swap3\n  swap2\n  pop\n  pop\n  jump\t// out\n    /* \"#utility.yul\":11724:11893   */\ntag_70:\n    /* \"#utility.yul\":11768:11774   */\n  0x00\n    /* \"#utility.yul\":11801:11852   */\n  tag_193\n    /* \"#utility.yul\":11849:11850   */\n  0x00\n    /* \"#utility.yul\":11845:11851   */\n  not\n    /* \"#utility.yul\":11837:11842   */\n  dup5\n    /* \"#utility.yul\":11834:11835   */\n  0x08\n    /* \"#utility.yul\":11830:11843   */\n  mul\n    /* \"#utility.yul\":11801:11852   */\n  tag_69\n  jump\t// in\ntag_193:\n    /* \"#utility.yul\":11797:11853   */\n  not\n    /* \"#utility.yul\":11882:11886   */\n  dup1\n    /* \"#utility.yul\":11876:11880   */\n  dup4\n    /* \"#utility.yul\":11872:11887   */\n  and\n    /* \"#utility.yul\":11862:11887   */\n  swap2\n  pop\n    /* \"#utility.yul\":11775:11893   */\n  pop\n    /* \"#utility.yul\":11724:11893   */\n  swap3\n  swap2\n  pop\n  pop\n  jump\t// out\n    /* \"#utility.yul\":11898:12193   */\ntag_71:\n    /* \"#utility.yul\":11974:11978   */\n  0x00\n    /* \"#utility.yul\":12120:12149   */\n  tag_195\n    /* \"#utility.yul\":12145:12148   */\n  dup4\n    /* \"#utility.yul\":12139:12143   */\n  dup4\n    /* \"#utility.yul\":12120:12149   */\n  tag_70\n  jump\t// in\ntag_195:\n    /* \"#utility.yul\":12112:12149   */\n  swap2\n  pop\n    /* \"#utility.yul\":12182:12185   */\n  dup3\n    /* \"#utility.yul\":12179:12180   */\n  0x02\n    /* \"#utility.yul\":12175:12186   */\n  mul\n    /* \"#utility.yul\":12169:12173   */\n  dup3\n    /* \"#utility.yul\":12166:12187   */\n  or\n    /* \"#utility.yul\":12158:12187   */\n  swap1\n  pop\n    /* \"#utility.yul\":11898:12193   */\n  swap3\n  swap2\n  pop\n  pop\n  jump\t// out\n    /* \"#utility.yul\":12198:13593   */\ntag_23:\n    /* \"#utility.yul\":12315:12352   */\n  tag_197\n    /* \"#utility.yul\":12348:12351   */\n  dup3\n    /* \"#utility.yul\":12315:12352   */\n  tag_53\n  jump\t// in\ntag_197:\n    /* \"#utility.yul\":12417:12435   */\n  0xffffffffffffffff\n    /* \"#utility.yul\":12409:12415   */\n  dup2\n    /* \"#utility.yul\":12406:12436   */\n  gt\n    /* \"#utility.yul\":12403:12459   */\n  iszero\n  tag_198\n  jumpi\n    /* \"#utility.yul\":12439:12457   */\n  tag_199\n  tag_38\n  jump\t// in\ntag_199:\n    /* \"#utility.yul\":12403:12459   */\ntag_198:\n    /* \"#utility.yul\":12483:12521   */\n  tag_200\n    /* \"#utility.yul\":12515:12519   */\n  dup3\n    /* \"#utility.yul\":12509:12520   */\n  sload\n    /* \"#utility.yul\":12483:12521   */\n  tag_55\n  jump\t// in\ntag_200:\n    /* \"#utility.yul\":12568:12635   */\n  tag_201\n    /* \"#utility.yul\":12628:12634   */\n  dup3\n    /* \"#utility.yul\":12620:12626   */\n  dup3\n    /* \"#utility.yul\":12614:12618   */\n  dup6\n    /* \"#utility.yul\":12568:12635   */\n  tag_68\n  jump\t// in\ntag_201:\n    /* \"#utility.yul\":12662:12663   */\n  0x00\n    /* \"#utility.yul\":12686:12690   */\n  0x20\n    /* \"#utility.yul\":12673:12690   */\n  swap1\n  pop\n    /* \"#utility.yul\":12718:12720   */\n  0x1f\n    /* \"#utility.yul\":12710:12716   */\n  dup4\n    /* \"#utility.yul\":12707:12721   */\n  gt\n    /* \"#utility.yul\":12735:12736   */\n  0x01\n    /* \"#utility.yul\":12730:13348   */\n  dup2\n  eq\n  tag_203\n  jumpi\n    /* \"#utility.yul\":13392:13393   */\n  0x00\n    /* \"#utility.yul\":13409:13415   */\n  dup5\n    /* \"#utility.yul\":13406:13483   */\n  iszero\n  tag_204\n  jumpi\n    /* \"#utility.yul\":13458:13467   */\n  dup3\n    /* \"#utility.yul\":13453:13456   */\n  dup8\n    /* \"#utility.yul\":13449:13468   */\n  add\n    /* \"#utility.yul\":13443:13469   */\n  mload\n    /* \"#utility.yul\":13434:13469   */\n  swap1\n  pop\n    /* \"#utility.yul\":13406:13483   */\ntag_204:\n    /* \"#utility.yul\":13509:13576   */\n  tag_205\n    /* \"#utility.yul\":13569:13575   */\n  dup6\n    /* \"#utility.yul\":13562:13567   */\n  dup3\n    /* \"#utility.yul\":13509:13576   */\n  tag_71\n  jump\t// in\ntag_205:\n    /* \"#utility.yul\":13503:13507   */\n  dup7\n    /* \"#utility.yul\":13496:13577   */\n  sstore\n    /* \"#utility.yul\":13365:13587   */\n  pop\n    /* \"#utility.yul\":12700:13587   */\n  jump(tag_202)\n    /* \"#utility.yul\":12730:13348   */\ntag_203:\n    /* \"#utility.yul\":12782:12786   */\n  0x1f\n    /* \"#utility.yul\":12778:12787   */\n  not\n    /* \"#utility.yul\":12770:12776   */\n  dup5\n    /* \"#utility.yul\":12766:12788   */\n  and\n    /* \"#utility.yul\":12816:12853   */\n  tag_206\n    /* \"#utility.yul\":12848:12852   */\n  dup7\n    /* \"#utility.yul\":12816:12853   */\n  tag_56\n  jump\t// in\ntag_206:\n    /* \"#utility.yul\":12875:12876   */\n  0x00\n    /* \"#utility.yul\":12889:13097   */\ntag_207:\n    /* \"#utility.yul\":12903:12910   */\n  dup3\n    /* \"#utility.yul\":12900:12901   */\n  dup2\n    /* \"#utility.yul\":12897:12911   */\n  lt\n    /* \"#utility.yul\":12889:13097   */\n  iszero\n  tag_209\n  jumpi\n    /* \"#utility.yul\":12982:12991   */\n  dup5\n    /* \"#utility.yul\":12977:12980   */\n  dup10\n    /* \"#utility.yul\":12973:12992   */\n  add\n    /* \"#utility.yul\":12967:12993   */\n  mload\n    /* \"#utility.yul\":12959:12965   */\n  dup3\n    /* \"#utility.yul\":12952:12994   */\n  sstore\n    /* \"#utility.yul\":13033:13034   */\n  0x01\n    /* \"#utility.yul\":13025:13031   */\n  dup3\n    /* \"#utility.yul\":13021:13035   */\n  add\n    /* \"#utility.yul\":13011:13035   */\n  swap2\n  pop\n    /* \"#utility.yul\":13080:13082   */\n  0x20\n    /* \"#utility.yul\":13069:13078   */\n  dup6\n    /* \"#utility.yul\":13065:13083   */\n  add\n    /* \"#utility.yul\":13052:13083   */\n  swap5\n  pop\n    /* \"#utility.yul\":12926:12930   */\n  0x20\n    /* \"#utility.yul\":12923:12924   */\n  dup2\n    /* \"#utility.yul\":12919:12931   */\n  add\n    /* \"#utility.yul\":12914:12931   */\n  swap1\n  pop\n    /* \"#utility.yul\":12889:13097   */\n  jump(tag_207)\ntag_209:\n    /* \"#utility.yul\":13125:13131   */\n  dup7\n    /* \"#utility.yul\":13116:13123   */\n  dup4\n    /* \"#utility.yul\":13113:13132   */\n  lt\n    /* \"#utility.yul\":13110:13289   */\n  iszero\n  tag_210\n  jumpi\n    /* \"#utility.yul\":13183:13192   */\n  dup5\n    /* \"#utility.yul\":13178:13181   */\n  dup10\n    /* \"#utility.yul\":13174:13193   */\n  add\n    /* \"#utility.yul\":13168:13194   */\n  mload\n    /* \"#utility.yul\":13226:13274   */\n  tag_211\n    /* \"#utility.yul\":13268:13272   */\n  0x1f\n    /* \"#utility.yul\":13260:13266   */\n  dup10\n    /* \"#utility.yul\":13256:13273   */\n  and\n    /* \"#utility.yul\":13245:13254   */\n  dup3\n    /* \"#utility.yul\":13226:13274   */\n  tag_70\n  jump\t// in\ntag_211:\n    /* \"#utility.yul\":13218:13224   */\n  dup4\n    /* \"#utility.yul\":13211:13275   */\n  sstore\n    /* \"#utility.yul\":13133:13289   */\n  pop\n    /* \"#utility.yul\":13110:13289   */\ntag_210:\n    /* \"#utility.yul\":13335:13336   */\n  0x01\n    /* \"#utility.yul\":13331:13332   */\n  0x02\n    /* \"#utility.yul\":13323:13329   */\n  dup9\n    /* \"#utility.yul\":13319:13333   */\n  mul\n    /* \"#utility.yul\":13315:13337   */\n  add\n    /* \"#utility.yul\":13309:13313   */\n  dup9\n    /* \"#utility.yul\":13302:13338   */\n  sstore\n    /* \"#utility.yul\":12737:13348   */\n  pop\n  pop\n  pop\n    /* \"#utility.yul\":12700:13587   */\ntag_202:\n  pop\n    /* \"#utility.yul\":12290:13593   */\n  pop\n  pop\n  pop\n    /* \"#utility.yul\":12198:13593   */\n  pop\n  pop\n  jump\t// out\n    /* \"src/ChainOfCustody.sol\":346:3995  contract Evidence {... */\ntag_24:\n  mload(0x80)\n  mload(0xa0)\n  mload(0xc0)\n  codecopy(0x00, dataOffset(sub_0), dataSize(sub_0))\n  0x00\n  assignImmutable(\"0x6585423cb6456b1d4957f6454d2f004f0c4f58d53a00082412d5c2ef4b1b31fd\")\n  0x00\n  assignImmutable(\"0xd4d1a59767271eefdc7830a772b9732a11d503531d972ab8c981a6b1c0e666e5\")\n  0x00\n  assignImmutable(\"0x731dc163f73d31d8c68f9917ce4ff967753939f70432973c04fd2c2a48148607\")\n  return(0x00, dataSize(sub_0))\nstop\n\nsub_0: assembly {\n        /* \"src/ChainOfCustody.sol\":346:3995  contract Evidence {... */\n      mstore(0x40, 0x80)\n      callvalue\n      dup1\n      iszero\n      tag_1\n      jumpi\n      revert(0x00, 0x00)\n    tag_1:\n      pop\n      jumpi(tag_2, lt(calldatasize, 0x04))\n      shr(0xe0, calldataload(0x00))\n      dup1\n      0x85ac2865\n      gt\n      tag_11\n      jumpi\n      dup1\n      0x85ac2865\n      eq\n      tag_7\n      jumpi\n      dup1\n      0x9e91bc54\n      eq\n      tag_8\n      jumpi\n      dup1\n      0xa18a186b\n      eq\n      tag_9\n      jumpi\n      dup1\n      0xf2fde38b\n      eq\n      tag_10\n      jumpi\n      jump(tag_2)\n    tag_11:\n      dup1\n      0x4efdc623\n      eq\n      tag_3\n      jumpi\n      dup1\n      0x4f7eae94\n      eq\n      tag_4\n      jumpi\n      dup1\n      0x581c49a1\n      eq\n      tag_5\n      jumpi\n      dup1\n      0x7ce7d376\n      eq\n      tag_6\n      jumpi\n    tag_2:\n      revert(0x00, 0x00)\n        /* \"src/ChainOfCustody.sol\":3904:3993  function getEvidenceState() external view returns (bool) {... */\n    tag_3:\n      tag_12\n      tag_13\n      jump\t// in\n    tag_12:\n      mload(0x40)\n      tag_14\n      swap2\n      swap1\n      tag_15\n      jump\t// in\n    tag_14:\n      mload(0x40)\n      dup1\n      swap2\n      sub\n      swap1\n      return\n        /* \"src/ChainOfCustody.sol\":3583:3690  function getEvidenceDescription() external view returns (string memory) {... */\n    tag_4:\n      tag_16\n      tag_17\n      jump\t// in\n    tag_16:\n      mload(0x40)\n      tag_18\n      swap2\n      swap1\n      tag_19\n      jump\t// in\n    tag_18:\n      mload(0x40)\n      dup1\n      swap2\n      sub\n      swap1\n      return\n        /* \"src/ChainOfCustody.sol\":3790:3898  function getChainOfCustody() external view returns (address[] memory) {... */\n    tag_5:\n      tag_20\n      tag_21\n      jump\t// in\n    tag_20:\n      mload(0x40)\n      tag_22\n      swap2\n      swap1\n      tag_23\n      jump\t// in\n    tag_22:\n      mload(0x40)\n      dup1\n      swap2\n      sub\n      swap1\n      return\n        /* \"src/ChainOfCustody.sol\":2892:3033  function discontinueEvidence() external onlyIfActive {... */\n    tag_6:\n      tag_24\n      tag_25\n      jump\t// in\n    tag_24:\n      stop\n        /* \"src/ChainOfCustody.sol\":3386:3478  function getevidenceId() external view returns (bytes32) {... */\n    tag_7:\n      tag_26\n      tag_27\n      jump\t// in\n    tag_26:\n      mload(0x40)\n      tag_28\n      swap2\n      swap1\n      tag_29\n      jump\t// in\n    tag_28:\n      mload(0x40)\n      dup1\n      swap2\n      sub\n      swap1\n      return\n        /* \"src/ChainOfCustody.sol\":3484:3577  function getEvidenceCreator() external view returns (address) {... */\n    tag_8:\n      tag_30\n      tag_31\n      jump\t// in\n    tag_30:\n      mload(0x40)\n      tag_32\n      swap2\n      swap1\n      tag_33\n      jump\t// in\n    tag_32:\n      mload(0x40)\n      dup1\n      swap2\n      sub\n      swap1\n      return\n        /* \"src/ChainOfCustody.sol\":3696:3784  function getCurrentOwner() external view returns (address) {... */\n    tag_9:\n      tag_34\n      tag_35\n      jump\t// in\n    tag_34:\n      mload(0x40)\n      tag_36\n      swap2\n      swap1\n      tag_33\n      jump\t// in\n    tag_36:\n      mload(0x40)\n      dup1\n      swap2\n      sub\n      swap1\n      return\n        /* \"src/ChainOfCustody.sol\":2663:2886  function transferOwnership(address newOwner) external onlyIfActive {... */\n    tag_10:\n      tag_37\n      0x04\n      dup1\n      calldatasize\n      sub\n      dup2\n      add\n      swap1\n      tag_38\n      swap2\n      swap1\n      tag_39\n      jump\t// in\n    tag_38:\n      tag_40\n      jump\t// in\n    tag_37:\n      stop\n        /* \"src/ChainOfCustody.sol\":3904:3993  function getEvidenceState() external view returns (bool) {... */\n    tag_13:\n        /* \"src/ChainOfCustody.sol\":3955:3959  bool */\n      0x00\n        /* \"src/ChainOfCustody.sol\":3978:3986  isActive */\n      0x03\n      0x00\n      swap1\n      sload\n      swap1\n      0x0100\n      exp\n      swap1\n      div\n      0xff\n      and\n        /* \"src/ChainOfCustody.sol\":3971:3986  return isActive */\n      swap1\n      pop\n        /* \"src/ChainOfCustody.sol\":3904:3993  function getEvidenceState() external view returns (bool) {... */\n      swap1\n      jump\t// out\n        /* \"src/ChainOfCustody.sol\":3583:3690  function getEvidenceDescription() external view returns (string memory) {... */\n    tag_17:\n        /* \"src/ChainOfCustody.sol\":3640:3653  string memory */\n      0x60\n        /* \"src/ChainOfCustody.sol\":3672:3683  description */\n      0x02\n        /* \"src/ChainOfCustody.sol\":3665:3683  return description */\n      dup1\n      sload\n      tag_43\n      swap1\n      tag_44\n      jump\t// in\n    tag_43:\n      dup1\n      0x1f\n      add\n      0x20\n      dup1\n      swap2\n      div\n      mul\n      0x20\n      add\n      mload(0x40)\n      swap1\n      dup2\n      add\n      0x40\n      mstore\n      dup1\n      swap3\n      swap2\n      swap1\n      dup2\n      dup2\n      mstore\n      0x20\n      add\n      dup3\n      dup1\n      sload\n      tag_45\n      swap1\n      tag_44\n      jump\t// in\n    tag_45:\n      dup1\n      iszero\n      tag_46\n      jumpi\n      dup1\n      0x1f\n      lt\n      tag_47\n      jumpi\n      0x0100\n      dup1\n      dup4\n      sload\n      div\n      mul\n      dup4\n      mstore\n      swap2\n      0x20\n      add\n      swap2\n      jump(tag_46)\n    tag_47:\n      dup3\n      add\n      swap2\n      swap1\n      0x00\n      mstore\n      keccak256(0x00, 0x20)\n      swap1\n    tag_48:\n      dup2\n      sload\n      dup2\n      mstore\n      swap1\n      0x01\n      add\n      swap1\n      0x20\n      add\n      dup1\n      dup4\n      gt\n      tag_48\n      jumpi\n      dup3\n      swap1\n      sub\n      0x1f\n      and\n      dup3\n      add\n      swap2\n    tag_46:\n      pop\n      pop\n      pop\n      pop\n      pop\n      swap1\n      pop\n        /* \"src/ChainOfCustody.sol\":3583:3690  function getEvidenceDescription() external view returns (string memory) {... */\n      swap1\n      jump\t// out\n        /* \"src/ChainOfCustody.sol\":3790:3898  function getChainOfCustody() external view returns (address[] memory) {... */\n    tag_21:\n        /* \"src/ChainOfCustody.sol\":3842:3858  address[] memory */\n      0x60\n        /* \"src/ChainOfCustody.sol\":3877:3891  chainOfCustody */\n      0x01\n        /* \"src/ChainOfCustody.sol\":3870:3891  return chainOfCustody */\n      dup1\n      sload\n      dup1\n      0x20\n      mul\n      0x20\n      add\n      mload(0x40)\n      swap1\n      dup2\n      add\n      0x40\n      mstore\n      dup1\n      swap3\n      swap2\n      swap1\n      dup2\n      dup2\n      mstore\n      0x20\n      add\n      dup3\n      dup1\n      sload\n      dup1\n      iszero\n      tag_50\n      jumpi\n      0x20\n      mul\n      dup3\n      add\n      swap2\n      swap1\n      0x00\n      mstore\n      keccak256(0x00, 0x20)\n      swap1\n    tag_51:\n      dup2\n      0x00\n      swap1\n      sload\n      swap1\n      0x0100\n      exp\n      swap1\n      div\n      0xffffffffffffffffffffffffffffffffffffffff\n      and\n      0xffffffffffffffffffffffffffffffffffffffff\n      and\n      dup2\n      mstore\n      0x20\n      add\n      swap1\n      0x01\n      add\n      swap1\n      dup1\n      dup4\n      gt\n      tag_51\n      jumpi\n    tag_50:\n      pop\n      pop\n      pop\n      pop\n      pop\n      swap1\n      pop\n        /* \"src/ChainOfCustody.sol\":3790:3898  function getChainOfCustody() external view returns (address[] memory) {... */\n      swap1\n      jump\t// out\n        /* \"src/ChainOfCustody.sol\":2892:3033  function discontinueEvidence() external onlyIfActive {... */\n    tag_25:\n        /* \"src/ChainOfCustody.sol\":1593:1601  isActive */\n      0x03\n      0x00\n      swap1\n      sload\n      swap1\n      0x0100\n      exp\n      swap1\n      div\n      0xff\n      and\n        /* \"src/ChainOfCustody.sol\":1585:1638  require(isActive, \"Evidence is no longer accessible\") */\n      tag_53\n      jumpi\n      mload(0x40)\n      0x08c379a000000000000000000000000000000000000000000000000000000000\n      dup2\n      mstore\n      0x04\n      add\n      tag_54\n      swap1\n      tag_55\n      jump\t// in\n    tag_54:\n      mload(0x40)\n      dup1\n      swap2\n      sub\n      swap1\n      revert\n    tag_53:\n        /* \"src/ChainOfCustody.sol\":2955:2977  _discontinueEvidence() */\n      tag_57\n        /* \"src/ChainOfCustody.sol\":2955:2975  _discontinueEvidence */\n      tag_58\n        /* \"src/ChainOfCustody.sol\":2955:2977  _discontinueEvidence() */\n      jump\t// in\n    tag_57:\n        /* \"src/ChainOfCustody.sol\":3014:3025  EVIDENCE_ID */\n      immutable(\"0x6585423cb6456b1d4957f6454d2f004f0c4f58d53a00082412d5c2ef4b1b31fd\")\n        /* \"src/ChainOfCustody.sol\":2992:3026  EvindenceDiscontinued(EVIDENCE_ID) */\n      0x14a361a50d98fbe05e22df9359b451b51cf087dc7f912cc7b41ba235754083dd\n      mload(0x40)\n      mload(0x40)\n      dup1\n      swap2\n      sub\n      swap1\n      log2\n        /* \"src/ChainOfCustody.sol\":2892:3033  function discontinueEvidence() external onlyIfActive {... */\n      jump\t// out\n        /* \"src/ChainOfCustody.sol\":3386:3478  function getevidenceId() external view returns (bytes32) {... */\n    tag_27:\n        /* \"src/ChainOfCustody.sol\":3434:3441  bytes32 */\n      0x00\n        /* \"src/ChainOfCustody.sol\":3460:3471  EVIDENCE_ID */\n      immutable(\"0x6585423cb6456b1d4957f6454d2f004f0c4f58d53a00082412d5c2ef4b1b31fd\")\n        /* \"src/ChainOfCustody.sol\":3453:3471  return EVIDENCE_ID */\n      swap1\n      pop\n        /* \"src/ChainOfCustody.sol\":3386:3478  function getevidenceId() external view returns (bytes32) {... */\n      swap1\n      jump\t// out\n        /* \"src/ChainOfCustody.sol\":3484:3577  function getEvidenceCreator() external view returns (address) {... */\n    tag_31:\n        /* \"src/ChainOfCustody.sol\":3537:3544  address */\n      0x00\n        /* \"src/ChainOfCustody.sol\":3563:3570  CREATOR */\n      immutable(\"0xd4d1a59767271eefdc7830a772b9732a11d503531d972ab8c981a6b1c0e666e5\")\n        /* \"src/ChainOfCustody.sol\":3556:3570  return CREATOR */\n      swap1\n      pop\n        /* \"src/ChainOfCustody.sol\":3484:3577  function getEvidenceCreator() external view returns (address) {... */\n      swap1\n      jump\t// out\n        /* \"src/ChainOfCustody.sol\":3696:3784  function getCurrentOwner() external view returns (address) {... */\n    tag_35:\n        /* \"src/ChainOfCustody.sol\":3746:3753  address */\n      0x00\n        /* \"src/ChainOfCustody.sol\":3772:3777  owner */\n      0x00\n      0x00\n      swap1\n      sload\n      swap1\n      0x0100\n      exp\n      swap1\n      div\n      0xffffffffffffffffffffffffffffffffffffffff\n      and\n        /* \"src/ChainOfCustody.sol\":3765:3777  return owner */\n      swap1\n      pop\n        /* \"src/ChainOfCustody.sol\":3696:3784  function getCurrentOwner() external view returns (address) {... */\n      swap1\n      jump\t// out\n        /* \"src/ChainOfCustody.sol\":2663:2886  function transferOwnership(address newOwner) external onlyIfActive {... */\n    tag_40:\n        /* \"src/ChainOfCustody.sol\":1593:1601  isActive */\n      0x03\n      0x00\n      swap1\n      sload\n      swap1\n      0x0100\n      exp\n      swap1\n      div\n      0xff\n      and\n        /* \"src/ChainOfCustody.sol\":1585:1638  require(isActive, \"Evidence is no longer accessible\") */\n      tag_63\n      jumpi\n      mload(0x40)\n      0x08c379a000000000000000000000000000000000000000000000000000000000\n      dup2\n      mstore\n      0x04\n      add\n      tag_64\n      swap1\n      tag_55\n      jump\t// in\n    tag_64:\n      mload(0x40)\n      dup1\n      swap2\n      sub\n      swap1\n      revert\n    tag_63:\n        /* \"src/ChainOfCustody.sol\":2740:2761  address previousOwner */\n      0x00\n        /* \"src/ChainOfCustody.sol\":2764:2769  owner */\n      0x00\n      0x00\n      swap1\n      sload\n      swap1\n      0x0100\n      exp\n      swap1\n      div\n      0xffffffffffffffffffffffffffffffffffffffff\n      and\n        /* \"src/ChainOfCustody.sol\":2740:2769  address previousOwner = owner */\n      swap1\n      pop\n        /* \"src/ChainOfCustody.sol\":2779:2819  _transferOwnership(msg.sender, newOwner) */\n      tag_66\n        /* \"src/ChainOfCustody.sol\":2798:2808  msg.sender */\n      caller\n        /* \"src/ChainOfCustody.sol\":2810:2818  newOwner */\n      dup4\n        /* \"src/ChainOfCustody.sol\":2779:2797  _transferOwnership */\n      tag_67\n        /* \"src/ChainOfCustody.sol\":2779:2819  _transferOwnership(msg.sender, newOwner) */\n      jump\t// in\n    tag_66:\n        /* \"src/ChainOfCustody.sol\":2870:2878  newOwner */\n      dup2\n        /* \"src/ChainOfCustody.sol\":2834:2879  OwnershipTransferred(previousOwner, newOwner) */\n      0xffffffffffffffffffffffffffffffffffffffff\n      and\n        /* \"src/ChainOfCustody.sol\":2855:2868  previousOwner */\n      dup2\n        /* \"src/ChainOfCustody.sol\":2834:2879  OwnershipTransferred(previousOwner, newOwner) */\n      0xffffffffffffffffffffffffffffffffffffffff\n      and\n      0x8be0079c531659141344cd1fd0a4f28419497f9722a3daafe3b4186f6b6457e0\n      mload(0x40)\n      mload(0x40)\n      dup1\n      swap2\n      sub\n      swap1\n      log3\n        /* \"src/ChainOfCustody.sol\":2730:2886  {... */\n      pop\n        /* \"src/ChainOfCustody.sol\":2663:2886  function transferOwnership(address newOwner) external onlyIfActive {... */\n      pop\n      jump\t// out\n        /* \"src/ChainOfCustody.sol\":3245:3330  function _discontinueEvidence() private onlyCreator {... */\n    tag_58:\n        /* \"src/ChainOfCustody.sol\":1328:1342  chainOfCustody */\n      0x01\n        /* \"src/ChainOfCustody.sol\":1343:1344  0 */\n      0x00\n        /* \"src/ChainOfCustody.sol\":1328:1345  chainOfCustody[0] */\n      dup2\n      sload\n      dup2\n      lt\n      tag_69\n      jumpi\n      tag_70\n      tag_71\n      jump\t// in\n    tag_70:\n    tag_69:\n      swap1\n      0x00\n      mstore\n      keccak256(0x00, 0x20)\n      add\n      0x00\n      swap1\n      sload\n      swap1\n      0x0100\n      exp\n      swap1\n      div\n      0xffffffffffffffffffffffffffffffffffffffff\n      and\n        /* \"src/ChainOfCustody.sol\":1314:1345  msg.sender == chainOfCustody[0] */\n      0xffffffffffffffffffffffffffffffffffffffff\n      and\n        /* \"src/ChainOfCustody.sol\":1314:1324  msg.sender */\n      caller\n        /* \"src/ChainOfCustody.sol\":1314:1345  msg.sender == chainOfCustody[0] */\n      0xffffffffffffffffffffffffffffffffffffffff\n      and\n      eq\n        /* \"src/ChainOfCustody.sol\":1306:1385  require(msg.sender == chainOfCustody[0], \"Only Creator can call this function\") */\n      tag_73\n      jumpi\n      mload(0x40)\n      0x08c379a000000000000000000000000000000000000000000000000000000000\n      dup2\n      mstore\n      0x04\n      add\n      tag_74\n      swap1\n      tag_75\n      jump\t// in\n    tag_74:\n      mload(0x40)\n      dup1\n      swap2\n      sub\n      swap1\n      revert\n    tag_73:\n        /* \"src/ChainOfCustody.sol\":3318:3323  false */\n      0x00\n        /* \"src/ChainOfCustody.sol\":3307:3315  isActive */\n      0x03\n      0x00\n        /* \"src/ChainOfCustody.sol\":3307:3323  isActive = false */\n      0x0100\n      exp\n      dup2\n      sload\n      dup2\n      0xff\n      mul\n      not\n      and\n      swap1\n      dup4\n      iszero\n      iszero\n      mul\n      or\n      swap1\n      sstore\n      pop\n        /* \"src/ChainOfCustody.sol\":3245:3330  function _discontinueEvidence() private onlyCreator {... */\n      jump\t// out\n        /* \"src/ChainOfCustody.sol\":3089:3239  function _transferOwnership(address _from, address _to) private onlyCurrentOwner(_from) {... */\n    tag_67:\n        /* \"src/ChainOfCustody.sol\":3170:3175  _from */\n      dup2\n        /* \"src/ChainOfCustody.sol\":1475:1480  owner */\n      0x00\n      0x00\n      swap1\n      sload\n      swap1\n      0x0100\n      exp\n      swap1\n      div\n      0xffffffffffffffffffffffffffffffffffffffff\n      and\n        /* \"src/ChainOfCustody.sol\":1465:1480  caller != owner */\n      0xffffffffffffffffffffffffffffffffffffffff\n      and\n        /* \"src/ChainOfCustody.sol\":1465:1471  caller */\n      dup2\n        /* \"src/ChainOfCustody.sol\":1465:1480  caller != owner */\n      0xffffffffffffffffffffffffffffffffffffffff\n      and\n      eq\n        /* \"src/ChainOfCustody.sol\":1461:1527  if (caller != owner) revert CallerIsNotCurrentOwner(owner, caller) */\n      tag_78\n      jumpi\n        /* \"src/ChainOfCustody.sol\":1513:1518  owner */\n      0x00\n      0x00\n      swap1\n      sload\n      swap1\n      0x0100\n      exp\n      swap1\n      div\n      0xffffffffffffffffffffffffffffffffffffffff\n      and\n        /* \"src/ChainOfCustody.sol\":1520:1526  caller */\n      dup2\n        /* \"src/ChainOfCustody.sol\":1489:1527  CallerIsNotCurrentOwner(owner, caller) */\n      mload(0x40)\n      0xd745b9ab00000000000000000000000000000000000000000000000000000000\n      dup2\n      mstore\n      0x04\n      add\n      tag_79\n      swap3\n      swap2\n      swap1\n      tag_80\n      jump\t// in\n    tag_79:\n      mload(0x40)\n      dup1\n      swap2\n      sub\n      swap1\n      revert\n        /* \"src/ChainOfCustody.sol\":1461:1527  if (caller != owner) revert CallerIsNotCurrentOwner(owner, caller) */\n    tag_78:\n        /* \"src/ChainOfCustody.sol\":3195:3198  _to */\n      dup2\n        /* \"src/ChainOfCustody.sol\":3187:3192  owner */\n      0x00\n      0x00\n        /* \"src/ChainOfCustody.sol\":3187:3198  owner = _to */\n      0x0100\n      exp\n      dup2\n      sload\n      dup2\n      0xffffffffffffffffffffffffffffffffffffffff\n      mul\n      not\n      and\n      swap1\n      dup4\n      0xffffffffffffffffffffffffffffffffffffffff\n      and\n      mul\n      or\n      swap1\n      sstore\n      pop\n        /* \"src/ChainOfCustody.sol\":3208:3222  chainOfCustody */\n      0x01\n        /* \"src/ChainOfCustody.sol\":3228:3231  _to */\n      dup3\n        /* \"src/ChainOfCustody.sol\":3208:3232  chainOfCustody.push(_to) */\n      swap1\n      dup1\n      0x01\n      dup2\n      sload\n      add\n      dup1\n      dup3\n      sstore\n      dup1\n      swap2\n      pop\n      pop\n      0x01\n      swap1\n      sub\n      swap1\n      0x00\n      mstore\n      keccak256(0x00, 0x20)\n      add\n      0x00\n      swap1\n      swap2\n      swap1\n      swap2\n      swap1\n      swap2\n      0x0100\n      exp\n      dup2\n      sload\n      dup2\n      0xffffffffffffffffffffffffffffffffffffffff\n      mul\n      not\n      and\n      swap1\n      dup4\n      0xffffffffffffffffffffffffffffffffffffffff\n      and\n      mul\n      or\n      swap1\n      sstore\n      pop\n        /* \"src/ChainOfCustody.sol\":3089:3239  function _transferOwnership(address _from, address _to) private onlyCurrentOwner(_from) {... */\n      pop\n      pop\n      pop\n      jump\t// out\n        /* \"#utility.yul\":7:97   */\n    tag_83:\n        /* \"#utility.yul\":41:48   */\n      0x00\n        /* \"#utility.yul\":84:89   */\n      dup2\n        /* \"#utility.yul\":77:90   */\n      iszero\n        /* \"#utility.yul\":70:91   */\n      iszero\n        /* \"#utility.yul\":59:91   */\n      swap1\n      pop\n        /* \"#utility.yul\":7:97   */\n      swap2\n      swap1\n      pop\n      jump\t// out\n        /* \"#utility.yul\":103:212   */\n    tag_84:\n        /* \"#utility.yul\":184:205   */\n      tag_115\n        /* \"#utility.yul\":199:204   */\n      dup2\n        /* \"#utility.yul\":184:205   */\n      tag_83\n      jump\t// in\n    tag_115:\n        /* \"#utility.yul\":179:182   */\n      dup3\n        /* \"#utility.yul\":172:206   */\n      mstore\n        /* \"#utility.yul\":103:212   */\n      pop\n      pop\n      jump\t// out\n        /* \"#utility.yul\":218:428   */\n    tag_15:\n        /* \"#utility.yul\":305:309   */\n      0x00\n        /* \"#utility.yul\":343:345   */\n      0x20\n        /* \"#utility.yul\":332:341   */\n      dup3\n        /* \"#utility.yul\":328:346   */\n      add\n        /* \"#utility.yul\":320:346   */\n      swap1\n      pop\n        /* \"#utility.yul\":356:421   */\n      tag_117\n        /* \"#utility.yul\":418:419   */\n      0x00\n        /* \"#utility.yul\":407:416   */\n      dup4\n        /* \"#utility.yul\":403:420   */\n      add\n        /* \"#utility.yul\":394:400   */\n      dup5\n        /* \"#utility.yul\":356:421   */\n      tag_84\n      jump\t// in\n    tag_117:\n        /* \"#utility.yul\":218:428   */\n      swap3\n      swap2\n      pop\n      pop\n      jump\t// out\n        /* \"#utility.yul\":434:533   */\n    tag_85:\n        /* \"#utility.yul\":486:492   */\n      0x00\n        /* \"#utility.yul\":520:525   */\n      dup2\n        /* \"#utility.yul\":514:526   */\n      mload\n        /* \"#utility.yul\":504:526   */\n      swap1\n      pop\n        /* \"#utility.yul\":434:533   */\n      swap2\n      swap1\n      pop\n      jump\t// out\n        /* \"#utility.yul\":539:708   */\n    tag_86:\n        /* \"#utility.yul\":623:634   */\n      0x00\n        /* \"#utility.yul\":657:663   */\n      dup3\n        /* \"#utility.yul\":652:655   */\n      dup3\n        /* \"#utility.yul\":645:664   */\n      mstore\n        /* \"#utility.yul\":697:701   */\n      0x20\n        /* \"#utility.yul\":692:695   */\n      dup3\n        /* \"#utility.yul\":688:702   */\n      add\n        /* \"#utility.yul\":673:702   */\n      swap1\n      pop\n        /* \"#utility.yul\":539:708   */\n      swap3\n      swap2\n      pop\n      pop\n      jump\t// out\n        /* \"#utility.yul\":714:853   */\n    tag_87:\n        /* \"#utility.yul\":803:809   */\n      dup3\n        /* \"#utility.yul\":798:801   */\n      dup2\n        /* \"#utility.yul\":793:796   */\n      dup4\n        /* \"#utility.yul\":787:810   */\n      mcopy\n        /* \"#utility.yul\":844:845   */\n      0x00\n        /* \"#utility.yul\":835:841   */\n      dup4\n        /* \"#utility.yul\":830:833   */\n      dup4\n        /* \"#utility.yul\":826:842   */\n      add\n        /* \"#utility.yul\":819:846   */\n      mstore\n        /* \"#utility.yul\":714:853   */\n      pop\n      pop\n      pop\n      jump\t// out\n        /* \"#utility.yul\":859:961   */\n    tag_88:\n        /* \"#utility.yul\":900:906   */\n      0x00\n        /* \"#utility.yul\":951:953   */\n      0x1f\n        /* \"#utility.yul\":947:954   */\n      not\n        /* \"#utility.yul\":942:944   */\n      0x1f\n        /* \"#utility.yul\":935:940   */\n      dup4\n        /* \"#utility.yul\":931:945   */\n      add\n        /* \"#utility.yul\":927:955   */\n      and\n        /* \"#utility.yul\":917:955   */\n      swap1\n      pop\n        /* \"#utility.yul\":859:961   */\n      swap2\n      swap1\n      pop\n      jump\t// out\n        /* \"#utility.yul\":967:1344   */\n    tag_89:\n        /* \"#utility.yul\":1055:1058   */\n      0x00\n        /* \"#utility.yul\":1083:1122   */\n      tag_123\n        /* \"#utility.yul\":1116:1121   */\n      dup3\n        /* \"#utility.yul\":1083:1122   */\n      tag_85\n      jump\t// in\n    tag_123:\n        /* \"#utility.yul\":1138:1209   */\n      tag_124\n        /* \"#utility.yul\":1202:1208   */\n      dup2\n        /* \"#utility.yul\":1197:1200   */\n      dup6\n        /* \"#utility.yul\":1138:1209   */\n      tag_86\n      jump\t// in\n    tag_124:\n        /* \"#utility.yul\":1131:1209   */\n      swap4\n      pop\n        /* \"#utility.yul\":1218:1283   */\n      tag_125\n        /* \"#utility.yul\":1276:1282   */\n      dup2\n        /* \"#utility.yul\":1271:1274   */\n      dup6\n        /* \"#utility.yul\":1264:1268   */\n      0x20\n        /* \"#utility.yul\":1257:1262   */\n      dup7\n        /* \"#utility.yul\":1253:1269   */\n      add\n        /* \"#utility.yul\":1218:1283   */\n      tag_87\n      jump\t// in\n    tag_125:\n        /* \"#utility.yul\":1308:1337   */\n      tag_126\n        /* \"#utility.yul\":1330:1336   */\n      dup2\n        /* \"#utility.yul\":1308:1337   */\n      tag_88\n      jump\t// in\n    tag_126:\n        /* \"#utility.yul\":1303:1306   */\n      dup5\n        /* \"#utility.yul\":1299:1338   */\n      add\n        /* \"#utility.yul\":1292:1338   */\n      swap2\n      pop\n        /* \"#utility.yul\":1059:1344   */\n      pop\n        /* \"#utility.yul\":967:1344   */\n      swap3\n      swap2\n      pop\n      pop\n      jump\t// out\n        /* \"#utility.yul\":1350:1663   */\n    tag_19:\n        /* \"#utility.yul\":1463:1467   */\n      0x00\n        /* \"#utility.yul\":1501:1503   */\n      0x20\n        /* \"#utility.yul\":1490:1499   */\n      dup3\n        /* \"#utility.yul\":1486:1504   */\n      add\n        /* \"#utility.yul\":1478:1504   */\n      swap1\n      pop\n        /* \"#utility.yul\":1550:1559   */\n      dup2\n        /* \"#utility.yul\":1544:1548   */\n      dup2\n        /* \"#utility.yul\":1540:1560   */\n      sub\n        /* \"#utility.yul\":1536:1537   */\n      0x00\n        /* \"#utility.yul\":1525:1534   */\n      dup4\n        /* \"#utility.yul\":1521:1538   */\n      add\n        /* \"#utility.yul\":1514:1561   */\n      mstore\n        /* \"#utility.yul\":1578:1656   */\n      tag_128\n        /* \"#utility.yul\":1651:1655   */\n      dup2\n        /* \"#utility.yul\":1642:1648   */\n      dup5\n        /* \"#utility.yul\":1578:1656   */\n      tag_89\n      jump\t// in\n    tag_128:\n        /* \"#utility.yul\":1570:1656   */\n      swap1\n      pop\n        /* \"#utility.yul\":1350:1663   */\n      swap3\n      swap2\n      pop\n      pop\n      jump\t// out\n        /* \"#utility.yul\":1669:1783   */\n    tag_90:\n        /* \"#utility.yul\":1736:1742   */\n      0x00\n        /* \"#utility.yul\":1770:1775   */\n      dup2\n        /* \"#utility.yul\":1764:1776   */\n      mload\n        /* \"#utility.yul\":1754:1776   */\n      swap1\n      pop\n        /* \"#utility.yul\":1669:1783   */\n      swap2\n      swap1\n      pop\n      jump\t// out\n        /* \"#utility.yul\":1789:1973   */\n    tag_91:\n        /* \"#utility.yul\":1888:1899   */\n      0x00\n        /* \"#utility.yul\":1922:1928   */\n      dup3\n        /* \"#utility.yul\":1917:1920   */\n      dup3\n        /* \"#utility.yul\":1910:1929   */\n      mstore\n        /* \"#utility.yul\":1962:1966   */\n      0x20\n        /* \"#utility.yul\":1957:1960   */\n      dup3\n        /* \"#utility.yul\":1953:1967   */\n      add\n        /* \"#utility.yul\":1938:1967   */\n      swap1\n      pop\n        /* \"#utility.yul\":1789:1973   */\n      swap3\n      swap2\n      pop\n      pop\n      jump\t// out\n        /* \"#utility.yul\":1979:2111   */\n    tag_92:\n        /* \"#utility.yul\":2046:2050   */\n      0x00\n        /* \"#utility.yul\":2069:2072   */\n      dup2\n        /* \"#utility.yul\":2061:2072   */\n      swap1\n      pop\n        /* \"#utility.yul\":2099:2103   */\n      0x20\n        /* \"#utility.yul\":2094:2097   */\n      dup3\n        /* \"#utility.yul\":2090:2104   */\n      add\n        /* \"#utility.yul\":2082:2104   */\n      swap1\n      pop\n        /* \"#utility.yul\":1979:2111   */\n      swap2\n      swap1\n      pop\n      jump\t// out\n        /* \"#utility.yul\":2117:2243   */\n    tag_93:\n        /* \"#utility.yul\":2154:2161   */\n      0x00\n        /* \"#utility.yul\":2194:2236   */\n      0xffffffffffffffffffffffffffffffffffffffff\n        /* \"#utility.yul\":2187:2192   */\n      dup3\n        /* \"#utility.yul\":2183:2237   */\n      and\n        /* \"#utility.yul\":2172:2237   */\n      swap1\n      pop\n        /* \"#utility.yul\":2117:2243   */\n      swap2\n      swap1\n      pop\n      jump\t// out\n        /* \"#utility.yul\":2249:2345   */\n    tag_94:\n        /* \"#utility.yul\":2286:2293   */\n      0x00\n        /* \"#utility.yul\":2315:2339   */\n      tag_134\n        /* \"#utility.yul\":2333:2338   */\n      dup3\n        /* \"#utility.yul\":2315:2339   */\n      tag_93\n      jump\t// in\n    tag_134:\n        /* \"#utility.yul\":2304:2339   */\n      swap1\n      pop\n        /* \"#utility.yul\":2249:2345   */\n      swap2\n      swap1\n      pop\n      jump\t// out\n        /* \"#utility.yul\":2351:2459   */\n    tag_95:\n        /* \"#utility.yul\":2428:2452   */\n      tag_136\n        /* \"#utility.yul\":2446:2451   */\n      dup2\n        /* \"#utility.yul\":2428:2452   */\n      tag_94\n      jump\t// in\n    tag_136:\n        /* \"#utility.yul\":2423:2426   */\n      dup3\n        /* \"#utility.yul\":2416:2453   */\n      mstore\n        /* \"#utility.yul\":2351:2459   */\n      pop\n      pop\n      jump\t// out\n        /* \"#utility.yul\":2465:2644   */\n    tag_96:\n        /* \"#utility.yul\":2534:2544   */\n      0x00\n        /* \"#utility.yul\":2555:2601   */\n      tag_138\n        /* \"#utility.yul\":2597:2600   */\n      dup4\n        /* \"#utility.yul\":2589:2595   */\n      dup4\n        /* \"#utility.yul\":2555:2601   */\n      tag_95\n      jump\t// in\n    tag_138:\n        /* \"#utility.yul\":2633:2637   */\n      0x20\n        /* \"#utility.yul\":2628:2631   */\n      dup4\n        /* \"#utility.yul\":2624:2638   */\n      add\n        /* \"#utility.yul\":2610:2638   */\n      swap1\n      pop\n        /* \"#utility.yul\":2465:2644   */\n      swap3\n      swap2\n      pop\n      pop\n      jump\t// out\n        /* \"#utility.yul\":2650:2763   */\n    tag_97:\n        /* \"#utility.yul\":2720:2724   */\n      0x00\n        /* \"#utility.yul\":2752:2756   */\n      0x20\n        /* \"#utility.yul\":2747:2750   */\n      dup3\n        /* \"#utility.yul\":2743:2757   */\n      add\n        /* \"#utility.yul\":2735:2757   */\n      swap1\n      pop\n        /* \"#utility.yul\":2650:2763   */\n      swap2\n      swap1\n      pop\n      jump\t// out\n        /* \"#utility.yul\":2799:3531   */\n    tag_98:\n        /* \"#utility.yul\":2918:2921   */\n      0x00\n        /* \"#utility.yul\":2947:3001   */\n      tag_141\n        /* \"#utility.yul\":2995:3000   */\n      dup3\n        /* \"#utility.yul\":2947:3001   */\n      tag_90\n      jump\t// in\n    tag_141:\n        /* \"#utility.yul\":3017:3103   */\n      tag_142\n        /* \"#utility.yul\":3096:3102   */\n      dup2\n        /* \"#utility.yul\":3091:3094   */\n      dup6\n        /* \"#utility.yul\":3017:3103   */\n      tag_91\n      jump\t// in\n    tag_142:\n        /* \"#utility.yul\":3010:3103   */\n      swap4\n      pop\n        /* \"#utility.yul\":3127:3183   */\n      tag_143\n        /* \"#utility.yul\":3177:3182   */\n      dup4\n        /* \"#utility.yul\":3127:3183   */\n      tag_92\n      jump\t// in\n    tag_143:\n        /* \"#utility.yul\":3206:3213   */\n      dup1\n        /* \"#utility.yul\":3237:3238   */\n      0x00\n        /* \"#utility.yul\":3222:3506   */\n    tag_144:\n        /* \"#utility.yul\":3247:3253   */\n      dup4\n        /* \"#utility.yul\":3244:3245   */\n      dup2\n        /* \"#utility.yul\":3241:3254   */\n      lt\n        /* \"#utility.yul\":3222:3506   */\n      iszero\n      tag_146\n      jumpi\n        /* \"#utility.yul\":3323:3329   */\n      dup2\n        /* \"#utility.yul\":3317:3330   */\n      mload\n        /* \"#utility.yul\":3350:3413   */\n      tag_147\n        /* \"#utility.yul\":3409:3412   */\n      dup9\n        /* \"#utility.yul\":3394:3407   */\n      dup3\n        /* \"#utility.yul\":3350:3413   */\n      tag_96\n      jump\t// in\n    tag_147:\n        /* \"#utility.yul\":3343:3413   */\n      swap8\n      pop\n        /* \"#utility.yul\":3436:3496   */\n      tag_148\n        /* \"#utility.yul\":3489:3495   */\n      dup4\n        /* \"#utility.yul\":3436:3496   */\n      tag_97\n      jump\t// in\n    tag_148:\n        /* \"#utility.yul\":3426:3496   */\n      swap3\n      pop\n        /* \"#utility.yul\":3282:3506   */\n      pop\n        /* \"#utility.yul\":3269:3270   */\n      0x01\n        /* \"#utility.yul\":3266:3267   */\n      dup2\n        /* \"#utility.yul\":3262:3271   */\n      add\n        /* \"#utility.yul\":3257:3271   */\n      swap1\n      pop\n        /* \"#utility.yul\":3222:3506   */\n      jump(tag_144)\n    tag_146:\n        /* \"#utility.yul\":3226:3240   */\n      pop\n        /* \"#utility.yul\":3522:3525   */\n      dup6\n        /* \"#utility.yul\":3515:3525   */\n      swap4\n      pop\n        /* \"#utility.yul\":2923:3531   */\n      pop\n      pop\n      pop\n        /* \"#utility.yul\":2799:3531   */\n      swap3\n      swap2\n      pop\n      pop\n      jump\t// out\n        /* \"#utility.yul\":3537:3910   */\n    tag_23:\n        /* \"#utility.yul\":3680:3684   */\n      0x00\n        /* \"#utility.yul\":3718:3720   */\n      0x20\n        /* \"#utility.yul\":3707:3716   */\n      dup3\n        /* \"#utility.yul\":3703:3721   */\n      add\n        /* \"#utility.yul\":3695:3721   */\n      swap1\n      pop\n        /* \"#utility.yul\":3767:3776   */\n      dup2\n        /* \"#utility.yul\":3761:3765   */\n      dup2\n        /* \"#utility.yul\":3757:3777   */\n      sub\n        /* \"#utility.yul\":3753:3754   */\n      0x00\n        /* \"#utility.yul\":3742:3751   */\n      dup4\n        /* \"#utility.yul\":3738:3755   */\n      add\n        /* \"#utility.yul\":3731:3778   */\n      mstore\n        /* \"#utility.yul\":3795:3903   */\n      tag_150\n        /* \"#utility.yul\":3898:3902   */\n      dup2\n        /* \"#utility.yul\":3889:3895   */\n      dup5\n        /* \"#utility.yul\":3795:3903   */\n      tag_98\n      jump\t// in\n    tag_150:\n        /* \"#utility.yul\":3787:3903   */\n      swap1\n      pop\n        /* \"#utility.yul\":3537:3910   */\n      swap3\n      swap2\n      pop\n      pop\n      jump\t// out\n        /* \"#utility.yul\":3916:3993   */\n    tag_99:\n        /* \"#utility.yul\":3953:3960   */\n      0x00\n        /* \"#utility.yul\":3982:3987   */\n      dup2\n        /* \"#utility.yul\":3971:3987   */\n      swap1\n      pop\n        /* \"#utility.yul\":3916:3993   */\n      swap2\n      swap1\n      pop\n      jump\t// out\n        /* \"#utility.yul\":3999:4117   */\n    tag_100:\n        /* \"#utility.yul\":4086:4110   */\n      tag_153\n        /* \"#utility.yul\":4104:4109   */\n      dup2\n        /* \"#utility.yul\":4086:4110   */\n      tag_99\n      jump\t// in\n    tag_153:\n        /* \"#utility.yul\":4081:4084   */\n      dup3\n        /* \"#utility.yul\":4074:4111   */\n      mstore\n        /* \"#utility.yul\":3999:4117   */\n      pop\n      pop\n      jump\t// out\n        /* \"#utility.yul\":4123:4345   */\n    tag_29:\n        /* \"#utility.yul\":4216:4220   */\n      0x00\n        /* \"#utility.yul\":4254:4256   */\n      0x20\n        /* \"#utility.yul\":4243:4252   */\n      dup3\n        /* \"#utility.yul\":4239:4257   */\n      add\n        /* \"#utility.yul\":4231:4257   */\n      swap1\n      pop\n        /* \"#utility.yul\":4267:4338   */\n      tag_155\n        /* \"#utility.yul\":4335:4336   */\n      0x00\n        /* \"#utility.yul\":4324:4333   */\n      dup4\n        /* \"#utility.yul\":4320:4337   */\n      add\n        /* \"#utility.yul\":4311:4317   */\n      dup5\n        /* \"#utility.yul\":4267:4338   */\n      tag_100\n      jump\t// in\n    tag_155:\n        /* \"#utility.yul\":4123:4345   */\n      swap3\n      swap2\n      pop\n      pop\n      jump\t// out\n        /* \"#utility.yul\":4351:4469   */\n    tag_101:\n        /* \"#utility.yul\":4438:4462   */\n      tag_157\n        /* \"#utility.yul\":4456:4461   */\n      dup2\n        /* \"#utility.yul\":4438:4462   */\n      tag_94\n      jump\t// in\n    tag_157:\n        /* \"#utility.yul\":4433:4436   */\n      dup3\n        /* \"#utility.yul\":4426:4463   */\n      mstore\n        /* \"#utility.yul\":4351:4469   */\n      pop\n      pop\n      jump\t// out\n        /* \"#utility.yul\":4475:4697   */\n    tag_33:\n        /* \"#utility.yul\":4568:4572   */\n      0x00\n        /* \"#utility.yul\":4606:4608   */\n      0x20\n        /* \"#utility.yul\":4595:4604   */\n      dup3\n        /* \"#utility.yul\":4591:4609   */\n      add\n        /* \"#utility.yul\":4583:4609   */\n      swap1\n      pop\n        /* \"#utility.yul\":4619:4690   */\n      tag_159\n        /* \"#utility.yul\":4687:4688   */\n      0x00\n        /* \"#utility.yul\":4676:4685   */\n      dup4\n        /* \"#utility.yul\":4672:4689   */\n      add\n        /* \"#utility.yul\":4663:4669   */\n      dup5\n        /* \"#utility.yul\":4619:4690   */\n      tag_101\n      jump\t// in\n    tag_159:\n        /* \"#utility.yul\":4475:4697   */\n      swap3\n      swap2\n      pop\n      pop\n      jump\t// out\n        /* \"#utility.yul\":4784:4901   */\n    tag_103:\n        /* \"#utility.yul\":4893:4894   */\n      0x00\n        /* \"#utility.yul\":4890:4891   */\n      0x00\n        /* \"#utility.yul\":4883:4895   */\n      revert\n        /* \"#utility.yul\":5030:5152   */\n    tag_105:\n        /* \"#utility.yul\":5103:5127   */\n      tag_164\n        /* \"#utility.yul\":5121:5126   */\n      dup2\n        /* \"#utility.yul\":5103:5127   */\n      tag_94\n      jump\t// in\n    tag_164:\n        /* \"#utility.yul\":5096:5101   */\n      dup2\n        /* \"#utility.yul\":5093:5128   */\n      eq\n        /* \"#utility.yul\":5083:5146   */\n      tag_165\n      jumpi\n        /* \"#utility.yul\":5142:5143   */\n      0x00\n        /* \"#utility.yul\":5139:5140   */\n      0x00\n        /* \"#utility.yul\":5132:5144   */\n      revert\n        /* \"#utility.yul\":5083:5146   */\n    tag_165:\n        /* \"#utility.yul\":5030:5152   */\n      pop\n      jump\t// out\n        /* \"#utility.yul\":5158:5297   */\n    tag_106:\n        /* \"#utility.yul\":5204:5209   */\n      0x00\n        /* \"#utility.yul\":5242:5248   */\n      dup2\n        /* \"#utility.yul\":5229:5249   */\n      calldataload\n        /* \"#utility.yul\":5220:5249   */\n      swap1\n      pop\n        /* \"#utility.yul\":5258:5291   */\n      tag_167\n        /* \"#utility.yul\":5285:5290   */\n      dup2\n        /* \"#utility.yul\":5258:5291   */\n      tag_105\n      jump\t// in\n    tag_167:\n        /* \"#utility.yul\":5158:5297   */\n      swap3\n      swap2\n      pop\n      pop\n      jump\t// out\n        /* \"#utility.yul\":5303:5632   */\n    tag_39:\n        /* \"#utility.yul\":5362:5368   */\n      0x00\n        /* \"#utility.yul\":5411:5413   */\n      0x20\n        /* \"#utility.yul\":5399:5408   */\n      dup3\n        /* \"#utility.yul\":5390:5397   */\n      dup5\n        /* \"#utility.yul\":5386:5409   */\n      sub\n        /* \"#utility.yul\":5382:5414   */\n      slt\n        /* \"#utility.yul\":5379:5498   */\n      iszero\n      tag_169\n      jumpi\n        /* \"#utility.yul\":5417:5496   */\n      tag_170\n      tag_103\n      jump\t// in\n    tag_170:\n        /* \"#utility.yul\":5379:5498   */\n    tag_169:\n        /* \"#utility.yul\":5537:5538   */\n      0x00\n        /* \"#utility.yul\":5562:5615   */\n      tag_171\n        /* \"#utility.yul\":5607:5614   */\n      dup5\n        /* \"#utility.yul\":5598:5604   */\n      dup3\n        /* \"#utility.yul\":5587:5596   */\n      dup6\n        /* \"#utility.yul\":5583:5605   */\n      add\n        /* \"#utility.yul\":5562:5615   */\n      tag_106\n      jump\t// in\n    tag_171:\n        /* \"#utility.yul\":5552:5615   */\n      swap2\n      pop\n        /* \"#utility.yul\":5508:5625   */\n      pop\n        /* \"#utility.yul\":5303:5632   */\n      swap3\n      swap2\n      pop\n      pop\n      jump\t// out\n        /* \"#utility.yul\":5638:5818   */\n    tag_107:\n        /* \"#utility.yul\":5686:5763   */\n      0x4e487b7100000000000000000000000000000000000000000000000000000000\n        /* \"#utility.yul\":5683:5684   */\n      0x00\n        /* \"#utility.yul\":5676:5764   */\n      mstore\n        /* \"#utility.yul\":5783:5787   */\n      0x22\n        /* \"#utility.yul\":5780:5781   */\n      0x04\n        /* \"#utility.yul\":5773:5788   */\n      mstore\n        /* \"#utility.yul\":5807:5811   */\n      0x24\n        /* \"#utility.yul\":5804:5805   */\n      0x00\n        /* \"#utility.yul\":5797:5812   */\n      revert\n        /* \"#utility.yul\":5824:6144   */\n    tag_44:\n        /* \"#utility.yul\":5868:5874   */\n      0x00\n        /* \"#utility.yul\":5905:5906   */\n      0x02\n        /* \"#utility.yul\":5899:5903   */\n      dup3\n        /* \"#utility.yul\":5895:5907   */\n      div\n        /* \"#utility.yul\":5885:5907   */\n      swap1\n      pop\n        /* \"#utility.yul\":5952:5953   */\n      0x01\n        /* \"#utility.yul\":5946:5950   */\n      dup3\n        /* \"#utility.yul\":5942:5954   */\n      and\n        /* \"#utility.yul\":5973:5991   */\n      dup1\n        /* \"#utility.yul\":5963:6044   */\n      tag_174\n      jumpi\n        /* \"#utility.yul\":6029:6033   */\n      0x7f\n        /* \"#utility.yul\":6021:6027   */\n      dup3\n        /* \"#utility.yul\":6017:6034   */\n      and\n        /* \"#utility.yul\":6007:6034   */\n      swap2\n      pop\n        /* \"#utility.yul\":5963:6044   */\n    tag_174:\n        /* \"#utility.yul\":6091:6093   */\n      0x20\n        /* \"#utility.yul\":6083:6089   */\n      dup3\n        /* \"#utility.yul\":6080:6094   */\n      lt\n        /* \"#utility.yul\":6060:6078   */\n      dup2\n        /* \"#utility.yul\":6057:6095   */\n      sub\n        /* \"#utility.yul\":6054:6138   */\n      tag_175\n      jumpi\n        /* \"#utility.yul\":6110:6128   */\n      tag_176\n      tag_107\n      jump\t// in\n    tag_176:\n        /* \"#utility.yul\":6054:6138   */\n    tag_175:\n        /* \"#utility.yul\":5875:6144   */\n      pop\n        /* \"#utility.yul\":5824:6144   */\n      swap2\n      swap1\n      pop\n      jump\t// out\n        /* \"#utility.yul\":6150:6332   */\n    tag_108:\n        /* \"#utility.yul\":6290:6324   */\n      0x45766964656e6365206973206e6f206c6f6e6765722061636365737369626c65\n        /* \"#utility.yul\":6286:6287   */\n      0x00\n        /* \"#utility.yul\":6278:6284   */\n      dup3\n        /* \"#utility.yul\":6274:6288   */\n      add\n        /* \"#utility.yul\":6267:6325   */\n      mstore\n        /* \"#utility.yul\":6150:6332   */\n      pop\n      jump\t// out\n        /* \"#utility.yul\":6338:6704   */\n    tag_109:\n        /* \"#utility.yul\":6480:6483   */\n      0x00\n        /* \"#utility.yul\":6501:6568   */\n      tag_179\n        /* \"#utility.yul\":6565:6567   */\n      0x20\n        /* \"#utility.yul\":6560:6563   */\n      dup4\n        /* \"#utility.yul\":6501:6568   */\n      tag_86\n      jump\t// in\n    tag_179:\n        /* \"#utility.yul\":6494:6568   */\n      swap2\n      pop\n        /* \"#utility.yul\":6577:6670   */\n      tag_180\n        /* \"#utility.yul\":6666:6669   */\n      dup3\n        /* \"#utility.yul\":6577:6670   */\n      tag_108\n      jump\t// in\n    tag_180:\n        /* \"#utility.yul\":6695:6697   */\n      0x20\n        /* \"#utility.yul\":6690:6693   */\n      dup3\n        /* \"#utility.yul\":6686:6698   */\n      add\n        /* \"#utility.yul\":6679:6698   */\n      swap1\n      pop\n        /* \"#utility.yul\":6338:6704   */\n      swap2\n      swap1\n      pop\n      jump\t// out\n        /* \"#utility.yul\":6710:7129   */\n    tag_55:\n        /* \"#utility.yul\":6876:6880   */\n      0x00\n        /* \"#utility.yul\":6914:6916   */\n      0x20\n        /* \"#utility.yul\":6903:6912   */\n      dup3\n        /* \"#utility.yul\":6899:6917   */\n      add\n        /* \"#utility.yul\":6891:6917   */\n      swap1\n      pop\n        /* \"#utility.yul\":6963:6972   */\n      dup2\n        /* \"#utility.yul\":6957:6961   */\n      dup2\n        /* \"#utility.yul\":6953:6973   */\n      sub\n        /* \"#utility.yul\":6949:6950   */\n      0x00\n        /* \"#utility.yul\":6938:6947   */\n      dup4\n        /* \"#utility.yul\":6934:6951   */\n      add\n        /* \"#utility.yul\":6927:6974   */\n      mstore\n        /* \"#utility.yul\":6991:7122   */\n      tag_182\n        /* \"#utility.yul\":7117:7121   */\n      dup2\n        /* \"#utility.yul\":6991:7122   */\n      tag_109\n      jump\t// in\n    tag_182:\n        /* \"#utility.yul\":6983:7122   */\n      swap1\n      pop\n        /* \"#utility.yul\":6710:7129   */\n      swap2\n      swap1\n      pop\n      jump\t// out\n        /* \"#utility.yul\":7135:7315   */\n    tag_71:\n        /* \"#utility.yul\":7183:7260   */\n      0x4e487b7100000000000000000000000000000000000000000000000000000000\n        /* \"#utility.yul\":7180:7181   */\n      0x00\n        /* \"#utility.yul\":7173:7261   */\n      mstore\n        /* \"#utility.yul\":7280:7284   */\n      0x32\n        /* \"#utility.yul\":7277:7278   */\n      0x04\n        /* \"#utility.yul\":7270:7285   */\n      mstore\n        /* \"#utility.yul\":7304:7308   */\n      0x24\n        /* \"#utility.yul\":7301:7302   */\n      0x00\n        /* \"#utility.yul\":7294:7309   */\n      revert\n        /* \"#utility.yul\":7321:7543   */\n    tag_110:\n        /* \"#utility.yul\":7461:7495   */\n      0x4f6e6c792043726561746f722063616e2063616c6c20746869732066756e6374\n        /* \"#utility.yul\":7457:7458   */\n      0x00\n        /* \"#utility.yul\":7449:7455   */\n      dup3\n        /* \"#utility.yul\":7445:7459   */\n      add\n        /* \"#utility.yul\":7438:7496   */\n      mstore\n        /* \"#utility.yul\":7530:7535   */\n      0x696f6e0000000000000000000000000000000000000000000000000000000000\n        /* \"#utility.yul\":7525:7527   */\n      0x20\n        /* \"#utility.yul\":7517:7523   */\n      dup3\n        /* \"#utility.yul\":7513:7528   */\n      add\n        /* \"#utility.yul\":7506:7536   */\n      mstore\n        /* \"#utility.yul\":7321:7543   */\n      pop\n      jump\t// out\n        /* \"#utility.yul\":7549:7915   */\n    tag_111:\n        /* \"#utility.yul\":7691:7694   */\n      0x00\n        /* \"#utility.yul\":7712:7779   */\n      tag_186\n        /* \"#utility.yul\":7776:7778   */\n      0x23\n        /* \"#utility.yul\":7771:7774   */\n      dup4\n        /* \"#utility.yul\":7712:7779   */\n      tag_86\n      jump\t// in\n    tag_186:\n        /* \"#utility.yul\":7705:7779   */\n      swap2\n      pop\n        /* \"#utility.yul\":7788:7881   */\n      tag_187\n        /* \"#utility.yul\":7877:7880   */\n      dup3\n        /* \"#utility.yul\":7788:7881   */\n      tag_110\n      jump\t// in\n    tag_187:\n        /* \"#utility.yul\":7906:7908   */\n      0x40\n        /* \"#utility.yul\":7901:7904   */\n      dup3\n        /* \"#utility.yul\":7897:7909   */\n      add\n        /* \"#utility.yul\":7890:7909   */\n      swap1\n      pop\n        /* \"#utility.yul\":7549:7915   */\n      swap2\n      swap1\n      pop\n      jump\t// out\n        /* \"#utility.yul\":7921:8340   */\n    tag_75:\n        /* \"#utility.yul\":8087:8091   */\n      0x00\n        /* \"#utility.yul\":8125:8127   */\n      0x20\n        /* \"#utility.yul\":8114:8123   */\n      dup3\n        /* \"#utility.yul\":8110:8128   */\n      add\n        /* \"#utility.yul\":8102:8128   */\n      swap1\n      pop\n        /* \"#utility.yul\":8174:8183   */\n      dup2\n        /* \"#utility.yul\":8168:8172   */\n      dup2\n        /* \"#utility.yul\":8164:8184   */\n      sub\n        /* \"#utility.yul\":8160:8161   */\n      0x00\n        /* \"#utility.yul\":8149:8158   */\n      dup4\n        /* \"#utility.yul\":8145:8162   */\n      add\n        /* \"#utility.yul\":8138:8185   */\n      mstore\n        /* \"#utility.yul\":8202:8333   */\n      tag_189\n        /* \"#utility.yul\":8328:8332   */\n      dup2\n        /* \"#utility.yul\":8202:8333   */\n      tag_111\n      jump\t// in\n    tag_189:\n        /* \"#utility.yul\":8194:8333   */\n      swap1\n      pop\n        /* \"#utility.yul\":7921:8340   */\n      swap2\n      swap1\n      pop\n      jump\t// out\n        /* \"#utility.yul\":8346:8678   */\n    tag_80:\n        /* \"#utility.yul\":8467:8471   */\n      0x00\n        /* \"#utility.yul\":8505:8507   */\n      0x40\n        /* \"#utility.yul\":8494:8503   */\n      dup3\n        /* \"#utility.yul\":8490:8508   */\n      add\n        /* \"#utility.yul\":8482:8508   */\n      swap1\n      pop\n        /* \"#utility.yul\":8518:8589   */\n      tag_191\n        /* \"#utility.yul\":8586:8587   */\n      0x00\n        /* \"#utility.yul\":8575:8584   */\n      dup4\n        /* \"#utility.yul\":8571:8588   */\n      add\n        /* \"#utility.yul\":8562:8568   */\n      dup6\n        /* \"#utility.yul\":8518:8589   */\n      tag_101\n      jump\t// in\n    tag_191:\n        /* \"#utility.yul\":8599:8671   */\n      tag_192\n        /* \"#utility.yul\":8667:8669   */\n      0x20\n        /* \"#utility.yul\":8656:8665   */\n      dup4\n        /* \"#utility.yul\":8652:8670   */\n      add\n        /* \"#utility.yul\":8643:8649   */\n      dup5\n        /* \"#utility.yul\":8599:8671   */\n      tag_101\n      jump\t// in\n    tag_192:\n        /* \"#utility.yul\":8346:8678   */\n      swap4\n      swap3\n      pop\n      pop\n      pop\n      jump\t// out\n\n    auxdata: 0xa2646970667358221220c11d801d6d63d42ced5fcfcc171b4ddc4e1d5bdb933204919510192a6199b70964736f6c634300081e0033\n}\n",
				"bytecode": {
					"linkReferences": {},
					"object": "60e0604052600160035f6101000a81548160ff021916908315150217905550348015610029575f5ffd5b506040516115ce3803806115ce833981810160405281019061004b9190610529565b8473ffffffffffffffffffffffffffffffffffffffff163373ffffffffffffffffffffffffffffffffffffffff16146100bb57336040517fd41e7b4c0000000000000000000000000000000000000000000000000000000081526004016100b291906105cb565b60405180910390fd5b8273ffffffffffffffffffffffffffffffffffffffff168273ffffffffffffffffffffffffffffffffffffffff161461012d5782336040517fbf9348a20000000000000000000000000000000000000000000000000000000081526004016101249291906105e4565b60405180910390fd5b5f73ffffffffffffffffffffffffffffffffffffffff168373ffffffffffffffffffffffffffffffffffffffff160361019b576040517f08c379a00000000000000000000000000000000000000000000000000000000081526004016101929061068b565b60405180910390fd5b5f5f1b84036101df576040517f08c379a00000000000000000000000000000000000000000000000000000000081526004016101d690610719565b60405180910390fd5b5f815103610222576040517f08c379a0000000000000000000000000000000000000000000000000000000008152600401610219906107a7565b60405180910390fd5b8473ffffffffffffffffffffffffffffffffffffffff1660808173ffffffffffffffffffffffffffffffffffffffff16815250508273ffffffffffffffffffffffffffffffffffffffff1660a08173ffffffffffffffffffffffffffffffffffffffff168152505060a0515f5f6101000a81548173ffffffffffffffffffffffffffffffffffffffff021916908373ffffffffffffffffffffffffffffffffffffffff160217905550600160a051908060018154018082558091505060019003905f5260205f20015f9091909190916101000a81548173ffffffffffffffffffffffffffffffffffffffff021916908373ffffffffffffffffffffffffffffffffffffffff1602179055508360c08181525050806002908161034491906109d5565b505050505050610aa4565b5f604051905090565b5f5ffd5b5f5ffd5b5f73ffffffffffffffffffffffffffffffffffffffff82169050919050565b5f61038982610360565b9050919050565b6103998161037f565b81146103a3575f5ffd5b50565b5f815190506103b481610390565b92915050565b5f819050919050565b6103cc816103ba565b81146103d6575f5ffd5b50565b5f815190506103e7816103c3565b92915050565b5f5ffd5b5f5ffd5b5f601f19601f8301169050919050565b7f4e487b71000000000000000000000000000000000000000000000000000000005f52604160045260245ffd5b61043b826103f5565b810181811067ffffffffffffffff8211171561045a57610459610405565b5b80604052505050565b5f61046c61034f565b90506104788282610432565b919050565b5f67ffffffffffffffff82111561049757610496610405565b5b6104a0826103f5565b9050602081019050919050565b8281835e5f83830152505050565b5f6104cd6104c88461047d565b610463565b9050828152602081018484840111156104e9576104e86103f1565b5b6104f48482856104ad565b509392505050565b5f82601f8301126105105761050f6103ed565b5b81516105208482602086016104bb565b91505092915050565b5f5f5f5f5f60a0868803121561054257610541610358565b5b5f61054f888289016103a6565b9550506020610560888289016103d9565b9450506040610571888289016103a6565b9350506060610582888289016103a6565b925050608086015167ffffffffffffffff8111156105a3576105a261035c565b5b6105af888289016104fc565b9150509295509295909350565b6105c58161037f565b82525050565b5f6020820190506105de5f8301846105bc565b92915050565b5f6040820190506105f75f8301856105bc565b61060460208301846105bc565b9392505050565b5f82825260208201905092915050565b7f496e76616c69642043726561746f723a2063616e6e6f74206265207a65726f205f8201527f6164647265737300000000000000000000000000000000000000000000000000602082015250565b5f61067560278361060b565b91506106808261061b565b604082019050919050565b5f6020820190508181035f8301526106a281610669565b9050919050565b7f496e76616c69642065766964656e63652049443a2049442063616e6e6f7420625f8201527f6520656d70747900000000000000000000000000000000000000000000000000602082015250565b5f61070360278361060b565b915061070e826106a9565b604082019050919050565b5f6020820190508181035f830152610730816106f7565b9050919050565b7f496e76616c6964206465736372697074696f6e3a206465736372697074696f6e5f8201527f2063616e6e6f7420626520656d70747900000000000000000000000000000000602082015250565b5f61079160308361060b565b915061079c82610737565b604082019050919050565b5f6020820190508181035f8301526107be81610785565b9050919050565b5f81519050919050565b7f4e487b71000000000000000000000000000000000000000000000000000000005f52602260045260245ffd5b5f600282049050600182168061081357607f821691505b602082108103610826576108256107cf565b5b50919050565b5f819050815f5260205f209050919050565b5f6020601f8301049050919050565b5f82821b905092915050565b5f600883026108887fffffffffffffffffffffffffffffffffffffffffffffffffffffffffffffffff8261084d565b610892868361084d565b95508019841693508086168417925050509392505050565b5f819050919050565b5f819050919050565b5f6108d66108d16108cc846108aa565b6108b3565b6108aa565b9050919050565b5f819050919050565b6108ef836108bc565b6109036108fb826108dd565b848454610859565b825550505050565b5f5f905090565b61091a61090b565b6109258184846108e6565b505050565b5b818110156109485761093d5f82610912565b60018101905061092b565b5050565b601f82111561098d5761095e8161082c565b6109678461083e565b81016020851015610976578190505b61098a6109828561083e565b83018261092a565b50505b505050565b5f82821c905092915050565b5f6109ad5f1984600802610992565b1980831691505092915050565b5f6109c5838361099e565b9150826002028217905092915050565b6109de826107c5565b67ffffffffffffffff8111156109f7576109f6610405565b5b610a0182546107fc565b610a0c82828561094c565b5f60209050601f831160018114610a3d575f8415610a2b578287015190505b610a3585826109ba565b865550610a9c565b601f198416610a4b8661082c565b5f5b82811015610a7257848901518255600182019150602085019450602081019050610a4d565b86831015610a8f5784890151610a8b601f89168261099e565b8355505b6001600288020188555050505b505050505050565b60805160a05160c051610afc610ad25f395f81816102ec015261033c01525f61036301525f5050610afc5ff3fe608060405234801561000f575f5ffd5b5060043610610086575f3560e01c806385ac28651161005957806385ac2865146100ee5780639e91bc541461010c578063a18a186b1461012a578063f2fde38b1461014857610086565b80634efdc6231461008a5780634f7eae94146100a8578063581c49a1146100c65780637ce7d376146100e4575b5f5ffd5b610092610164565b60405161009f91906106bd565b60405180910390f35b6100b0610179565b6040516100bd9190610746565b60405180910390f35b6100ce610209565b6040516100db919061084d565b60405180910390f35b6100ec610294565b005b6100f6610339565b6040516101039190610885565b60405180910390f35b610114610360565b60405161012191906108ad565b60405180910390f35b610132610387565b60405161013f91906108ad565b60405180910390f35b610162600480360381019061015d91906108f4565b6103ae565b005b5f60035f9054906101000a900460ff16905090565b6060600280546101889061094c565b80601f01602080910402602001604051908101604052809291908181526020018280546101b49061094c565b80156101ff5780601f106101d6576101008083540402835291602001916101ff565b820191905f5260205f20905b8154815290600101906020018083116101e257829003601f168201915b5050505050905090565b6060600180548060200260200160405190810160405280929190818152602001828054801561028a57602002820191905f5260205f20905b815f9054906101000a900473ffffffffffffffffffffffffffffffffffffffff1673ffffffffffffffffffffffffffffffffffffffff1681526020019060010190808311610241575b5050505050905090565b60035f9054906101000a900460ff166102e2576040517f08c379a00000000000000000000000000000000000000000000000000000000081526004016102d9906109c6565b60405180910390fd5b6102ea610488565b7f00000000000000000000000000000000000000000000000000000000000000007f14a361a50d98fbe05e22df9359b451b51cf087dc7f912cc7b41ba235754083dd60405160405180910390a2565b5f7f0000000000000000000000000000000000000000000000000000000000000000905090565b5f7f0000000000000000000000000000000000000000000000000000000000000000905090565b5f5f5f9054906101000a900473ffffffffffffffffffffffffffffffffffffffff16905090565b60035f9054906101000a900460ff166103fc576040517f08c379a00000000000000000000000000000000000000000000000000000000081526004016103f3906109c6565b60405180910390fd5b5f5f5f9054906101000a900473ffffffffffffffffffffffffffffffffffffffff16905061042a338361054c565b8173ffffffffffffffffffffffffffffffffffffffff168173ffffffffffffffffffffffffffffffffffffffff167f8be0079c531659141344cd1fd0a4f28419497f9722a3daafe3b4186f6b6457e060405160405180910390a35050565b60015f8154811061049c5761049b6109e4565b5b905f5260205f20015f9054906101000a900473ffffffffffffffffffffffffffffffffffffffff1673ffffffffffffffffffffffffffffffffffffffff163373ffffffffffffffffffffffffffffffffffffffff1614610531576040517f08c379a000000000000000000000000000000000000000000000000000000000815260040161052890610a81565b60405180910390fd5b5f60035f6101000a81548160ff021916908315150217905550565b815f5f9054906101000a900473ffffffffffffffffffffffffffffffffffffffff1673ffffffffffffffffffffffffffffffffffffffff168173ffffffffffffffffffffffffffffffffffffffff16146105ff575f5f9054906101000a900473ffffffffffffffffffffffffffffffffffffffff16816040517fd745b9ab0000000000000000000000000000000000000000000000000000000081526004016105f6929190610a9f565b60405180910390fd5b815f5f6101000a81548173ffffffffffffffffffffffffffffffffffffffff021916908373ffffffffffffffffffffffffffffffffffffffff160217905550600182908060018154018082558091505060019003905f5260205f20015f9091909190916101000a81548173ffffffffffffffffffffffffffffffffffffffff021916908373ffffffffffffffffffffffffffffffffffffffff160217905550505050565b5f8115159050919050565b6106b7816106a3565b82525050565b5f6020820190506106d05f8301846106ae565b92915050565b5f81519050919050565b5f82825260208201905092915050565b8281835e5f83830152505050565b5f601f19601f8301169050919050565b5f610718826106d6565b61072281856106e0565b93506107328185602086016106f0565b61073b816106fe565b840191505092915050565b5f6020820190508181035f83015261075e818461070e565b905092915050565b5f81519050919050565b5f82825260208201905092915050565b5f819050602082019050919050565b5f73ffffffffffffffffffffffffffffffffffffffff82169050919050565b5f6107b88261078f565b9050919050565b6107c8816107ae565b82525050565b5f6107d983836107bf565b60208301905092915050565b5f602082019050919050565b5f6107fb82610766565b6108058185610770565b935061081083610780565b805f5b8381101561084057815161082788826107ce565b9750610832836107e5565b925050600181019050610813565b5085935050505092915050565b5f6020820190508181035f83015261086581846107f1565b905092915050565b5f819050919050565b61087f8161086d565b82525050565b5f6020820190506108985f830184610876565b92915050565b6108a7816107ae565b82525050565b5f6020820190506108c05f83018461089e565b92915050565b5f5ffd5b6108d3816107ae565b81146108dd575f5ffd5b50565b5f813590506108ee816108ca565b92915050565b5f60208284031215610909576109086108c6565b5b5f610916848285016108e0565b91505092915050565b7f4e487b71000000000000000000000000000000000000000000000000000000005f52602260045260245ffd5b5f600282049050600182168061096357607f821691505b6020821081036109765761097561091f565b5b50919050565b7f45766964656e6365206973206e6f206c6f6e6765722061636365737369626c655f82015250565b5f6109b06020836106e0565b91506109bb8261097c565b602082019050919050565b5f6020820190508181035f8301526109dd816109a4565b9050919050565b7f4e487b71000000000000000000000000000000000000000000000000000000005f52603260045260245ffd5b7f4f6e6c792043726561746f722063616e2063616c6c20746869732066756e63745f8201527f696f6e0000000000000000000000000000000000000000000000000000000000602082015250565b5f610a6b6023836106e0565b9150610a7682610a11565b604082019050919050565b5f6020820190508181035f830152610a9881610a5f565b9050919050565b5f604082019050610ab25f83018561089e565b610abf602083018461089e565b939250505056fea2646970667358221220c11d801d6d63d42ced5fcfcc171b4ddc4e1d5bdb933204919510192a6199b70964736f6c634300081e0033",
					"opcodes": "PUSH1 0xE0 PUSH1 0x40 MSTORE PUSH1 0x1 PUSH1 0x3 PUSH0 PUSH2 0x100 EXP DUP2 SLOAD DUP2 PUSH1 0xFF MUL NOT AND SWAP1 DUP4 ISZERO ISZERO MUL OR SWAP1 SSTORE POP CALLVALUE DUP1 ISZERO PUSH2 0x29 JUMPI PUSH0 PUSH0 REVERT JUMPDEST POP PUSH1 0x40 MLOAD PUSH2 0x15CE CODESIZE SUB DUP1 PUSH2 0x15CE DUP4 CODECOPY DUP2 DUP2 ADD PUSH1 0x40 MSTORE DUP2 ADD SWAP1 PUSH2 0x4B SWAP2 SWAP1 PUSH2 0x529 JUMP JUMPDEST DUP5 PUSH20 0xFFFFFFFFFFFFFFFFFFFFFFFFFFFFFFFFFFFFFFFF AND CALLER PUSH20 0xFFFFFFFFFFFFFFFFFFFFFFFFFFFFFFFFFFFFFFFF AND EQ PUSH2 0xBB JUMPI CALLER PUSH1 0x40 MLOAD PUSH32 0xD41E7B4C00000000000000000000000000000000000000000000000000000000 DUP2 MSTORE PUSH1 0x4 ADD PUSH2 0xB2 SWAP2 SWAP1 PUSH2 0x5CB JUMP JUMPDEST PUSH1 0x40 MLOAD DUP1 SWAP2 SUB SWAP1 REVERT JUMPDEST DUP3 PUSH20 0xFFFFFFFFFFFFFFFFFFFFFFFFFFFFFFFFFFFFFFFF AND DUP3 PUSH20 0xFFFFFFFFFFFFFFFFFFFFFFFFFFFFFFFFFFFFFFFF AND EQ PUSH2 0x12D JUMPI DUP3 CALLER PUSH1 0x40 MLOAD PUSH32 0xBF9348A200000000000000000000000000000000000000000000000000000000 DUP2 MSTORE PUSH1 0x4 ADD PUSH2 0x124 SWAP3 SWAP2 SWAP1 PUSH2 0x5E4 JUMP JUMPDEST PUSH1 0x40 MLOAD DUP1 SWAP2 SUB SWAP1 REVERT JUMPDEST PUSH0 PUSH20 0xFFFFFFFFFFFFFFFFFFFFFFFFFFFFFFFFFFFFFFFF AND DUP4 PUSH20 0xFFFFFFFFFFFFFFFFFFFFFFFFFFFFFFFFFFFFFFFF AND SUB PUSH2 0x19B JUMPI PUSH1 0x40 MLOAD PUSH32 0x8C379A000000000000000000000000000000000000000000000000000000000 DUP2 MSTORE PUSH1 0x4 ADD PUSH2 0x192 SWAP1 PUSH2 0x68B JUMP JUMPDEST PUSH1 0x40 MLOAD DUP1 SWAP2 SUB SWAP1 REVERT JUMPDEST PUSH0 PUSH0 SHL DUP5 SUB PUSH2 0x1DF JUMPI PUSH1 0x40 MLOAD PUSH32 0x8C379A000000000000000000000000000000000000000000000000000000000 DUP2 MSTORE PUSH1 0x4 ADD PUSH2 0x1D6 SWAP1 PUSH2 0x719 JUMP JUMPDEST PUSH1 0x40 MLOAD DUP1 SWAP2 SUB SWAP1 REVERT JUMPDEST PUSH0 DUP2 MLOAD SUB PUSH2 0x222 JUMPI PUSH1 0x40 MLOAD PUSH32 0x8C379A000000000000000000000000000000000000000000000000000000000 DUP2 MSTORE PUSH1 0x4 ADD PUSH2 0x219 SWAP1 PUSH2 0x7A7 JUMP JUMPDEST PUSH1 0x40 MLOAD DUP1 SWAP2 SUB SWAP1 REVERT JUMPDEST DUP5 PUSH20 0xFFFFFFFFFFFFFFFFFFFFFFFFFFFFFFFFFFFFFFFF AND PUSH1 0x80 DUP2 PUSH20 0xFFFFFFFFFFFFFFFFFFFFFFFFFFFFFFFFFFFFFFFF AND DUP2 MSTORE POP POP DUP3 PUSH20 0xFFFFFFFFFFFFFFFFFFFFFFFFFFFFFFFFFFFFFFFF AND PUSH1 0xA0 DUP2 PUSH20 0xFFFFFFFFFFFFFFFFFFFFFFFFFFFFFFFFFFFFFFFF AND DUP2 MSTORE POP POP PUSH1 0xA0 MLOAD PUSH0 PUSH0 PUSH2 0x100 EXP DUP2 SLOAD DUP2 PUSH20 0xFFFFFFFFFFFFFFFFFFFFFFFFFFFFFFFFFFFFFFFF MUL NOT AND SWAP1 DUP4 PUSH20 0xFFFFFFFFFFFFFFFFFFFFFFFFFFFFFFFFFFFFFFFF AND MUL OR SWAP1 SSTORE POP PUSH1 0x1 PUSH1 0xA0 MLOAD SWAP1 DUP1 PUSH1 0x1 DUP2 SLOAD ADD DUP1 DUP3 SSTORE DUP1 SWAP2 POP POP PUSH1 0x1 SWAP1 SUB SWAP1 PUSH0 MSTORE PUSH1 0x20 PUSH0 KECCAK256 ADD PUSH0 SWAP1 SWAP2 SWAP1 SWAP2 SWAP1 SWAP2 PUSH2 0x100 EXP DUP2 SLOAD DUP2 PUSH20 0xFFFFFFFFFFFFFFFFFFFFFFFFFFFFFFFFFFFFFFFF MUL NOT AND SWAP1 DUP4 PUSH20 0xFFFFFFFFFFFFFFFFFFFFFFFFFFFFFFFFFFFFFFFF AND MUL OR SWAP1 SSTORE POP DUP4 PUSH1 0xC0 DUP2 DUP2 MSTORE POP POP DUP1 PUSH1 0x2 SWAP1 DUP2 PUSH2 0x344 SWAP2 SWAP1 PUSH2 0x9D5 JUMP JUMPDEST POP POP POP POP POP POP PUSH2 0xAA4 JUMP JUMPDEST PUSH0 PUSH1 0x40 MLOAD SWAP1 POP SWAP1 JUMP JUMPDEST PUSH0 PUSH0 REVERT JUMPDEST PUSH0 PUSH0 REVERT JUMPDEST PUSH0 PUSH20 0xFFFFFFFFFFFFFFFFFFFFFFFFFFFFFFFFFFFFFFFF DUP3 AND SWAP1 POP SWAP2 SWAP1 POP JUMP JUMPDEST PUSH0 PUSH2 0x389 DUP3 PUSH2 0x360 JUMP JUMPDEST SWAP1 POP SWAP2 SWAP1 POP JUMP JUMPDEST PUSH2 0x399 DUP2 PUSH2 0x37F JUMP JUMPDEST DUP2 EQ PUSH2 0x3A3 JUMPI PUSH0 PUSH0 REVERT JUMPDEST POP JUMP JUMPDEST PUSH0 DUP2 MLOAD SWAP1 POP PUSH2 0x3B4 DUP2 PUSH2 0x390 JUMP JUMPDEST SWAP3 SWAP2 POP POP JUMP JUMPDEST PUSH0 DUP2 SWAP1 POP SWAP2 SWAP1 POP JUMP JUMPDEST PUSH2 0x3CC DUP2 PUSH2 0x3BA JUMP JUMPDEST DUP2 EQ PUSH2 0x3D6 JUMPI PUSH0 PUSH0 REVERT JUMPDEST POP JUMP JUMPDEST PUSH0 DUP2 MLOAD SWAP1 POP PUSH2 0x3E7 DUP2 PUSH2 0x3C3 JUMP JUMPDEST SWAP3 SWAP2 POP POP JUMP JUMPDEST PUSH0 PUSH0 REVERT JUMPDEST PUSH0 PUSH0 REVERT JUMPDEST PUSH0 PUSH1 0x1F NOT PUSH1 0x1F DUP4 ADD AND SWAP1 POP SWAP2 SWAP1 POP JUMP JUMPDEST PUSH32 0x4E487B7100000000000000000000000000000000000000000000000000000000 PUSH0 MSTORE PUSH1 0x41 PUSH1 0x4 MSTORE PUSH1 0x24 PUSH0 REVERT JUMPDEST PUSH2 0x43B DUP3 PUSH2 0x3F5 JUMP JUMPDEST DUP2 ADD DUP2 DUP2 LT PUSH8 0xFFFFFFFFFFFFFFFF DUP3 GT OR ISZERO PUSH2 0x45A JUMPI PUSH2 0x459 PUSH2 0x405 JUMP JUMPDEST JUMPDEST DUP1 PUSH1 0x40 MSTORE POP POP POP JUMP JUMPDEST PUSH0 PUSH2 0x46C PUSH2 0x34F JUMP JUMPDEST SWAP1 POP PUSH2 0x478 DUP3 DUP3 PUSH2 0x432 JUMP JUMPDEST SWAP2 SWAP1 POP JUMP JUMPDEST PUSH0 PUSH8 0xFFFFFFFFFFFFFFFF DUP3 GT ISZERO PUSH2 0x497 JUMPI PUSH2 0x496 PUSH2 0x405 JUMP JUMPDEST JUMPDEST PUSH2 0x4A0 DUP3 PUSH2 0x3F5 JUMP JUMPDEST SWAP1 POP PUSH1 0x20 DUP2 ADD SWAP1 POP SWAP2 SWAP1 POP JUMP JUMPDEST DUP3 DUP2 DUP4 MCOPY PUSH0 DUP4 DUP4 ADD MSTORE POP POP POP JUMP JUMPDEST PUSH0 PUSH2 0x4CD PUSH2 0x4C8 DUP5 PUSH2 0x47D JUMP JUMPDEST PUSH2 0x463 JUMP JUMPDEST SWAP1 POP DUP3 DUP2 MSTORE PUSH1 0x20 DUP2 ADD DUP5 DUP5 DUP5 ADD GT ISZERO PUSH2 0x4E9 JUMPI PUSH2 0x4E8 PUSH2 0x3F1 JUMP JUMPDEST JUMPDEST PUSH2 0x4F4 DUP5 DUP3 DUP6 PUSH2 0x4AD JUMP JUMPDEST POP SWAP4 SWAP3 POP POP POP JUMP JUMPDEST PUSH0 DUP3 PUSH1 0x1F DUP4 ADD SLT PUSH2 0x510 JUMPI PUSH2 0x50F PUSH2 0x3ED JUMP JUMPDEST JUMPDEST DUP2 MLOAD PUSH2 0x520 DUP5 DUP3 PUSH1 0x20 DUP7 ADD PUSH2 0x4BB JUMP JUMPDEST SWAP2 POP POP SWAP3 SWAP2 POP POP JUMP JUMPDEST PUSH0 PUSH0 PUSH0 PUSH0 PUSH0 PUSH1 0xA0 DUP7 DUP9 SUB SLT ISZERO PUSH2 0x542 JUMPI PUSH2 0x541 PUSH2 0x358 JUMP JUMPDEST JUMPDEST PUSH0 PUSH2 0x54F DUP9 DUP3 DUP10 ADD PUSH2 0x3A6 JUMP JUMPDEST SWAP6 POP POP PUSH1 0x20 PUSH2 0x560 DUP9 DUP3 DUP10 ADD PUSH2 0x3D9 JUMP JUMPDEST SWAP5 POP POP PUSH1 0x40 PUSH2 0x571 DUP9 DUP3 DUP10 ADD PUSH2 0x3A6 JUMP JUMPDEST SWAP4 POP POP PUSH1 0x60 PUSH2 0x582 DUP9 DUP3 DUP10 ADD PUSH2 0x3A6 JUMP JUMPDEST SWAP3 POP POP PUSH1 0x80 DUP7 ADD MLOAD PUSH8 0xFFFFFFFFFFFFFFFF DUP2 GT ISZERO PUSH2 0x5A3 JUMPI PUSH2 0x5A2 PUSH2 0x35C JUMP JUMPDEST JUMPDEST PUSH2 0x5AF DUP9 DUP3 DUP10 ADD PUSH2 0x4FC JUMP JUMPDEST SWAP2 POP POP SWAP3 SWAP6 POP SWAP3 SWAP6 SWAP1 SWAP4 POP JUMP JUMPDEST PUSH2 0x5C5 DUP2 PUSH2 0x37F JUMP JUMPDEST DUP3 MSTORE POP POP JUMP JUMPDEST PUSH0 PUSH1 0x20 DUP3 ADD SWAP1 POP PUSH2 0x5DE PUSH0 DUP4 ADD DUP5 PUSH2 0x5BC JUMP JUMPDEST SWAP3 SWAP2 POP POP JUMP JUMPDEST PUSH0 PUSH1 0x40 DUP3 ADD SWAP1 POP PUSH2 0x5F7 PUSH0 DUP4 ADD DUP6 PUSH2 0x5BC JUMP JUMPDEST PUSH2 0x604 PUSH1 0x20 DUP4 ADD DUP5 PUSH2 0x5BC JUMP JUMPDEST SWAP4 SWAP3 POP POP POP JUMP JUMPDEST PUSH0 DUP3 DUP3 MSTORE PUSH1 0x20 DUP3 ADD SWAP1 POP SWAP3 SWAP2 POP POP JUMP JUMPDEST PUSH32 0x496E76616C69642043726561746F723A2063616E6E6F74206265207A65726F20 PUSH0 DUP3 ADD MSTORE PUSH32 0x6164647265737300000000000000000000000000000000000000000000000000 PUSH1 0x20 DUP3 ADD MSTORE POP JUMP JUMPDEST PUSH0 PUSH2 0x675 PUSH1 0x27 DUP4 PUSH2 0x60B JUMP JUMPDEST SWAP2 POP PUSH2 0x680 DUP3 PUSH2 0x61B JUMP JUMPDEST PUSH1 0x40 DUP3 ADD SWAP1 POP SWAP2 SWAP1 POP JUMP JUMPDEST PUSH0 PUSH1 0x20 DUP3 ADD SWAP1 POP DUP2 DUP2 SUB PUSH0 DUP4 ADD MSTORE PUSH2 0x6A2 DUP2 PUSH2 0x669 JUMP JUMPDEST SWAP1 POP SWAP2 SWAP1 POP JUMP JUMPDEST PUSH32 0x496E76616C69642065766964656E63652049443A2049442063616E6E6F742062 PUSH0 DUP3 ADD MSTORE PUSH32 0x6520656D70747900000000000000000000000000000000000000000000000000 PUSH1 0x20 DUP3 ADD MSTORE POP JUMP JUMPDEST PUSH0 PUSH2 0x703 PUSH1 0x27 DUP4 PUSH2 0x60B JUMP JUMPDEST SWAP2 POP PUSH2 0x70E DUP3 PUSH2 0x6A9 JUMP JUMPDEST PUSH1 0x40 DUP3 ADD SWAP1 POP SWAP2 SWAP1 POP JUMP JUMPDEST PUSH0 PUSH1 0x20 DUP3 ADD SWAP1 POP DUP2 DUP2 SUB PUSH0 DUP4 ADD MSTORE PUSH2 0x730 DUP2 PUSH2 0x6F7 JUMP JUMPDEST SWAP1 POP SWAP2 SWAP1 POP JUMP JUMPDEST PUSH32 0x496E76616C6964206465736372697074696F6E3A206465736372697074696F6E PUSH0 DUP3 ADD MSTORE PUSH32 0x2063616E6E6F7420626520656D70747900000000000000000000000000000000 PUSH1 0x20 DUP3 ADD MSTORE POP JUMP JUMPDEST PUSH0 PUSH2 0x791 PUSH1 0x30 DUP4 PUSH2 0x60B JUMP JUMPDEST SWAP2 POP PUSH2 0x79C DUP3 PUSH2 0x737 JUMP JUMPDEST PUSH1 0x40 DUP3 ADD SWAP1 POP SWAP2 SWAP1 POP JUMP JUMPDEST PUSH0 PUSH1 0x20 DUP3 ADD SWAP1 POP DUP2 DUP2 SUB PUSH0 DUP4 ADD MSTORE PUSH2 0x7BE DUP2 PUSH2 0x785 JUMP JUMPDEST SWAP1 POP SWAP2 SWAP1 POP JUMP JUMPDEST PUSH0 DUP2 MLOAD SWAP1 POP SWAP2 SWAP1 POP JUMP JUMPDEST PUSH32 0x4E487B7100000000000000000000000000000000000000000000000000000000 PUSH0 MSTORE PUSH1 0x22 PUSH1 0x4 MSTORE PUSH1 0x24 PUSH0 REVERT JUMPDEST PUSH0 PUSH1 0x2 DUP3 DIV SWAP1 POP PUSH1 0x1 DUP3 AND DUP1 PUSH2 0x813 JUMPI PUSH1 0x7F DUP3 AND SWAP2 POP JUMPDEST PUSH1 0x20 DUP3 LT DUP2 SUB PUSH2 0x826 JUMPI PUSH2 0x825 PUSH2 0x7CF JUMP JUMPDEST JUMPDEST POP SWAP2 SWAP1 POP JUMP JUMPDEST PUSH0 DUP2 SWAP1 POP DUP2 PUSH0 MSTORE PUSH1 0x20 PUSH0 KECCAK256 SWAP1 POP SWAP2 SWAP1 POP JUMP JUMPDEST PUSH0 PUSH1 0x20 PUSH1 0x1F DUP4 ADD DIV SWAP1 POP SWAP2 SWAP1 POP JUMP JUMPDEST PUSH0 DUP3 DUP3 SHL SWAP1 POP SWAP3 SWAP2 POP POP JUMP JUMPDEST PUSH0 PUSH1 0x8 DUP4 MUL PUSH2 0x888 PUSH32 0xFFFFFFFFFFFFFFFFFFFFFFFFFFFFFFFFFFFFFFFFFFFFFFFFFFFFFFFFFFFFFFFF DUP3 PUSH2 0x84D JUMP JUMPDEST PUSH2 0x892 DUP7 DUP4 PUSH2 0x84D JUMP JUMPDEST SWAP6 POP DUP1 NOT DUP5 AND SWAP4 POP DUP1 DUP7 AND DUP5 OR SWAP3 POP POP POP SWAP4 SWAP3 POP POP POP JUMP JUMPDEST PUSH0 DUP2 SWAP1 POP SWAP2 SWAP1 POP JUMP JUMPDEST PUSH0 DUP2 SWAP1 POP SWAP2 SWAP1 POP JUMP JUMPDEST PUSH0 PUSH2 0x8D6 PUSH2 0x8D1 PUSH2 0x8CC DUP5 PUSH2 0x8AA JUMP JUMPDEST PUSH2 0x8B3 JUMP JUMPDEST PUSH2 0x8AA JUMP JUMPDEST SWAP1 POP SWAP2 SWAP1 POP JUMP JUMPDEST PUSH0 DUP2 SWAP1 POP SWAP2 SWAP1 POP JUMP JUMPDEST PUSH2 0x8EF DUP4 PUSH2 0x8BC JUMP JUMPDEST PUSH2 0x903 PUSH2 0x8FB DUP3 PUSH2 0x8DD JUMP JUMPDEST DUP5 DUP5 SLOAD PUSH2 0x859 JUMP JUMPDEST DUP3 SSTORE POP POP POP POP JUMP JUMPDEST PUSH0 PUSH0 SWAP1 POP SWAP1 JUMP JUMPDEST PUSH2 0x91A PUSH2 0x90B JUMP JUMPDEST PUSH2 0x925 DUP2 DUP5 DUP5 PUSH2 0x8E6 JUMP JUMPDEST POP POP POP JUMP JUMPDEST JUMPDEST DUP2 DUP2 LT ISZERO PUSH2 0x948 JUMPI PUSH2 0x93D PUSH0 DUP3 PUSH2 0x912 JUMP JUMPDEST PUSH1 0x1 DUP2 ADD SWAP1 POP PUSH2 0x92B JUMP JUMPDEST POP POP JUMP JUMPDEST PUSH1 0x1F DUP3 GT ISZERO PUSH2 0x98D JUMPI PUSH2 0x95E DUP2 PUSH2 0x82C JUMP JUMPDEST PUSH2 0x967 DUP5 PUSH2 0x83E JUMP JUMPDEST DUP2 ADD PUSH1 0x20 DUP6 LT ISZERO PUSH2 0x976 JUMPI DUP2 SWAP1 POP JUMPDEST PUSH2 0x98A PUSH2 0x982 DUP6 PUSH2 0x83E JUMP JUMPDEST DUP4 ADD DUP3 PUSH2 0x92A JUMP JUMPDEST POP POP JUMPDEST POP POP POP JUMP JUMPDEST PUSH0 DUP3 DUP3 SHR SWAP1 POP SWAP3 SWAP2 POP POP JUMP JUMPDEST PUSH0 PUSH2 0x9AD PUSH0 NOT DUP5 PUSH1 0x8 MUL PUSH2 0x992 JUMP JUMPDEST NOT DUP1 DUP4 AND SWAP2 POP POP SWAP3 SWAP2 POP POP JUMP JUMPDEST PUSH0 PUSH2 0x9C5 DUP4 DUP4 PUSH2 0x99E JUMP JUMPDEST SWAP2 POP DUP3 PUSH1 0x2 MUL DUP3 OR SWAP1 POP SWAP3 SWAP2 POP POP JUMP JUMPDEST PUSH2 0x9DE DUP3 PUSH2 0x7C5 JUMP JUMPDEST PUSH8 0xFFFFFFFFFFFFFFFF DUP2 GT ISZERO PUSH2 0x9F7 JUMPI PUSH2 0x9F6 PUSH2 0x405 JUMP JUMPDEST JUMPDEST PUSH2 0xA01 DUP3 SLOAD PUSH2 0x7FC JUMP JUMPDEST PUSH2 0xA0C DUP3 DUP3 DUP6 PUSH2 0x94C JUMP JUMPDEST PUSH0 PUSH1 0x20 SWAP1 POP PUSH1 0x1F DUP4 GT PUSH1 0x1 DUP2 EQ PUSH2 0xA3D JUMPI PUSH0 DUP5 ISZERO PUSH2 0xA2B JUMPI DUP3 DUP8 ADD MLOAD SWAP1 POP JUMPDEST PUSH2 0xA35 DUP6 DUP3 PUSH2 0x9BA JUMP JUMPDEST DUP7 SSTORE POP PUSH2 0xA9C JUMP JUMPDEST PUSH1 0x1F NOT DUP5 AND PUSH2 0xA4B DUP7 PUSH2 0x82C JUMP JUMPDEST PUSH0 JUMPDEST DUP3 DUP2 LT ISZERO PUSH2 0xA72 JUMPI DUP5 DUP10 ADD MLOAD DUP3 SSTORE PUSH1 0x1 DUP3 ADD SWAP2 POP PUSH1 0x20 DUP6 ADD SWAP5 POP PUSH1 0x20 DUP2 ADD SWAP1 POP PUSH2 0xA4D JUMP JUMPDEST DUP7 DUP4 LT ISZERO PUSH2 0xA8F JUMPI DUP5 DUP10 ADD MLOAD PUSH2 0xA8B PUSH1 0x1F DUP10 AND DUP3 PUSH2 0x99E JUMP JUMPDEST DUP4 SSTORE POP JUMPDEST PUSH1 0x1 PUSH1 0x2 DUP9 MUL ADD DUP9 SSTORE POP POP POP JUMPDEST POP POP POP POP POP POP JUMP JUMPDEST PUSH1 0x80 MLOAD PUSH1 0xA0 MLOAD PUSH1 0xC0 MLOAD PUSH2 0xAFC PUSH2 0xAD2 PUSH0 CODECOPY PUSH0 DUP2 DUP2 PUSH2 0x2EC ADD MSTORE PUSH2 0x33C ADD MSTORE PUSH0 PUSH2 0x363 ADD MSTORE PUSH0 POP POP PUSH2 0xAFC PUSH0 RETURN INVALID PUSH1 0x80 PUSH1 0x40 MSTORE CALLVALUE DUP1 ISZERO PUSH2 0xF JUMPI PUSH0 PUSH0 REVERT JUMPDEST POP PUSH1 0x4 CALLDATASIZE LT PUSH2 0x86 JUMPI PUSH0 CALLDATALOAD PUSH1 0xE0 SHR DUP1 PUSH4 0x85AC2865 GT PUSH2 0x59 JUMPI DUP1 PUSH4 0x85AC2865 EQ PUSH2 0xEE JUMPI DUP1 PUSH4 0x9E91BC54 EQ PUSH2 0x10C JUMPI DUP1 PUSH4 0xA18A186B EQ PUSH2 0x12A JUMPI DUP1 PUSH4 0xF2FDE38B EQ PUSH2 0x148 JUMPI PUSH2 0x86 JUMP JUMPDEST DUP1 PUSH4 0x4EFDC623 EQ PUSH2 0x8A JUMPI DUP1 PUSH4 0x4F7EAE94 EQ PUSH2 0xA8 JUMPI DUP1 PUSH4 0x581C49A1 EQ PUSH2 0xC6 JUMPI DUP1 PUSH4 0x7CE7D376 EQ PUSH2 0xE4 JUMPI JUMPDEST PUSH0 PUSH0 REVERT JUMPDEST PUSH2 0x92 PUSH2 0x164 JUMP JUMPDEST PUSH1 0x40 MLOAD PUSH2 0x9F SWAP2 SWAP1 PUSH2 0x6BD JUMP JUMPDEST PUSH1 0x40 MLOAD DUP1 SWAP2 SUB SWAP1 RETURN JUMPDEST PUSH2 0xB0 PUSH2 0x179 JUMP JUMPDEST PUSH1 0x40 MLOAD PUSH2 0xBD SWAP2 SWAP1 PUSH2 0x746 JUMP JUMPDEST PUSH1 0x40 MLOAD DUP1 SWAP2 SUB SWAP1 RETURN JUMPDEST PUSH2 0xCE PUSH2 0x209 JUMP JUMPDEST PUSH1 0x40 MLOAD PUSH2 0xDB SWAP2 SWAP1 PUSH2 0x84D JUMP JUMPDEST PUSH1 0x40 MLOAD DUP1 SWAP2 SUB SWAP1 RETURN JUMPDEST PUSH2 0xEC PUSH2 0x294 JUMP JUMPDEST STOP JUMPDEST PUSH2 0xF6 PUSH2 0x339 JUMP JUMPDEST PUSH1 0x40 MLOAD PUSH2 0x103 SWAP2 SWAP1 PUSH2 0x885 JUMP JUMPDEST PUSH1 0x40 MLOAD DUP1 SWAP2 SUB SWAP1 RETURN JUMPDEST PUSH2 0x114 PUSH2 0x360 JUMP JUMPDEST PUSH1 0x40 MLOAD PUSH2 0x121 SWAP2 SWAP1 PUSH2 0x8AD JUMP JUMPDEST PUSH1 0x40 MLOAD DUP1 SWAP2 SUB SWAP1 RETURN JUMPDEST PUSH2 0x132 PUSH2 0x387 JUMP JUMPDEST PUSH1 0x40 MLOAD PUSH2 0x13F SWAP2 SWAP1 PUSH2 0x8AD JUMP JUMPDEST PUSH1 0x40 MLOAD DUP1 SWAP2 SUB SWAP1 RETURN JUMPDEST PUSH2 0x162 PUSH1 0x4 DUP1 CALLDATASIZE SUB DUP2 ADD SWAP1 PUSH2 0x15D SWAP2 SWAP1 PUSH2 0x8F4 JUMP JUMPDEST PUSH2 0x3AE JUMP JUMPDEST STOP JUMPDEST PUSH0 PUSH1 0x3 PUSH0 SWAP1 SLOAD SWAP1 PUSH2 0x100 EXP SWAP1 DIV PUSH1 0xFF AND SWAP1 POP SWAP1 JUMP JUMPDEST PUSH1 0x60 PUSH1 0x2 DUP1 SLOAD PUSH2 0x188 SWAP1 PUSH2 0x94C JUMP JUMPDEST DUP1 PUSH1 0x1F ADD PUSH1 0x20 DUP1 SWAP2 DIV MUL PUSH1 0x20 ADD PUSH1 0x40 MLOAD SWAP1 DUP2 ADD PUSH1 0x40 MSTORE DUP1 SWAP3 SWAP2 SWAP1 DUP2 DUP2 MSTORE PUSH1 0x20 ADD DUP3 DUP1 SLOAD PUSH2 0x1B4 SWAP1 PUSH2 0x94C JUMP JUMPDEST DUP1 ISZERO PUSH2 0x1FF JUMPI DUP1 PUSH1 0x1F LT PUSH2 0x1D6 JUMPI PUSH2 0x100 DUP1 DUP4 SLOAD DIV MUL DUP4 MSTORE SWAP2 PUSH1 0x20 ADD SWAP2 PUSH2 0x1FF JUMP JUMPDEST DUP3 ADD SWAP2 SWAP1 PUSH0 MSTORE PUSH1 0x20 PUSH0 KECCAK256 SWAP1 JUMPDEST DUP2 SLOAD DUP2 MSTORE SWAP1 PUSH1 0x1 ADD SWAP1 PUSH1 0x20 ADD DUP1 DUP4 GT PUSH2 0x1E2 JUMPI DUP3 SWAP1 SUB PUSH1 0x1F AND DUP3 ADD SWAP2 JUMPDEST POP POP POP POP POP SWAP1 POP SWAP1 JUMP JUMPDEST PUSH1 0x60 PUSH1 0x1 DUP1 SLOAD DUP1 PUSH1 0x20 MUL PUSH1 0x20 ADD PUSH1 0x40 MLOAD SWAP1 DUP2 ADD PUSH1 0x40 MSTORE DUP1 SWAP3 SWAP2 SWAP1 DUP2 DUP2 MSTORE PUSH1 0x20 ADD DUP3 DUP1 SLOAD DUP1 ISZERO PUSH2 0x28A JUMPI PUSH1 0x20 MUL DUP3 ADD SWAP2 SWAP1 PUSH0 MSTORE PUSH1 0x20 PUSH0 KECCAK256 SWAP1 JUMPDEST DUP2 PUSH0 SWAP1 SLOAD SWAP1 PUSH2 0x100 EXP SWAP1 DIV PUSH20 0xFFFFFFFFFFFFFFFFFFFFFFFFFFFFFFFFFFFFFFFF AND PUSH20 0xFFFFFFFFFFFFFFFFFFFFFFFFFFFFFFFFFFFFFFFF AND DUP2 MSTORE PUSH1 0x20 ADD SWAP1 PUSH1 0x1 ADD SWAP1 DUP1 DUP4 GT PUSH2 0x241 JUMPI JUMPDEST POP POP POP POP POP SWAP1 POP SWAP1 JUMP JUMPDEST PUSH1 0x3 PUSH0 SWAP1 SLOAD SWAP1 PUSH2 0x100 EXP SWAP1 DIV PUSH1 0xFF AND PUSH2 0x2E2 JUMPI PUSH1 0x40 MLOAD PUSH32 0x8C379A000000000000000000000000000000000000000000000000000000000 DUP2 MSTORE PUSH1 0x4 ADD PUSH2 0x2D9 SWAP1 PUSH2 0x9C6 JUMP JUMPDEST PUSH1 0x40 MLOAD DUP1 SWAP2 SUB SWAP1 REVERT JUMPDEST PUSH2 0x2EA PUSH2 0x488 JUMP JUMPDEST PUSH32 0x0 PUSH32 0x14A361A50D98FBE05E22DF9359B451B51CF087DC7F912CC7B41BA235754083DD PUSH1 0x40 MLOAD PUSH1 0x40 MLOAD DUP1 SWAP2 SUB SWAP1 LOG2 JUMP JUMPDEST PUSH0 PUSH32 0x0 SWAP1 POP SWAP1 JUMP JUMPDEST PUSH0 PUSH32 0x0 SWAP1 POP SWAP1 JUMP JUMPDEST PUSH0 PUSH0 PUSH0 SWAP1 SLOAD SWAP1 PUSH2 0x100 EXP SWAP1 DIV PUSH20 0xFFFFFFFFFFFFFFFFFFFFFFFFFFFFFFFFFFFFFFFF AND SWAP1 POP SWAP1 JUMP JUMPDEST PUSH1 0x3 PUSH0 SWAP1 SLOAD SWAP1 PUSH2 0x100 EXP SWAP1 DIV PUSH1 0xFF AND PUSH2 0x3FC JUMPI PUSH1 0x40 MLOAD PUSH32 0x8C379A000000000000000000000000000000000000000000000000000000000 DUP2 MSTORE PUSH1 0x4 ADD PUSH2 0x3F3 SWAP1 PUSH2 0x9C6 JUMP JUMPDEST PUSH1 0x40 MLOAD DUP1 SWAP2 SUB SWAP1 REVERT JUMPDEST PUSH0 PUSH0 PUSH0 SWAP1 SLOAD SWAP1 PUSH2 0x100 EXP SWAP1 DIV PUSH20 0xFFFFFFFFFFFFFFFFFFFFFFFFFFFFFFFFFFFFFFFF AND SWAP1 POP PUSH2 0x42A CALLER DUP4 PUSH2 0x54C JUMP JUMPDEST DUP2 PUSH20 0xFFFFFFFFFFFFFFFFFFFFFFFFFFFFFFFFFFFFFFFF AND DUP2 PUSH20 0xFFFFFFFFFFFFFFFFFFFFFFFFFFFFFFFFFFFFFFFF AND PUSH32 0x8BE0079C531659141344CD1FD0A4F28419497F9722A3DAAFE3B4186F6B6457E0 PUSH1 0x40 MLOAD PUSH1 0x40 MLOAD DUP1 SWAP2 SUB SWAP1 LOG3 POP POP JUMP JUMPDEST PUSH1 0x1 PUSH0 DUP2 SLOAD DUP2 LT PUSH2 0x49C JUMPI PUSH2 0x49B PUSH2 0x9E4 JUMP JUMPDEST JUMPDEST SWAP1 PUSH0 MSTORE PUSH1 0x20 PUSH0 KECCAK256 ADD PUSH0 SWAP1 SLOAD SWAP1 PUSH2 0x100 EXP SWAP1 DIV PUSH20 0xFFFFFFFFFFFFFFFFFFFFFFFFFFFFFFFFFFFFFFFF AND PUSH20 0xFFFFFFFFFFFFFFFFFFFFFFFFFFFFFFFFFFFFFFFF AND CALLER PUSH20 0xFFFFFFFFFFFFFFFFFFFFFFFFFFFFFFFFFFFFFFFF AND EQ PUSH2 0x531 JUMPI PUSH1 0x40 MLOAD PUSH32 0x8C379A000000000000000000000000000000000000000000000000000000000 DUP2 MSTORE PUSH1 0x4 ADD PUSH2 0x528 SWAP1 PUSH2 0xA81 JUMP JUMPDEST PUSH1 0x40 MLOAD DUP1 SWAP2 SUB SWAP1 REVERT JUMPDEST PUSH0 PUSH1 0x3 PUSH0 PUSH2 0x100 EXP DUP2 SLOAD DUP2 PUSH1 0xFF MUL NOT AND SWAP1 DUP4 ISZERO ISZERO MUL OR SWAP1 SSTORE POP JUMP JUMPDEST DUP2 PUSH0 PUSH0 SWAP1 SLOAD SWAP1 PUSH2 0x100 EXP SWAP1 DIV PUSH20 0xFFFFFFFFFFFFFFFFFFFFFFFFFFFFFFFFFFFFFFFF AND PUSH20 0xFFFFFFFFFFFFFFFFFFFFFFFFFFFFFFFFFFFFFFFF AND DUP2 PUSH20 0xFFFFFFFFFFFFFFFFFFFFFFFFFFFFFFFFFFFFFFFF AND EQ PUSH2 0x5FF JUMPI PUSH0 PUSH0 SWAP1 SLOAD SWAP1 PUSH2 0x100 EXP SWAP1 DIV PUSH20 0xFFFFFFFFFFFFFFFFFFFFFFFFFFFFFFFFFFFFFFFF AND DUP2 PUSH1 0x40 MLOAD PUSH32 0xD745B9AB00000000000000000000000000000000000000000000000000000000 DUP2 MSTORE PUSH1 0x4 ADD PUSH2 0x5F6 SWAP3 SWAP2 SWAP1 PUSH2 0xA9F JUMP JUMPDEST PUSH1 0x40 MLOAD DUP1 SWAP2 SUB SWAP1 REVERT JUMPDEST DUP2 PUSH0 PUSH0 PUSH2 0x100 EXP DUP2 SLOAD DUP2 PUSH20 0xFFFFFFFFFFFFFFFFFFFFFFFFFFFFFFFFFFFFFFFF MUL NOT AND SWAP1 DUP4 PUSH20 0xFFFFFFFFFFFFFFFFFFFFFFFFFFFFFFFFFFFFFFFF AND MUL OR SWAP1 SSTORE POP PUSH1 0x1 DUP3 SWAP1 DUP1 PUSH1 0x1 DUP2 SLOAD ADD DUP1 DUP3 SSTORE DUP1 SWAP2 POP POP PUSH1 0x1 SWAP1 SUB SWAP1 PUSH0 MSTORE PUSH1 0x20 PUSH0 KECCAK256 ADD PUSH0 SWAP1 SWAP2 SWAP1 SWAP2 SWAP1 SWAP2 PUSH2 0x100 EXP DUP2 SLOAD DUP2 PUSH20 0xFFFFFFFFFFFFFFFFFFFFFFFFFFFFFFFFFFFFFFFF MUL NOT AND SWAP1 DUP4 PUSH20 0xFFFFFFFFFFFFFFFFFFFFFFFFFFFFFFFFFFFFFFFF AND MUL OR SWAP1 SSTORE POP POP POP POP JUMP JUMPDEST PUSH0 DUP2 ISZERO ISZERO SWAP1 POP SWAP2 SWAP1 POP JUMP JUMPDEST PUSH2 0x6B7 DUP2 PUSH2 0x6A3 JUMP JUMPDEST DUP3 MSTORE POP POP JUMP JUMPDEST PUSH0 PUSH1 0x20 DUP3 ADD SWAP1 POP PUSH2 0x6D0 PUSH0 DUP4 ADD DUP5 PUSH2 0x6AE JUMP JUMPDEST SWAP3 SWAP2 POP POP JUMP JUMPDEST PUSH0 DUP2 MLOAD SWAP1 POP SWAP2 SWAP1 POP JUMP JUMPDEST PUSH0 DUP3 DUP3 MSTORE PUSH1 0x20 DUP3 ADD SWAP1 POP SWAP3 SWAP2 POP POP JUMP JUMPDEST DUP3 DUP2 DUP4 MCOPY PUSH0 DUP4 DUP4 ADD MSTORE POP POP POP JUMP JUMPDEST PUSH0 PUSH1 0x1F NOT PUSH1 0x1F DUP4 ADD AND SWAP1 POP SWAP2 SWAP1 POP JUMP JUMPDEST PUSH0 PUSH2 0x718 DUP3 PUSH2 0x6D6 JUMP JUMPDEST PUSH2 0x722 DUP2 DUP6 PUSH2 0x6E0 JUMP JUMPDEST SWAP4 POP PUSH2 0x732 DUP2 DUP6 PUSH1 0x20 DUP7 ADD PUSH2 0x6F0 JUMP JUMPDEST PUSH2 0x73B DUP2 PUSH2 0x6FE JUMP JUMPDEST DUP5 ADD SWAP2 POP POP SWAP3 SWAP2 POP POP JUMP JUMPDEST PUSH0 PUSH1 0x20 DUP3 ADD SWAP1 POP DUP2 DUP2 SUB PUSH0 DUP4 ADD MSTORE PUSH2 0x75E DUP2 DUP5 PUSH2 0x70E JUMP JUMPDEST SWAP1 POP SWAP3 SWAP2 POP POP JUMP JUMPDEST PUSH0 DUP2 MLOAD SWAP1 POP SWAP2 SWAP1 POP JUMP JUMPDEST PUSH0 DUP3 DUP3 MSTORE PUSH1 0x20 DUP3 ADD SWAP1 POP SWAP3 SWAP2 POP POP JUMP JUMPDEST PUSH0 DUP2 SWAP1 POP PUSH1 0x20 DUP3 ADD SWAP1 POP SWAP2 SWAP1 POP JUMP JUMPDEST PUSH0 PUSH20 0xFFFFFFFFFFFFFFFFFFFFFFFFFFFFFFFFFFFFFFFF DUP3 AND SWAP1 POP SWAP2 SWAP1 POP JUMP JUMPDEST PUSH0 PUSH2 0x7B8 DUP3 PUSH2 0x78F JUMP JUMPDEST SWAP1 POP SWAP2 SWAP1 POP JUMP JUMPDEST PUSH2 0x7C8 DUP2 PUSH2 0x7AE JUMP JUMPDEST DUP3 MSTORE POP POP JUMP JUMPDEST PUSH0 PUSH2 0x7D9 DUP4 DUP4 PUSH2 0x7BF JUMP JUMPDEST PUSH1 0x20 DUP4 ADD SWAP1 POP SWAP3 SWAP2 POP POP JUMP JUMPDEST PUSH0 PUSH1 0x20 DUP3 ADD SWAP1 POP SWAP2 SWAP1 POP JUMP JUMPDEST PUSH0 PUSH2 0x7FB DUP3 PUSH2 0x766 JUMP JUMPDEST PUSH2 0x805 DUP2 DUP6 PUSH2 0x770 JUMP JUMPDEST SWAP4 POP PUSH2 0x810 DUP4 PUSH2 0x780 JUMP JUMPDEST DUP1 PUSH0 JUMPDEST DUP4 DUP2 LT ISZERO PUSH2 0x840 JUMPI DUP2 MLOAD PUSH2 0x827 DUP9 DUP3 PUSH2 0x7CE JUMP JUMPDEST SWAP8 POP PUSH2 0x832 DUP4 PUSH2 0x7E5 JUMP JUMPDEST SWAP3 POP POP PUSH1 0x1 DUP2 ADD SWAP1 POP PUSH2 0x813 JUMP JUMPDEST POP DUP6 SWAP4 POP POP POP POP SWAP3 SWAP2 POP POP JUMP JUMPDEST PUSH0 PUSH1 0x20 DUP3 ADD SWAP1 POP DUP2 DUP2 SUB PUSH0 DUP4 ADD MSTORE PUSH2 0x865 DUP2 DUP5 PUSH2 0x7F1 JUMP JUMPDEST SWAP1 POP SWAP3 SWAP2 POP POP JUMP JUMPDEST PUSH0 DUP2 SWAP1 POP SWAP2 SWAP1 POP JUMP JUMPDEST PUSH2 0x87F DUP2 PUSH2 0x86D JUMP JUMPDEST DUP3 MSTORE POP POP JUMP JUMPDEST PUSH0 PUSH1 0x20 DUP3 ADD SWAP1 POP PUSH2 0x898 PUSH0 DUP4 ADD DUP5 PUSH2 0x876 JUMP JUMPDEST SWAP3 SWAP2 POP POP JUMP JUMPDEST PUSH2 0x8A7 DUP2 PUSH2 0x7AE JUMP JUMPDEST DUP3 MSTORE POP POP JUMP JUMPDEST PUSH0 PUSH1 0x20 DUP3 ADD SWAP1 POP PUSH2 0x8C0 PUSH0 DUP4 ADD DUP5 PUSH2 0x89E JUMP JUMPDEST SWAP3 SWAP2 POP POP JUMP JUMPDEST PUSH0 PUSH0 REVERT JUMPDEST PUSH2 0x8D3 DUP2 PUSH2 0x7AE JUMP JUMPDEST DUP2 EQ PUSH2 0x8DD JUMPI PUSH0 PUSH0 REVERT JUMPDEST POP JUMP JUMPDEST PUSH0 DUP2 CALLDATALOAD SWAP1 POP PUSH2 0x8EE DUP2 PUSH2 0x8CA JUMP JUMPDEST SWAP3 SWAP2 POP POP JUMP JUMPDEST PUSH0 PUSH1 0x20 DUP3 DUP5 SUB SLT ISZERO PUSH2 0x909 JUMPI PUSH2 0x908 PUSH2 0x8C6 JUMP JUMPDEST JUMPDEST PUSH0 PUSH2 0x916 DUP5 DUP3 DUP6 ADD PUSH2 0x8E0 JUMP JUMPDEST SWAP2 POP POP SWAP3 SWAP2 POP POP JUMP JUMPDEST PUSH32 0x4E487B7100000000000000000000000000000000000000000000000000000000 PUSH0 MSTORE PUSH1 0x22 PUSH1 0x4 MSTORE PUSH1 0x24 PUSH0 REVERT JUMPDEST PUSH0 PUSH1 0x2 DUP3 DIV SWAP1 POP PUSH1 0x1 DUP3 AND DUP1 PUSH2 0x963 JUMPI PUSH1 0x7F DUP3 AND SWAP2 POP JUMPDEST PUSH1 0x20 DUP3 LT DUP2 SUB PUSH2 0x976 JUMPI PUSH2 0x975 PUSH2 0x91F JUMP JUMPDEST JUMPDEST POP SWAP2 SWAP1 POP JUMP JUMPDEST PUSH32 0x45766964656E6365206973206E6F206C6F6E6765722061636365737369626C65 PUSH0 DUP3 ADD MSTORE POP JUMP JUMPDEST PUSH0 PUSH2 0x9B0 PUSH1 0x20 DUP4 PUSH2 0x6E0 JUMP JUMPDEST SWAP2 POP PUSH2 0x9BB DUP3 PUSH2 0x97C JUMP JUMPDEST PUSH1 0x20 DUP3 ADD SWAP1 POP SWAP2 SWAP1 POP JUMP JUMPDEST PUSH0 PUSH1 0x20 DUP3 ADD SWAP1 POP DUP2 DUP2 SUB PUSH0 DUP4 ADD MSTORE PUSH2 0x9DD DUP2 PUSH2 0x9A4 JUMP JUMPDEST SWAP1 POP SWAP2 SWAP1 POP JUMP JUMPDEST PUSH32 0x4E487B7100000000000000000000000000000000000000000000000000000000 PUSH0 MSTORE PUSH1 0x32 PUSH1 0x4 MSTORE PUSH1 0x24 PUSH0 REVERT JUMPDEST PUSH32 0x4F6E6C792043726561746F722063616E2063616C6C20746869732066756E6374 PUSH0 DUP3 ADD MSTORE PUSH32 0x696F6E0000000000000000000000000000000000000000000000000000000000 PUSH1 0x20 DUP3 ADD MSTORE POP JUMP JUMPDEST PUSH0 PUSH2 0xA6B PUSH1 0x23 DUP4 PUSH2 0x6E0 JUMP JUMPDEST SWAP2 POP PUSH2 0xA76 DUP3 PUSH2 0xA11 JUMP JUMPDEST PUSH1 0x40 DUP3 ADD SWAP1 POP SWAP2 SWAP1 POP JUMP JUMPDEST PUSH0 PUSH1 0x20 DUP3 ADD SWAP1 POP DUP2 DUP2 SUB PUSH0 DUP4 ADD MSTORE PUSH2 0xA98 DUP2 PUSH2 0xA5F JUMP JUMPDEST SWAP1 POP SWAP2 SWAP1 POP JUMP JUMPDEST PUSH0 PUSH1 0x40 DUP3 ADD SWAP1 POP PUSH2 0xAB2 PUSH0 DUP4 ADD DUP6 PUSH2 0x89E JUMP JUMPDEST PUSH2 0xABF PUSH1 0x20 DUP4 ADD DUP5 PUSH2 0x89E JUMP JUMPDEST SWAP4 SWAP3 POP POP POP JUMP INVALID LOG2 PUSH5 0x6970667358 0x22 SLT KECCAK256 0xC1 SAR DUP1 SAR PUSH14 0x63D42CED5FCFCC171B4DDC4E1D5B 0xDB SWAP4 ORIGIN DIV SWAP2 SWAP6 LT NOT 0x2A PUSH2 0x99B7 MULMOD PUSH5 0x736F6C6343 STOP ADDMOD 0x1E STOP CALLER "
				},
				"gasEstimates": {
					"creation": {
						"codeDepositCost": "562400",
						"executionCost": "infinite",
						"totalCost": "infinite"
					},
					"external": {
						"discontinueEvidence()": "infinite",
						"getChainOfCustody()": "infinite",
						"getCurrentOwner()": "2558",
						"getEvidenceCreator()": "infinite",
						"getEvidenceDescription()": "infinite",
						"getEvidenceState()": "2474",
						"getevidenceId()": "infinite",
						"transferOwnership(address)": "infinite"
					},
					"internal": {
						"_discontinueEvidence()": "infinite",
						"_transferOwnership(address,address)": "infinite"
					}
				},
				"methodIdentifiers": {
					"discontinueEvidence()": "7ce7d376",
					"getChainOfCustody()": "581c49a1",
					"getCurrentOwner()": "a18a186b",
					"getEvidenceCreator()": "9e91bc54",
					"getEvidenceDescription()": "4f7eae94",
					"getEvidenceState()": "4efdc623",
					"getevidenceId()": "85ac2865",
					"transferOwnership(address)": "f2fde38b"
				}
			},
			"storageLayout": {
				"storage": [
					{
						"astId": 26,
						"contract": "src/ChainOfCustody.sol:Evidence",
						"label": "owner",
						"offset": 0,
						"slot": "0",
						"type": "t_address"
					},
					{
						"astId": 29,
						"contract": "src/ChainOfCustody.sol:Evidence",
						"label": "chainOfCustody",
						"offset": 0,
						"slot": "1",
						"type": "t_array(t_address)dyn_storage"
					},
					{
						"astId": 31,
						"contract": "src/ChainOfCustody.sol:Evidence",
						"label": "description",
						"offset": 0,
						"slot": "2",
						"type": "t_string_storage"
					},
					{
						"astId": 34,
						"contract": "src/ChainOfCustody.sol:Evidence",
						"label": "isActive",
						"offset": 0,
						"slot": "3",
						"type": "t_bool"
					}
				],
				"types": {
					"t_address": {
						"encoding": "inplace",
						"label": "address",
						"numberOfBytes": "20"
					},
					"t_array(t_address)dyn_storage": {
						"base": "t_address",
						"encoding": "dynamic_array",
						"label": "address[]",
						"numberOfBytes": "32"
					},
					"t_bool": {
						"encoding": "inplace",
						"label": "bool",
						"numberOfBytes": "1"
					},
					"t_string_storage": {
						"encoding": "bytes",
						"label": "string",
						"numberOfBytes": "32"
					}
				}
			},
			"userdoc": {
				"kind": "user",
				"methods": {},
				"version": 1
			}
		}
	}
}