{
	"src/ChainOfCustody.sol": {
		"Evidence": {
			"abi": [
				{
					"inputs": [
						{
							"internalType": "address",
							"name": "_evidenceLedgerAddress",
							"type": "address"
						},
						{
							"internalType": "bytes32",
							"name": "_evidenceId",
							"type": "bytes32"
						},
						{
							"internalType": "address",
							"name": "_creator",
							"type": "address"
						},
						{
							"internalType": "address",
							"name": "_initialOwner",
							"type": "address"
						},
						{
							"internalType": "string",
							"name": "_description",
							"type": "string"
						}
					],
					"stateMutability": "nonpayable",
					"type": "constructor"
				},
				{
					"inputs": [],
					"name": "Error_CallerIsNotCreator",
					"type": "error"
				},
				{
					"inputs": [],
					"name": "Error_CallerIsNotCurrentOwner",
					"type": "error"
				},
				{
					"inputs": [],
					"name": "Error_CreatorIsNotInitialOwner",
					"type": "error"
				},
				{
					"inputs": [],
					"name": "Error_EvindenceDiscontinued",
					"type": "error"
				},
				{
					"inputs": [],
					"name": "Error_UnauthorizedDeployment",
					"type": "error"
				},
				{
					"anonymous": false,
					"inputs": [
						{
							"indexed": true,
							"internalType": "bytes32",
							"name": "evidenceId",
							"type": "bytes32"
						}
					],
					"name": "EvindenceDiscontinued",
					"type": "event"
				},
				{
					"anonymous": false,
					"inputs": [
						{
							"indexed": true,
							"internalType": "address",
							"name": "previousOwner",
							"type": "address"
						},
						{
							"indexed": true,
							"internalType": "address",
							"name": "newOwner",
							"type": "address"
						},
						{
							"indexed": true,
							"internalType": "uint256",
							"name": "TIME_OF_DISCONTINUATION",
							"type": "uint256"
						}
					],
					"name": "OwnershipTransferred",
					"type": "event"
				},
				{
					"inputs": [],
					"name": "discontinueEvidence",
					"outputs": [],
					"stateMutability": "nonpayable",
					"type": "function"
				},
				{
					"inputs": [],
					"name": "getChainOfCustody",
					"outputs": [
						{
							"components": [
								{
									"internalType": "address",
									"name": "owner",
									"type": "address"
								},
								{
									"internalType": "uint256",
									"name": "timestamp",
									"type": "uint256"
								}
							],
							"internalType": "struct Evidence.CustodyRecord[]",
							"name": "",
							"type": "tuple[]"
						}
					],
					"stateMutability": "view",
					"type": "function"
				},
				{
					"inputs": [],
					"name": "getCurrentOwner",
					"outputs": [
						{
							"internalType": "address",
							"name": "",
							"type": "address"
						}
					],
					"stateMutability": "view",
					"type": "function"
				},
				{
					"inputs": [],
					"name": "getEvidenceCreator",
					"outputs": [
						{
							"internalType": "address",
							"name": "",
							"type": "address"
						}
					],
					"stateMutability": "view",
					"type": "function"
				},
				{
					"inputs": [],
					"name": "getEvidenceDescription",
					"outputs": [
						{
							"internalType": "string",
							"name": "",
							"type": "string"
						}
					],
					"stateMutability": "view",
					"type": "function"
				},
				{
					"inputs": [],
					"name": "getEvidenceId",
					"outputs": [
						{
							"internalType": "bytes32",
							"name": "",
							"type": "bytes32"
						}
					],
					"stateMutability": "view",
					"type": "function"
				},
				{
					"inputs": [],
					"name": "getEvidenceState",
					"outputs": [
						{
							"internalType": "bool",
							"name": "",
							"type": "bool"
						}
					],
					"stateMutability": "view",
					"type": "function"
				},
				{
					"inputs": [],
					"name": "getTimeOfCreation",
					"outputs": [
						{
							"internalType": "uint256",
							"name": "",
							"type": "uint256"
						}
					],
					"stateMutability": "view",
					"type": "function"
				},
				{
					"inputs": [],
					"name": "getTimeOfDiscontinuation",
					"outputs": [
						{
							"internalType": "uint256",
							"name": "",
							"type": "uint256"
						}
					],
					"stateMutability": "view",
					"type": "function"
				},
				{
					"inputs": [
						{
							"internalType": "address",
							"name": "newOwner",
							"type": "address"
						}
					],
					"name": "transferOwnership",
					"outputs": [],
					"stateMutability": "nonpayable",
					"type": "function"
				}
			],
			"devdoc": {
				"author": "Kartik Kumbhar Evidence ID and Contract Address define a unique piece of evidence. 1. Evidence ID is passed through EvidenceLedger contract. 2. Contract Address is the address of this contract.",
				"kind": "dev",
				"methods": {},
				"title": "Evidence Contract for Chain of Custody",
				"version": 1
			},
			"evm": {
				"assembly": "    /* \"src/ChainOfCustody.sol\":346:4868  contract Evidence {... */\n  mstore(0x40, 0x0100)\n    /* \"src/ChainOfCustody.sol\":1185:1189  true */\n  0x01\n    /* \"src/ChainOfCustody.sol\":1161:1189  bool private isActive = true */\n  0x04\n  exp(0x0100, 0x00)\n  dup2\n  sload\n  dup2\n  0xff\n  mul\n  not\n  and\n  swap1\n  dup4\n  iszero\n  iszero\n  mul\n  or\n  swap1\n  sstore\n  pop\n    /* \"src/ChainOfCustody.sol\":1995:3024  constructor(... */\n  callvalue\n  dup1\n  iszero\n  tag_1\n  jumpi\n  revert(0x00, 0x00)\ntag_1:\n  pop\n  mload(0x40)\n  sub(codesize, bytecodeSize)\n  dup1\n  bytecodeSize\n  dup4\n  codecopy\n  dup2\n  dup2\n  add\n  0x40\n  mstore\n  dup2\n  add\n  swap1\n  tag_2\n  swap2\n  swap1\n  tag_3\n  jump\t// in\ntag_2:\n    /* \"src/ChainOfCustody.sol\":2203:2225  _evidenceLedgerAddress */\n  dup5\n    /* \"src/ChainOfCustody.sol\":2189:2225  msg.sender != _evidenceLedgerAddress */\n  0xffffffffffffffffffffffffffffffffffffffff\n  and\n    /* \"src/ChainOfCustody.sol\":2189:2199  msg.sender */\n  caller\n    /* \"src/ChainOfCustody.sol\":2189:2225  msg.sender != _evidenceLedgerAddress */\n  0xffffffffffffffffffffffffffffffffffffffff\n  and\n  eq\n    /* \"src/ChainOfCustody.sol\":2185:2276  if (msg.sender != _evidenceLedgerAddress)... */\n  tag_6\n  jumpi\n    /* \"src/ChainOfCustody.sol\":2246:2276  Error_UnauthorizedDeployment() */\n  mload(0x40)\n  0x2d102aa100000000000000000000000000000000000000000000000000000000\n  dup2\n  mstore\n  0x04\n  add\n  mload(0x40)\n  dup1\n  swap2\n  sub\n  swap1\n  revert\n    /* \"src/ChainOfCustody.sol\":2185:2276  if (msg.sender != _evidenceLedgerAddress)... */\ntag_6:\n    /* \"src/ChainOfCustody.sol\":2307:2315  _creator */\n  dup3\n    /* \"src/ChainOfCustody.sol\":2290:2315  _initialOwner != _creator */\n  0xffffffffffffffffffffffffffffffffffffffff\n  and\n    /* \"src/ChainOfCustody.sol\":2290:2303  _initialOwner */\n  dup3\n    /* \"src/ChainOfCustody.sol\":2290:2315  _initialOwner != _creator */\n  0xffffffffffffffffffffffffffffffffffffffff\n  and\n  eq\n    /* \"src/ChainOfCustody.sol\":2286:2356  if (_initialOwner != _creator) revert Error_CreatorIsNotInitialOwner() */\n  tag_7\n  jumpi\n    /* \"src/ChainOfCustody.sol\":2324:2356  Error_CreatorIsNotInitialOwner() */\n  mload(0x40)\n  0x0dc0971b00000000000000000000000000000000000000000000000000000000\n  dup2\n  mstore\n  0x04\n  add\n  mload(0x40)\n  dup1\n  swap2\n  sub\n  swap1\n  revert\n    /* \"src/ChainOfCustody.sol\":2286:2356  if (_initialOwner != _creator) revert Error_CreatorIsNotInitialOwner() */\ntag_7:\n    /* \"src/ChainOfCustody.sol\":2390:2391  0 */\n  0x00\n    /* \"src/ChainOfCustody.sol\":2370:2392  _creator == address(0) */\n  0xffffffffffffffffffffffffffffffffffffffff\n  and\n    /* \"src/ChainOfCustody.sol\":2370:2378  _creator */\n  dup4\n    /* \"src/ChainOfCustody.sol\":2370:2392  _creator == address(0) */\n  0xffffffffffffffffffffffffffffffffffffffff\n  and\n  sub\n    /* \"src/ChainOfCustody.sol\":2366:2455  if (_creator == address(0))... */\n  tag_8\n  jumpi\n    /* \"src/ChainOfCustody.sol\":2406:2455  revert(\"Invalid Creator: cannot be zero address\") */\n  mload(0x40)\n  0x08c379a000000000000000000000000000000000000000000000000000000000\n  dup2\n  mstore\n  0x04\n  add\n  tag_9\n  swap1\n  tag_10\n  jump\t// in\ntag_9:\n  mload(0x40)\n  dup1\n  swap2\n  sub\n  swap1\n  revert\n    /* \"src/ChainOfCustody.sol\":2366:2455  if (_creator == address(0))... */\ntag_8:\n    /* \"src/ChainOfCustody.sol\":2484:2487  0x0 */\n  0x00\n    /* \"src/ChainOfCustody.sol\":2469:2487  _evidenceId == 0x0 */\n  0x00\n  shl\n    /* \"src/ChainOfCustody.sol\":2469:2480  _evidenceId */\n  dup5\n    /* \"src/ChainOfCustody.sol\":2469:2487  _evidenceId == 0x0 */\n  sub\n    /* \"src/ChainOfCustody.sol\":2465:2550  if (_evidenceId == 0x0)... */\n  tag_11\n  jumpi\n    /* \"src/ChainOfCustody.sol\":2501:2550  revert(\"Invalid evidence ID: ID cannot be empty\") */\n  mload(0x40)\n  0x08c379a000000000000000000000000000000000000000000000000000000000\n  dup2\n  mstore\n  0x04\n  add\n  tag_12\n  swap1\n  tag_13\n  jump\t// in\ntag_12:\n  mload(0x40)\n  dup1\n  swap2\n  sub\n  swap1\n  revert\n    /* \"src/ChainOfCustody.sol\":2465:2550  if (_evidenceId == 0x0)... */\ntag_11:\n    /* \"src/ChainOfCustody.sol\":2594:2595  0 */\n  0x00\n    /* \"src/ChainOfCustody.sol\":2570:2582  _description */\n  dup2\n    /* \"src/ChainOfCustody.sol\":2564:2590  bytes(_description).length */\n  mload\n    /* \"src/ChainOfCustody.sol\":2564:2595  bytes(_description).length == 0 */\n  sub\n    /* \"src/ChainOfCustody.sol\":2560:2667  if (bytes(_description).length == 0)... */\n  tag_14\n  jumpi\n    /* \"src/ChainOfCustody.sol\":2609:2667  revert(\"Invalid description: description cannot be empty\") */\n  mload(0x40)\n  0x08c379a000000000000000000000000000000000000000000000000000000000\n  dup2\n  mstore\n  0x04\n  add\n  tag_15\n  swap1\n  tag_16\n  jump\t// in\ntag_15:\n  mload(0x40)\n  dup1\n  swap2\n  sub\n  swap1\n  revert\n    /* \"src/ChainOfCustody.sol\":2560:2667  if (bytes(_description).length == 0)... */\ntag_14:\n    /* \"src/ChainOfCustody.sol\":2713:2735  _evidenceLedgerAddress */\n  dup5\n    /* \"src/ChainOfCustody.sol\":2678:2735  ORIGINAL_EVIDENCE_LEDGER_ADDRESS = _evidenceLedgerAddress */\n  0xffffffffffffffffffffffffffffffffffffffff\n  and\n  0x80\n  dup2\n  0xffffffffffffffffffffffffffffffffffffffff\n  and\n  dup2\n  mstore\n  pop\n  pop\n    /* \"src/ChainOfCustody.sol\":2755:2763  _creator */\n  dup3\n    /* \"src/ChainOfCustody.sol\":2745:2763  CREATOR = _creator */\n  0xffffffffffffffffffffffffffffffffffffffff\n  and\n  0xa0\n  dup2\n  0xffffffffffffffffffffffffffffffffffffffff\n  and\n  dup2\n  mstore\n  pop\n  pop\n    /* \"src/ChainOfCustody.sol\":2781:2788  CREATOR */\n  mload(0xa0)\n    /* \"src/ChainOfCustody.sol\":2773:2778  owner */\n  0x01\n  0x00\n    /* \"src/ChainOfCustody.sol\":2773:2788  owner = CREATOR */\n  0x0100\n  exp\n  dup2\n  sload\n  dup2\n  0xffffffffffffffffffffffffffffffffffffffff\n  mul\n  not\n  and\n  swap1\n  dup4\n  0xffffffffffffffffffffffffffffffffffffffff\n  and\n  mul\n  or\n  swap1\n  sstore\n  pop\n    /* \"src/ChainOfCustody.sol\":2817:2832  block.timestamp */\n  timestamp\n    /* \"src/ChainOfCustody.sol\":2798:2832  TIME_OF_CREATION = block.timestamp */\n  0xe0\n  dup2\n  dup2\n  mstore\n  pop\n  pop\n    /* \"src/ChainOfCustody.sol\":2842:2856  chainOfCustody */\n  0x02\n    /* \"src/ChainOfCustody.sol\":2875:2936  CustodyRecord({owner: _creator, timestamp: TIME_OF_CREATION}) */\n  mload(0x40)\n  dup1\n  0x40\n  add\n  0x40\n  mstore\n  dup1\n    /* \"src/ChainOfCustody.sol\":2897:2905  _creator */\n  dup6\n    /* \"src/ChainOfCustody.sol\":2875:2936  CustodyRecord({owner: _creator, timestamp: TIME_OF_CREATION}) */\n  0xffffffffffffffffffffffffffffffffffffffff\n  and\n  dup2\n  mstore\n  0x20\n  add\n    /* \"src/ChainOfCustody.sol\":2918:2934  TIME_OF_CREATION */\n  mload(0xe0)\n    /* \"src/ChainOfCustody.sol\":2875:2936  CustodyRecord({owner: _creator, timestamp: TIME_OF_CREATION}) */\n  dup2\n  mstore\n  pop\n    /* \"src/ChainOfCustody.sol\":2842:2946  chainOfCustody.push(... */\n  swap1\n  dup1\n  0x01\n  dup2\n  sload\n  add\n  dup1\n  dup3\n  sstore\n  dup1\n  swap2\n  pop\n  pop\n  0x01\n  swap1\n  sub\n  swap1\n  0x00\n  mstore\n  keccak256(0x00, 0x20)\n  swap1\n  0x02\n  mul\n  add\n  0x00\n  swap1\n  swap2\n  swap1\n  swap2\n  swap1\n  swap2\n  pop\n  0x00\n  dup3\n  add\n  mload\n  dup2\n  0x00\n  add\n  exp(0x0100, 0x00)\n  dup2\n  sload\n  dup2\n  0xffffffffffffffffffffffffffffffffffffffff\n  mul\n  not\n  and\n  swap1\n  dup4\n  0xffffffffffffffffffffffffffffffffffffffff\n  and\n  mul\n  or\n  swap1\n  sstore\n  pop\n  0x20\n  dup3\n  add\n  mload\n  dup2\n  0x01\n  add\n  sstore\n  pop\n  pop\n    /* \"src/ChainOfCustody.sol\":2970:2981  _evidenceId */\n  dup4\n    /* \"src/ChainOfCustody.sol\":2956:2981  EVIDENCE_ID = _evidenceId */\n  0xc0\n  dup2\n  dup2\n  mstore\n  pop\n  pop\n    /* \"src/ChainOfCustody.sol\":3005:3017  _description */\n  dup1\n    /* \"src/ChainOfCustody.sol\":2991:3002  description */\n  0x03\n    /* \"src/ChainOfCustody.sol\":2991:3017  description = _description */\n  swap1\n  dup2\n  tag_18\n  swap2\n  swap1\n  tag_19\n  jump\t// in\ntag_18:\n  pop\n    /* \"src/ChainOfCustody.sol\":1995:3024  constructor(... */\n  pop\n  pop\n  pop\n  pop\n  pop\n    /* \"src/ChainOfCustody.sol\":346:4868  contract Evidence {... */\n  jump(tag_20)\n    /* \"#utility.yul\":7:82   */\ntag_21:\n    /* \"#utility.yul\":40:46   */\n  0x00\n    /* \"#utility.yul\":73:75   */\n  0x40\n    /* \"#utility.yul\":67:76   */\n  mload\n    /* \"#utility.yul\":57:76   */\n  swap1\n  pop\n    /* \"#utility.yul\":7:82   */\n  swap1\n  jump\t// out\n    /* \"#utility.yul\":88:205   */\ntag_22:\n    /* \"#utility.yul\":197:198   */\n  0x00\n    /* \"#utility.yul\":194:195   */\n  0x00\n    /* \"#utility.yul\":187:199   */\n  revert\n    /* \"#utility.yul\":211:328   */\ntag_23:\n    /* \"#utility.yul\":320:321   */\n  0x00\n    /* \"#utility.yul\":317:318   */\n  0x00\n    /* \"#utility.yul\":310:322   */\n  revert\n    /* \"#utility.yul\":334:460   */\ntag_24:\n    /* \"#utility.yul\":371:378   */\n  0x00\n    /* \"#utility.yul\":411:453   */\n  0xffffffffffffffffffffffffffffffffffffffff\n    /* \"#utility.yul\":404:409   */\n  dup3\n    /* \"#utility.yul\":400:454   */\n  and\n    /* \"#utility.yul\":389:454   */\n  swap1\n  pop\n    /* \"#utility.yul\":334:460   */\n  swap2\n  swap1\n  pop\n  jump\t// out\n    /* \"#utility.yul\":466:562   */\ntag_25:\n    /* \"#utility.yul\":503:510   */\n  0x00\n    /* \"#utility.yul\":532:556   */\n  tag_73\n    /* \"#utility.yul\":550:555   */\n  dup3\n    /* \"#utility.yul\":532:556   */\n  tag_24\n  jump\t// in\ntag_73:\n    /* \"#utility.yul\":521:556   */\n  swap1\n  pop\n    /* \"#utility.yul\":466:562   */\n  swap2\n  swap1\n  pop\n  jump\t// out\n    /* \"#utility.yul\":568:690   */\ntag_26:\n    /* \"#utility.yul\":641:665   */\n  tag_75\n    /* \"#utility.yul\":659:664   */\n  dup2\n    /* \"#utility.yul\":641:665   */\n  tag_25\n  jump\t// in\ntag_75:\n    /* \"#utility.yul\":634:639   */\n  dup2\n    /* \"#utility.yul\":631:666   */\n  eq\n    /* \"#utility.yul\":621:684   */\n  tag_76\n  jumpi\n    /* \"#utility.yul\":680:681   */\n  0x00\n    /* \"#utility.yul\":677:678   */\n  0x00\n    /* \"#utility.yul\":670:682   */\n  revert\n    /* \"#utility.yul\":621:684   */\ntag_76:\n    /* \"#utility.yul\":568:690   */\n  pop\n  jump\t// out\n    /* \"#utility.yul\":696:839   */\ntag_27:\n    /* \"#utility.yul\":753:758   */\n  0x00\n    /* \"#utility.yul\":784:790   */\n  dup2\n    /* \"#utility.yul\":778:791   */\n  mload\n    /* \"#utility.yul\":769:791   */\n  swap1\n  pop\n    /* \"#utility.yul\":800:833   */\n  tag_78\n    /* \"#utility.yul\":827:832   */\n  dup2\n    /* \"#utility.yul\":800:833   */\n  tag_26\n  jump\t// in\ntag_78:\n    /* \"#utility.yul\":696:839   */\n  swap3\n  swap2\n  pop\n  pop\n  jump\t// out\n    /* \"#utility.yul\":845:922   */\ntag_28:\n    /* \"#utility.yul\":882:889   */\n  0x00\n    /* \"#utility.yul\":911:916   */\n  dup2\n    /* \"#utility.yul\":900:916   */\n  swap1\n  pop\n    /* \"#utility.yul\":845:922   */\n  swap2\n  swap1\n  pop\n  jump\t// out\n    /* \"#utility.yul\":928:1050   */\ntag_29:\n    /* \"#utility.yul\":1001:1025   */\n  tag_81\n    /* \"#utility.yul\":1019:1024   */\n  dup2\n    /* \"#utility.yul\":1001:1025   */\n  tag_28\n  jump\t// in\ntag_81:\n    /* \"#utility.yul\":994:999   */\n  dup2\n    /* \"#utility.yul\":991:1026   */\n  eq\n    /* \"#utility.yul\":981:1044   */\n  tag_82\n  jumpi\n    /* \"#utility.yul\":1040:1041   */\n  0x00\n    /* \"#utility.yul\":1037:1038   */\n  0x00\n    /* \"#utility.yul\":1030:1042   */\n  revert\n    /* \"#utility.yul\":981:1044   */\ntag_82:\n    /* \"#utility.yul\":928:1050   */\n  pop\n  jump\t// out\n    /* \"#utility.yul\":1056:1199   */\ntag_30:\n    /* \"#utility.yul\":1113:1118   */\n  0x00\n    /* \"#utility.yul\":1144:1150   */\n  dup2\n    /* \"#utility.yul\":1138:1151   */\n  mload\n    /* \"#utility.yul\":1129:1151   */\n  swap1\n  pop\n    /* \"#utility.yul\":1160:1193   */\n  tag_84\n    /* \"#utility.yul\":1187:1192   */\n  dup2\n    /* \"#utility.yul\":1160:1193   */\n  tag_29\n  jump\t// in\ntag_84:\n    /* \"#utility.yul\":1056:1199   */\n  swap3\n  swap2\n  pop\n  pop\n  jump\t// out\n    /* \"#utility.yul\":1205:1322   */\ntag_31:\n    /* \"#utility.yul\":1314:1315   */\n  0x00\n    /* \"#utility.yul\":1311:1312   */\n  0x00\n    /* \"#utility.yul\":1304:1316   */\n  revert\n    /* \"#utility.yul\":1328:1445   */\ntag_32:\n    /* \"#utility.yul\":1437:1438   */\n  0x00\n    /* \"#utility.yul\":1434:1435   */\n  0x00\n    /* \"#utility.yul\":1427:1439   */\n  revert\n    /* \"#utility.yul\":1451:1553   */\ntag_33:\n    /* \"#utility.yul\":1492:1498   */\n  0x00\n    /* \"#utility.yul\":1543:1545   */\n  0x1f\n    /* \"#utility.yul\":1539:1546   */\n  not\n    /* \"#utility.yul\":1534:1536   */\n  0x1f\n    /* \"#utility.yul\":1527:1532   */\n  dup4\n    /* \"#utility.yul\":1523:1537   */\n  add\n    /* \"#utility.yul\":1519:1547   */\n  and\n    /* \"#utility.yul\":1509:1547   */\n  swap1\n  pop\n    /* \"#utility.yul\":1451:1553   */\n  swap2\n  swap1\n  pop\n  jump\t// out\n    /* \"#utility.yul\":1559:1739   */\ntag_34:\n    /* \"#utility.yul\":1607:1684   */\n  0x4e487b7100000000000000000000000000000000000000000000000000000000\n    /* \"#utility.yul\":1604:1605   */\n  0x00\n    /* \"#utility.yul\":1597:1685   */\n  mstore\n    /* \"#utility.yul\":1704:1708   */\n  0x41\n    /* \"#utility.yul\":1701:1702   */\n  0x04\n    /* \"#utility.yul\":1694:1709   */\n  mstore\n    /* \"#utility.yul\":1728:1732   */\n  0x24\n    /* \"#utility.yul\":1725:1726   */\n  0x00\n    /* \"#utility.yul\":1718:1733   */\n  revert\n    /* \"#utility.yul\":1745:2026   */\ntag_35:\n    /* \"#utility.yul\":1828:1855   */\n  tag_90\n    /* \"#utility.yul\":1850:1854   */\n  dup3\n    /* \"#utility.yul\":1828:1855   */\n  tag_33\n  jump\t// in\ntag_90:\n    /* \"#utility.yul\":1820:1826   */\n  dup2\n    /* \"#utility.yul\":1816:1856   */\n  add\n    /* \"#utility.yul\":1958:1964   */\n  dup2\n    /* \"#utility.yul\":1946:1956   */\n  dup2\n    /* \"#utility.yul\":1943:1965   */\n  lt\n    /* \"#utility.yul\":1922:1940   */\n  0xffffffffffffffff\n    /* \"#utility.yul\":1910:1920   */\n  dup3\n    /* \"#utility.yul\":1907:1941   */\n  gt\n    /* \"#utility.yul\":1904:1966   */\n  or\n    /* \"#utility.yul\":1901:1989   */\n  iszero\n  tag_91\n  jumpi\n    /* \"#utility.yul\":1969:1987   */\n  tag_92\n  tag_34\n  jump\t// in\ntag_92:\n    /* \"#utility.yul\":1901:1989   */\ntag_91:\n    /* \"#utility.yul\":2009:2019   */\n  dup1\n    /* \"#utility.yul\":2005:2007   */\n  0x40\n    /* \"#utility.yul\":1998:2020   */\n  mstore\n    /* \"#utility.yul\":1788:2026   */\n  pop\n    /* \"#utility.yul\":1745:2026   */\n  pop\n  pop\n  jump\t// out\n    /* \"#utility.yul\":2032:2161   */\ntag_36:\n    /* \"#utility.yul\":2066:2072   */\n  0x00\n    /* \"#utility.yul\":2093:2113   */\n  tag_94\n  tag_21\n  jump\t// in\ntag_94:\n    /* \"#utility.yul\":2083:2113   */\n  swap1\n  pop\n    /* \"#utility.yul\":2122:2155   */\n  tag_95\n    /* \"#utility.yul\":2150:2154   */\n  dup3\n    /* \"#utility.yul\":2142:2148   */\n  dup3\n    /* \"#utility.yul\":2122:2155   */\n  tag_35\n  jump\t// in\ntag_95:\n    /* \"#utility.yul\":2032:2161   */\n  swap2\n  swap1\n  pop\n  jump\t// out\n    /* \"#utility.yul\":2167:2475   */\ntag_37:\n    /* \"#utility.yul\":2229:2233   */\n  0x00\n    /* \"#utility.yul\":2319:2337   */\n  0xffffffffffffffff\n    /* \"#utility.yul\":2311:2317   */\n  dup3\n    /* \"#utility.yul\":2308:2338   */\n  gt\n    /* \"#utility.yul\":2305:2361   */\n  iszero\n  tag_97\n  jumpi\n    /* \"#utility.yul\":2341:2359   */\n  tag_98\n  tag_34\n  jump\t// in\ntag_98:\n    /* \"#utility.yul\":2305:2361   */\ntag_97:\n    /* \"#utility.yul\":2379:2408   */\n  tag_99\n    /* \"#utility.yul\":2401:2407   */\n  dup3\n    /* \"#utility.yul\":2379:2408   */\n  tag_33\n  jump\t// in\ntag_99:\n    /* \"#utility.yul\":2371:2408   */\n  swap1\n  pop\n    /* \"#utility.yul\":2463:2467   */\n  0x20\n    /* \"#utility.yul\":2457:2461   */\n  dup2\n    /* \"#utility.yul\":2453:2468   */\n  add\n    /* \"#utility.yul\":2445:2468   */\n  swap1\n  pop\n    /* \"#utility.yul\":2167:2475   */\n  swap2\n  swap1\n  pop\n  jump\t// out\n    /* \"#utility.yul\":2481:2620   */\ntag_38:\n    /* \"#utility.yul\":2570:2576   */\n  dup3\n    /* \"#utility.yul\":2565:2568   */\n  dup2\n    /* \"#utility.yul\":2560:2563   */\n  dup4\n    /* \"#utility.yul\":2554:2577   */\n  mcopy\n    /* \"#utility.yul\":2611:2612   */\n  0x00\n    /* \"#utility.yul\":2602:2608   */\n  dup4\n    /* \"#utility.yul\":2597:2600   */\n  dup4\n    /* \"#utility.yul\":2593:2609   */\n  add\n    /* \"#utility.yul\":2586:2613   */\n  mstore\n    /* \"#utility.yul\":2481:2620   */\n  pop\n  pop\n  pop\n  jump\t// out\n    /* \"#utility.yul\":2626:3060   */\ntag_39:\n    /* \"#utility.yul\":2715:2720   */\n  0x00\n    /* \"#utility.yul\":2740:2806   */\n  tag_102\n    /* \"#utility.yul\":2756:2805   */\n  tag_103\n    /* \"#utility.yul\":2798:2804   */\n  dup5\n    /* \"#utility.yul\":2756:2805   */\n  tag_37\n  jump\t// in\ntag_103:\n    /* \"#utility.yul\":2740:2806   */\n  tag_36\n  jump\t// in\ntag_102:\n    /* \"#utility.yul\":2731:2806   */\n  swap1\n  pop\n    /* \"#utility.yul\":2829:2835   */\n  dup3\n    /* \"#utility.yul\":2822:2827   */\n  dup2\n    /* \"#utility.yul\":2815:2836   */\n  mstore\n    /* \"#utility.yul\":2867:2871   */\n  0x20\n    /* \"#utility.yul\":2860:2865   */\n  dup2\n    /* \"#utility.yul\":2856:2872   */\n  add\n    /* \"#utility.yul\":2905:2908   */\n  dup5\n    /* \"#utility.yul\":2896:2902   */\n  dup5\n    /* \"#utility.yul\":2891:2894   */\n  dup5\n    /* \"#utility.yul\":2887:2903   */\n  add\n    /* \"#utility.yul\":2884:2909   */\n  gt\n    /* \"#utility.yul\":2881:2993   */\n  iszero\n  tag_104\n  jumpi\n    /* \"#utility.yul\":2912:2991   */\n  tag_105\n  tag_32\n  jump\t// in\ntag_105:\n    /* \"#utility.yul\":2881:2993   */\ntag_104:\n    /* \"#utility.yul\":3002:3054   */\n  tag_106\n    /* \"#utility.yul\":3047:3053   */\n  dup5\n    /* \"#utility.yul\":3042:3045   */\n  dup3\n    /* \"#utility.yul\":3037:3040   */\n  dup6\n    /* \"#utility.yul\":3002:3054   */\n  tag_38\n  jump\t// in\ntag_106:\n    /* \"#utility.yul\":2721:3060   */\n  pop\n    /* \"#utility.yul\":2626:3060   */\n  swap4\n  swap3\n  pop\n  pop\n  pop\n  jump\t// out\n    /* \"#utility.yul\":3080:3435   */\ntag_40:\n    /* \"#utility.yul\":3147:3152   */\n  0x00\n    /* \"#utility.yul\":3196:3199   */\n  dup3\n    /* \"#utility.yul\":3189:3193   */\n  0x1f\n    /* \"#utility.yul\":3181:3187   */\n  dup4\n    /* \"#utility.yul\":3177:3194   */\n  add\n    /* \"#utility.yul\":3173:3200   */\n  slt\n    /* \"#utility.yul\":3163:3285   */\n  tag_108\n  jumpi\n    /* \"#utility.yul\":3204:3283   */\n  tag_109\n  tag_31\n  jump\t// in\ntag_109:\n    /* \"#utility.yul\":3163:3285   */\ntag_108:\n    /* \"#utility.yul\":3314:3320   */\n  dup2\n    /* \"#utility.yul\":3308:3321   */\n  mload\n    /* \"#utility.yul\":3339:3429   */\n  tag_110\n    /* \"#utility.yul\":3425:3428   */\n  dup5\n    /* \"#utility.yul\":3417:3423   */\n  dup3\n    /* \"#utility.yul\":3410:3414   */\n  0x20\n    /* \"#utility.yul\":3402:3408   */\n  dup7\n    /* \"#utility.yul\":3398:3415   */\n  add\n    /* \"#utility.yul\":3339:3429   */\n  tag_39\n  jump\t// in\ntag_110:\n    /* \"#utility.yul\":3330:3429   */\n  swap2\n  pop\n    /* \"#utility.yul\":3153:3435   */\n  pop\n    /* \"#utility.yul\":3080:3435   */\n  swap3\n  swap2\n  pop\n  pop\n  jump\t// out\n    /* \"#utility.yul\":3441:4591   */\ntag_3:\n    /* \"#utility.yul\":3557:3563   */\n  0x00\n    /* \"#utility.yul\":3565:3571   */\n  0x00\n    /* \"#utility.yul\":3573:3579   */\n  0x00\n    /* \"#utility.yul\":3581:3587   */\n  0x00\n    /* \"#utility.yul\":3589:3595   */\n  0x00\n    /* \"#utility.yul\":3638:3641   */\n  0xa0\n    /* \"#utility.yul\":3626:3635   */\n  dup7\n    /* \"#utility.yul\":3617:3624   */\n  dup9\n    /* \"#utility.yul\":3613:3636   */\n  sub\n    /* \"#utility.yul\":3609:3642   */\n  slt\n    /* \"#utility.yul\":3606:3726   */\n  iszero\n  tag_112\n  jumpi\n    /* \"#utility.yul\":3645:3724   */\n  tag_113\n  tag_22\n  jump\t// in\ntag_113:\n    /* \"#utility.yul\":3606:3726   */\ntag_112:\n    /* \"#utility.yul\":3765:3766   */\n  0x00\n    /* \"#utility.yul\":3790:3854   */\n  tag_114\n    /* \"#utility.yul\":3846:3853   */\n  dup9\n    /* \"#utility.yul\":3837:3843   */\n  dup3\n    /* \"#utility.yul\":3826:3835   */\n  dup10\n    /* \"#utility.yul\":3822:3844   */\n  add\n    /* \"#utility.yul\":3790:3854   */\n  tag_27\n  jump\t// in\ntag_114:\n    /* \"#utility.yul\":3780:3854   */\n  swap6\n  pop\n    /* \"#utility.yul\":3736:3864   */\n  pop\n    /* \"#utility.yul\":3903:3905   */\n  0x20\n    /* \"#utility.yul\":3929:3993   */\n  tag_115\n    /* \"#utility.yul\":3985:3992   */\n  dup9\n    /* \"#utility.yul\":3976:3982   */\n  dup3\n    /* \"#utility.yul\":3965:3974   */\n  dup10\n    /* \"#utility.yul\":3961:3983   */\n  add\n    /* \"#utility.yul\":3929:3993   */\n  tag_30\n  jump\t// in\ntag_115:\n    /* \"#utility.yul\":3919:3993   */\n  swap5\n  pop\n    /* \"#utility.yul\":3874:4003   */\n  pop\n    /* \"#utility.yul\":4042:4044   */\n  0x40\n    /* \"#utility.yul\":4068:4132   */\n  tag_116\n    /* \"#utility.yul\":4124:4131   */\n  dup9\n    /* \"#utility.yul\":4115:4121   */\n  dup3\n    /* \"#utility.yul\":4104:4113   */\n  dup10\n    /* \"#utility.yul\":4100:4122   */\n  add\n    /* \"#utility.yul\":4068:4132   */\n  tag_27\n  jump\t// in\ntag_116:\n    /* \"#utility.yul\":4058:4132   */\n  swap4\n  pop\n    /* \"#utility.yul\":4013:4142   */\n  pop\n    /* \"#utility.yul\":4181:4183   */\n  0x60\n    /* \"#utility.yul\":4207:4271   */\n  tag_117\n    /* \"#utility.yul\":4263:4270   */\n  dup9\n    /* \"#utility.yul\":4254:4260   */\n  dup3\n    /* \"#utility.yul\":4243:4252   */\n  dup10\n    /* \"#utility.yul\":4239:4261   */\n  add\n    /* \"#utility.yul\":4207:4271   */\n  tag_27\n  jump\t// in\ntag_117:\n    /* \"#utility.yul\":4197:4271   */\n  swap3\n  pop\n    /* \"#utility.yul\":4152:4281   */\n  pop\n    /* \"#utility.yul\":4341:4344   */\n  0x80\n    /* \"#utility.yul\":4330:4339   */\n  dup7\n    /* \"#utility.yul\":4326:4345   */\n  add\n    /* \"#utility.yul\":4320:4346   */\n  mload\n    /* \"#utility.yul\":4373:4391   */\n  0xffffffffffffffff\n    /* \"#utility.yul\":4365:4371   */\n  dup2\n    /* \"#utility.yul\":4362:4392   */\n  gt\n    /* \"#utility.yul\":4359:4476   */\n  iszero\n  tag_118\n  jumpi\n    /* \"#utility.yul\":4395:4474   */\n  tag_119\n  tag_23\n  jump\t// in\ntag_119:\n    /* \"#utility.yul\":4359:4476   */\ntag_118:\n    /* \"#utility.yul\":4500:4574   */\n  tag_120\n    /* \"#utility.yul\":4566:4573   */\n  dup9\n    /* \"#utility.yul\":4557:4563   */\n  dup3\n    /* \"#utility.yul\":4546:4555   */\n  dup10\n    /* \"#utility.yul\":4542:4564   */\n  add\n    /* \"#utility.yul\":4500:4574   */\n  tag_40\n  jump\t// in\ntag_120:\n    /* \"#utility.yul\":4490:4574   */\n  swap2\n  pop\n    /* \"#utility.yul\":4291:4584   */\n  pop\n    /* \"#utility.yul\":3441:4591   */\n  swap3\n  swap6\n  pop\n  swap3\n  swap6\n  swap1\n  swap4\n  pop\n  jump\t// out\n    /* \"#utility.yul\":4597:4766   */\ntag_41:\n    /* \"#utility.yul\":4681:4692   */\n  0x00\n    /* \"#utility.yul\":4715:4721   */\n  dup3\n    /* \"#utility.yul\":4710:4713   */\n  dup3\n    /* \"#utility.yul\":4703:4722   */\n  mstore\n    /* \"#utility.yul\":4755:4759   */\n  0x20\n    /* \"#utility.yul\":4750:4753   */\n  dup3\n    /* \"#utility.yul\":4746:4760   */\n  add\n    /* \"#utility.yul\":4731:4760   */\n  swap1\n  pop\n    /* \"#utility.yul\":4597:4766   */\n  swap3\n  swap2\n  pop\n  pop\n  jump\t// out\n    /* \"#utility.yul\":4772:4998   */\ntag_42:\n    /* \"#utility.yul\":4912:4946   */\n  0x496e76616c69642043726561746f723a2063616e6e6f74206265207a65726f20\n    /* \"#utility.yul\":4908:4909   */\n  0x00\n    /* \"#utility.yul\":4900:4906   */\n  dup3\n    /* \"#utility.yul\":4896:4910   */\n  add\n    /* \"#utility.yul\":4889:4947   */\n  mstore\n    /* \"#utility.yul\":4981:4990   */\n  0x6164647265737300000000000000000000000000000000000000000000000000\n    /* \"#utility.yul\":4976:4978   */\n  0x20\n    /* \"#utility.yul\":4968:4974   */\n  dup3\n    /* \"#utility.yul\":4964:4979   */\n  add\n    /* \"#utility.yul\":4957:4991   */\n  mstore\n    /* \"#utility.yul\":4772:4998   */\n  pop\n  jump\t// out\n    /* \"#utility.yul\":5004:5370   */\ntag_43:\n    /* \"#utility.yul\":5146:5149   */\n  0x00\n    /* \"#utility.yul\":5167:5234   */\n  tag_124\n    /* \"#utility.yul\":5231:5233   */\n  0x27\n    /* \"#utility.yul\":5226:5229   */\n  dup4\n    /* \"#utility.yul\":5167:5234   */\n  tag_41\n  jump\t// in\ntag_124:\n    /* \"#utility.yul\":5160:5234   */\n  swap2\n  pop\n    /* \"#utility.yul\":5243:5336   */\n  tag_125\n    /* \"#utility.yul\":5332:5335   */\n  dup3\n    /* \"#utility.yul\":5243:5336   */\n  tag_42\n  jump\t// in\ntag_125:\n    /* \"#utility.yul\":5361:5363   */\n  0x40\n    /* \"#utility.yul\":5356:5359   */\n  dup3\n    /* \"#utility.yul\":5352:5364   */\n  add\n    /* \"#utility.yul\":5345:5364   */\n  swap1\n  pop\n    /* \"#utility.yul\":5004:5370   */\n  swap2\n  swap1\n  pop\n  jump\t// out\n    /* \"#utility.yul\":5376:5795   */\ntag_10:\n    /* \"#utility.yul\":5542:5546   */\n  0x00\n    /* \"#utility.yul\":5580:5582   */\n  0x20\n    /* \"#utility.yul\":5569:5578   */\n  dup3\n    /* \"#utility.yul\":5565:5583   */\n  add\n    /* \"#utility.yul\":5557:5583   */\n  swap1\n  pop\n    /* \"#utility.yul\":5629:5638   */\n  dup2\n    /* \"#utility.yul\":5623:5627   */\n  dup2\n    /* \"#utility.yul\":5619:5639   */\n  sub\n    /* \"#utility.yul\":5615:5616   */\n  0x00\n    /* \"#utility.yul\":5604:5613   */\n  dup4\n    /* \"#utility.yul\":5600:5617   */\n  add\n    /* \"#utility.yul\":5593:5640   */\n  mstore\n    /* \"#utility.yul\":5657:5788   */\n  tag_127\n    /* \"#utility.yul\":5783:5787   */\n  dup2\n    /* \"#utility.yul\":5657:5788   */\n  tag_43\n  jump\t// in\ntag_127:\n    /* \"#utility.yul\":5649:5788   */\n  swap1\n  pop\n    /* \"#utility.yul\":5376:5795   */\n  swap2\n  swap1\n  pop\n  jump\t// out\n    /* \"#utility.yul\":5801:6027   */\ntag_44:\n    /* \"#utility.yul\":5941:5975   */\n  0x496e76616c69642065766964656e63652049443a2049442063616e6e6f742062\n    /* \"#utility.yul\":5937:5938   */\n  0x00\n    /* \"#utility.yul\":5929:5935   */\n  dup3\n    /* \"#utility.yul\":5925:5939   */\n  add\n    /* \"#utility.yul\":5918:5976   */\n  mstore\n    /* \"#utility.yul\":6010:6019   */\n  0x6520656d70747900000000000000000000000000000000000000000000000000\n    /* \"#utility.yul\":6005:6007   */\n  0x20\n    /* \"#utility.yul\":5997:6003   */\n  dup3\n    /* \"#utility.yul\":5993:6008   */\n  add\n    /* \"#utility.yul\":5986:6020   */\n  mstore\n    /* \"#utility.yul\":5801:6027   */\n  pop\n  jump\t// out\n    /* \"#utility.yul\":6033:6399   */\ntag_45:\n    /* \"#utility.yul\":6175:6178   */\n  0x00\n    /* \"#utility.yul\":6196:6263   */\n  tag_130\n    /* \"#utility.yul\":6260:6262   */\n  0x27\n    /* \"#utility.yul\":6255:6258   */\n  dup4\n    /* \"#utility.yul\":6196:6263   */\n  tag_41\n  jump\t// in\ntag_130:\n    /* \"#utility.yul\":6189:6263   */\n  swap2\n  pop\n    /* \"#utility.yul\":6272:6365   */\n  tag_131\n    /* \"#utility.yul\":6361:6364   */\n  dup3\n    /* \"#utility.yul\":6272:6365   */\n  tag_44\n  jump\t// in\ntag_131:\n    /* \"#utility.yul\":6390:6392   */\n  0x40\n    /* \"#utility.yul\":6385:6388   */\n  dup3\n    /* \"#utility.yul\":6381:6393   */\n  add\n    /* \"#utility.yul\":6374:6393   */\n  swap1\n  pop\n    /* \"#utility.yul\":6033:6399   */\n  swap2\n  swap1\n  pop\n  jump\t// out\n    /* \"#utility.yul\":6405:6824   */\ntag_13:\n    /* \"#utility.yul\":6571:6575   */\n  0x00\n    /* \"#utility.yul\":6609:6611   */\n  0x20\n    /* \"#utility.yul\":6598:6607   */\n  dup3\n    /* \"#utility.yul\":6594:6612   */\n  add\n    /* \"#utility.yul\":6586:6612   */\n  swap1\n  pop\n    /* \"#utility.yul\":6658:6667   */\n  dup2\n    /* \"#utility.yul\":6652:6656   */\n  dup2\n    /* \"#utility.yul\":6648:6668   */\n  sub\n    /* \"#utility.yul\":6644:6645   */\n  0x00\n    /* \"#utility.yul\":6633:6642   */\n  dup4\n    /* \"#utility.yul\":6629:6646   */\n  add\n    /* \"#utility.yul\":6622:6669   */\n  mstore\n    /* \"#utility.yul\":6686:6817   */\n  tag_133\n    /* \"#utility.yul\":6812:6816   */\n  dup2\n    /* \"#utility.yul\":6686:6817   */\n  tag_45\n  jump\t// in\ntag_133:\n    /* \"#utility.yul\":6678:6817   */\n  swap1\n  pop\n    /* \"#utility.yul\":6405:6824   */\n  swap2\n  swap1\n  pop\n  jump\t// out\n    /* \"#utility.yul\":6830:7065   */\ntag_46:\n    /* \"#utility.yul\":6970:7004   */\n  0x496e76616c6964206465736372697074696f6e3a206465736372697074696f6e\n    /* \"#utility.yul\":6966:6967   */\n  0x00\n    /* \"#utility.yul\":6958:6964   */\n  dup3\n    /* \"#utility.yul\":6954:6968   */\n  add\n    /* \"#utility.yul\":6947:7005   */\n  mstore\n    /* \"#utility.yul\":7039:7057   */\n  0x2063616e6e6f7420626520656d70747900000000000000000000000000000000\n    /* \"#utility.yul\":7034:7036   */\n  0x20\n    /* \"#utility.yul\":7026:7032   */\n  dup3\n    /* \"#utility.yul\":7022:7037   */\n  add\n    /* \"#utility.yul\":7015:7058   */\n  mstore\n    /* \"#utility.yul\":6830:7065   */\n  pop\n  jump\t// out\n    /* \"#utility.yul\":7071:7437   */\ntag_47:\n    /* \"#utility.yul\":7213:7216   */\n  0x00\n    /* \"#utility.yul\":7234:7301   */\n  tag_136\n    /* \"#utility.yul\":7298:7300   */\n  0x30\n    /* \"#utility.yul\":7293:7296   */\n  dup4\n    /* \"#utility.yul\":7234:7301   */\n  tag_41\n  jump\t// in\ntag_136:\n    /* \"#utility.yul\":7227:7301   */\n  swap2\n  pop\n    /* \"#utility.yul\":7310:7403   */\n  tag_137\n    /* \"#utility.yul\":7399:7402   */\n  dup3\n    /* \"#utility.yul\":7310:7403   */\n  tag_46\n  jump\t// in\ntag_137:\n    /* \"#utility.yul\":7428:7430   */\n  0x40\n    /* \"#utility.yul\":7423:7426   */\n  dup3\n    /* \"#utility.yul\":7419:7431   */\n  add\n    /* \"#utility.yul\":7412:7431   */\n  swap1\n  pop\n    /* \"#utility.yul\":7071:7437   */\n  swap2\n  swap1\n  pop\n  jump\t// out\n    /* \"#utility.yul\":7443:7862   */\ntag_16:\n    /* \"#utility.yul\":7609:7613   */\n  0x00\n    /* \"#utility.yul\":7647:7649   */\n  0x20\n    /* \"#utility.yul\":7636:7645   */\n  dup3\n    /* \"#utility.yul\":7632:7650   */\n  add\n    /* \"#utility.yul\":7624:7650   */\n  swap1\n  pop\n    /* \"#utility.yul\":7696:7705   */\n  dup2\n    /* \"#utility.yul\":7690:7694   */\n  dup2\n    /* \"#utility.yul\":7686:7706   */\n  sub\n    /* \"#utility.yul\":7682:7683   */\n  0x00\n    /* \"#utility.yul\":7671:7680   */\n  dup4\n    /* \"#utility.yul\":7667:7684   */\n  add\n    /* \"#utility.yul\":7660:7707   */\n  mstore\n    /* \"#utility.yul\":7724:7855   */\n  tag_139\n    /* \"#utility.yul\":7850:7854   */\n  dup2\n    /* \"#utility.yul\":7724:7855   */\n  tag_47\n  jump\t// in\ntag_139:\n    /* \"#utility.yul\":7716:7855   */\n  swap1\n  pop\n    /* \"#utility.yul\":7443:7862   */\n  swap2\n  swap1\n  pop\n  jump\t// out\n    /* \"#utility.yul\":7868:7967   */\ntag_48:\n    /* \"#utility.yul\":7920:7926   */\n  0x00\n    /* \"#utility.yul\":7954:7959   */\n  dup2\n    /* \"#utility.yul\":7948:7960   */\n  mload\n    /* \"#utility.yul\":7938:7960   */\n  swap1\n  pop\n    /* \"#utility.yul\":7868:7967   */\n  swap2\n  swap1\n  pop\n  jump\t// out\n    /* \"#utility.yul\":7973:8153   */\ntag_49:\n    /* \"#utility.yul\":8021:8098   */\n  0x4e487b7100000000000000000000000000000000000000000000000000000000\n    /* \"#utility.yul\":8018:8019   */\n  0x00\n    /* \"#utility.yul\":8011:8099   */\n  mstore\n    /* \"#utility.yul\":8118:8122   */\n  0x22\n    /* \"#utility.yul\":8115:8116   */\n  0x04\n    /* \"#utility.yul\":8108:8123   */\n  mstore\n    /* \"#utility.yul\":8142:8146   */\n  0x24\n    /* \"#utility.yul\":8139:8140   */\n  0x00\n    /* \"#utility.yul\":8132:8147   */\n  revert\n    /* \"#utility.yul\":8159:8479   */\ntag_50:\n    /* \"#utility.yul\":8203:8209   */\n  0x00\n    /* \"#utility.yul\":8240:8241   */\n  0x02\n    /* \"#utility.yul\":8234:8238   */\n  dup3\n    /* \"#utility.yul\":8230:8242   */\n  div\n    /* \"#utility.yul\":8220:8242   */\n  swap1\n  pop\n    /* \"#utility.yul\":8287:8288   */\n  0x01\n    /* \"#utility.yul\":8281:8285   */\n  dup3\n    /* \"#utility.yul\":8277:8289   */\n  and\n    /* \"#utility.yul\":8308:8326   */\n  dup1\n    /* \"#utility.yul\":8298:8379   */\n  tag_143\n  jumpi\n    /* \"#utility.yul\":8364:8368   */\n  0x7f\n    /* \"#utility.yul\":8356:8362   */\n  dup3\n    /* \"#utility.yul\":8352:8369   */\n  and\n    /* \"#utility.yul\":8342:8369   */\n  swap2\n  pop\n    /* \"#utility.yul\":8298:8379   */\ntag_143:\n    /* \"#utility.yul\":8426:8428   */\n  0x20\n    /* \"#utility.yul\":8418:8424   */\n  dup3\n    /* \"#utility.yul\":8415:8429   */\n  lt\n    /* \"#utility.yul\":8395:8413   */\n  dup2\n    /* \"#utility.yul\":8392:8430   */\n  sub\n    /* \"#utility.yul\":8389:8473   */\n  tag_144\n  jumpi\n    /* \"#utility.yul\":8445:8463   */\n  tag_145\n  tag_49\n  jump\t// in\ntag_145:\n    /* \"#utility.yul\":8389:8473   */\ntag_144:\n    /* \"#utility.yul\":8210:8479   */\n  pop\n    /* \"#utility.yul\":8159:8479   */\n  swap2\n  swap1\n  pop\n  jump\t// out\n    /* \"#utility.yul\":8485:8626   */\ntag_51:\n    /* \"#utility.yul\":8534:8538   */\n  0x00\n    /* \"#utility.yul\":8557:8560   */\n  dup2\n    /* \"#utility.yul\":8549:8560   */\n  swap1\n  pop\n    /* \"#utility.yul\":8580:8583   */\n  dup2\n    /* \"#utility.yul\":8577:8578   */\n  0x00\n    /* \"#utility.yul\":8570:8584   */\n  mstore\n    /* \"#utility.yul\":8614:8618   */\n  0x20\n    /* \"#utility.yul\":8611:8612   */\n  0x00\n    /* \"#utility.yul\":8601:8619   */\n  keccak256\n    /* \"#utility.yul\":8593:8619   */\n  swap1\n  pop\n    /* \"#utility.yul\":8485:8626   */\n  swap2\n  swap1\n  pop\n  jump\t// out\n    /* \"#utility.yul\":8632:8725   */\ntag_52:\n    /* \"#utility.yul\":8669:8675   */\n  0x00\n    /* \"#utility.yul\":8716:8718   */\n  0x20\n    /* \"#utility.yul\":8711:8713   */\n  0x1f\n    /* \"#utility.yul\":8704:8709   */\n  dup4\n    /* \"#utility.yul\":8700:8714   */\n  add\n    /* \"#utility.yul\":8696:8719   */\n  div\n    /* \"#utility.yul\":8686:8719   */\n  swap1\n  pop\n    /* \"#utility.yul\":8632:8725   */\n  swap2\n  swap1\n  pop\n  jump\t// out\n    /* \"#utility.yul\":8731:8838   */\ntag_53:\n    /* \"#utility.yul\":8775:8783   */\n  0x00\n    /* \"#utility.yul\":8825:8830   */\n  dup3\n    /* \"#utility.yul\":8819:8823   */\n  dup3\n    /* \"#utility.yul\":8815:8831   */\n  shl\n    /* \"#utility.yul\":8794:8831   */\n  swap1\n  pop\n    /* \"#utility.yul\":8731:8838   */\n  swap3\n  swap2\n  pop\n  pop\n  jump\t// out\n    /* \"#utility.yul\":8844:9237   */\ntag_54:\n    /* \"#utility.yul\":8913:8919   */\n  0x00\n    /* \"#utility.yul\":8963:8964   */\n  0x08\n    /* \"#utility.yul\":8951:8961   */\n  dup4\n    /* \"#utility.yul\":8947:8965   */\n  mul\n    /* \"#utility.yul\":8986:9083   */\n  tag_150\n    /* \"#utility.yul\":9016:9082   */\n  0xffffffffffffffffffffffffffffffffffffffffffffffffffffffffffffffff\n    /* \"#utility.yul\":9005:9014   */\n  dup3\n    /* \"#utility.yul\":8986:9083   */\n  tag_53\n  jump\t// in\ntag_150:\n    /* \"#utility.yul\":9104:9143   */\n  tag_151\n    /* \"#utility.yul\":9134:9142   */\n  dup7\n    /* \"#utility.yul\":9123:9132   */\n  dup4\n    /* \"#utility.yul\":9104:9143   */\n  tag_53\n  jump\t// in\ntag_151:\n    /* \"#utility.yul\":9092:9143   */\n  swap6\n  pop\n    /* \"#utility.yul\":9176:9180   */\n  dup1\n    /* \"#utility.yul\":9172:9181   */\n  not\n    /* \"#utility.yul\":9165:9170   */\n  dup5\n    /* \"#utility.yul\":9161:9182   */\n  and\n    /* \"#utility.yul\":9152:9182   */\n  swap4\n  pop\n    /* \"#utility.yul\":9225:9229   */\n  dup1\n    /* \"#utility.yul\":9215:9223   */\n  dup7\n    /* \"#utility.yul\":9211:9230   */\n  and\n    /* \"#utility.yul\":9204:9209   */\n  dup5\n    /* \"#utility.yul\":9201:9231   */\n  or\n    /* \"#utility.yul\":9191:9231   */\n  swap3\n  pop\n    /* \"#utility.yul\":8920:9237   */\n  pop\n  pop\n    /* \"#utility.yul\":8844:9237   */\n  swap4\n  swap3\n  pop\n  pop\n  pop\n  jump\t// out\n    /* \"#utility.yul\":9243:9320   */\ntag_55:\n    /* \"#utility.yul\":9280:9287   */\n  0x00\n    /* \"#utility.yul\":9309:9314   */\n  dup2\n    /* \"#utility.yul\":9298:9314   */\n  swap1\n  pop\n    /* \"#utility.yul\":9243:9320   */\n  swap2\n  swap1\n  pop\n  jump\t// out\n    /* \"#utility.yul\":9326:9386   */\ntag_56:\n    /* \"#utility.yul\":9354:9357   */\n  0x00\n    /* \"#utility.yul\":9375:9380   */\n  dup2\n    /* \"#utility.yul\":9368:9380   */\n  swap1\n  pop\n    /* \"#utility.yul\":9326:9386   */\n  swap2\n  swap1\n  pop\n  jump\t// out\n    /* \"#utility.yul\":9392:9534   */\ntag_57:\n    /* \"#utility.yul\":9442:9451   */\n  0x00\n    /* \"#utility.yul\":9475:9528   */\n  tag_155\n    /* \"#utility.yul\":9493:9527   */\n  tag_156\n    /* \"#utility.yul\":9502:9526   */\n  tag_157\n    /* \"#utility.yul\":9520:9525   */\n  dup5\n    /* \"#utility.yul\":9502:9526   */\n  tag_55\n  jump\t// in\ntag_157:\n    /* \"#utility.yul\":9493:9527   */\n  tag_56\n  jump\t// in\ntag_156:\n    /* \"#utility.yul\":9475:9528   */\n  tag_55\n  jump\t// in\ntag_155:\n    /* \"#utility.yul\":9462:9528   */\n  swap1\n  pop\n    /* \"#utility.yul\":9392:9534   */\n  swap2\n  swap1\n  pop\n  jump\t// out\n    /* \"#utility.yul\":9540:9615   */\ntag_58:\n    /* \"#utility.yul\":9583:9586   */\n  0x00\n    /* \"#utility.yul\":9604:9609   */\n  dup2\n    /* \"#utility.yul\":9597:9609   */\n  swap1\n  pop\n    /* \"#utility.yul\":9540:9615   */\n  swap2\n  swap1\n  pop\n  jump\t// out\n    /* \"#utility.yul\":9621:9890   */\ntag_59:\n    /* \"#utility.yul\":9731:9770   */\n  tag_160\n    /* \"#utility.yul\":9762:9769   */\n  dup4\n    /* \"#utility.yul\":9731:9770   */\n  tag_57\n  jump\t// in\ntag_160:\n    /* \"#utility.yul\":9792:9883   */\n  tag_161\n    /* \"#utility.yul\":9841:9882   */\n  tag_162\n    /* \"#utility.yul\":9865:9881   */\n  dup3\n    /* \"#utility.yul\":9841:9882   */\n  tag_58\n  jump\t// in\ntag_162:\n    /* \"#utility.yul\":9833:9839   */\n  dup5\n    /* \"#utility.yul\":9826:9830   */\n  dup5\n    /* \"#utility.yul\":9820:9831   */\n  sload\n    /* \"#utility.yul\":9792:9883   */\n  tag_54\n  jump\t// in\ntag_161:\n    /* \"#utility.yul\":9786:9790   */\n  dup3\n    /* \"#utility.yul\":9779:9884   */\n  sstore\n    /* \"#utility.yul\":9697:9890   */\n  pop\n    /* \"#utility.yul\":9621:9890   */\n  pop\n  pop\n  pop\n  jump\t// out\n    /* \"#utility.yul\":9896:9969   */\ntag_60:\n    /* \"#utility.yul\":9941:9944   */\n  0x00\n    /* \"#utility.yul\":9962:9963   */\n  0x00\n    /* \"#utility.yul\":9955:9963   */\n  swap1\n  pop\n    /* \"#utility.yul\":9896:9969   */\n  swap1\n  jump\t// out\n    /* \"#utility.yul\":9975:10164   */\ntag_61:\n    /* \"#utility.yul\":10052:10084   */\n  tag_165\n  tag_60\n  jump\t// in\ntag_165:\n    /* \"#utility.yul\":10093:10158   */\n  tag_166\n    /* \"#utility.yul\":10151:10157   */\n  dup2\n    /* \"#utility.yul\":10143:10149   */\n  dup5\n    /* \"#utility.yul\":10137:10141   */\n  dup5\n    /* \"#utility.yul\":10093:10158   */\n  tag_59\n  jump\t// in\ntag_166:\n    /* \"#utility.yul\":10028:10164   */\n  pop\n    /* \"#utility.yul\":9975:10164   */\n  pop\n  pop\n  jump\t// out\n    /* \"#utility.yul\":10170:10356   */\ntag_62:\n    /* \"#utility.yul\":10230:10350   */\ntag_168:\n    /* \"#utility.yul\":10247:10250   */\n  dup2\n    /* \"#utility.yul\":10240:10245   */\n  dup2\n    /* \"#utility.yul\":10237:10251   */\n  lt\n    /* \"#utility.yul\":10230:10350   */\n  iszero\n  tag_170\n  jumpi\n    /* \"#utility.yul\":10301:10340   */\n  tag_171\n    /* \"#utility.yul\":10338:10339   */\n  0x00\n    /* \"#utility.yul\":10331:10336   */\n  dup3\n    /* \"#utility.yul\":10301:10340   */\n  tag_61\n  jump\t// in\ntag_171:\n    /* \"#utility.yul\":10274:10275   */\n  0x01\n    /* \"#utility.yul\":10267:10272   */\n  dup2\n    /* \"#utility.yul\":10263:10276   */\n  add\n    /* \"#utility.yul\":10254:10276   */\n  swap1\n  pop\n    /* \"#utility.yul\":10230:10350   */\n  jump(tag_168)\ntag_170:\n    /* \"#utility.yul\":10170:10356   */\n  pop\n  pop\n  jump\t// out\n    /* \"#utility.yul\":10362:10905   */\ntag_63:\n    /* \"#utility.yul\":10463:10465   */\n  0x1f\n    /* \"#utility.yul\":10458:10461   */\n  dup3\n    /* \"#utility.yul\":10455:10466   */\n  gt\n    /* \"#utility.yul\":10452:10898   */\n  iszero\n  tag_173\n  jumpi\n    /* \"#utility.yul\":10497:10535   */\n  tag_174\n    /* \"#utility.yul\":10529:10534   */\n  dup2\n    /* \"#utility.yul\":10497:10535   */\n  tag_51\n  jump\t// in\ntag_174:\n    /* \"#utility.yul\":10581:10610   */\n  tag_175\n    /* \"#utility.yul\":10599:10609   */\n  dup5\n    /* \"#utility.yul\":10581:10610   */\n  tag_52\n  jump\t// in\ntag_175:\n    /* \"#utility.yul\":10571:10579   */\n  dup2\n    /* \"#utility.yul\":10567:10611   */\n  add\n    /* \"#utility.yul\":10764:10766   */\n  0x20\n    /* \"#utility.yul\":10752:10762   */\n  dup6\n    /* \"#utility.yul\":10749:10767   */\n  lt\n    /* \"#utility.yul\":10746:10795   */\n  iszero\n  tag_176\n  jumpi\n    /* \"#utility.yul\":10785:10793   */\n  dup2\n    /* \"#utility.yul\":10770:10793   */\n  swap1\n  pop\n    /* \"#utility.yul\":10746:10795   */\ntag_176:\n    /* \"#utility.yul\":10808:10888   */\n  tag_177\n    /* \"#utility.yul\":10864:10886   */\n  tag_178\n    /* \"#utility.yul\":10882:10885   */\n  dup6\n    /* \"#utility.yul\":10864:10886   */\n  tag_52\n  jump\t// in\ntag_178:\n    /* \"#utility.yul\":10854:10862   */\n  dup4\n    /* \"#utility.yul\":10850:10887   */\n  add\n    /* \"#utility.yul\":10837:10848   */\n  dup3\n    /* \"#utility.yul\":10808:10888   */\n  tag_62\n  jump\t// in\ntag_177:\n    /* \"#utility.yul\":10467:10898   */\n  pop\n  pop\n    /* \"#utility.yul\":10452:10898   */\ntag_173:\n    /* \"#utility.yul\":10362:10905   */\n  pop\n  pop\n  pop\n  jump\t// out\n    /* \"#utility.yul\":10911:11028   */\ntag_64:\n    /* \"#utility.yul\":10965:10973   */\n  0x00\n    /* \"#utility.yul\":11015:11020   */\n  dup3\n    /* \"#utility.yul\":11009:11013   */\n  dup3\n    /* \"#utility.yul\":11005:11021   */\n  shr\n    /* \"#utility.yul\":10984:11021   */\n  swap1\n  pop\n    /* \"#utility.yul\":10911:11028   */\n  swap3\n  swap2\n  pop\n  pop\n  jump\t// out\n    /* \"#utility.yul\":11034:11203   */\ntag_65:\n    /* \"#utility.yul\":11078:11084   */\n  0x00\n    /* \"#utility.yul\":11111:11162   */\n  tag_181\n    /* \"#utility.yul\":11159:11160   */\n  0x00\n    /* \"#utility.yul\":11155:11161   */\n  not\n    /* \"#utility.yul\":11147:11152   */\n  dup5\n    /* \"#utility.yul\":11144:11145   */\n  0x08\n    /* \"#utility.yul\":11140:11153   */\n  mul\n    /* \"#utility.yul\":11111:11162   */\n  tag_64\n  jump\t// in\ntag_181:\n    /* \"#utility.yul\":11107:11163   */\n  not\n    /* \"#utility.yul\":11192:11196   */\n  dup1\n    /* \"#utility.yul\":11186:11190   */\n  dup4\n    /* \"#utility.yul\":11182:11197   */\n  and\n    /* \"#utility.yul\":11172:11197   */\n  swap2\n  pop\n    /* \"#utility.yul\":11085:11203   */\n  pop\n    /* \"#utility.yul\":11034:11203   */\n  swap3\n  swap2\n  pop\n  pop\n  jump\t// out\n    /* \"#utility.yul\":11208:11503   */\ntag_66:\n    /* \"#utility.yul\":11284:11288   */\n  0x00\n    /* \"#utility.yul\":11430:11459   */\n  tag_183\n    /* \"#utility.yul\":11455:11458   */\n  dup4\n    /* \"#utility.yul\":11449:11453   */\n  dup4\n    /* \"#utility.yul\":11430:11459   */\n  tag_65\n  jump\t// in\ntag_183:\n    /* \"#utility.yul\":11422:11459   */\n  swap2\n  pop\n    /* \"#utility.yul\":11492:11495   */\n  dup3\n    /* \"#utility.yul\":11489:11490   */\n  0x02\n    /* \"#utility.yul\":11485:11496   */\n  mul\n    /* \"#utility.yul\":11479:11483   */\n  dup3\n    /* \"#utility.yul\":11476:11497   */\n  or\n    /* \"#utility.yul\":11468:11497   */\n  swap1\n  pop\n    /* \"#utility.yul\":11208:11503   */\n  swap3\n  swap2\n  pop\n  pop\n  jump\t// out\n    /* \"#utility.yul\":11508:12903   */\ntag_19:\n    /* \"#utility.yul\":11625:11662   */\n  tag_185\n    /* \"#utility.yul\":11658:11661   */\n  dup3\n    /* \"#utility.yul\":11625:11662   */\n  tag_48\n  jump\t// in\ntag_185:\n    /* \"#utility.yul\":11727:11745   */\n  0xffffffffffffffff\n    /* \"#utility.yul\":11719:11725   */\n  dup2\n    /* \"#utility.yul\":11716:11746   */\n  gt\n    /* \"#utility.yul\":11713:11769   */\n  iszero\n  tag_186\n  jumpi\n    /* \"#utility.yul\":11749:11767   */\n  tag_187\n  tag_34\n  jump\t// in\ntag_187:\n    /* \"#utility.yul\":11713:11769   */\ntag_186:\n    /* \"#utility.yul\":11793:11831   */\n  tag_188\n    /* \"#utility.yul\":11825:11829   */\n  dup3\n    /* \"#utility.yul\":11819:11830   */\n  sload\n    /* \"#utility.yul\":11793:11831   */\n  tag_50\n  jump\t// in\ntag_188:\n    /* \"#utility.yul\":11878:11945   */\n  tag_189\n    /* \"#utility.yul\":11938:11944   */\n  dup3\n    /* \"#utility.yul\":11930:11936   */\n  dup3\n    /* \"#utility.yul\":11924:11928   */\n  dup6\n    /* \"#utility.yul\":11878:11945   */\n  tag_63\n  jump\t// in\ntag_189:\n    /* \"#utility.yul\":11972:11973   */\n  0x00\n    /* \"#utility.yul\":11996:12000   */\n  0x20\n    /* \"#utility.yul\":11983:12000   */\n  swap1\n  pop\n    /* \"#utility.yul\":12028:12030   */\n  0x1f\n    /* \"#utility.yul\":12020:12026   */\n  dup4\n    /* \"#utility.yul\":12017:12031   */\n  gt\n    /* \"#utility.yul\":12045:12046   */\n  0x01\n    /* \"#utility.yul\":12040:12658   */\n  dup2\n  eq\n  tag_191\n  jumpi\n    /* \"#utility.yul\":12702:12703   */\n  0x00\n    /* \"#utility.yul\":12719:12725   */\n  dup5\n    /* \"#utility.yul\":12716:12793   */\n  iszero\n  tag_192\n  jumpi\n    /* \"#utility.yul\":12768:12777   */\n  dup3\n    /* \"#utility.yul\":12763:12766   */\n  dup8\n    /* \"#utility.yul\":12759:12778   */\n  add\n    /* \"#utility.yul\":12753:12779   */\n  mload\n    /* \"#utility.yul\":12744:12779   */\n  swap1\n  pop\n    /* \"#utility.yul\":12716:12793   */\ntag_192:\n    /* \"#utility.yul\":12819:12886   */\n  tag_193\n    /* \"#utility.yul\":12879:12885   */\n  dup6\n    /* \"#utility.yul\":12872:12877   */\n  dup3\n    /* \"#utility.yul\":12819:12886   */\n  tag_66\n  jump\t// in\ntag_193:\n    /* \"#utility.yul\":12813:12817   */\n  dup7\n    /* \"#utility.yul\":12806:12887   */\n  sstore\n    /* \"#utility.yul\":12675:12897   */\n  pop\n    /* \"#utility.yul\":12010:12897   */\n  jump(tag_190)\n    /* \"#utility.yul\":12040:12658   */\ntag_191:\n    /* \"#utility.yul\":12092:12096   */\n  0x1f\n    /* \"#utility.yul\":12088:12097   */\n  not\n    /* \"#utility.yul\":12080:12086   */\n  dup5\n    /* \"#utility.yul\":12076:12098   */\n  and\n    /* \"#utility.yul\":12126:12163   */\n  tag_194\n    /* \"#utility.yul\":12158:12162   */\n  dup7\n    /* \"#utility.yul\":12126:12163   */\n  tag_51\n  jump\t// in\ntag_194:\n    /* \"#utility.yul\":12185:12186   */\n  0x00\n    /* \"#utility.yul\":12199:12407   */\ntag_195:\n    /* \"#utility.yul\":12213:12220   */\n  dup3\n    /* \"#utility.yul\":12210:12211   */\n  dup2\n    /* \"#utility.yul\":12207:12221   */\n  lt\n    /* \"#utility.yul\":12199:12407   */\n  iszero\n  tag_197\n  jumpi\n    /* \"#utility.yul\":12292:12301   */\n  dup5\n    /* \"#utility.yul\":12287:12290   */\n  dup10\n    /* \"#utility.yul\":12283:12302   */\n  add\n    /* \"#utility.yul\":12277:12303   */\n  mload\n    /* \"#utility.yul\":12269:12275   */\n  dup3\n    /* \"#utility.yul\":12262:12304   */\n  sstore\n    /* \"#utility.yul\":12343:12344   */\n  0x01\n    /* \"#utility.yul\":12335:12341   */\n  dup3\n    /* \"#utility.yul\":12331:12345   */\n  add\n    /* \"#utility.yul\":12321:12345   */\n  swap2\n  pop\n    /* \"#utility.yul\":12390:12392   */\n  0x20\n    /* \"#utility.yul\":12379:12388   */\n  dup6\n    /* \"#utility.yul\":12375:12393   */\n  add\n    /* \"#utility.yul\":12362:12393   */\n  swap5\n  pop\n    /* \"#utility.yul\":12236:12240   */\n  0x20\n    /* \"#utility.yul\":12233:12234   */\n  dup2\n    /* \"#utility.yul\":12229:12241   */\n  add\n    /* \"#utility.yul\":12224:12241   */\n  swap1\n  pop\n    /* \"#utility.yul\":12199:12407   */\n  jump(tag_195)\ntag_197:\n    /* \"#utility.yul\":12435:12441   */\n  dup7\n    /* \"#utility.yul\":12426:12433   */\n  dup4\n    /* \"#utility.yul\":12423:12442   */\n  lt\n    /* \"#utility.yul\":12420:12599   */\n  iszero\n  tag_198\n  jumpi\n    /* \"#utility.yul\":12493:12502   */\n  dup5\n    /* \"#utility.yul\":12488:12491   */\n  dup10\n    /* \"#utility.yul\":12484:12503   */\n  add\n    /* \"#utility.yul\":12478:12504   */\n  mload\n    /* \"#utility.yul\":12536:12584   */\n  tag_199\n    /* \"#utility.yul\":12578:12582   */\n  0x1f\n    /* \"#utility.yul\":12570:12576   */\n  dup10\n    /* \"#utility.yul\":12566:12583   */\n  and\n    /* \"#utility.yul\":12555:12564   */\n  dup3\n    /* \"#utility.yul\":12536:12584   */\n  tag_65\n  jump\t// in\ntag_199:\n    /* \"#utility.yul\":12528:12534   */\n  dup4\n    /* \"#utility.yul\":12521:12585   */\n  sstore\n    /* \"#utility.yul\":12443:12599   */\n  pop\n    /* \"#utility.yul\":12420:12599   */\ntag_198:\n    /* \"#utility.yul\":12645:12646   */\n  0x01\n    /* \"#utility.yul\":12641:12642   */\n  0x02\n    /* \"#utility.yul\":12633:12639   */\n  dup9\n    /* \"#utility.yul\":12629:12643   */\n  mul\n    /* \"#utility.yul\":12625:12647   */\n  add\n    /* \"#utility.yul\":12619:12623   */\n  dup9\n    /* \"#utility.yul\":12612:12648   */\n  sstore\n    /* \"#utility.yul\":12047:12658   */\n  pop\n  pop\n  pop\n    /* \"#utility.yul\":12010:12897   */\ntag_190:\n  pop\n    /* \"#utility.yul\":11600:12903   */\n  pop\n  pop\n  pop\n    /* \"#utility.yul\":11508:12903   */\n  pop\n  pop\n  jump\t// out\n    /* \"src/ChainOfCustody.sol\":346:4868  contract Evidence {... */\ntag_20:\n  mload(0x80)\n  mload(0xa0)\n  mload(0xc0)\n  mload(0xe0)\n  codecopy(0x00, dataOffset(sub_0), dataSize(sub_0))\n  0x00\n  assignImmutable(\"0x81e080ffc23e8b8d44dd829bc823229e92b893eb1d8f624419d3f5682eb97fc3\")\n  0x00\n  assignImmutable(\"0x1572b593c53d839d80004aa4b8c51211864104f06ace9e22be9c4365b50655ea\")\n  0x00\n  assignImmutable(\"0xf4c2b5de886427473655d4c904c743576dc2d53249b7535d96c06cc97ae7216b\")\n  0x00\n  assignImmutable(\"0x939eb54753ed0cc7e2272bfb34cbe098308c93936ed54d79078f76ade0b2e789\")\n  return(0x00, dataSize(sub_0))\nstop\n\nsub_0: assembly {\n        /* \"src/ChainOfCustody.sol\":346:4868  contract Evidence {... */\n      mstore(0x40, 0x80)\n      callvalue\n      dup1\n      iszero\n      tag_1\n      jumpi\n      revert(0x00, 0x00)\n    tag_1:\n      pop\n      jumpi(tag_2, lt(calldatasize, 0x04))\n      shr(0xe0, calldataload(0x00))\n      dup1\n      0x60c9269d\n      gt\n      tag_13\n      jumpi\n      dup1\n      0x60c9269d\n      eq\n      tag_8\n      jumpi\n      dup1\n      0x7ce7d376\n      eq\n      tag_9\n      jumpi\n      dup1\n      0x9e91bc54\n      eq\n      tag_10\n      jumpi\n      dup1\n      0xa18a186b\n      eq\n      tag_11\n      jumpi\n      dup1\n      0xf2fde38b\n      eq\n      tag_12\n      jumpi\n      jump(tag_2)\n    tag_13:\n      dup1\n      0x03563f36\n      eq\n      tag_3\n      jumpi\n      dup1\n      0x4e88d574\n      eq\n      tag_4\n      jumpi\n      dup1\n      0x4efdc623\n      eq\n      tag_5\n      jumpi\n      dup1\n      0x4f7eae94\n      eq\n      tag_6\n      jumpi\n      dup1\n      0x581c49a1\n      eq\n      tag_7\n      jumpi\n    tag_2:\n      revert(0x00, 0x00)\n        /* \"src/ChainOfCustody.sol\":3997:4089  function getEvidenceId() external view returns (bytes32) {... */\n    tag_3:\n      tag_14\n      tag_15\n      jump\t// in\n    tag_14:\n      mload(0x40)\n      tag_16\n      swap2\n      swap1\n      tag_17\n      jump\t// in\n    tag_16:\n      mload(0x40)\n      dup1\n      swap2\n      sub\n      swap1\n      return\n        /* \"src/ChainOfCustody.sol\":4202:4317  function getTimeOfDiscontinuation() external view returns (uint256) {... */\n    tag_4:\n      tag_18\n      tag_19\n      jump\t// in\n    tag_18:\n      mload(0x40)\n      tag_20\n      swap2\n      swap1\n      tag_21\n      jump\t// in\n    tag_20:\n      mload(0x40)\n      dup1\n      swap2\n      sub\n      swap1\n      return\n        /* \"src/ChainOfCustody.sol\":4777:4866  function getEvidenceState() external view returns (bool) {... */\n    tag_5:\n      tag_22\n      tag_23\n      jump\t// in\n    tag_22:\n      mload(0x40)\n      tag_24\n      swap2\n      swap1\n      tag_25\n      jump\t// in\n    tag_24:\n      mload(0x40)\n      dup1\n      swap2\n      sub\n      swap1\n      return\n        /* \"src/ChainOfCustody.sol\":4422:4529  function getEvidenceDescription() external view returns (string memory) {... */\n    tag_6:\n      tag_26\n      tag_27\n      jump\t// in\n    tag_26:\n      mload(0x40)\n      tag_28\n      swap2\n      swap1\n      tag_29\n      jump\t// in\n    tag_28:\n      mload(0x40)\n      dup1\n      swap2\n      sub\n      swap1\n      return\n        /* \"src/ChainOfCustody.sol\":4629:4771  function getChainOfCustody()... */\n    tag_7:\n      tag_30\n      tag_31\n      jump\t// in\n    tag_30:\n      mload(0x40)\n      tag_32\n      swap2\n      swap1\n      tag_33\n      jump\t// in\n    tag_32:\n      mload(0x40)\n      dup1\n      swap2\n      sub\n      swap1\n      return\n        /* \"src/ChainOfCustody.sol\":4095:4196  function getTimeOfCreation() external view returns (uint256) {... */\n    tag_8:\n      tag_34\n      tag_35\n      jump\t// in\n    tag_34:\n      mload(0x40)\n      tag_36\n      swap2\n      swap1\n      tag_21\n      jump\t// in\n    tag_36:\n      mload(0x40)\n      dup1\n      swap2\n      sub\n      swap1\n      return\n        /* \"src/ChainOfCustody.sol\":3356:3497  function discontinueEvidence() external onlyIfActive {... */\n    tag_9:\n      tag_37\n      tag_38\n      jump\t// in\n    tag_37:\n      stop\n        /* \"src/ChainOfCustody.sol\":4323:4416  function getEvidenceCreator() external view returns (address) {... */\n    tag_10:\n      tag_39\n      tag_40\n      jump\t// in\n    tag_39:\n      mload(0x40)\n      tag_41\n      swap2\n      swap1\n      tag_42\n      jump\t// in\n    tag_41:\n      mload(0x40)\n      dup1\n      swap2\n      sub\n      swap1\n      return\n        /* \"src/ChainOfCustody.sol\":4535:4623  function getCurrentOwner() external view returns (address) {... */\n    tag_11:\n      tag_43\n      tag_44\n      jump\t// in\n    tag_43:\n      mload(0x40)\n      tag_45\n      swap2\n      swap1\n      tag_42\n      jump\t// in\n    tag_45:\n      mload(0x40)\n      dup1\n      swap2\n      sub\n      swap1\n      return\n        /* \"src/ChainOfCustody.sol\":3056:3350  function transferOwnership(address newOwner) external onlyIfActive {... */\n    tag_12:\n      tag_46\n      0x04\n      dup1\n      calldatasize\n      sub\n      dup2\n      add\n      swap1\n      tag_47\n      swap2\n      swap1\n      tag_48\n      jump\t// in\n    tag_47:\n      tag_49\n      jump\t// in\n    tag_46:\n      stop\n        /* \"src/ChainOfCustody.sol\":3997:4089  function getEvidenceId() external view returns (bytes32) {... */\n    tag_15:\n        /* \"src/ChainOfCustody.sol\":4045:4052  bytes32 */\n      0x00\n        /* \"src/ChainOfCustody.sol\":4071:4082  EVIDENCE_ID */\n      immutable(\"0x1572b593c53d839d80004aa4b8c51211864104f06ace9e22be9c4365b50655ea\")\n        /* \"src/ChainOfCustody.sol\":4064:4082  return EVIDENCE_ID */\n      swap1\n      pop\n        /* \"src/ChainOfCustody.sol\":3997:4089  function getEvidenceId() external view returns (bytes32) {... */\n      swap1\n      jump\t// out\n        /* \"src/ChainOfCustody.sol\":4202:4317  function getTimeOfDiscontinuation() external view returns (uint256) {... */\n    tag_19:\n        /* \"src/ChainOfCustody.sol\":4261:4268  uint256 */\n      0x00\n        /* \"src/ChainOfCustody.sol\":4287:4310  TIME_OF_DISCONTINUATION */\n      sload(0x00)\n        /* \"src/ChainOfCustody.sol\":4280:4310  return TIME_OF_DISCONTINUATION */\n      swap1\n      pop\n        /* \"src/ChainOfCustody.sol\":4202:4317  function getTimeOfDiscontinuation() external view returns (uint256) {... */\n      swap1\n      jump\t// out\n        /* \"src/ChainOfCustody.sol\":4777:4866  function getEvidenceState() external view returns (bool) {... */\n    tag_23:\n        /* \"src/ChainOfCustody.sol\":4828:4832  bool */\n      0x00\n        /* \"src/ChainOfCustody.sol\":4851:4859  isActive */\n      0x04\n      0x00\n      swap1\n      sload\n      swap1\n      0x0100\n      exp\n      swap1\n      div\n      0xff\n      and\n        /* \"src/ChainOfCustody.sol\":4844:4859  return isActive */\n      swap1\n      pop\n        /* \"src/ChainOfCustody.sol\":4777:4866  function getEvidenceState() external view returns (bool) {... */\n      swap1\n      jump\t// out\n        /* \"src/ChainOfCustody.sol\":4422:4529  function getEvidenceDescription() external view returns (string memory) {... */\n    tag_27:\n        /* \"src/ChainOfCustody.sol\":4479:4492  string memory */\n      0x60\n        /* \"src/ChainOfCustody.sol\":4511:4522  description */\n      0x03\n        /* \"src/ChainOfCustody.sol\":4504:4522  return description */\n      dup1\n      sload\n      tag_54\n      swap1\n      tag_55\n      jump\t// in\n    tag_54:\n      dup1\n      0x1f\n      add\n      0x20\n      dup1\n      swap2\n      div\n      mul\n      0x20\n      add\n      mload(0x40)\n      swap1\n      dup2\n      add\n      0x40\n      mstore\n      dup1\n      swap3\n      swap2\n      swap1\n      dup2\n      dup2\n      mstore\n      0x20\n      add\n      dup3\n      dup1\n      sload\n      tag_56\n      swap1\n      tag_55\n      jump\t// in\n    tag_56:\n      dup1\n      iszero\n      tag_57\n      jumpi\n      dup1\n      0x1f\n      lt\n      tag_58\n      jumpi\n      0x0100\n      dup1\n      dup4\n      sload\n      div\n      mul\n      dup4\n      mstore\n      swap2\n      0x20\n      add\n      swap2\n      jump(tag_57)\n    tag_58:\n      dup3\n      add\n      swap2\n      swap1\n      0x00\n      mstore\n      keccak256(0x00, 0x20)\n      swap1\n    tag_59:\n      dup2\n      sload\n      dup2\n      mstore\n      swap1\n      0x01\n      add\n      swap1\n      0x20\n      add\n      dup1\n      dup4\n      gt\n      tag_59\n      jumpi\n      dup3\n      swap1\n      sub\n      0x1f\n      and\n      dup3\n      add\n      swap2\n    tag_57:\n      pop\n      pop\n      pop\n      pop\n      pop\n      swap1\n      pop\n        /* \"src/ChainOfCustody.sol\":4422:4529  function getEvidenceDescription() external view returns (string memory) {... */\n      swap1\n      jump\t// out\n        /* \"src/ChainOfCustody.sol\":4629:4771  function getChainOfCustody()... */\n    tag_31:\n        /* \"src/ChainOfCustody.sol\":4705:4727  CustodyRecord[] memory */\n      0x60\n        /* \"src/ChainOfCustody.sol\":4750:4764  chainOfCustody */\n      0x02\n        /* \"src/ChainOfCustody.sol\":4743:4764  return chainOfCustody */\n      dup1\n      sload\n      dup1\n      0x20\n      mul\n      0x20\n      add\n      mload(0x40)\n      swap1\n      dup2\n      add\n      0x40\n      mstore\n      dup1\n      swap3\n      swap2\n      swap1\n      dup2\n      dup2\n      mstore\n      0x20\n      add\n      0x00\n      swap1\n    tag_61:\n      dup3\n      dup3\n      lt\n      iszero\n      tag_62\n      jumpi\n      dup4\n      dup3\n      swap1\n      0x00\n      mstore\n      keccak256(0x00, 0x20)\n      swap1\n      0x02\n      mul\n      add\n      mload(0x40)\n      dup1\n      0x40\n      add\n      0x40\n      mstore\n      swap1\n      dup2\n      0x00\n      dup3\n      add\n      0x00\n      swap1\n      sload\n      swap1\n      0x0100\n      exp\n      swap1\n      div\n      0xffffffffffffffffffffffffffffffffffffffff\n      and\n      0xffffffffffffffffffffffffffffffffffffffff\n      and\n      0xffffffffffffffffffffffffffffffffffffffff\n      and\n      dup2\n      mstore\n      0x20\n      add\n      0x01\n      dup3\n      add\n      sload\n      dup2\n      mstore\n      pop\n      pop\n      dup2\n      mstore\n      0x20\n      add\n      swap1\n      0x01\n      add\n      swap1\n      jump(tag_61)\n    tag_62:\n      pop\n      pop\n      pop\n      pop\n      swap1\n      pop\n        /* \"src/ChainOfCustody.sol\":4629:4771  function getChainOfCustody()... */\n      swap1\n      jump\t// out\n        /* \"src/ChainOfCustody.sol\":4095:4196  function getTimeOfCreation() external view returns (uint256) {... */\n    tag_35:\n        /* \"src/ChainOfCustody.sol\":4147:4154  uint256 */\n      0x00\n        /* \"src/ChainOfCustody.sol\":4173:4189  TIME_OF_CREATION */\n      immutable(\"0x81e080ffc23e8b8d44dd829bc823229e92b893eb1d8f624419d3f5682eb97fc3\")\n        /* \"src/ChainOfCustody.sol\":4166:4189  return TIME_OF_CREATION */\n      swap1\n      pop\n        /* \"src/ChainOfCustody.sol\":4095:4196  function getTimeOfCreation() external view returns (uint256) {... */\n      swap1\n      jump\t// out\n        /* \"src/ChainOfCustody.sol\":3356:3497  function discontinueEvidence() external onlyIfActive {... */\n    tag_38:\n        /* \"src/ChainOfCustody.sol\":1835:1843  isActive */\n      0x04\n      0x00\n      swap1\n      sload\n      swap1\n      0x0100\n      exp\n      swap1\n      div\n      0xff\n      and\n        /* \"src/ChainOfCustody.sol\":1830:1881  if (!isActive) revert Error_EvindenceDiscontinued() */\n      tag_66\n      jumpi\n        /* \"src/ChainOfCustody.sol\":1852:1881  Error_EvindenceDiscontinued() */\n      mload(0x40)\n      0xbe35019e00000000000000000000000000000000000000000000000000000000\n      dup2\n      mstore\n      0x04\n      add\n      mload(0x40)\n      dup1\n      swap2\n      sub\n      swap1\n      revert\n        /* \"src/ChainOfCustody.sol\":1830:1881  if (!isActive) revert Error_EvindenceDiscontinued() */\n    tag_66:\n        /* \"src/ChainOfCustody.sol\":3419:3441  _discontinueEvidence() */\n      tag_68\n        /* \"src/ChainOfCustody.sol\":3419:3439  _discontinueEvidence */\n      tag_69\n        /* \"src/ChainOfCustody.sol\":3419:3441  _discontinueEvidence() */\n      jump\t// in\n    tag_68:\n        /* \"src/ChainOfCustody.sol\":3478:3489  EVIDENCE_ID */\n      immutable(\"0x1572b593c53d839d80004aa4b8c51211864104f06ace9e22be9c4365b50655ea\")\n        /* \"src/ChainOfCustody.sol\":3456:3490  EvindenceDiscontinued(EVIDENCE_ID) */\n      0x14a361a50d98fbe05e22df9359b451b51cf087dc7f912cc7b41ba235754083dd\n      mload(0x40)\n      mload(0x40)\n      dup1\n      swap2\n      sub\n      swap1\n      log2\n        /* \"src/ChainOfCustody.sol\":3356:3497  function discontinueEvidence() external onlyIfActive {... */\n      jump\t// out\n        /* \"src/ChainOfCustody.sol\":4323:4416  function getEvidenceCreator() external view returns (address) {... */\n    tag_40:\n        /* \"src/ChainOfCustody.sol\":4376:4383  address */\n      0x00\n        /* \"src/ChainOfCustody.sol\":4402:4409  CREATOR */\n      immutable(\"0xf4c2b5de886427473655d4c904c743576dc2d53249b7535d96c06cc97ae7216b\")\n        /* \"src/ChainOfCustody.sol\":4395:4409  return CREATOR */\n      swap1\n      pop\n        /* \"src/ChainOfCustody.sol\":4323:4416  function getEvidenceCreator() external view returns (address) {... */\n      swap1\n      jump\t// out\n        /* \"src/ChainOfCustody.sol\":4535:4623  function getCurrentOwner() external view returns (address) {... */\n    tag_44:\n        /* \"src/ChainOfCustody.sol\":4585:4592  address */\n      0x00\n        /* \"src/ChainOfCustody.sol\":4611:4616  owner */\n      0x01\n      0x00\n      swap1\n      sload\n      swap1\n      0x0100\n      exp\n      swap1\n      div\n      0xffffffffffffffffffffffffffffffffffffffff\n      and\n        /* \"src/ChainOfCustody.sol\":4604:4616  return owner */\n      swap1\n      pop\n        /* \"src/ChainOfCustody.sol\":4535:4623  function getCurrentOwner() external view returns (address) {... */\n      swap1\n      jump\t// out\n        /* \"src/ChainOfCustody.sol\":3056:3350  function transferOwnership(address newOwner) external onlyIfActive {... */\n    tag_49:\n        /* \"src/ChainOfCustody.sol\":1835:1843  isActive */\n      0x04\n      0x00\n      swap1\n      sload\n      swap1\n      0x0100\n      exp\n      swap1\n      div\n      0xff\n      and\n        /* \"src/ChainOfCustody.sol\":1830:1881  if (!isActive) revert Error_EvindenceDiscontinued() */\n      tag_73\n      jumpi\n        /* \"src/ChainOfCustody.sol\":1852:1881  Error_EvindenceDiscontinued() */\n      mload(0x40)\n      0xbe35019e00000000000000000000000000000000000000000000000000000000\n      dup2\n      mstore\n      0x04\n      add\n      mload(0x40)\n      dup1\n      swap2\n      sub\n      swap1\n      revert\n        /* \"src/ChainOfCustody.sol\":1830:1881  if (!isActive) revert Error_EvindenceDiscontinued() */\n    tag_73:\n        /* \"src/ChainOfCustody.sol\":3133:3154  address previousOwner */\n      0x00\n        /* \"src/ChainOfCustody.sol\":3157:3162  owner */\n      0x01\n      0x00\n      swap1\n      sload\n      swap1\n      0x0100\n      exp\n      swap1\n      div\n      0xffffffffffffffffffffffffffffffffffffffff\n      and\n        /* \"src/ChainOfCustody.sol\":3133:3162  address previousOwner = owner */\n      swap1\n      pop\n        /* \"src/ChainOfCustody.sol\":3172:3212  _transferOwnership(msg.sender, newOwner) */\n      tag_75\n        /* \"src/ChainOfCustody.sol\":3191:3201  msg.sender */\n      caller\n        /* \"src/ChainOfCustody.sol\":3203:3211  newOwner */\n      dup4\n        /* \"src/ChainOfCustody.sol\":3172:3190  _transferOwnership */\n      tag_76\n        /* \"src/ChainOfCustody.sol\":3172:3212  _transferOwnership(msg.sender, newOwner) */\n      jump\t// in\n    tag_75:\n        /* \"src/ChainOfCustody.sol\":3310:3333  TIME_OF_DISCONTINUATION */\n      sload(0x00)\n        /* \"src/ChainOfCustody.sol\":3288:3296  newOwner */\n      dup3\n        /* \"src/ChainOfCustody.sol\":3227:3343  OwnershipTransferred(... */\n      0xffffffffffffffffffffffffffffffffffffffff\n      and\n        /* \"src/ChainOfCustody.sol\":3261:3274  previousOwner */\n      dup3\n        /* \"src/ChainOfCustody.sol\":3227:3343  OwnershipTransferred(... */\n      0xffffffffffffffffffffffffffffffffffffffff\n      and\n      0xc13a1166d81cd3b0b352a367aebab95f3a6f6bc695fdab8e9a9d335239c3861b\n      mload(0x40)\n      mload(0x40)\n      dup1\n      swap2\n      sub\n      swap1\n      log4\n        /* \"src/ChainOfCustody.sol\":3123:3350  {... */\n      pop\n        /* \"src/ChainOfCustody.sol\":3056:3350  function transferOwnership(address newOwner) external onlyIfActive {... */\n      pop\n      jump\t// out\n        /* \"src/ChainOfCustody.sol\":3805:3941  function _discontinueEvidence() private onlyCreator {... */\n    tag_69:\n        /* \"src/ChainOfCustody.sol\":1595:1602  CREATOR */\n      immutable(\"0xf4c2b5de886427473655d4c904c743576dc2d53249b7535d96c06cc97ae7216b\")\n        /* \"src/ChainOfCustody.sol\":1581:1602  msg.sender != CREATOR */\n      0xffffffffffffffffffffffffffffffffffffffff\n      and\n        /* \"src/ChainOfCustody.sol\":1581:1591  msg.sender */\n      caller\n        /* \"src/ChainOfCustody.sol\":1581:1602  msg.sender != CREATOR */\n      0xffffffffffffffffffffffffffffffffffffffff\n      and\n      eq\n        /* \"src/ChainOfCustody.sol\":1577:1637  if (msg.sender != CREATOR) revert Error_CallerIsNotCreator() */\n      tag_78\n      jumpi\n        /* \"src/ChainOfCustody.sol\":1611:1637  Error_CallerIsNotCreator() */\n      mload(0x40)\n      0xe260dd6400000000000000000000000000000000000000000000000000000000\n      dup2\n      mstore\n      0x04\n      add\n      mload(0x40)\n      dup1\n      swap2\n      sub\n      swap1\n      revert\n        /* \"src/ChainOfCustody.sol\":1577:1637  if (msg.sender != CREATOR) revert Error_CallerIsNotCreator() */\n    tag_78:\n        /* \"src/ChainOfCustody.sol\":3893:3908  block.timestamp */\n      timestamp\n        /* \"src/ChainOfCustody.sol\":3867:3890  TIME_OF_DISCONTINUATION */\n      0x00\n        /* \"src/ChainOfCustody.sol\":3867:3908  TIME_OF_DISCONTINUATION = block.timestamp */\n      dup2\n      swap1\n      sstore\n      pop\n        /* \"src/ChainOfCustody.sol\":3929:3934  false */\n      0x00\n        /* \"src/ChainOfCustody.sol\":3918:3926  isActive */\n      0x04\n      0x00\n        /* \"src/ChainOfCustody.sol\":3918:3934  isActive = false */\n      0x0100\n      exp\n      dup2\n      sload\n      dup2\n      0xff\n      mul\n      not\n      and\n      swap1\n      dup4\n      iszero\n      iszero\n      mul\n      or\n      swap1\n      sstore\n      pop\n        /* \"src/ChainOfCustody.sol\":3805:3941  function _discontinueEvidence() private onlyCreator {... */\n      jump\t// out\n        /* \"src/ChainOfCustody.sol\":3553:3799  function _transferOwnership(... */\n    tag_76:\n        /* \"src/ChainOfCustody.sol\":3656:3661  _from */\n      dup2\n        /* \"src/ChainOfCustody.sol\":1727:1732  owner */\n      0x01\n      0x00\n      swap1\n      sload\n      swap1\n      0x0100\n      exp\n      swap1\n      div\n      0xffffffffffffffffffffffffffffffffffffffff\n      and\n        /* \"src/ChainOfCustody.sol\":1717:1732  caller != owner */\n      0xffffffffffffffffffffffffffffffffffffffff\n      and\n        /* \"src/ChainOfCustody.sol\":1717:1723  caller */\n      dup2\n        /* \"src/ChainOfCustody.sol\":1717:1732  caller != owner */\n      0xffffffffffffffffffffffffffffffffffffffff\n      and\n      eq\n        /* \"src/ChainOfCustody.sol\":1713:1772  if (caller != owner) revert Error_CallerIsNotCurrentOwner() */\n      tag_81\n      jumpi\n        /* \"src/ChainOfCustody.sol\":1741:1772  Error_CallerIsNotCurrentOwner() */\n      mload(0x40)\n      0xe4fd561400000000000000000000000000000000000000000000000000000000\n      dup2\n      mstore\n      0x04\n      add\n      mload(0x40)\n      dup1\n      swap2\n      sub\n      swap1\n      revert\n        /* \"src/ChainOfCustody.sol\":1713:1772  if (caller != owner) revert Error_CallerIsNotCurrentOwner() */\n    tag_81:\n        /* \"src/ChainOfCustody.sol\":3681:3684  _to */\n      dup2\n        /* \"src/ChainOfCustody.sol\":3673:3678  owner */\n      0x01\n      0x00\n        /* \"src/ChainOfCustody.sol\":3673:3684  owner = _to */\n      0x0100\n      exp\n      dup2\n      sload\n      dup2\n      0xffffffffffffffffffffffffffffffffffffffff\n      mul\n      not\n      and\n      swap1\n      dup4\n      0xffffffffffffffffffffffffffffffffffffffff\n      and\n      mul\n      or\n      swap1\n      sstore\n      pop\n        /* \"src/ChainOfCustody.sol\":3694:3708  chainOfCustody */\n      0x02\n        /* \"src/ChainOfCustody.sol\":3727:3782  CustodyRecord({owner: _to, timestamp: block.timestamp}) */\n      mload(0x40)\n      dup1\n      0x40\n      add\n      0x40\n      mstore\n      dup1\n        /* \"src/ChainOfCustody.sol\":3749:3752  _to */\n      dup5\n        /* \"src/ChainOfCustody.sol\":3727:3782  CustodyRecord({owner: _to, timestamp: block.timestamp}) */\n      0xffffffffffffffffffffffffffffffffffffffff\n      and\n      dup2\n      mstore\n      0x20\n      add\n        /* \"src/ChainOfCustody.sol\":3765:3780  block.timestamp */\n      timestamp\n        /* \"src/ChainOfCustody.sol\":3727:3782  CustodyRecord({owner: _to, timestamp: block.timestamp}) */\n      dup2\n      mstore\n      pop\n        /* \"src/ChainOfCustody.sol\":3694:3792  chainOfCustody.push(... */\n      swap1\n      dup1\n      0x01\n      dup2\n      sload\n      add\n      dup1\n      dup3\n      sstore\n      dup1\n      swap2\n      pop\n      pop\n      0x01\n      swap1\n      sub\n      swap1\n      0x00\n      mstore\n      keccak256(0x00, 0x20)\n      swap1\n      0x02\n      mul\n      add\n      0x00\n      swap1\n      swap2\n      swap1\n      swap2\n      swap1\n      swap2\n      pop\n      0x00\n      dup3\n      add\n      mload\n      dup2\n      0x00\n      add\n      exp(0x0100, 0x00)\n      dup2\n      sload\n      dup2\n      0xffffffffffffffffffffffffffffffffffffffff\n      mul\n      not\n      and\n      swap1\n      dup4\n      0xffffffffffffffffffffffffffffffffffffffff\n      and\n      mul\n      or\n      swap1\n      sstore\n      pop\n      0x20\n      dup3\n      add\n      mload\n      dup2\n      0x01\n      add\n      sstore\n      pop\n      pop\n        /* \"src/ChainOfCustody.sol\":3553:3799  function _transferOwnership(... */\n      pop\n      pop\n      pop\n      jump\t// out\n        /* \"#utility.yul\":7:84   */\n    tag_84:\n        /* \"#utility.yul\":44:51   */\n      0x00\n        /* \"#utility.yul\":73:78   */\n      dup2\n        /* \"#utility.yul\":62:78   */\n      swap1\n      pop\n        /* \"#utility.yul\":7:84   */\n      swap2\n      swap1\n      pop\n      jump\t// out\n        /* \"#utility.yul\":90:208   */\n    tag_85:\n        /* \"#utility.yul\":177:201   */\n      tag_116\n        /* \"#utility.yul\":195:200   */\n      dup2\n        /* \"#utility.yul\":177:201   */\n      tag_84\n      jump\t// in\n    tag_116:\n        /* \"#utility.yul\":172:175   */\n      dup3\n        /* \"#utility.yul\":165:202   */\n      mstore\n        /* \"#utility.yul\":90:208   */\n      pop\n      pop\n      jump\t// out\n        /* \"#utility.yul\":214:436   */\n    tag_17:\n        /* \"#utility.yul\":307:311   */\n      0x00\n        /* \"#utility.yul\":345:347   */\n      0x20\n        /* \"#utility.yul\":334:343   */\n      dup3\n        /* \"#utility.yul\":330:348   */\n      add\n        /* \"#utility.yul\":322:348   */\n      swap1\n      pop\n        /* \"#utility.yul\":358:429   */\n      tag_118\n        /* \"#utility.yul\":426:427   */\n      0x00\n        /* \"#utility.yul\":415:424   */\n      dup4\n        /* \"#utility.yul\":411:428   */\n      add\n        /* \"#utility.yul\":402:408   */\n      dup5\n        /* \"#utility.yul\":358:429   */\n      tag_85\n      jump\t// in\n    tag_118:\n        /* \"#utility.yul\":214:436   */\n      swap3\n      swap2\n      pop\n      pop\n      jump\t// out\n        /* \"#utility.yul\":442:519   */\n    tag_86:\n        /* \"#utility.yul\":479:486   */\n      0x00\n        /* \"#utility.yul\":508:513   */\n      dup2\n        /* \"#utility.yul\":497:513   */\n      swap1\n      pop\n        /* \"#utility.yul\":442:519   */\n      swap2\n      swap1\n      pop\n      jump\t// out\n        /* \"#utility.yul\":525:643   */\n    tag_87:\n        /* \"#utility.yul\":612:636   */\n      tag_121\n        /* \"#utility.yul\":630:635   */\n      dup2\n        /* \"#utility.yul\":612:636   */\n      tag_86\n      jump\t// in\n    tag_121:\n        /* \"#utility.yul\":607:610   */\n      dup3\n        /* \"#utility.yul\":600:637   */\n      mstore\n        /* \"#utility.yul\":525:643   */\n      pop\n      pop\n      jump\t// out\n        /* \"#utility.yul\":649:871   */\n    tag_21:\n        /* \"#utility.yul\":742:746   */\n      0x00\n        /* \"#utility.yul\":780:782   */\n      0x20\n        /* \"#utility.yul\":769:778   */\n      dup3\n        /* \"#utility.yul\":765:783   */\n      add\n        /* \"#utility.yul\":757:783   */\n      swap1\n      pop\n        /* \"#utility.yul\":793:864   */\n      tag_123\n        /* \"#utility.yul\":861:862   */\n      0x00\n        /* \"#utility.yul\":850:859   */\n      dup4\n        /* \"#utility.yul\":846:863   */\n      add\n        /* \"#utility.yul\":837:843   */\n      dup5\n        /* \"#utility.yul\":793:864   */\n      tag_87\n      jump\t// in\n    tag_123:\n        /* \"#utility.yul\":649:871   */\n      swap3\n      swap2\n      pop\n      pop\n      jump\t// out\n        /* \"#utility.yul\":877:967   */\n    tag_88:\n        /* \"#utility.yul\":911:918   */\n      0x00\n        /* \"#utility.yul\":954:959   */\n      dup2\n        /* \"#utility.yul\":947:960   */\n      iszero\n        /* \"#utility.yul\":940:961   */\n      iszero\n        /* \"#utility.yul\":929:961   */\n      swap1\n      pop\n        /* \"#utility.yul\":877:967   */\n      swap2\n      swap1\n      pop\n      jump\t// out\n        /* \"#utility.yul\":973:1082   */\n    tag_89:\n        /* \"#utility.yul\":1054:1075   */\n      tag_126\n        /* \"#utility.yul\":1069:1074   */\n      dup2\n        /* \"#utility.yul\":1054:1075   */\n      tag_88\n      jump\t// in\n    tag_126:\n        /* \"#utility.yul\":1049:1052   */\n      dup3\n        /* \"#utility.yul\":1042:1076   */\n      mstore\n        /* \"#utility.yul\":973:1082   */\n      pop\n      pop\n      jump\t// out\n        /* \"#utility.yul\":1088:1298   */\n    tag_25:\n        /* \"#utility.yul\":1175:1179   */\n      0x00\n        /* \"#utility.yul\":1213:1215   */\n      0x20\n        /* \"#utility.yul\":1202:1211   */\n      dup3\n        /* \"#utility.yul\":1198:1216   */\n      add\n        /* \"#utility.yul\":1190:1216   */\n      swap1\n      pop\n        /* \"#utility.yul\":1226:1291   */\n      tag_128\n        /* \"#utility.yul\":1288:1289   */\n      0x00\n        /* \"#utility.yul\":1277:1286   */\n      dup4\n        /* \"#utility.yul\":1273:1290   */\n      add\n        /* \"#utility.yul\":1264:1270   */\n      dup5\n        /* \"#utility.yul\":1226:1291   */\n      tag_89\n      jump\t// in\n    tag_128:\n        /* \"#utility.yul\":1088:1298   */\n      swap3\n      swap2\n      pop\n      pop\n      jump\t// out\n        /* \"#utility.yul\":1304:1403   */\n    tag_90:\n        /* \"#utility.yul\":1356:1362   */\n      0x00\n        /* \"#utility.yul\":1390:1395   */\n      dup2\n        /* \"#utility.yul\":1384:1396   */\n      mload\n        /* \"#utility.yul\":1374:1396   */\n      swap1\n      pop\n        /* \"#utility.yul\":1304:1403   */\n      swap2\n      swap1\n      pop\n      jump\t// out\n        /* \"#utility.yul\":1409:1578   */\n    tag_91:\n        /* \"#utility.yul\":1493:1504   */\n      0x00\n        /* \"#utility.yul\":1527:1533   */\n      dup3\n        /* \"#utility.yul\":1522:1525   */\n      dup3\n        /* \"#utility.yul\":1515:1534   */\n      mstore\n        /* \"#utility.yul\":1567:1571   */\n      0x20\n        /* \"#utility.yul\":1562:1565   */\n      dup3\n        /* \"#utility.yul\":1558:1572   */\n      add\n        /* \"#utility.yul\":1543:1572   */\n      swap1\n      pop\n        /* \"#utility.yul\":1409:1578   */\n      swap3\n      swap2\n      pop\n      pop\n      jump\t// out\n        /* \"#utility.yul\":1584:1723   */\n    tag_92:\n        /* \"#utility.yul\":1673:1679   */\n      dup3\n        /* \"#utility.yul\":1668:1671   */\n      dup2\n        /* \"#utility.yul\":1663:1666   */\n      dup4\n        /* \"#utility.yul\":1657:1680   */\n      mcopy\n        /* \"#utility.yul\":1714:1715   */\n      0x00\n        /* \"#utility.yul\":1705:1711   */\n      dup4\n        /* \"#utility.yul\":1700:1703   */\n      dup4\n        /* \"#utility.yul\":1696:1712   */\n      add\n        /* \"#utility.yul\":1689:1716   */\n      mstore\n        /* \"#utility.yul\":1584:1723   */\n      pop\n      pop\n      pop\n      jump\t// out\n        /* \"#utility.yul\":1729:1831   */\n    tag_93:\n        /* \"#utility.yul\":1770:1776   */\n      0x00\n        /* \"#utility.yul\":1821:1823   */\n      0x1f\n        /* \"#utility.yul\":1817:1824   */\n      not\n        /* \"#utility.yul\":1812:1814   */\n      0x1f\n        /* \"#utility.yul\":1805:1810   */\n      dup4\n        /* \"#utility.yul\":1801:1815   */\n      add\n        /* \"#utility.yul\":1797:1825   */\n      and\n        /* \"#utility.yul\":1787:1825   */\n      swap1\n      pop\n        /* \"#utility.yul\":1729:1831   */\n      swap2\n      swap1\n      pop\n      jump\t// out\n        /* \"#utility.yul\":1837:2214   */\n    tag_94:\n        /* \"#utility.yul\":1925:1928   */\n      0x00\n        /* \"#utility.yul\":1953:1992   */\n      tag_134\n        /* \"#utility.yul\":1986:1991   */\n      dup3\n        /* \"#utility.yul\":1953:1992   */\n      tag_90\n      jump\t// in\n    tag_134:\n        /* \"#utility.yul\":2008:2079   */\n      tag_135\n        /* \"#utility.yul\":2072:2078   */\n      dup2\n        /* \"#utility.yul\":2067:2070   */\n      dup6\n        /* \"#utility.yul\":2008:2079   */\n      tag_91\n      jump\t// in\n    tag_135:\n        /* \"#utility.yul\":2001:2079   */\n      swap4\n      pop\n        /* \"#utility.yul\":2088:2153   */\n      tag_136\n        /* \"#utility.yul\":2146:2152   */\n      dup2\n        /* \"#utility.yul\":2141:2144   */\n      dup6\n        /* \"#utility.yul\":2134:2138   */\n      0x20\n        /* \"#utility.yul\":2127:2132   */\n      dup7\n        /* \"#utility.yul\":2123:2139   */\n      add\n        /* \"#utility.yul\":2088:2153   */\n      tag_92\n      jump\t// in\n    tag_136:\n        /* \"#utility.yul\":2178:2207   */\n      tag_137\n        /* \"#utility.yul\":2200:2206   */\n      dup2\n        /* \"#utility.yul\":2178:2207   */\n      tag_93\n      jump\t// in\n    tag_137:\n        /* \"#utility.yul\":2173:2176   */\n      dup5\n        /* \"#utility.yul\":2169:2208   */\n      add\n        /* \"#utility.yul\":2162:2208   */\n      swap2\n      pop\n        /* \"#utility.yul\":1929:2214   */\n      pop\n        /* \"#utility.yul\":1837:2214   */\n      swap3\n      swap2\n      pop\n      pop\n      jump\t// out\n        /* \"#utility.yul\":2220:2533   */\n    tag_29:\n        /* \"#utility.yul\":2333:2337   */\n      0x00\n        /* \"#utility.yul\":2371:2373   */\n      0x20\n        /* \"#utility.yul\":2360:2369   */\n      dup3\n        /* \"#utility.yul\":2356:2374   */\n      add\n        /* \"#utility.yul\":2348:2374   */\n      swap1\n      pop\n        /* \"#utility.yul\":2420:2429   */\n      dup2\n        /* \"#utility.yul\":2414:2418   */\n      dup2\n        /* \"#utility.yul\":2410:2430   */\n      sub\n        /* \"#utility.yul\":2406:2407   */\n      0x00\n        /* \"#utility.yul\":2395:2404   */\n      dup4\n        /* \"#utility.yul\":2391:2408   */\n      add\n        /* \"#utility.yul\":2384:2431   */\n      mstore\n        /* \"#utility.yul\":2448:2526   */\n      tag_139\n        /* \"#utility.yul\":2521:2525   */\n      dup2\n        /* \"#utility.yul\":2512:2518   */\n      dup5\n        /* \"#utility.yul\":2448:2526   */\n      tag_94\n      jump\t// in\n    tag_139:\n        /* \"#utility.yul\":2440:2526   */\n      swap1\n      pop\n        /* \"#utility.yul\":2220:2533   */\n      swap3\n      swap2\n      pop\n      pop\n      jump\t// out\n        /* \"#utility.yul\":2539:2682   */\n    tag_95:\n        /* \"#utility.yul\":2635:2641   */\n      0x00\n        /* \"#utility.yul\":2669:2674   */\n      dup2\n        /* \"#utility.yul\":2663:2675   */\n      mload\n        /* \"#utility.yul\":2653:2675   */\n      swap1\n      pop\n        /* \"#utility.yul\":2539:2682   */\n      swap2\n      swap1\n      pop\n      jump\t// out\n        /* \"#utility.yul\":2688:2901   */\n    tag_96:\n        /* \"#utility.yul\":2816:2827   */\n      0x00\n        /* \"#utility.yul\":2850:2856   */\n      dup3\n        /* \"#utility.yul\":2845:2848   */\n      dup3\n        /* \"#utility.yul\":2838:2857   */\n      mstore\n        /* \"#utility.yul\":2890:2894   */\n      0x20\n        /* \"#utility.yul\":2885:2888   */\n      dup3\n        /* \"#utility.yul\":2881:2895   */\n      add\n        /* \"#utility.yul\":2866:2895   */\n      swap1\n      pop\n        /* \"#utility.yul\":2688:2901   */\n      swap3\n      swap2\n      pop\n      pop\n      jump\t// out\n        /* \"#utility.yul\":2907:3068   */\n    tag_97:\n        /* \"#utility.yul\":3003:3007   */\n      0x00\n        /* \"#utility.yul\":3026:3029   */\n      dup2\n        /* \"#utility.yul\":3018:3029   */\n      swap1\n      pop\n        /* \"#utility.yul\":3056:3060   */\n      0x20\n        /* \"#utility.yul\":3051:3054   */\n      dup3\n        /* \"#utility.yul\":3047:3061   */\n      add\n        /* \"#utility.yul\":3039:3061   */\n      swap1\n      pop\n        /* \"#utility.yul\":2907:3068   */\n      swap2\n      swap1\n      pop\n      jump\t// out\n        /* \"#utility.yul\":3074:3200   */\n    tag_98:\n        /* \"#utility.yul\":3111:3118   */\n      0x00\n        /* \"#utility.yul\":3151:3193   */\n      0xffffffffffffffffffffffffffffffffffffffff\n        /* \"#utility.yul\":3144:3149   */\n      dup3\n        /* \"#utility.yul\":3140:3194   */\n      and\n        /* \"#utility.yul\":3129:3194   */\n      swap1\n      pop\n        /* \"#utility.yul\":3074:3200   */\n      swap2\n      swap1\n      pop\n      jump\t// out\n        /* \"#utility.yul\":3206:3302   */\n    tag_99:\n        /* \"#utility.yul\":3243:3250   */\n      0x00\n        /* \"#utility.yul\":3272:3296   */\n      tag_145\n        /* \"#utility.yul\":3290:3295   */\n      dup3\n        /* \"#utility.yul\":3272:3296   */\n      tag_98\n      jump\t// in\n    tag_145:\n        /* \"#utility.yul\":3261:3296   */\n      swap1\n      pop\n        /* \"#utility.yul\":3206:3302   */\n      swap2\n      swap1\n      pop\n      jump\t// out\n        /* \"#utility.yul\":3308:3416   */\n    tag_100:\n        /* \"#utility.yul\":3385:3409   */\n      tag_147\n        /* \"#utility.yul\":3403:3408   */\n      dup2\n        /* \"#utility.yul\":3385:3409   */\n      tag_99\n      jump\t// in\n    tag_147:\n        /* \"#utility.yul\":3380:3383   */\n      dup3\n        /* \"#utility.yul\":3373:3410   */\n      mstore\n        /* \"#utility.yul\":3308:3416   */\n      pop\n      pop\n      jump\t// out\n        /* \"#utility.yul\":3422:3530   */\n    tag_101:\n        /* \"#utility.yul\":3499:3523   */\n      tag_149\n        /* \"#utility.yul\":3517:3522   */\n      dup2\n        /* \"#utility.yul\":3499:3523   */\n      tag_86\n      jump\t// in\n    tag_149:\n        /* \"#utility.yul\":3494:3497   */\n      dup3\n        /* \"#utility.yul\":3487:3524   */\n      mstore\n        /* \"#utility.yul\":3422:3530   */\n      pop\n      pop\n      jump\t// out\n        /* \"#utility.yul\":3606:4117   */\n    tag_102:\n        /* \"#utility.yul\":3751:3755   */\n      0x40\n        /* \"#utility.yul\":3746:3749   */\n      dup3\n        /* \"#utility.yul\":3742:3756   */\n      add\n        /* \"#utility.yul\":3839:3843   */\n      0x00\n        /* \"#utility.yul\":3832:3837   */\n      dup3\n        /* \"#utility.yul\":3828:3844   */\n      add\n        /* \"#utility.yul\":3822:3845   */\n      mload\n        /* \"#utility.yul\":3858:3921   */\n      tag_151\n        /* \"#utility.yul\":3915:3919   */\n      0x00\n        /* \"#utility.yul\":3910:3913   */\n      dup6\n        /* \"#utility.yul\":3906:3920   */\n      add\n        /* \"#utility.yul\":3892:3904   */\n      dup3\n        /* \"#utility.yul\":3858:3921   */\n      tag_100\n      jump\t// in\n    tag_151:\n        /* \"#utility.yul\":3766:3931   */\n      pop\n        /* \"#utility.yul\":4018:4022   */\n      0x20\n        /* \"#utility.yul\":4011:4016   */\n      dup3\n        /* \"#utility.yul\":4007:4023   */\n      add\n        /* \"#utility.yul\":4001:4024   */\n      mload\n        /* \"#utility.yul\":4037:4100   */\n      tag_152\n        /* \"#utility.yul\":4094:4098   */\n      0x20\n        /* \"#utility.yul\":4089:4092   */\n      dup6\n        /* \"#utility.yul\":4085:4099   */\n      add\n        /* \"#utility.yul\":4071:4083   */\n      dup3\n        /* \"#utility.yul\":4037:4100   */\n      tag_101\n      jump\t// in\n    tag_152:\n        /* \"#utility.yul\":3941:4110   */\n      pop\n        /* \"#utility.yul\":3720:4117   */\n      pop\n        /* \"#utility.yul\":3606:4117   */\n      pop\n      pop\n      jump\t// out\n        /* \"#utility.yul\":4123:4418   */\n    tag_103:\n        /* \"#utility.yul\":4250:4260   */\n      0x00\n        /* \"#utility.yul\":4271:4375   */\n      tag_154\n        /* \"#utility.yul\":4371:4374   */\n      dup4\n        /* \"#utility.yul\":4363:4369   */\n      dup4\n        /* \"#utility.yul\":4271:4375   */\n      tag_102\n      jump\t// in\n    tag_154:\n        /* \"#utility.yul\":4407:4411   */\n      0x40\n        /* \"#utility.yul\":4402:4405   */\n      dup4\n        /* \"#utility.yul\":4398:4412   */\n      add\n        /* \"#utility.yul\":4384:4412   */\n      swap1\n      pop\n        /* \"#utility.yul\":4123:4418   */\n      swap3\n      swap2\n      pop\n      pop\n      jump\t// out\n        /* \"#utility.yul\":4424:4566   */\n    tag_104:\n        /* \"#utility.yul\":4523:4527   */\n      0x00\n        /* \"#utility.yul\":4555:4559   */\n      0x20\n        /* \"#utility.yul\":4550:4553   */\n      dup3\n        /* \"#utility.yul\":4546:4560   */\n      add\n        /* \"#utility.yul\":4538:4560   */\n      swap1\n      pop\n        /* \"#utility.yul\":4424:4566   */\n      swap2\n      swap1\n      pop\n      jump\t// out\n        /* \"#utility.yul\":4646:5610   */\n    tag_105:\n        /* \"#utility.yul\":4823:4826   */\n      0x00\n        /* \"#utility.yul\":4852:4935   */\n      tag_157\n        /* \"#utility.yul\":4929:4934   */\n      dup3\n        /* \"#utility.yul\":4852:4935   */\n      tag_95\n      jump\t// in\n    tag_157:\n        /* \"#utility.yul\":4951:5066   */\n      tag_158\n        /* \"#utility.yul\":5059:5065   */\n      dup2\n        /* \"#utility.yul\":5054:5057   */\n      dup6\n        /* \"#utility.yul\":4951:5066   */\n      tag_96\n      jump\t// in\n    tag_158:\n        /* \"#utility.yul\":4944:5066   */\n      swap4\n      pop\n        /* \"#utility.yul\":5090:5175   */\n      tag_159\n        /* \"#utility.yul\":5169:5174   */\n      dup4\n        /* \"#utility.yul\":5090:5175   */\n      tag_97\n      jump\t// in\n    tag_159:\n        /* \"#utility.yul\":5198:5205   */\n      dup1\n        /* \"#utility.yul\":5229:5230   */\n      0x00\n        /* \"#utility.yul\":5214:5585   */\n    tag_160:\n        /* \"#utility.yul\":5239:5245   */\n      dup4\n        /* \"#utility.yul\":5236:5237   */\n      dup2\n        /* \"#utility.yul\":5233:5246   */\n      lt\n        /* \"#utility.yul\":5214:5585   */\n      iszero\n      tag_162\n      jumpi\n        /* \"#utility.yul\":5315:5321   */\n      dup2\n        /* \"#utility.yul\":5309:5322   */\n      mload\n        /* \"#utility.yul\":5342:5463   */\n      tag_163\n        /* \"#utility.yul\":5459:5462   */\n      dup9\n        /* \"#utility.yul\":5444:5457   */\n      dup3\n        /* \"#utility.yul\":5342:5463   */\n      tag_103\n      jump\t// in\n    tag_163:\n        /* \"#utility.yul\":5335:5463   */\n      swap8\n      pop\n        /* \"#utility.yul\":5486:5575   */\n      tag_164\n        /* \"#utility.yul\":5568:5574   */\n      dup4\n        /* \"#utility.yul\":5486:5575   */\n      tag_104\n      jump\t// in\n    tag_164:\n        /* \"#utility.yul\":5476:5575   */\n      swap3\n      pop\n        /* \"#utility.yul\":5274:5585   */\n      pop\n        /* \"#utility.yul\":5261:5262   */\n      0x01\n        /* \"#utility.yul\":5258:5259   */\n      dup2\n        /* \"#utility.yul\":5254:5263   */\n      add\n        /* \"#utility.yul\":5249:5263   */\n      swap1\n      pop\n        /* \"#utility.yul\":5214:5585   */\n      jump(tag_160)\n    tag_162:\n        /* \"#utility.yul\":5218:5232   */\n      pop\n        /* \"#utility.yul\":5601:5604   */\n      dup6\n        /* \"#utility.yul\":5594:5604   */\n      swap4\n      pop\n        /* \"#utility.yul\":4828:5610   */\n      pop\n      pop\n      pop\n        /* \"#utility.yul\":4646:5610   */\n      swap3\n      swap2\n      pop\n      pop\n      jump\t// out\n        /* \"#utility.yul\":5616:6105   */\n    tag_33:\n        /* \"#utility.yul\":5817:5821   */\n      0x00\n        /* \"#utility.yul\":5855:5857   */\n      0x20\n        /* \"#utility.yul\":5844:5853   */\n      dup3\n        /* \"#utility.yul\":5840:5858   */\n      add\n        /* \"#utility.yul\":5832:5858   */\n      swap1\n      pop\n        /* \"#utility.yul\":5904:5913   */\n      dup2\n        /* \"#utility.yul\":5898:5902   */\n      dup2\n        /* \"#utility.yul\":5894:5914   */\n      sub\n        /* \"#utility.yul\":5890:5891   */\n      0x00\n        /* \"#utility.yul\":5879:5888   */\n      dup4\n        /* \"#utility.yul\":5875:5892   */\n      add\n        /* \"#utility.yul\":5868:5915   */\n      mstore\n        /* \"#utility.yul\":5932:6098   */\n      tag_166\n        /* \"#utility.yul\":6093:6097   */\n      dup2\n        /* \"#utility.yul\":6084:6090   */\n      dup5\n        /* \"#utility.yul\":5932:6098   */\n      tag_105\n      jump\t// in\n    tag_166:\n        /* \"#utility.yul\":5924:6098   */\n      swap1\n      pop\n        /* \"#utility.yul\":5616:6105   */\n      swap3\n      swap2\n      pop\n      pop\n      jump\t// out\n        /* \"#utility.yul\":6111:6229   */\n    tag_106:\n        /* \"#utility.yul\":6198:6222   */\n      tag_168\n        /* \"#utility.yul\":6216:6221   */\n      dup2\n        /* \"#utility.yul\":6198:6222   */\n      tag_99\n      jump\t// in\n    tag_168:\n        /* \"#utility.yul\":6193:6196   */\n      dup3\n        /* \"#utility.yul\":6186:6223   */\n      mstore\n        /* \"#utility.yul\":6111:6229   */\n      pop\n      pop\n      jump\t// out\n        /* \"#utility.yul\":6235:6457   */\n    tag_42:\n        /* \"#utility.yul\":6328:6332   */\n      0x00\n        /* \"#utility.yul\":6366:6368   */\n      0x20\n        /* \"#utility.yul\":6355:6364   */\n      dup3\n        /* \"#utility.yul\":6351:6369   */\n      add\n        /* \"#utility.yul\":6343:6369   */\n      swap1\n      pop\n        /* \"#utility.yul\":6379:6450   */\n      tag_170\n        /* \"#utility.yul\":6447:6448   */\n      0x00\n        /* \"#utility.yul\":6436:6445   */\n      dup4\n        /* \"#utility.yul\":6432:6449   */\n      add\n        /* \"#utility.yul\":6423:6429   */\n      dup5\n        /* \"#utility.yul\":6379:6450   */\n      tag_106\n      jump\t// in\n    tag_170:\n        /* \"#utility.yul\":6235:6457   */\n      swap3\n      swap2\n      pop\n      pop\n      jump\t// out\n        /* \"#utility.yul\":6544:6661   */\n    tag_108:\n        /* \"#utility.yul\":6653:6654   */\n      0x00\n        /* \"#utility.yul\":6650:6651   */\n      0x00\n        /* \"#utility.yul\":6643:6655   */\n      revert\n        /* \"#utility.yul\":6790:6912   */\n    tag_110:\n        /* \"#utility.yul\":6863:6887   */\n      tag_175\n        /* \"#utility.yul\":6881:6886   */\n      dup2\n        /* \"#utility.yul\":6863:6887   */\n      tag_99\n      jump\t// in\n    tag_175:\n        /* \"#utility.yul\":6856:6861   */\n      dup2\n        /* \"#utility.yul\":6853:6888   */\n      eq\n        /* \"#utility.yul\":6843:6906   */\n      tag_176\n      jumpi\n        /* \"#utility.yul\":6902:6903   */\n      0x00\n        /* \"#utility.yul\":6899:6900   */\n      0x00\n        /* \"#utility.yul\":6892:6904   */\n      revert\n        /* \"#utility.yul\":6843:6906   */\n    tag_176:\n        /* \"#utility.yul\":6790:6912   */\n      pop\n      jump\t// out\n        /* \"#utility.yul\":6918:7057   */\n    tag_111:\n        /* \"#utility.yul\":6964:6969   */\n      0x00\n        /* \"#utility.yul\":7002:7008   */\n      dup2\n        /* \"#utility.yul\":6989:7009   */\n      calldataload\n        /* \"#utility.yul\":6980:7009   */\n      swap1\n      pop\n        /* \"#utility.yul\":7018:7051   */\n      tag_178\n        /* \"#utility.yul\":7045:7050   */\n      dup2\n        /* \"#utility.yul\":7018:7051   */\n      tag_110\n      jump\t// in\n    tag_178:\n        /* \"#utility.yul\":6918:7057   */\n      swap3\n      swap2\n      pop\n      pop\n      jump\t// out\n        /* \"#utility.yul\":7063:7392   */\n    tag_48:\n        /* \"#utility.yul\":7122:7128   */\n      0x00\n        /* \"#utility.yul\":7171:7173   */\n      0x20\n        /* \"#utility.yul\":7159:7168   */\n      dup3\n        /* \"#utility.yul\":7150:7157   */\n      dup5\n        /* \"#utility.yul\":7146:7169   */\n      sub\n        /* \"#utility.yul\":7142:7174   */\n      slt\n        /* \"#utility.yul\":7139:7258   */\n      iszero\n      tag_180\n      jumpi\n        /* \"#utility.yul\":7177:7256   */\n      tag_181\n      tag_108\n      jump\t// in\n    tag_181:\n        /* \"#utility.yul\":7139:7258   */\n    tag_180:\n        /* \"#utility.yul\":7297:7298   */\n      0x00\n        /* \"#utility.yul\":7322:7375   */\n      tag_182\n        /* \"#utility.yul\":7367:7374   */\n      dup5\n        /* \"#utility.yul\":7358:7364   */\n      dup3\n        /* \"#utility.yul\":7347:7356   */\n      dup6\n        /* \"#utility.yul\":7343:7365   */\n      add\n        /* \"#utility.yul\":7322:7375   */\n      tag_111\n      jump\t// in\n    tag_182:\n        /* \"#utility.yul\":7312:7375   */\n      swap2\n      pop\n        /* \"#utility.yul\":7268:7385   */\n      pop\n        /* \"#utility.yul\":7063:7392   */\n      swap3\n      swap2\n      pop\n      pop\n      jump\t// out\n        /* \"#utility.yul\":7398:7578   */\n    tag_112:\n        /* \"#utility.yul\":7446:7523   */\n      0x4e487b7100000000000000000000000000000000000000000000000000000000\n        /* \"#utility.yul\":7443:7444   */\n      0x00\n        /* \"#utility.yul\":7436:7524   */\n      mstore\n        /* \"#utility.yul\":7543:7547   */\n      0x22\n        /* \"#utility.yul\":7540:7541   */\n      0x04\n        /* \"#utility.yul\":7533:7548   */\n      mstore\n        /* \"#utility.yul\":7567:7571   */\n      0x24\n        /* \"#utility.yul\":7564:7565   */\n      0x00\n        /* \"#utility.yul\":7557:7572   */\n      revert\n        /* \"#utility.yul\":7584:7904   */\n    tag_55:\n        /* \"#utility.yul\":7628:7634   */\n      0x00\n        /* \"#utility.yul\":7665:7666   */\n      0x02\n        /* \"#utility.yul\":7659:7663   */\n      dup3\n        /* \"#utility.yul\":7655:7667   */\n      div\n        /* \"#utility.yul\":7645:7667   */\n      swap1\n      pop\n        /* \"#utility.yul\":7712:7713   */\n      0x01\n        /* \"#utility.yul\":7706:7710   */\n      dup3\n        /* \"#utility.yul\":7702:7714   */\n      and\n        /* \"#utility.yul\":7733:7751   */\n      dup1\n        /* \"#utility.yul\":7723:7804   */\n      tag_185\n      jumpi\n        /* \"#utility.yul\":7789:7793   */\n      0x7f\n        /* \"#utility.yul\":7781:7787   */\n      dup3\n        /* \"#utility.yul\":7777:7794   */\n      and\n        /* \"#utility.yul\":7767:7794   */\n      swap2\n      pop\n        /* \"#utility.yul\":7723:7804   */\n    tag_185:\n        /* \"#utility.yul\":7851:7853   */\n      0x20\n        /* \"#utility.yul\":7843:7849   */\n      dup3\n        /* \"#utility.yul\":7840:7854   */\n      lt\n        /* \"#utility.yul\":7820:7838   */\n      dup2\n        /* \"#utility.yul\":7817:7855   */\n      sub\n        /* \"#utility.yul\":7814:7898   */\n      tag_186\n      jumpi\n        /* \"#utility.yul\":7870:7888   */\n      tag_187\n      tag_112\n      jump\t// in\n    tag_187:\n        /* \"#utility.yul\":7814:7898   */\n    tag_186:\n        /* \"#utility.yul\":7635:7904   */\n      pop\n        /* \"#utility.yul\":7584:7904   */\n      swap2\n      swap1\n      pop\n      jump\t// out\n\n    auxdata: 0xa2646970667358221220bd815f8a4982b5bf69111bd81b36657cdf33f16b39e4b38e876b4d79a9915adf64736f6c634300081e0033\n}\n",
				"bytecode": {
					"linkReferences": {},
					"object": "610100604052600160045f6101000a81548160ff02191690831515021790555034801561002a575f5ffd5b50604051611583380380611583833981810160405281019061004c919061055e565b8473ffffffffffffffffffffffffffffffffffffffff163373ffffffffffffffffffffffffffffffffffffffff16146100b1576040517f2d102aa100000000000000000000000000000000000000000000000000000000815260040160405180910390fd5b8273ffffffffffffffffffffffffffffffffffffffff168273ffffffffffffffffffffffffffffffffffffffff1614610116576040517f0dc0971b00000000000000000000000000000000000000000000000000000000815260040160405180910390fd5b5f73ffffffffffffffffffffffffffffffffffffffff168373ffffffffffffffffffffffffffffffffffffffff1603610184576040517f08c379a000000000000000000000000000000000000000000000000000000000815260040161017b90610671565b60405180910390fd5b5f5f1b84036101c8576040517f08c379a00000000000000000000000000000000000000000000000000000000081526004016101bf906106ff565b60405180910390fd5b5f81510361020b576040517f08c379a00000000000000000000000000000000000000000000000000000000081526004016102029061078d565b60405180910390fd5b8473ffffffffffffffffffffffffffffffffffffffff1660808173ffffffffffffffffffffffffffffffffffffffff16815250508273ffffffffffffffffffffffffffffffffffffffff1660a08173ffffffffffffffffffffffffffffffffffffffff168152505060a05160015f6101000a81548173ffffffffffffffffffffffffffffffffffffffff021916908373ffffffffffffffffffffffffffffffffffffffff1602179055504260e08181525050600260405180604001604052808573ffffffffffffffffffffffffffffffffffffffff16815260200160e051815250908060018154018082558091505060019003905f5260205f2090600202015f909190919091505f820151815f015f6101000a81548173ffffffffffffffffffffffffffffffffffffffff021916908373ffffffffffffffffffffffffffffffffffffffff1602179055506020820151816001015550508360c08181525050806003908161037991906109bb565b505050505050610a8a565b5f604051905090565b5f5ffd5b5f5ffd5b5f73ffffffffffffffffffffffffffffffffffffffff82169050919050565b5f6103be82610395565b9050919050565b6103ce816103b4565b81146103d8575f5ffd5b50565b5f815190506103e9816103c5565b92915050565b5f819050919050565b610401816103ef565b811461040b575f5ffd5b50565b5f8151905061041c816103f8565b92915050565b5f5ffd5b5f5ffd5b5f601f19601f8301169050919050565b7f4e487b71000000000000000000000000000000000000000000000000000000005f52604160045260245ffd5b6104708261042a565b810181811067ffffffffffffffff8211171561048f5761048e61043a565b5b80604052505050565b5f6104a1610384565b90506104ad8282610467565b919050565b5f67ffffffffffffffff8211156104cc576104cb61043a565b5b6104d58261042a565b9050602081019050919050565b8281835e5f83830152505050565b5f6105026104fd846104b2565b610498565b90508281526020810184848401111561051e5761051d610426565b5b6105298482856104e2565b509392505050565b5f82601f83011261054557610544610422565b5b81516105558482602086016104f0565b91505092915050565b5f5f5f5f5f60a086880312156105775761057661038d565b5b5f610584888289016103db565b95505060206105958882890161040e565b94505060406105a6888289016103db565b93505060606105b7888289016103db565b925050608086015167ffffffffffffffff8111156105d8576105d7610391565b5b6105e488828901610531565b9150509295509295909350565b5f82825260208201905092915050565b7f496e76616c69642043726561746f723a2063616e6e6f74206265207a65726f205f8201527f6164647265737300000000000000000000000000000000000000000000000000602082015250565b5f61065b6027836105f1565b915061066682610601565b604082019050919050565b5f6020820190508181035f8301526106888161064f565b9050919050565b7f496e76616c69642065766964656e63652049443a2049442063616e6e6f7420625f8201527f6520656d70747900000000000000000000000000000000000000000000000000602082015250565b5f6106e96027836105f1565b91506106f48261068f565b604082019050919050565b5f6020820190508181035f830152610716816106dd565b9050919050565b7f496e76616c6964206465736372697074696f6e3a206465736372697074696f6e5f8201527f2063616e6e6f7420626520656d70747900000000000000000000000000000000602082015250565b5f6107776030836105f1565b91506107828261071d565b604082019050919050565b5f6020820190508181035f8301526107a48161076b565b9050919050565b5f81519050919050565b7f4e487b71000000000000000000000000000000000000000000000000000000005f52602260045260245ffd5b5f60028204905060018216806107f957607f821691505b60208210810361080c5761080b6107b5565b5b50919050565b5f819050815f5260205f209050919050565b5f6020601f8301049050919050565b5f82821b905092915050565b5f6008830261086e7fffffffffffffffffffffffffffffffffffffffffffffffffffffffffffffffff82610833565b6108788683610833565b95508019841693508086168417925050509392505050565b5f819050919050565b5f819050919050565b5f6108bc6108b76108b284610890565b610899565b610890565b9050919050565b5f819050919050565b6108d5836108a2565b6108e96108e1826108c3565b84845461083f565b825550505050565b5f5f905090565b6109006108f1565b61090b8184846108cc565b505050565b5b8181101561092e576109235f826108f8565b600181019050610911565b5050565b601f8211156109735761094481610812565b61094d84610824565b8101602085101561095c578190505b61097061096885610824565b830182610910565b50505b505050565b5f82821c905092915050565b5f6109935f1984600802610978565b1980831691505092915050565b5f6109ab8383610984565b9150826002028217905092915050565b6109c4826107ab565b67ffffffffffffffff8111156109dd576109dc61043a565b5b6109e782546107e2565b6109f2828285610932565b5f60209050601f831160018114610a23575f8415610a11578287015190505b610a1b85826109a0565b865550610a82565b601f198416610a3186610812565b5f5b82811015610a5857848901518255600182019150602085019450602081019050610a33565b86831015610a755784890151610a71601f891682610984565b8355505b6001600288020188555050505b505050505050565b60805160a05160c05160e051610abb610ac85f395f61034701525f81816101b901526103ba01525f818161040a015261052c01525f5050610abb5ff3fe608060405234801561000f575f5ffd5b506004361061009c575f3560e01c806360c9269d1161006457806360c9269d146101365780637ce7d376146101545780639e91bc541461015e578063a18a186b1461017c578063f2fde38b1461019a5761009c565b806303563f36146100a05780634e88d574146100be5780634efdc623146100dc5780634f7eae94146100fa578063581c49a114610118575b5f5ffd5b6100a86101b6565b6040516100b59190610757565b60405180910390f35b6100c66101dd565b6040516100d39190610788565b60405180910390f35b6100e46101e5565b6040516100f191906107bb565b60405180910390f35b6101026101fa565b60405161010f9190610844565b60405180910390f35b61012061028a565b60405161012d9190610987565b60405180910390f35b61013e610344565b60405161014b9190610788565b60405180910390f35b61015c61036b565b005b610166610407565b60405161017391906109b6565b60405180910390f35b61018461042e565b60405161019191906109b6565b60405180910390f35b6101b460048036038101906101af91906109fd565b610456565b005b5f7f0000000000000000000000000000000000000000000000000000000000000000905090565b5f5f54905090565b5f60045f9054906101000a900460ff16905090565b60606003805461020990610a55565b80601f016020809104026020016040519081016040528092919081815260200182805461023590610a55565b80156102805780601f1061025757610100808354040283529160200191610280565b820191905f5260205f20905b81548152906001019060200180831161026357829003601f168201915b5050505050905090565b60606002805480602002602001604051908101604052809291908181526020015f905b8282101561033b578382905f5260205f2090600202016040518060400160405290815f82015f9054906101000a900473ffffffffffffffffffffffffffffffffffffffff1673ffffffffffffffffffffffffffffffffffffffff1673ffffffffffffffffffffffffffffffffffffffff168152602001600182015481525050815260200190600101906102ad565b50505050905090565b5f7f0000000000000000000000000000000000000000000000000000000000000000905090565b60045f9054906101000a900460ff166103b0576040517fbe35019e00000000000000000000000000000000000000000000000000000000815260040160405180910390fd5b6103b861052a565b7f00000000000000000000000000000000000000000000000000000000000000007f14a361a50d98fbe05e22df9359b451b51cf087dc7f912cc7b41ba235754083dd60405160405180910390a2565b5f7f0000000000000000000000000000000000000000000000000000000000000000905090565b5f60015f9054906101000a900473ffffffffffffffffffffffffffffffffffffffff16905090565b60045f9054906101000a900460ff1661049b576040517fbe35019e00000000000000000000000000000000000000000000000000000000815260040160405180910390fd5b5f60015f9054906101000a900473ffffffffffffffffffffffffffffffffffffffff1690506104ca33836105d0565b5f548273ffffffffffffffffffffffffffffffffffffffff168273ffffffffffffffffffffffffffffffffffffffff167fc13a1166d81cd3b0b352a367aebab95f3a6f6bc695fdab8e9a9d335239c3861b60405160405180910390a45050565b7f000000000000000000000000000000000000000000000000000000000000000073ffffffffffffffffffffffffffffffffffffffff163373ffffffffffffffffffffffffffffffffffffffff16146105af576040517fe260dd6400000000000000000000000000000000000000000000000000000000815260040160405180910390fd5b425f819055505f60045f6101000a81548160ff021916908315150217905550565b8160015f9054906101000a900473ffffffffffffffffffffffffffffffffffffffff1673ffffffffffffffffffffffffffffffffffffffff168173ffffffffffffffffffffffffffffffffffffffff1614610657576040517fe4fd561400000000000000000000000000000000000000000000000000000000815260040160405180910390fd5b8160015f6101000a81548173ffffffffffffffffffffffffffffffffffffffff021916908373ffffffffffffffffffffffffffffffffffffffff160217905550600260405180604001604052808473ffffffffffffffffffffffffffffffffffffffff16815260200142815250908060018154018082558091505060019003905f5260205f2090600202015f909190919091505f820151815f015f6101000a81548173ffffffffffffffffffffffffffffffffffffffff021916908373ffffffffffffffffffffffffffffffffffffffff160217905550602082015181600101555050505050565b5f819050919050565b6107518161073f565b82525050565b5f60208201905061076a5f830184610748565b92915050565b5f819050919050565b61078281610770565b82525050565b5f60208201905061079b5f830184610779565b92915050565b5f8115159050919050565b6107b5816107a1565b82525050565b5f6020820190506107ce5f8301846107ac565b92915050565b5f81519050919050565b5f82825260208201905092915050565b8281835e5f83830152505050565b5f601f19601f8301169050919050565b5f610816826107d4565b61082081856107de565b93506108308185602086016107ee565b610839816107fc565b840191505092915050565b5f6020820190508181035f83015261085c818461080c565b905092915050565b5f81519050919050565b5f82825260208201905092915050565b5f819050602082019050919050565b5f73ffffffffffffffffffffffffffffffffffffffff82169050919050565b5f6108b68261088d565b9050919050565b6108c6816108ac565b82525050565b6108d581610770565b82525050565b604082015f8201516108ef5f8501826108bd565b50602082015161090260208501826108cc565b50505050565b5f61091383836108db565b60408301905092915050565b5f602082019050919050565b5f61093582610864565b61093f818561086e565b935061094a8361087e565b805f5b8381101561097a5781516109618882610908565b975061096c8361091f565b92505060018101905061094d565b5085935050505092915050565b5f6020820190508181035f83015261099f818461092b565b905092915050565b6109b0816108ac565b82525050565b5f6020820190506109c95f8301846109a7565b92915050565b5f5ffd5b6109dc816108ac565b81146109e6575f5ffd5b50565b5f813590506109f7816109d3565b92915050565b5f60208284031215610a1257610a116109cf565b5b5f610a1f848285016109e9565b91505092915050565b7f4e487b71000000000000000000000000000000000000000000000000000000005f52602260045260245ffd5b5f6002820490506001821680610a6c57607f821691505b602082108103610a7f57610a7e610a28565b5b5091905056fea2646970667358221220bd815f8a4982b5bf69111bd81b36657cdf33f16b39e4b38e876b4d79a9915adf64736f6c634300081e0033",
					"opcodes": "PUSH2 0x100 PUSH1 0x40 MSTORE PUSH1 0x1 PUSH1 0x4 PUSH0 PUSH2 0x100 EXP DUP2 SLOAD DUP2 PUSH1 0xFF MUL NOT AND SWAP1 DUP4 ISZERO ISZERO MUL OR SWAP1 SSTORE POP CALLVALUE DUP1 ISZERO PUSH2 0x2A JUMPI PUSH0 PUSH0 REVERT JUMPDEST POP PUSH1 0x40 MLOAD PUSH2 0x1583 CODESIZE SUB DUP1 PUSH2 0x1583 DUP4 CODECOPY DUP2 DUP2 ADD PUSH1 0x40 MSTORE DUP2 ADD SWAP1 PUSH2 0x4C SWAP2 SWAP1 PUSH2 0x55E JUMP JUMPDEST DUP5 PUSH20 0xFFFFFFFFFFFFFFFFFFFFFFFFFFFFFFFFFFFFFFFF AND CALLER PUSH20 0xFFFFFFFFFFFFFFFFFFFFFFFFFFFFFFFFFFFFFFFF AND EQ PUSH2 0xB1 JUMPI PUSH1 0x40 MLOAD PUSH32 0x2D102AA100000000000000000000000000000000000000000000000000000000 DUP2 MSTORE PUSH1 0x4 ADD PUSH1 0x40 MLOAD DUP1 SWAP2 SUB SWAP1 REVERT JUMPDEST DUP3 PUSH20 0xFFFFFFFFFFFFFFFFFFFFFFFFFFFFFFFFFFFFFFFF AND DUP3 PUSH20 0xFFFFFFFFFFFFFFFFFFFFFFFFFFFFFFFFFFFFFFFF AND EQ PUSH2 0x116 JUMPI PUSH1 0x40 MLOAD PUSH32 0xDC0971B00000000000000000000000000000000000000000000000000000000 DUP2 MSTORE PUSH1 0x4 ADD PUSH1 0x40 MLOAD DUP1 SWAP2 SUB SWAP1 REVERT JUMPDEST PUSH0 PUSH20 0xFFFFFFFFFFFFFFFFFFFFFFFFFFFFFFFFFFFFFFFF AND DUP4 PUSH20 0xFFFFFFFFFFFFFFFFFFFFFFFFFFFFFFFFFFFFFFFF AND SUB PUSH2 0x184 JUMPI PUSH1 0x40 MLOAD PUSH32 0x8C379A000000000000000000000000000000000000000000000000000000000 DUP2 MSTORE PUSH1 0x4 ADD PUSH2 0x17B SWAP1 PUSH2 0x671 JUMP JUMPDEST PUSH1 0x40 MLOAD DUP1 SWAP2 SUB SWAP1 REVERT JUMPDEST PUSH0 PUSH0 SHL DUP5 SUB PUSH2 0x1C8 JUMPI PUSH1 0x40 MLOAD PUSH32 0x8C379A000000000000000000000000000000000000000000000000000000000 DUP2 MSTORE PUSH1 0x4 ADD PUSH2 0x1BF SWAP1 PUSH2 0x6FF JUMP JUMPDEST PUSH1 0x40 MLOAD DUP1 SWAP2 SUB SWAP1 REVERT JUMPDEST PUSH0 DUP2 MLOAD SUB PUSH2 0x20B JUMPI PUSH1 0x40 MLOAD PUSH32 0x8C379A000000000000000000000000000000000000000000000000000000000 DUP2 MSTORE PUSH1 0x4 ADD PUSH2 0x202 SWAP1 PUSH2 0x78D JUMP JUMPDEST PUSH1 0x40 MLOAD DUP1 SWAP2 SUB SWAP1 REVERT JUMPDEST DUP5 PUSH20 0xFFFFFFFFFFFFFFFFFFFFFFFFFFFFFFFFFFFFFFFF AND PUSH1 0x80 DUP2 PUSH20 0xFFFFFFFFFFFFFFFFFFFFFFFFFFFFFFFFFFFFFFFF AND DUP2 MSTORE POP POP DUP3 PUSH20 0xFFFFFFFFFFFFFFFFFFFFFFFFFFFFFFFFFFFFFFFF AND PUSH1 0xA0 DUP2 PUSH20 0xFFFFFFFFFFFFFFFFFFFFFFFFFFFFFFFFFFFFFFFF AND DUP2 MSTORE POP POP PUSH1 0xA0 MLOAD PUSH1 0x1 PUSH0 PUSH2 0x100 EXP DUP2 SLOAD DUP2 PUSH20 0xFFFFFFFFFFFFFFFFFFFFFFFFFFFFFFFFFFFFFFFF MUL NOT AND SWAP1 DUP4 PUSH20 0xFFFFFFFFFFFFFFFFFFFFFFFFFFFFFFFFFFFFFFFF AND MUL OR SWAP1 SSTORE POP TIMESTAMP PUSH1 0xE0 DUP2 DUP2 MSTORE POP POP PUSH1 0x2 PUSH1 0x40 MLOAD DUP1 PUSH1 0x40 ADD PUSH1 0x40 MSTORE DUP1 DUP6 PUSH20 0xFFFFFFFFFFFFFFFFFFFFFFFFFFFFFFFFFFFFFFFF AND DUP2 MSTORE PUSH1 0x20 ADD PUSH1 0xE0 MLOAD DUP2 MSTORE POP SWAP1 DUP1 PUSH1 0x1 DUP2 SLOAD ADD DUP1 DUP3 SSTORE DUP1 SWAP2 POP POP PUSH1 0x1 SWAP1 SUB SWAP1 PUSH0 MSTORE PUSH1 0x20 PUSH0 KECCAK256 SWAP1 PUSH1 0x2 MUL ADD PUSH0 SWAP1 SWAP2 SWAP1 SWAP2 SWAP1 SWAP2 POP PUSH0 DUP3 ADD MLOAD DUP2 PUSH0 ADD PUSH0 PUSH2 0x100 EXP DUP2 SLOAD DUP2 PUSH20 0xFFFFFFFFFFFFFFFFFFFFFFFFFFFFFFFFFFFFFFFF MUL NOT AND SWAP1 DUP4 PUSH20 0xFFFFFFFFFFFFFFFFFFFFFFFFFFFFFFFFFFFFFFFF AND MUL OR SWAP1 SSTORE POP PUSH1 0x20 DUP3 ADD MLOAD DUP2 PUSH1 0x1 ADD SSTORE POP POP DUP4 PUSH1 0xC0 DUP2 DUP2 MSTORE POP POP DUP1 PUSH1 0x3 SWAP1 DUP2 PUSH2 0x379 SWAP2 SWAP1 PUSH2 0x9BB JUMP JUMPDEST POP POP POP POP POP POP PUSH2 0xA8A JUMP JUMPDEST PUSH0 PUSH1 0x40 MLOAD SWAP1 POP SWAP1 JUMP JUMPDEST PUSH0 PUSH0 REVERT JUMPDEST PUSH0 PUSH0 REVERT JUMPDEST PUSH0 PUSH20 0xFFFFFFFFFFFFFFFFFFFFFFFFFFFFFFFFFFFFFFFF DUP3 AND SWAP1 POP SWAP2 SWAP1 POP JUMP JUMPDEST PUSH0 PUSH2 0x3BE DUP3 PUSH2 0x395 JUMP JUMPDEST SWAP1 POP SWAP2 SWAP1 POP JUMP JUMPDEST PUSH2 0x3CE DUP2 PUSH2 0x3B4 JUMP JUMPDEST DUP2 EQ PUSH2 0x3D8 JUMPI PUSH0 PUSH0 REVERT JUMPDEST POP JUMP JUMPDEST PUSH0 DUP2 MLOAD SWAP1 POP PUSH2 0x3E9 DUP2 PUSH2 0x3C5 JUMP JUMPDEST SWAP3 SWAP2 POP POP JUMP JUMPDEST PUSH0 DUP2 SWAP1 POP SWAP2 SWAP1 POP JUMP JUMPDEST PUSH2 0x401 DUP2 PUSH2 0x3EF JUMP JUMPDEST DUP2 EQ PUSH2 0x40B JUMPI PUSH0 PUSH0 REVERT JUMPDEST POP JUMP JUMPDEST PUSH0 DUP2 MLOAD SWAP1 POP PUSH2 0x41C DUP2 PUSH2 0x3F8 JUMP JUMPDEST SWAP3 SWAP2 POP POP JUMP JUMPDEST PUSH0 PUSH0 REVERT JUMPDEST PUSH0 PUSH0 REVERT JUMPDEST PUSH0 PUSH1 0x1F NOT PUSH1 0x1F DUP4 ADD AND SWAP1 POP SWAP2 SWAP1 POP JUMP JUMPDEST PUSH32 0x4E487B7100000000000000000000000000000000000000000000000000000000 PUSH0 MSTORE PUSH1 0x41 PUSH1 0x4 MSTORE PUSH1 0x24 PUSH0 REVERT JUMPDEST PUSH2 0x470 DUP3 PUSH2 0x42A JUMP JUMPDEST DUP2 ADD DUP2 DUP2 LT PUSH8 0xFFFFFFFFFFFFFFFF DUP3 GT OR ISZERO PUSH2 0x48F JUMPI PUSH2 0x48E PUSH2 0x43A JUMP JUMPDEST JUMPDEST DUP1 PUSH1 0x40 MSTORE POP POP POP JUMP JUMPDEST PUSH0 PUSH2 0x4A1 PUSH2 0x384 JUMP JUMPDEST SWAP1 POP PUSH2 0x4AD DUP3 DUP3 PUSH2 0x467 JUMP JUMPDEST SWAP2 SWAP1 POP JUMP JUMPDEST PUSH0 PUSH8 0xFFFFFFFFFFFFFFFF DUP3 GT ISZERO PUSH2 0x4CC JUMPI PUSH2 0x4CB PUSH2 0x43A JUMP JUMPDEST JUMPDEST PUSH2 0x4D5 DUP3 PUSH2 0x42A JUMP JUMPDEST SWAP1 POP PUSH1 0x20 DUP2 ADD SWAP1 POP SWAP2 SWAP1 POP JUMP JUMPDEST DUP3 DUP2 DUP4 MCOPY PUSH0 DUP4 DUP4 ADD MSTORE POP POP POP JUMP JUMPDEST PUSH0 PUSH2 0x502 PUSH2 0x4FD DUP5 PUSH2 0x4B2 JUMP JUMPDEST PUSH2 0x498 JUMP JUMPDEST SWAP1 POP DUP3 DUP2 MSTORE PUSH1 0x20 DUP2 ADD DUP5 DUP5 DUP5 ADD GT ISZERO PUSH2 0x51E JUMPI PUSH2 0x51D PUSH2 0x426 JUMP JUMPDEST JUMPDEST PUSH2 0x529 DUP5 DUP3 DUP6 PUSH2 0x4E2 JUMP JUMPDEST POP SWAP4 SWAP3 POP POP POP JUMP JUMPDEST PUSH0 DUP3 PUSH1 0x1F DUP4 ADD SLT PUSH2 0x545 JUMPI PUSH2 0x544 PUSH2 0x422 JUMP JUMPDEST JUMPDEST DUP2 MLOAD PUSH2 0x555 DUP5 DUP3 PUSH1 0x20 DUP7 ADD PUSH2 0x4F0 JUMP JUMPDEST SWAP2 POP POP SWAP3 SWAP2 POP POP JUMP JUMPDEST PUSH0 PUSH0 PUSH0 PUSH0 PUSH0 PUSH1 0xA0 DUP7 DUP9 SUB SLT ISZERO PUSH2 0x577 JUMPI PUSH2 0x576 PUSH2 0x38D JUMP JUMPDEST JUMPDEST PUSH0 PUSH2 0x584 DUP9 DUP3 DUP10 ADD PUSH2 0x3DB JUMP JUMPDEST SWAP6 POP POP PUSH1 0x20 PUSH2 0x595 DUP9 DUP3 DUP10 ADD PUSH2 0x40E JUMP JUMPDEST SWAP5 POP POP PUSH1 0x40 PUSH2 0x5A6 DUP9 DUP3 DUP10 ADD PUSH2 0x3DB JUMP JUMPDEST SWAP4 POP POP PUSH1 0x60 PUSH2 0x5B7 DUP9 DUP3 DUP10 ADD PUSH2 0x3DB JUMP JUMPDEST SWAP3 POP POP PUSH1 0x80 DUP7 ADD MLOAD PUSH8 0xFFFFFFFFFFFFFFFF DUP2 GT ISZERO PUSH2 0x5D8 JUMPI PUSH2 0x5D7 PUSH2 0x391 JUMP JUMPDEST JUMPDEST PUSH2 0x5E4 DUP9 DUP3 DUP10 ADD PUSH2 0x531 JUMP JUMPDEST SWAP2 POP POP SWAP3 SWAP6 POP SWAP3 SWAP6 SWAP1 SWAP4 POP JUMP JUMPDEST PUSH0 DUP3 DUP3 MSTORE PUSH1 0x20 DUP3 ADD SWAP1 POP SWAP3 SWAP2 POP POP JUMP JUMPDEST PUSH32 0x496E76616C69642043726561746F723A2063616E6E6F74206265207A65726F20 PUSH0 DUP3 ADD MSTORE PUSH32 0x6164647265737300000000000000000000000000000000000000000000000000 PUSH1 0x20 DUP3 ADD MSTORE POP JUMP JUMPDEST PUSH0 PUSH2 0x65B PUSH1 0x27 DUP4 PUSH2 0x5F1 JUMP JUMPDEST SWAP2 POP PUSH2 0x666 DUP3 PUSH2 0x601 JUMP JUMPDEST PUSH1 0x40 DUP3 ADD SWAP1 POP SWAP2 SWAP1 POP JUMP JUMPDEST PUSH0 PUSH1 0x20 DUP3 ADD SWAP1 POP DUP2 DUP2 SUB PUSH0 DUP4 ADD MSTORE PUSH2 0x688 DUP2 PUSH2 0x64F JUMP JUMPDEST SWAP1 POP SWAP2 SWAP1 POP JUMP JUMPDEST PUSH32 0x496E76616C69642065766964656E63652049443A2049442063616E6E6F742062 PUSH0 DUP3 ADD MSTORE PUSH32 0x6520656D70747900000000000000000000000000000000000000000000000000 PUSH1 0x20 DUP3 ADD MSTORE POP JUMP JUMPDEST PUSH0 PUSH2 0x6E9 PUSH1 0x27 DUP4 PUSH2 0x5F1 JUMP JUMPDEST SWAP2 POP PUSH2 0x6F4 DUP3 PUSH2 0x68F JUMP JUMPDEST PUSH1 0x40 DUP3 ADD SWAP1 POP SWAP2 SWAP1 POP JUMP JUMPDEST PUSH0 PUSH1 0x20 DUP3 ADD SWAP1 POP DUP2 DUP2 SUB PUSH0 DUP4 ADD MSTORE PUSH2 0x716 DUP2 PUSH2 0x6DD JUMP JUMPDEST SWAP1 POP SWAP2 SWAP1 POP JUMP JUMPDEST PUSH32 0x496E76616C6964206465736372697074696F6E3A206465736372697074696F6E PUSH0 DUP3 ADD MSTORE PUSH32 0x2063616E6E6F7420626520656D70747900000000000000000000000000000000 PUSH1 0x20 DUP3 ADD MSTORE POP JUMP JUMPDEST PUSH0 PUSH2 0x777 PUSH1 0x30 DUP4 PUSH2 0x5F1 JUMP JUMPDEST SWAP2 POP PUSH2 0x782 DUP3 PUSH2 0x71D JUMP JUMPDEST PUSH1 0x40 DUP3 ADD SWAP1 POP SWAP2 SWAP1 POP JUMP JUMPDEST PUSH0 PUSH1 0x20 DUP3 ADD SWAP1 POP DUP2 DUP2 SUB PUSH0 DUP4 ADD MSTORE PUSH2 0x7A4 DUP2 PUSH2 0x76B JUMP JUMPDEST SWAP1 POP SWAP2 SWAP1 POP JUMP JUMPDEST PUSH0 DUP2 MLOAD SWAP1 POP SWAP2 SWAP1 POP JUMP JUMPDEST PUSH32 0x4E487B7100000000000000000000000000000000000000000000000000000000 PUSH0 MSTORE PUSH1 0x22 PUSH1 0x4 MSTORE PUSH1 0x24 PUSH0 REVERT JUMPDEST PUSH0 PUSH1 0x2 DUP3 DIV SWAP1 POP PUSH1 0x1 DUP3 AND DUP1 PUSH2 0x7F9 JUMPI PUSH1 0x7F DUP3 AND SWAP2 POP JUMPDEST PUSH1 0x20 DUP3 LT DUP2 SUB PUSH2 0x80C JUMPI PUSH2 0x80B PUSH2 0x7B5 JUMP JUMPDEST JUMPDEST POP SWAP2 SWAP1 POP JUMP JUMPDEST PUSH0 DUP2 SWAP1 POP DUP2 PUSH0 MSTORE PUSH1 0x20 PUSH0 KECCAK256 SWAP1 POP SWAP2 SWAP1 POP JUMP JUMPDEST PUSH0 PUSH1 0x20 PUSH1 0x1F DUP4 ADD DIV SWAP1 POP SWAP2 SWAP1 POP JUMP JUMPDEST PUSH0 DUP3 DUP3 SHL SWAP1 POP SWAP3 SWAP2 POP POP JUMP JUMPDEST PUSH0 PUSH1 0x8 DUP4 MUL PUSH2 0x86E PUSH32 0xFFFFFFFFFFFFFFFFFFFFFFFFFFFFFFFFFFFFFFFFFFFFFFFFFFFFFFFFFFFFFFFF DUP3 PUSH2 0x833 JUMP JUMPDEST PUSH2 0x878 DUP7 DUP4 PUSH2 0x833 JUMP JUMPDEST SWAP6 POP DUP1 NOT DUP5 AND SWAP4 POP DUP1 DUP7 AND DUP5 OR SWAP3 POP POP POP SWAP4 SWAP3 POP POP POP JUMP JUMPDEST PUSH0 DUP2 SWAP1 POP SWAP2 SWAP1 POP JUMP JUMPDEST PUSH0 DUP2 SWAP1 POP SWAP2 SWAP1 POP JUMP JUMPDEST PUSH0 PUSH2 0x8BC PUSH2 0x8B7 PUSH2 0x8B2 DUP5 PUSH2 0x890 JUMP JUMPDEST PUSH2 0x899 JUMP JUMPDEST PUSH2 0x890 JUMP JUMPDEST SWAP1 POP SWAP2 SWAP1 POP JUMP JUMPDEST PUSH0 DUP2 SWAP1 POP SWAP2 SWAP1 POP JUMP JUMPDEST PUSH2 0x8D5 DUP4 PUSH2 0x8A2 JUMP JUMPDEST PUSH2 0x8E9 PUSH2 0x8E1 DUP3 PUSH2 0x8C3 JUMP JUMPDEST DUP5 DUP5 SLOAD PUSH2 0x83F JUMP JUMPDEST DUP3 SSTORE POP POP POP POP JUMP JUMPDEST PUSH0 PUSH0 SWAP1 POP SWAP1 JUMP JUMPDEST PUSH2 0x900 PUSH2 0x8F1 JUMP JUMPDEST PUSH2 0x90B DUP2 DUP5 DUP5 PUSH2 0x8CC JUMP JUMPDEST POP POP POP JUMP JUMPDEST JUMPDEST DUP2 DUP2 LT ISZERO PUSH2 0x92E JUMPI PUSH2 0x923 PUSH0 DUP3 PUSH2 0x8F8 JUMP JUMPDEST PUSH1 0x1 DUP2 ADD SWAP1 POP PUSH2 0x911 JUMP JUMPDEST POP POP JUMP JUMPDEST PUSH1 0x1F DUP3 GT ISZERO PUSH2 0x973 JUMPI PUSH2 0x944 DUP2 PUSH2 0x812 JUMP JUMPDEST PUSH2 0x94D DUP5 PUSH2 0x824 JUMP JUMPDEST DUP2 ADD PUSH1 0x20 DUP6 LT ISZERO PUSH2 0x95C JUMPI DUP2 SWAP1 POP JUMPDEST PUSH2 0x970 PUSH2 0x968 DUP6 PUSH2 0x824 JUMP JUMPDEST DUP4 ADD DUP3 PUSH2 0x910 JUMP JUMPDEST POP POP JUMPDEST POP POP POP JUMP JUMPDEST PUSH0 DUP3 DUP3 SHR SWAP1 POP SWAP3 SWAP2 POP POP JUMP JUMPDEST PUSH0 PUSH2 0x993 PUSH0 NOT DUP5 PUSH1 0x8 MUL PUSH2 0x978 JUMP JUMPDEST NOT DUP1 DUP4 AND SWAP2 POP POP SWAP3 SWAP2 POP POP JUMP JUMPDEST PUSH0 PUSH2 0x9AB DUP4 DUP4 PUSH2 0x984 JUMP JUMPDEST SWAP2 POP DUP3 PUSH1 0x2 MUL DUP3 OR SWAP1 POP SWAP3 SWAP2 POP POP JUMP JUMPDEST PUSH2 0x9C4 DUP3 PUSH2 0x7AB JUMP JUMPDEST PUSH8 0xFFFFFFFFFFFFFFFF DUP2 GT ISZERO PUSH2 0x9DD JUMPI PUSH2 0x9DC PUSH2 0x43A JUMP JUMPDEST JUMPDEST PUSH2 0x9E7 DUP3 SLOAD PUSH2 0x7E2 JUMP JUMPDEST PUSH2 0x9F2 DUP3 DUP3 DUP6 PUSH2 0x932 JUMP JUMPDEST PUSH0 PUSH1 0x20 SWAP1 POP PUSH1 0x1F DUP4 GT PUSH1 0x1 DUP2 EQ PUSH2 0xA23 JUMPI PUSH0 DUP5 ISZERO PUSH2 0xA11 JUMPI DUP3 DUP8 ADD MLOAD SWAP1 POP JUMPDEST PUSH2 0xA1B DUP6 DUP3 PUSH2 0x9A0 JUMP JUMPDEST DUP7 SSTORE POP PUSH2 0xA82 JUMP JUMPDEST PUSH1 0x1F NOT DUP5 AND PUSH2 0xA31 DUP7 PUSH2 0x812 JUMP JUMPDEST PUSH0 JUMPDEST DUP3 DUP2 LT ISZERO PUSH2 0xA58 JUMPI DUP5 DUP10 ADD MLOAD DUP3 SSTORE PUSH1 0x1 DUP3 ADD SWAP2 POP PUSH1 0x20 DUP6 ADD SWAP5 POP PUSH1 0x20 DUP2 ADD SWAP1 POP PUSH2 0xA33 JUMP JUMPDEST DUP7 DUP4 LT ISZERO PUSH2 0xA75 JUMPI DUP5 DUP10 ADD MLOAD PUSH2 0xA71 PUSH1 0x1F DUP10 AND DUP3 PUSH2 0x984 JUMP JUMPDEST DUP4 SSTORE POP JUMPDEST PUSH1 0x1 PUSH1 0x2 DUP9 MUL ADD DUP9 SSTORE POP POP POP JUMPDEST POP POP POP POP POP POP JUMP JUMPDEST PUSH1 0x80 MLOAD PUSH1 0xA0 MLOAD PUSH1 0xC0 MLOAD PUSH1 0xE0 MLOAD PUSH2 0xABB PUSH2 0xAC8 PUSH0 CODECOPY PUSH0 PUSH2 0x347 ADD MSTORE PUSH0 DUP2 DUP2 PUSH2 0x1B9 ADD MSTORE PUSH2 0x3BA ADD MSTORE PUSH0 DUP2 DUP2 PUSH2 0x40A ADD MSTORE PUSH2 0x52C ADD MSTORE PUSH0 POP POP PUSH2 0xABB PUSH0 RETURN INVALID PUSH1 0x80 PUSH1 0x40 MSTORE CALLVALUE DUP1 ISZERO PUSH2 0xF JUMPI PUSH0 PUSH0 REVERT JUMPDEST POP PUSH1 0x4 CALLDATASIZE LT PUSH2 0x9C JUMPI PUSH0 CALLDATALOAD PUSH1 0xE0 SHR DUP1 PUSH4 0x60C9269D GT PUSH2 0x64 JUMPI DUP1 PUSH4 0x60C9269D EQ PUSH2 0x136 JUMPI DUP1 PUSH4 0x7CE7D376 EQ PUSH2 0x154 JUMPI DUP1 PUSH4 0x9E91BC54 EQ PUSH2 0x15E JUMPI DUP1 PUSH4 0xA18A186B EQ PUSH2 0x17C JUMPI DUP1 PUSH4 0xF2FDE38B EQ PUSH2 0x19A JUMPI PUSH2 0x9C JUMP JUMPDEST DUP1 PUSH4 0x3563F36 EQ PUSH2 0xA0 JUMPI DUP1 PUSH4 0x4E88D574 EQ PUSH2 0xBE JUMPI DUP1 PUSH4 0x4EFDC623 EQ PUSH2 0xDC JUMPI DUP1 PUSH4 0x4F7EAE94 EQ PUSH2 0xFA JUMPI DUP1 PUSH4 0x581C49A1 EQ PUSH2 0x118 JUMPI JUMPDEST PUSH0 PUSH0 REVERT JUMPDEST PUSH2 0xA8 PUSH2 0x1B6 JUMP JUMPDEST PUSH1 0x40 MLOAD PUSH2 0xB5 SWAP2 SWAP1 PUSH2 0x757 JUMP JUMPDEST PUSH1 0x40 MLOAD DUP1 SWAP2 SUB SWAP1 RETURN JUMPDEST PUSH2 0xC6 PUSH2 0x1DD JUMP JUMPDEST PUSH1 0x40 MLOAD PUSH2 0xD3 SWAP2 SWAP1 PUSH2 0x788 JUMP JUMPDEST PUSH1 0x40 MLOAD DUP1 SWAP2 SUB SWAP1 RETURN JUMPDEST PUSH2 0xE4 PUSH2 0x1E5 JUMP JUMPDEST PUSH1 0x40 MLOAD PUSH2 0xF1 SWAP2 SWAP1 PUSH2 0x7BB JUMP JUMPDEST PUSH1 0x40 MLOAD DUP1 SWAP2 SUB SWAP1 RETURN JUMPDEST PUSH2 0x102 PUSH2 0x1FA JUMP JUMPDEST PUSH1 0x40 MLOAD PUSH2 0x10F SWAP2 SWAP1 PUSH2 0x844 JUMP JUMPDEST PUSH1 0x40 MLOAD DUP1 SWAP2 SUB SWAP1 RETURN JUMPDEST PUSH2 0x120 PUSH2 0x28A JUMP JUMPDEST PUSH1 0x40 MLOAD PUSH2 0x12D SWAP2 SWAP1 PUSH2 0x987 JUMP JUMPDEST PUSH1 0x40 MLOAD DUP1 SWAP2 SUB SWAP1 RETURN JUMPDEST PUSH2 0x13E PUSH2 0x344 JUMP JUMPDEST PUSH1 0x40 MLOAD PUSH2 0x14B SWAP2 SWAP1 PUSH2 0x788 JUMP JUMPDEST PUSH1 0x40 MLOAD DUP1 SWAP2 SUB SWAP1 RETURN JUMPDEST PUSH2 0x15C PUSH2 0x36B JUMP JUMPDEST STOP JUMPDEST PUSH2 0x166 PUSH2 0x407 JUMP JUMPDEST PUSH1 0x40 MLOAD PUSH2 0x173 SWAP2 SWAP1 PUSH2 0x9B6 JUMP JUMPDEST PUSH1 0x40 MLOAD DUP1 SWAP2 SUB SWAP1 RETURN JUMPDEST PUSH2 0x184 PUSH2 0x42E JUMP JUMPDEST PUSH1 0x40 MLOAD PUSH2 0x191 SWAP2 SWAP1 PUSH2 0x9B6 JUMP JUMPDEST PUSH1 0x40 MLOAD DUP1 SWAP2 SUB SWAP1 RETURN JUMPDEST PUSH2 0x1B4 PUSH1 0x4 DUP1 CALLDATASIZE SUB DUP2 ADD SWAP1 PUSH2 0x1AF SWAP2 SWAP1 PUSH2 0x9FD JUMP JUMPDEST PUSH2 0x456 JUMP JUMPDEST STOP JUMPDEST PUSH0 PUSH32 0x0 SWAP1 POP SWAP1 JUMP JUMPDEST PUSH0 PUSH0 SLOAD SWAP1 POP SWAP1 JUMP JUMPDEST PUSH0 PUSH1 0x4 PUSH0 SWAP1 SLOAD SWAP1 PUSH2 0x100 EXP SWAP1 DIV PUSH1 0xFF AND SWAP1 POP SWAP1 JUMP JUMPDEST PUSH1 0x60 PUSH1 0x3 DUP1 SLOAD PUSH2 0x209 SWAP1 PUSH2 0xA55 JUMP JUMPDEST DUP1 PUSH1 0x1F ADD PUSH1 0x20 DUP1 SWAP2 DIV MUL PUSH1 0x20 ADD PUSH1 0x40 MLOAD SWAP1 DUP2 ADD PUSH1 0x40 MSTORE DUP1 SWAP3 SWAP2 SWAP1 DUP2 DUP2 MSTORE PUSH1 0x20 ADD DUP3 DUP1 SLOAD PUSH2 0x235 SWAP1 PUSH2 0xA55 JUMP JUMPDEST DUP1 ISZERO PUSH2 0x280 JUMPI DUP1 PUSH1 0x1F LT PUSH2 0x257 JUMPI PUSH2 0x100 DUP1 DUP4 SLOAD DIV MUL DUP4 MSTORE SWAP2 PUSH1 0x20 ADD SWAP2 PUSH2 0x280 JUMP JUMPDEST DUP3 ADD SWAP2 SWAP1 PUSH0 MSTORE PUSH1 0x20 PUSH0 KECCAK256 SWAP1 JUMPDEST DUP2 SLOAD DUP2 MSTORE SWAP1 PUSH1 0x1 ADD SWAP1 PUSH1 0x20 ADD DUP1 DUP4 GT PUSH2 0x263 JUMPI DUP3 SWAP1 SUB PUSH1 0x1F AND DUP3 ADD SWAP2 JUMPDEST POP POP POP POP POP SWAP1 POP SWAP1 JUMP JUMPDEST PUSH1 0x60 PUSH1 0x2 DUP1 SLOAD DUP1 PUSH1 0x20 MUL PUSH1 0x20 ADD PUSH1 0x40 MLOAD SWAP1 DUP2 ADD PUSH1 0x40 MSTORE DUP1 SWAP3 SWAP2 SWAP1 DUP2 DUP2 MSTORE PUSH1 0x20 ADD PUSH0 SWAP1 JUMPDEST DUP3 DUP3 LT ISZERO PUSH2 0x33B JUMPI DUP4 DUP3 SWAP1 PUSH0 MSTORE PUSH1 0x20 PUSH0 KECCAK256 SWAP1 PUSH1 0x2 MUL ADD PUSH1 0x40 MLOAD DUP1 PUSH1 0x40 ADD PUSH1 0x40 MSTORE SWAP1 DUP2 PUSH0 DUP3 ADD PUSH0 SWAP1 SLOAD SWAP1 PUSH2 0x100 EXP SWAP1 DIV PUSH20 0xFFFFFFFFFFFFFFFFFFFFFFFFFFFFFFFFFFFFFFFF AND PUSH20 0xFFFFFFFFFFFFFFFFFFFFFFFFFFFFFFFFFFFFFFFF AND PUSH20 0xFFFFFFFFFFFFFFFFFFFFFFFFFFFFFFFFFFFFFFFF AND DUP2 MSTORE PUSH1 0x20 ADD PUSH1 0x1 DUP3 ADD SLOAD DUP2 MSTORE POP POP DUP2 MSTORE PUSH1 0x20 ADD SWAP1 PUSH1 0x1 ADD SWAP1 PUSH2 0x2AD JUMP JUMPDEST POP POP POP POP SWAP1 POP SWAP1 JUMP JUMPDEST PUSH0 PUSH32 0x0 SWAP1 POP SWAP1 JUMP JUMPDEST PUSH1 0x4 PUSH0 SWAP1 SLOAD SWAP1 PUSH2 0x100 EXP SWAP1 DIV PUSH1 0xFF AND PUSH2 0x3B0 JUMPI PUSH1 0x40 MLOAD PUSH32 0xBE35019E00000000000000000000000000000000000000000000000000000000 DUP2 MSTORE PUSH1 0x4 ADD PUSH1 0x40 MLOAD DUP1 SWAP2 SUB SWAP1 REVERT JUMPDEST PUSH2 0x3B8 PUSH2 0x52A JUMP JUMPDEST PUSH32 0x0 PUSH32 0x14A361A50D98FBE05E22DF9359B451B51CF087DC7F912CC7B41BA235754083DD PUSH1 0x40 MLOAD PUSH1 0x40 MLOAD DUP1 SWAP2 SUB SWAP1 LOG2 JUMP JUMPDEST PUSH0 PUSH32 0x0 SWAP1 POP SWAP1 JUMP JUMPDEST PUSH0 PUSH1 0x1 PUSH0 SWAP1 SLOAD SWAP1 PUSH2 0x100 EXP SWAP1 DIV PUSH20 0xFFFFFFFFFFFFFFFFFFFFFFFFFFFFFFFFFFFFFFFF AND SWAP1 POP SWAP1 JUMP JUMPDEST PUSH1 0x4 PUSH0 SWAP1 SLOAD SWAP1 PUSH2 0x100 EXP SWAP1 DIV PUSH1 0xFF AND PUSH2 0x49B JUMPI PUSH1 0x40 MLOAD PUSH32 0xBE35019E00000000000000000000000000000000000000000000000000000000 DUP2 MSTORE PUSH1 0x4 ADD PUSH1 0x40 MLOAD DUP1 SWAP2 SUB SWAP1 REVERT JUMPDEST PUSH0 PUSH1 0x1 PUSH0 SWAP1 SLOAD SWAP1 PUSH2 0x100 EXP SWAP1 DIV PUSH20 0xFFFFFFFFFFFFFFFFFFFFFFFFFFFFFFFFFFFFFFFF AND SWAP1 POP PUSH2 0x4CA CALLER DUP4 PUSH2 0x5D0 JUMP JUMPDEST PUSH0 SLOAD DUP3 PUSH20 0xFFFFFFFFFFFFFFFFFFFFFFFFFFFFFFFFFFFFFFFF AND DUP3 PUSH20 0xFFFFFFFFFFFFFFFFFFFFFFFFFFFFFFFFFFFFFFFF AND PUSH32 0xC13A1166D81CD3B0B352A367AEBAB95F3A6F6BC695FDAB8E9A9D335239C3861B PUSH1 0x40 MLOAD PUSH1 0x40 MLOAD DUP1 SWAP2 SUB SWAP1 LOG4 POP POP JUMP JUMPDEST PUSH32 0x0 PUSH20 0xFFFFFFFFFFFFFFFFFFFFFFFFFFFFFFFFFFFFFFFF AND CALLER PUSH20 0xFFFFFFFFFFFFFFFFFFFFFFFFFFFFFFFFFFFFFFFF AND EQ PUSH2 0x5AF JUMPI PUSH1 0x40 MLOAD PUSH32 0xE260DD6400000000000000000000000000000000000000000000000000000000 DUP2 MSTORE PUSH1 0x4 ADD PUSH1 0x40 MLOAD DUP1 SWAP2 SUB SWAP1 REVERT JUMPDEST TIMESTAMP PUSH0 DUP2 SWAP1 SSTORE POP PUSH0 PUSH1 0x4 PUSH0 PUSH2 0x100 EXP DUP2 SLOAD DUP2 PUSH1 0xFF MUL NOT AND SWAP1 DUP4 ISZERO ISZERO MUL OR SWAP1 SSTORE POP JUMP JUMPDEST DUP2 PUSH1 0x1 PUSH0 SWAP1 SLOAD SWAP1 PUSH2 0x100 EXP SWAP1 DIV PUSH20 0xFFFFFFFFFFFFFFFFFFFFFFFFFFFFFFFFFFFFFFFF AND PUSH20 0xFFFFFFFFFFFFFFFFFFFFFFFFFFFFFFFFFFFFFFFF AND DUP2 PUSH20 0xFFFFFFFFFFFFFFFFFFFFFFFFFFFFFFFFFFFFFFFF AND EQ PUSH2 0x657 JUMPI PUSH1 0x40 MLOAD PUSH32 0xE4FD561400000000000000000000000000000000000000000000000000000000 DUP2 MSTORE PUSH1 0x4 ADD PUSH1 0x40 MLOAD DUP1 SWAP2 SUB SWAP1 REVERT JUMPDEST DUP2 PUSH1 0x1 PUSH0 PUSH2 0x100 EXP DUP2 SLOAD DUP2 PUSH20 0xFFFFFFFFFFFFFFFFFFFFFFFFFFFFFFFFFFFFFFFF MUL NOT AND SWAP1 DUP4 PUSH20 0xFFFFFFFFFFFFFFFFFFFFFFFFFFFFFFFFFFFFFFFF AND MUL OR SWAP1 SSTORE POP PUSH1 0x2 PUSH1 0x40 MLOAD DUP1 PUSH1 0x40 ADD PUSH1 0x40 MSTORE DUP1 DUP5 PUSH20 0xFFFFFFFFFFFFFFFFFFFFFFFFFFFFFFFFFFFFFFFF AND DUP2 MSTORE PUSH1 0x20 ADD TIMESTAMP DUP2 MSTORE POP SWAP1 DUP1 PUSH1 0x1 DUP2 SLOAD ADD DUP1 DUP3 SSTORE DUP1 SWAP2 POP POP PUSH1 0x1 SWAP1 SUB SWAP1 PUSH0 MSTORE PUSH1 0x20 PUSH0 KECCAK256 SWAP1 PUSH1 0x2 MUL ADD PUSH0 SWAP1 SWAP2 SWAP1 SWAP2 SWAP1 SWAP2 POP PUSH0 DUP3 ADD MLOAD DUP2 PUSH0 ADD PUSH0 PUSH2 0x100 EXP DUP2 SLOAD DUP2 PUSH20 0xFFFFFFFFFFFFFFFFFFFFFFFFFFFFFFFFFFFFFFFF MUL NOT AND SWAP1 DUP4 PUSH20 0xFFFFFFFFFFFFFFFFFFFFFFFFFFFFFFFFFFFFFFFF AND MUL OR SWAP1 SSTORE POP PUSH1 0x20 DUP3 ADD MLOAD DUP2 PUSH1 0x1 ADD SSTORE POP POP POP POP POP JUMP JUMPDEST PUSH0 DUP2 SWAP1 POP SWAP2 SWAP1 POP JUMP JUMPDEST PUSH2 0x751 DUP2 PUSH2 0x73F JUMP JUMPDEST DUP3 MSTORE POP POP JUMP JUMPDEST PUSH0 PUSH1 0x20 DUP3 ADD SWAP1 POP PUSH2 0x76A PUSH0 DUP4 ADD DUP5 PUSH2 0x748 JUMP JUMPDEST SWAP3 SWAP2 POP POP JUMP JUMPDEST PUSH0 DUP2 SWAP1 POP SWAP2 SWAP1 POP JUMP JUMPDEST PUSH2 0x782 DUP2 PUSH2 0x770 JUMP JUMPDEST DUP3 MSTORE POP POP JUMP JUMPDEST PUSH0 PUSH1 0x20 DUP3 ADD SWAP1 POP PUSH2 0x79B PUSH0 DUP4 ADD DUP5 PUSH2 0x779 JUMP JUMPDEST SWAP3 SWAP2 POP POP JUMP JUMPDEST PUSH0 DUP2 ISZERO ISZERO SWAP1 POP SWAP2 SWAP1 POP JUMP JUMPDEST PUSH2 0x7B5 DUP2 PUSH2 0x7A1 JUMP JUMPDEST DUP3 MSTORE POP POP JUMP JUMPDEST PUSH0 PUSH1 0x20 DUP3 ADD SWAP1 POP PUSH2 0x7CE PUSH0 DUP4 ADD DUP5 PUSH2 0x7AC JUMP JUMPDEST SWAP3 SWAP2 POP POP JUMP JUMPDEST PUSH0 DUP2 MLOAD SWAP1 POP SWAP2 SWAP1 POP JUMP JUMPDEST PUSH0 DUP3 DUP3 MSTORE PUSH1 0x20 DUP3 ADD SWAP1 POP SWAP3 SWAP2 POP POP JUMP JUMPDEST DUP3 DUP2 DUP4 MCOPY PUSH0 DUP4 DUP4 ADD MSTORE POP POP POP JUMP JUMPDEST PUSH0 PUSH1 0x1F NOT PUSH1 0x1F DUP4 ADD AND SWAP1 POP SWAP2 SWAP1 POP JUMP JUMPDEST PUSH0 PUSH2 0x816 DUP3 PUSH2 0x7D4 JUMP JUMPDEST PUSH2 0x820 DUP2 DUP6 PUSH2 0x7DE JUMP JUMPDEST SWAP4 POP PUSH2 0x830 DUP2 DUP6 PUSH1 0x20 DUP7 ADD PUSH2 0x7EE JUMP JUMPDEST PUSH2 0x839 DUP2 PUSH2 0x7FC JUMP JUMPDEST DUP5 ADD SWAP2 POP POP SWAP3 SWAP2 POP POP JUMP JUMPDEST PUSH0 PUSH1 0x20 DUP3 ADD SWAP1 POP DUP2 DUP2 SUB PUSH0 DUP4 ADD MSTORE PUSH2 0x85C DUP2 DUP5 PUSH2 0x80C JUMP JUMPDEST SWAP1 POP SWAP3 SWAP2 POP POP JUMP JUMPDEST PUSH0 DUP2 MLOAD SWAP1 POP SWAP2 SWAP1 POP JUMP JUMPDEST PUSH0 DUP3 DUP3 MSTORE PUSH1 0x20 DUP3 ADD SWAP1 POP SWAP3 SWAP2 POP POP JUMP JUMPDEST PUSH0 DUP2 SWAP1 POP PUSH1 0x20 DUP3 ADD SWAP1 POP SWAP2 SWAP1 POP JUMP JUMPDEST PUSH0 PUSH20 0xFFFFFFFFFFFFFFFFFFFFFFFFFFFFFFFFFFFFFFFF DUP3 AND SWAP1 POP SWAP2 SWAP1 POP JUMP JUMPDEST PUSH0 PUSH2 0x8B6 DUP3 PUSH2 0x88D JUMP JUMPDEST SWAP1 POP SWAP2 SWAP1 POP JUMP JUMPDEST PUSH2 0x8C6 DUP2 PUSH2 0x8AC JUMP JUMPDEST DUP3 MSTORE POP POP JUMP JUMPDEST PUSH2 0x8D5 DUP2 PUSH2 0x770 JUMP JUMPDEST DUP3 MSTORE POP POP JUMP JUMPDEST PUSH1 0x40 DUP3 ADD PUSH0 DUP3 ADD MLOAD PUSH2 0x8EF PUSH0 DUP6 ADD DUP3 PUSH2 0x8BD JUMP JUMPDEST POP PUSH1 0x20 DUP3 ADD MLOAD PUSH2 0x902 PUSH1 0x20 DUP6 ADD DUP3 PUSH2 0x8CC JUMP JUMPDEST POP POP POP POP JUMP JUMPDEST PUSH0 PUSH2 0x913 DUP4 DUP4 PUSH2 0x8DB JUMP JUMPDEST PUSH1 0x40 DUP4 ADD SWAP1 POP SWAP3 SWAP2 POP POP JUMP JUMPDEST PUSH0 PUSH1 0x20 DUP3 ADD SWAP1 POP SWAP2 SWAP1 POP JUMP JUMPDEST PUSH0 PUSH2 0x935 DUP3 PUSH2 0x864 JUMP JUMPDEST PUSH2 0x93F DUP2 DUP6 PUSH2 0x86E JUMP JUMPDEST SWAP4 POP PUSH2 0x94A DUP4 PUSH2 0x87E JUMP JUMPDEST DUP1 PUSH0 JUMPDEST DUP4 DUP2 LT ISZERO PUSH2 0x97A JUMPI DUP2 MLOAD PUSH2 0x961 DUP9 DUP3 PUSH2 0x908 JUMP JUMPDEST SWAP8 POP PUSH2 0x96C DUP4 PUSH2 0x91F JUMP JUMPDEST SWAP3 POP POP PUSH1 0x1 DUP2 ADD SWAP1 POP PUSH2 0x94D JUMP JUMPDEST POP DUP6 SWAP4 POP POP POP POP SWAP3 SWAP2 POP POP JUMP JUMPDEST PUSH0 PUSH1 0x20 DUP3 ADD SWAP1 POP DUP2 DUP2 SUB PUSH0 DUP4 ADD MSTORE PUSH2 0x99F DUP2 DUP5 PUSH2 0x92B JUMP JUMPDEST SWAP1 POP SWAP3 SWAP2 POP POP JUMP JUMPDEST PUSH2 0x9B0 DUP2 PUSH2 0x8AC JUMP JUMPDEST DUP3 MSTORE POP POP JUMP JUMPDEST PUSH0 PUSH1 0x20 DUP3 ADD SWAP1 POP PUSH2 0x9C9 PUSH0 DUP4 ADD DUP5 PUSH2 0x9A7 JUMP JUMPDEST SWAP3 SWAP2 POP POP JUMP JUMPDEST PUSH0 PUSH0 REVERT JUMPDEST PUSH2 0x9DC DUP2 PUSH2 0x8AC JUMP JUMPDEST DUP2 EQ PUSH2 0x9E6 JUMPI PUSH0 PUSH0 REVERT JUMPDEST POP JUMP JUMPDEST PUSH0 DUP2 CALLDATALOAD SWAP1 POP PUSH2 0x9F7 DUP2 PUSH2 0x9D3 JUMP JUMPDEST SWAP3 SWAP2 POP POP JUMP JUMPDEST PUSH0 PUSH1 0x20 DUP3 DUP5 SUB SLT ISZERO PUSH2 0xA12 JUMPI PUSH2 0xA11 PUSH2 0x9CF JUMP JUMPDEST JUMPDEST PUSH0 PUSH2 0xA1F DUP5 DUP3 DUP6 ADD PUSH2 0x9E9 JUMP JUMPDEST SWAP2 POP POP SWAP3 SWAP2 POP POP JUMP JUMPDEST PUSH32 0x4E487B7100000000000000000000000000000000000000000000000000000000 PUSH0 MSTORE PUSH1 0x22 PUSH1 0x4 MSTORE PUSH1 0x24 PUSH0 REVERT JUMPDEST PUSH0 PUSH1 0x2 DUP3 DIV SWAP1 POP PUSH1 0x1 DUP3 AND DUP1 PUSH2 0xA6C JUMPI PUSH1 0x7F DUP3 AND SWAP2 POP JUMPDEST PUSH1 0x20 DUP3 LT DUP2 SUB PUSH2 0xA7F JUMPI PUSH2 0xA7E PUSH2 0xA28 JUMP JUMPDEST JUMPDEST POP SWAP2 SWAP1 POP JUMP INVALID LOG2 PUSH5 0x6970667358 0x22 SLT KECCAK256 0xBD DUP2 PUSH0 DUP11 BLOBHASH DUP3 0xB5 0xBF PUSH10 0x111BD81B36657CDF33F1 PUSH12 0x39E4B38E876B4D79A9915ADF PUSH5 0x736F6C6343 STOP ADDMOD 0x1E STOP CALLER "
				},
				"gasEstimates": {
					"creation": {
						"codeDepositCost": "549400",
						"executionCost": "infinite",
						"totalCost": "infinite"
					},
					"external": {
						"discontinueEvidence()": "infinite",
						"getChainOfCustody()": "infinite",
						"getCurrentOwner()": "2581",
						"getEvidenceCreator()": "infinite",
						"getEvidenceDescription()": "infinite",
						"getEvidenceId()": "infinite",
						"getEvidenceState()": "2518",
						"getTimeOfCreation()": "infinite",
						"getTimeOfDiscontinuation()": "2454",
						"transferOwnership(address)": "106128"
					},
					"internal": {
						"_discontinueEvidence()": "infinite",
						"_transferOwnership(address,address)": "infinite"
					}
				},
				"methodIdentifiers": {
					"discontinueEvidence()": "7ce7d376",
					"getChainOfCustody()": "581c49a1",
					"getCurrentOwner()": "a18a186b",
					"getEvidenceCreator()": "9e91bc54",
					"getEvidenceDescription()": "4f7eae94",
					"getEvidenceId()": "03563f36",
					"getEvidenceState()": "4efdc623",
					"getTimeOfCreation()": "60c9269d",
					"getTimeOfDiscontinuation()": "4e88d574",
					"transferOwnership(address)": "f2fde38b"
				}
			},
			"storageLayout": {
				"storage": [
					{
						"astId": 27,
						"contract": "src/ChainOfCustody.sol:Evidence",
						"label": "TIME_OF_DISCONTINUATION",
						"offset": 0,
						"slot": "0",
						"type": "t_uint256"
					},
					{
						"astId": 29,
						"contract": "src/ChainOfCustody.sol:Evidence",
						"label": "owner",
						"offset": 0,
						"slot": "1",
						"type": "t_address"
					},
					{
						"astId": 33,
						"contract": "src/ChainOfCustody.sol:Evidence",
						"label": "chainOfCustody",
						"offset": 0,
						"slot": "2",
						"type": "t_array(t_struct(CustodyRecord)17_storage)dyn_storage"
					},
					{
						"astId": 35,
						"contract": "src/ChainOfCustody.sol:Evidence",
						"label": "description",
						"offset": 0,
						"slot": "3",
						"type": "t_string_storage"
					},
					{
						"astId": 38,
						"contract": "src/ChainOfCustody.sol:Evidence",
						"label": "isActive",
						"offset": 0,
						"slot": "4",
						"type": "t_bool"
					}
				],
				"types": {
					"t_address": {
						"encoding": "inplace",
						"label": "address",
						"numberOfBytes": "20"
					},
					"t_array(t_struct(CustodyRecord)17_storage)dyn_storage": {
						"base": "t_struct(CustodyRecord)17_storage",
						"encoding": "dynamic_array",
						"label": "struct Evidence.CustodyRecord[]",
						"numberOfBytes": "32"
					},
					"t_bool": {
						"encoding": "inplace",
						"label": "bool",
						"numberOfBytes": "1"
					},
					"t_string_storage": {
						"encoding": "bytes",
						"label": "string",
						"numberOfBytes": "32"
					},
					"t_struct(CustodyRecord)17_storage": {
						"encoding": "inplace",
						"label": "struct Evidence.CustodyRecord",
						"members": [
							{
								"astId": 14,
								"contract": "src/ChainOfCustody.sol:Evidence",
								"label": "owner",
								"offset": 0,
								"slot": "0",
								"type": "t_address"
							},
							{
								"astId": 16,
								"contract": "src/ChainOfCustody.sol:Evidence",
								"label": "timestamp",
								"offset": 0,
								"slot": "1",
								"type": "t_uint256"
							}
						],
						"numberOfBytes": "64"
					},
					"t_uint256": {
						"encoding": "inplace",
						"label": "uint256",
						"numberOfBytes": "32"
					}
				}
			},
			"userdoc": {
				"kind": "user",
				"methods": {},
				"version": 1
			}
		}
	}
}