{
	"data": {
		"bytecode": {
			"linkReferences": {},
			"object": "6080604052348015600e575f5ffd5b50611e5a8061001c5f395ff3fe608060405234801561000f575f5ffd5b506004361061003f575f3560e01c806317ef8257146100435780632ca5fea714610073578063c839131c1461008f575b5f5ffd5b61005d600480360381019061005891906103b5565b6100bf565b60405161006a91906103f8565b60405180910390f35b61008d60048036038101906100889190610580565b610105565b005b6100a960048036038101906100a491906105da565b610305565b6040516100b69190610614565b60405180910390f35b5f60015f8373ffffffffffffffffffffffffffffffffffffffff1673ffffffffffffffffffffffffffffffffffffffff1681526020019081526020015f20549050919050565b5f60015f3373ffffffffffffffffffffffffffffffffffffffff1673ffffffffffffffffffffffffffffffffffffffff1681526020019081526020015f205f815461014f9061065a565b91905081905590505f3382854660405160200161016f9493929190610726565b6040516020818303038152906040528051906020012090505f30823333876040516101999061033d565b6101a79594939291906107e2565b604051809103905ff0801580156101c0573d5f5f3e3d5ffd5b5090505f73ffffffffffffffffffffffffffffffffffffffff165f5f8481526020019081526020015f205f9054906101000a900473ffffffffffffffffffffffffffffffffffffffff1673ffffffffffffffffffffffffffffffffffffffff1614610260576040517f08c379a000000000000000000000000000000000000000000000000000000000815260040161025790610884565b60405180910390fd5b805f5f8481526020019081526020015f205f6101000a81548173ffffffffffffffffffffffffffffffffffffffff021916908373ffffffffffffffffffffffffffffffffffffffff16021790555084823373ffffffffffffffffffffffffffffffffffffffff167f29897f1d30b78e8b9808dec25fbbb66a77ba1b89cc3b4b7a432241eb9d218712866040516102f691906103f8565b60405180910390a45050505050565b5f5f5f8381526020019081526020015f205f9054906101000a900473ffffffffffffffffffffffffffffffffffffffff169050919050565b611582806108a383390190565b5f604051905090565b5f5ffd5b5f5ffd5b5f73ffffffffffffffffffffffffffffffffffffffff82169050919050565b5f6103848261035b565b9050919050565b6103948161037a565b811461039e575f5ffd5b50565b5f813590506103af8161038b565b92915050565b5f602082840312156103ca576103c9610353565b5b5f6103d7848285016103a1565b91505092915050565b5f819050919050565b6103f2816103e0565b82525050565b5f60208201905061040b5f8301846103e9565b92915050565b5f819050919050565b61042381610411565b811461042d575f5ffd5b50565b5f8135905061043e8161041a565b92915050565b5f5ffd5b5f5ffd5b5f601f19601f8301169050919050565b7f4e487b71000000000000000000000000000000000000000000000000000000005f52604160045260245ffd5b6104928261044c565b810181811067ffffffffffffffff821117156104b1576104b061045c565b5b80604052505050565b5f6104c361034a565b90506104cf8282610489565b919050565b5f67ffffffffffffffff8211156104ee576104ed61045c565b5b6104f78261044c565b9050602081019050919050565b828183375f83830152505050565b5f61052461051f846104d4565b6104ba565b9050828152602081018484840111156105405761053f610448565b5b61054b848285610504565b509392505050565b5f82601f83011261056757610566610444565b5b8135610577848260208601610512565b91505092915050565b5f5f6040838503121561059657610595610353565b5b5f6105a385828601610430565b925050602083013567ffffffffffffffff8111156105c4576105c3610357565b5b6105d085828601610553565b9150509250929050565b5f602082840312156105ef576105ee610353565b5b5f6105fc84828501610430565b91505092915050565b61060e8161037a565b82525050565b5f6020820190506106275f830184610605565b92915050565b7f4e487b71000000000000000000000000000000000000000000000000000000005f52601160045260245ffd5b5f610664826103e0565b91507fffffffffffffffffffffffffffffffffffffffffffffffffffffffffffffffff82036106965761069561062d565b5b600182019050919050565b5f8160601b9050919050565b5f6106b7826106a1565b9050919050565b5f6106c8826106ad565b9050919050565b6106e06106db8261037a565b6106be565b82525050565b5f819050919050565b6107006106fb826103e0565b6106e6565b82525050565b5f819050919050565b61072061071b82610411565b610706565b82525050565b5f61073182876106cf565b60148201915061074182866106ef565b602082019150610751828561070f565b60208201915061076182846106ef565b60208201915081905095945050505050565b61077c81610411565b82525050565b5f81519050919050565b5f82825260208201905092915050565b8281835e5f83830152505050565b5f6107b482610782565b6107be818561078c565b93506107ce81856020860161079c565b6107d78161044c565b840191505092915050565b5f60a0820190506107f55f830188610605565b6108026020830187610773565b61080f6040830186610605565b61081c6060830185610605565b818103608083015261082e81846107aa565b90509695505050505050565b7f45766964656e636520494420616c7265616479206578697374730000000000005f82015250565b5f61086e601a8361078c565b91506108798261083a565b602082019050919050565b5f6020820190508181035f83015261089b81610862565b905091905056fe610100604052600160045f6101000a81548160ff02191690831515021790555034801561002a575f5ffd5b50604051611582380380611582833981810160405281019061004c919061055e565b8473ffffffffffffffffffffffffffffffffffffffff163373ffffffffffffffffffffffffffffffffffffffff16146100b1576040517f2d102aa100000000000000000000000000000000000000000000000000000000815260040160405180910390fd5b8273ffffffffffffffffffffffffffffffffffffffff168273ffffffffffffffffffffffffffffffffffffffff1614610116576040517f0dc0971b00000000000000000000000000000000000000000000000000000000815260040160405180910390fd5b5f73ffffffffffffffffffffffffffffffffffffffff168373ffffffffffffffffffffffffffffffffffffffff1603610184576040517f08c379a000000000000000000000000000000000000000000000000000000000815260040161017b90610671565b60405180910390fd5b5f5f1b84036101c8576040517f08c379a00000000000000000000000000000000000000000000000000000000081526004016101bf906106ff565b60405180910390fd5b5f81510361020b576040517f08c379a00000000000000000000000000000000000000000000000000000000081526004016102029061078d565b60405180910390fd5b8473ffffffffffffffffffffffffffffffffffffffff1660808173ffffffffffffffffffffffffffffffffffffffff16815250508273ffffffffffffffffffffffffffffffffffffffff1660a08173ffffffffffffffffffffffffffffffffffffffff168152505060a05160015f6101000a81548173ffffffffffffffffffffffffffffffffffffffff021916908373ffffffffffffffffffffffffffffffffffffffff1602179055504260e08181525050600260405180604001604052808573ffffffffffffffffffffffffffffffffffffffff16815260200160e051815250908060018154018082558091505060019003905f5260205f2090600202015f909190919091505f820151815f015f6101000a81548173ffffffffffffffffffffffffffffffffffffffff021916908373ffffffffffffffffffffffffffffffffffffffff1602179055506020820151816001015550508360c08181525050806003908161037991906109bb565b505050505050610a8a565b5f604051905090565b5f5ffd5b5f5ffd5b5f73ffffffffffffffffffffffffffffffffffffffff82169050919050565b5f6103be82610395565b9050919050565b6103ce816103b4565b81146103d8575f5ffd5b50565b5f815190506103e9816103c5565b92915050565b5f819050919050565b610401816103ef565b811461040b575f5ffd5b50565b5f8151905061041c816103f8565b92915050565b5f5ffd5b5f5ffd5b5f601f19601f8301169050919050565b7f4e487b71000000000000000000000000000000000000000000000000000000005f52604160045260245ffd5b6104708261042a565b810181811067ffffffffffffffff8211171561048f5761048e61043a565b5b80604052505050565b5f6104a1610384565b90506104ad8282610467565b919050565b5f67ffffffffffffffff8211156104cc576104cb61043a565b5b6104d58261042a565b9050602081019050919050565b8281835e5f83830152505050565b5f6105026104fd846104b2565b610498565b90508281526020810184848401111561051e5761051d610426565b5b6105298482856104e2565b509392505050565b5f82601f83011261054557610544610422565b5b81516105558482602086016104f0565b91505092915050565b5f5f5f5f5f60a086880312156105775761057661038d565b5b5f610584888289016103db565b95505060206105958882890161040e565b94505060406105a6888289016103db565b93505060606105b7888289016103db565b925050608086015167ffffffffffffffff8111156105d8576105d7610391565b5b6105e488828901610531565b9150509295509295909350565b5f82825260208201905092915050565b7f496e76616c69642043726561746f723a2063616e6e6f74206265207a65726f205f8201527f6164647265737300000000000000000000000000000000000000000000000000602082015250565b5f61065b6027836105f1565b915061066682610601565b604082019050919050565b5f6020820190508181035f8301526106888161064f565b9050919050565b7f496e76616c69642065766964656e63652049443a2049442063616e6e6f7420625f8201527f6520656d70747900000000000000000000000000000000000000000000000000602082015250565b5f6106e96027836105f1565b91506106f48261068f565b604082019050919050565b5f6020820190508181035f830152610716816106dd565b9050919050565b7f496e76616c6964206465736372697074696f6e3a206465736372697074696f6e5f8201527f2063616e6e6f7420626520656d70747900000000000000000000000000000000602082015250565b5f6107776030836105f1565b91506107828261071d565b604082019050919050565b5f6020820190508181035f8301526107a48161076b565b9050919050565b5f81519050919050565b7f4e487b71000000000000000000000000000000000000000000000000000000005f52602260045260245ffd5b5f60028204905060018216806107f957607f821691505b60208210810361080c5761080b6107b5565b5b50919050565b5f819050815f5260205f209050919050565b5f6020601f8301049050919050565b5f82821b905092915050565b5f6008830261086e7fffffffffffffffffffffffffffffffffffffffffffffffffffffffffffffffff82610833565b6108788683610833565b95508019841693508086168417925050509392505050565b5f819050919050565b5f819050919050565b5f6108bc6108b76108b284610890565b610899565b610890565b9050919050565b5f819050919050565b6108d5836108a2565b6108e96108e1826108c3565b84845461083f565b825550505050565b5f5f905090565b6109006108f1565b61090b8184846108cc565b505050565b5b8181101561092e576109235f826108f8565b600181019050610911565b5050565b601f8211156109735761094481610812565b61094d84610824565b8101602085101561095c578190505b61097061096885610824565b830182610910565b50505b505050565b5f82821c905092915050565b5f6109935f1984600802610978565b1980831691505092915050565b5f6109ab8383610984565b9150826002028217905092915050565b6109c4826107ab565b67ffffffffffffffff8111156109dd576109dc61043a565b5b6109e782546107e2565b6109f2828285610932565b5f60209050601f831160018114610a23575f8415610a11578287015190505b610a1b85826109a0565b865550610a82565b601f198416610a3186610812565b5f5b82811015610a5857848901518255600182019150602085019450602081019050610a33565b86831015610a755784890151610a71601f891682610984565b8355505b6001600288020188555050505b505050505050565b60805160a05160c05160e051610aba610ac85f395f61034701525f81816101b901526103ba01525f818161040a015261052b01525f5050610aba5ff3fe608060405234801561000f575f5ffd5b506004361061009c575f3560e01c806360c9269d1161006457806360c9269d146101365780637ce7d376146101545780639e91bc541461015e578063a18a186b1461017c578063f2fde38b1461019a5761009c565b806303563f36146100a05780634e88d574146100be5780634efdc623146100dc5780634f7eae94146100fa578063581c49a114610118575b5f5ffd5b6100a86101b6565b6040516100b59190610756565b60405180910390f35b6100c66101dd565b6040516100d39190610787565b60405180910390f35b6100e46101e5565b6040516100f191906107ba565b60405180910390f35b6101026101fa565b60405161010f9190610843565b60405180910390f35b61012061028a565b60405161012d9190610986565b60405180910390f35b61013e610344565b60405161014b9190610787565b60405180910390f35b61015c61036b565b005b610166610407565b60405161017391906109b5565b60405180910390f35b61018461042e565b60405161019191906109b5565b60405180910390f35b6101b460048036038101906101af91906109fc565b610456565b005b5f7f0000000000000000000000000000000000000000000000000000000000000000905090565b5f5f54905090565b5f60045f9054906101000a900460ff16905090565b60606003805461020990610a54565b80601f016020809104026020016040519081016040528092919081815260200182805461023590610a54565b80156102805780601f1061025757610100808354040283529160200191610280565b820191905f5260205f20905b81548152906001019060200180831161026357829003601f168201915b5050505050905090565b60606002805480602002602001604051908101604052809291908181526020015f905b8282101561033b578382905f5260205f2090600202016040518060400160405290815f82015f9054906101000a900473ffffffffffffffffffffffffffffffffffffffff1673ffffffffffffffffffffffffffffffffffffffff1673ffffffffffffffffffffffffffffffffffffffff168152602001600182015481525050815260200190600101906102ad565b50505050905090565b5f7f0000000000000000000000000000000000000000000000000000000000000000905090565b60045f9054906101000a900460ff166103b0576040517fbe35019e00000000000000000000000000000000000000000000000000000000815260040160405180910390fd5b6103b8610529565b7f00000000000000000000000000000000000000000000000000000000000000007f14a361a50d98fbe05e22df9359b451b51cf087dc7f912cc7b41ba235754083dd60405160405180910390a2565b5f7f0000000000000000000000000000000000000000000000000000000000000000905090565b5f60015f9054906101000a900473ffffffffffffffffffffffffffffffffffffffff16905090565b60045f9054906101000a900460ff1661049b576040517fbe35019e00000000000000000000000000000000000000000000000000000000815260040160405180910390fd5b5f60015f9054906101000a900473ffffffffffffffffffffffffffffffffffffffff1690506104ca33836105cf565b428273ffffffffffffffffffffffffffffffffffffffff168273ffffffffffffffffffffffffffffffffffffffff167fc13a1166d81cd3b0b352a367aebab95f3a6f6bc695fdab8e9a9d335239c3861b60405160405180910390a45050565b7f000000000000000000000000000000000000000000000000000000000000000073ffffffffffffffffffffffffffffffffffffffff163373ffffffffffffffffffffffffffffffffffffffff16146105ae576040517fe260dd6400000000000000000000000000000000000000000000000000000000815260040160405180910390fd5b425f819055505f60045f6101000a81548160ff021916908315150217905550565b8160015f9054906101000a900473ffffffffffffffffffffffffffffffffffffffff1673ffffffffffffffffffffffffffffffffffffffff168173ffffffffffffffffffffffffffffffffffffffff1614610656576040517fe4fd561400000000000000000000000000000000000000000000000000000000815260040160405180910390fd5b8160015f6101000a81548173ffffffffffffffffffffffffffffffffffffffff021916908373ffffffffffffffffffffffffffffffffffffffff160217905550600260405180604001604052808473ffffffffffffffffffffffffffffffffffffffff16815260200142815250908060018154018082558091505060019003905f5260205f2090600202015f909190919091505f820151815f015f6101000a81548173ffffffffffffffffffffffffffffffffffffffff021916908373ffffffffffffffffffffffffffffffffffffffff160217905550602082015181600101555050505050565b5f819050919050565b6107508161073e565b82525050565b5f6020820190506107695f830184610747565b92915050565b5f819050919050565b6107818161076f565b82525050565b5f60208201905061079a5f830184610778565b92915050565b5f8115159050919050565b6107b4816107a0565b82525050565b5f6020820190506107cd5f8301846107ab565b92915050565b5f81519050919050565b5f82825260208201905092915050565b8281835e5f83830152505050565b5f601f19601f8301169050919050565b5f610815826107d3565b61081f81856107dd565b935061082f8185602086016107ed565b610838816107fb565b840191505092915050565b5f6020820190508181035f83015261085b818461080b565b905092915050565b5f81519050919050565b5f82825260208201905092915050565b5f819050602082019050919050565b5f73ffffffffffffffffffffffffffffffffffffffff82169050919050565b5f6108b58261088c565b9050919050565b6108c5816108ab565b82525050565b6108d48161076f565b82525050565b604082015f8201516108ee5f8501826108bc565b50602082015161090160208501826108cb565b50505050565b5f61091283836108da565b60408301905092915050565b5f602082019050919050565b5f61093482610863565b61093e818561086d565b93506109498361087d565b805f5b838110156109795781516109608882610907565b975061096b8361091e565b92505060018101905061094c565b5085935050505092915050565b5f6020820190508181035f83015261099e818461092a565b905092915050565b6109af816108ab565b82525050565b5f6020820190506109c85f8301846109a6565b92915050565b5f5ffd5b6109db816108ab565b81146109e5575f5ffd5b50565b5f813590506109f6816109d2565b92915050565b5f60208284031215610a1157610a106109ce565b5b5f610a1e848285016109e8565b91505092915050565b7f4e487b71000000000000000000000000000000000000000000000000000000005f52602260045260245ffd5b5f6002820490506001821680610a6b57607f821691505b602082108103610a7e57610a7d610a27565b5b5091905056fea26469706673582212200470f9dfd0551d79d38eecb184fd1c4941df79a2d36f03fb6012883e308f9a4064736f6c634300081e0033a2646970667358221220e1cfeefe95a2e0abda66e75368d7f1a8aabed752df5af9369560832538c9525164736f6c634300081e0033",
			"opcodes": "PUSH1 0x80 PUSH1 0x40 MSTORE CALLVALUE DUP1 ISZERO PUSH1 0xE JUMPI PUSH0 PUSH0 REVERT JUMPDEST POP PUSH2 0x1E5A DUP1 PUSH2 0x1C PUSH0 CODECOPY PUSH0 RETURN INVALID PUSH1 0x80 PUSH1 0x40 MSTORE CALLVALUE DUP1 ISZERO PUSH2 0xF JUMPI PUSH0 PUSH0 REVERT JUMPDEST POP PUSH1 0x4 CALLDATASIZE LT PUSH2 0x3F JUMPI PUSH0 CALLDATALOAD PUSH1 0xE0 SHR DUP1 PUSH4 0x17EF8257 EQ PUSH2 0x43 JUMPI DUP1 PUSH4 0x2CA5FEA7 EQ PUSH2 0x73 JUMPI DUP1 PUSH4 0xC839131C EQ PUSH2 0x8F JUMPI JUMPDEST PUSH0 PUSH0 REVERT JUMPDEST PUSH2 0x5D PUSH1 0x4 DUP1 CALLDATASIZE SUB DUP2 ADD SWAP1 PUSH2 0x58 SWAP2 SWAP1 PUSH2 0x3B5 JUMP JUMPDEST PUSH2 0xBF JUMP JUMPDEST PUSH1 0x40 MLOAD PUSH2 0x6A SWAP2 SWAP1 PUSH2 0x3F8 JUMP JUMPDEST PUSH1 0x40 MLOAD DUP1 SWAP2 SUB SWAP1 RETURN JUMPDEST PUSH2 0x8D PUSH1 0x4 DUP1 CALLDATASIZE SUB DUP2 ADD SWAP1 PUSH2 0x88 SWAP2 SWAP1 PUSH2 0x580 JUMP JUMPDEST PUSH2 0x105 JUMP JUMPDEST STOP JUMPDEST PUSH2 0xA9 PUSH1 0x4 DUP1 CALLDATASIZE SUB DUP2 ADD SWAP1 PUSH2 0xA4 SWAP2 SWAP1 PUSH2 0x5DA JUMP JUMPDEST PUSH2 0x305 JUMP JUMPDEST PUSH1 0x40 MLOAD PUSH2 0xB6 SWAP2 SWAP1 PUSH2 0x614 JUMP JUMPDEST PUSH1 0x40 MLOAD DUP1 SWAP2 SUB SWAP1 RETURN JUMPDEST PUSH0 PUSH1 0x1 PUSH0 DUP4 PUSH20 0xFFFFFFFFFFFFFFFFFFFFFFFFFFFFFFFFFFFFFFFF AND PUSH20 0xFFFFFFFFFFFFFFFFFFFFFFFFFFFFFFFFFFFFFFFF AND DUP2 MSTORE PUSH1 0x20 ADD SWAP1 DUP2 MSTORE PUSH1 0x20 ADD PUSH0 KECCAK256 SLOAD SWAP1 POP SWAP2 SWAP1 POP JUMP JUMPDEST PUSH0 PUSH1 0x1 PUSH0 CALLER PUSH20 0xFFFFFFFFFFFFFFFFFFFFFFFFFFFFFFFFFFFFFFFF AND PUSH20 0xFFFFFFFFFFFFFFFFFFFFFFFFFFFFFFFFFFFFFFFF AND DUP2 MSTORE PUSH1 0x20 ADD SWAP1 DUP2 MSTORE PUSH1 0x20 ADD PUSH0 KECCAK256 PUSH0 DUP2 SLOAD PUSH2 0x14F SWAP1 PUSH2 0x65A JUMP JUMPDEST SWAP2 SWAP1 POP DUP2 SWAP1 SSTORE SWAP1 POP PUSH0 CALLER DUP3 DUP6 CHAINID PUSH1 0x40 MLOAD PUSH1 0x20 ADD PUSH2 0x16F SWAP5 SWAP4 SWAP3 SWAP2 SWAP1 PUSH2 0x726 JUMP JUMPDEST PUSH1 0x40 MLOAD PUSH1 0x20 DUP2 DUP4 SUB SUB DUP2 MSTORE SWAP1 PUSH1 0x40 MSTORE DUP1 MLOAD SWAP1 PUSH1 0x20 ADD KECCAK256 SWAP1 POP PUSH0 ADDRESS DUP3 CALLER CALLER DUP8 PUSH1 0x40 MLOAD PUSH2 0x199 SWAP1 PUSH2 0x33D JUMP JUMPDEST PUSH2 0x1A7 SWAP6 SWAP5 SWAP4 SWAP3 SWAP2 SWAP1 PUSH2 0x7E2 JUMP JUMPDEST PUSH1 0x40 MLOAD DUP1 SWAP2 SUB SWAP1 PUSH0 CREATE DUP1 ISZERO DUP1 ISZERO PUSH2 0x1C0 JUMPI RETURNDATASIZE PUSH0 PUSH0 RETURNDATACOPY RETURNDATASIZE PUSH0 REVERT JUMPDEST POP SWAP1 POP PUSH0 PUSH20 0xFFFFFFFFFFFFFFFFFFFFFFFFFFFFFFFFFFFFFFFF AND PUSH0 PUSH0 DUP5 DUP2 MSTORE PUSH1 0x20 ADD SWAP1 DUP2 MSTORE PUSH1 0x20 ADD PUSH0 KECCAK256 PUSH0 SWAP1 SLOAD SWAP1 PUSH2 0x100 EXP SWAP1 DIV PUSH20 0xFFFFFFFFFFFFFFFFFFFFFFFFFFFFFFFFFFFFFFFF AND PUSH20 0xFFFFFFFFFFFFFFFFFFFFFFFFFFFFFFFFFFFFFFFF AND EQ PUSH2 0x260 JUMPI PUSH1 0x40 MLOAD PUSH32 0x8C379A000000000000000000000000000000000000000000000000000000000 DUP2 MSTORE PUSH1 0x4 ADD PUSH2 0x257 SWAP1 PUSH2 0x884 JUMP JUMPDEST PUSH1 0x40 MLOAD DUP1 SWAP2 SUB SWAP1 REVERT JUMPDEST DUP1 PUSH0 PUSH0 DUP5 DUP2 MSTORE PUSH1 0x20 ADD SWAP1 DUP2 MSTORE PUSH1 0x20 ADD PUSH0 KECCAK256 PUSH0 PUSH2 0x100 EXP DUP2 SLOAD DUP2 PUSH20 0xFFFFFFFFFFFFFFFFFFFFFFFFFFFFFFFFFFFFFFFF MUL NOT AND SWAP1 DUP4 PUSH20 0xFFFFFFFFFFFFFFFFFFFFFFFFFFFFFFFFFFFFFFFF AND MUL OR SWAP1 SSTORE POP DUP5 DUP3 CALLER PUSH20 0xFFFFFFFFFFFFFFFFFFFFFFFFFFFFFFFFFFFFFFFF AND PUSH32 0x29897F1D30B78E8B9808DEC25FBBB66A77BA1B89CC3B4B7A432241EB9D218712 DUP7 PUSH1 0x40 MLOAD PUSH2 0x2F6 SWAP2 SWAP1 PUSH2 0x3F8 JUMP JUMPDEST PUSH1 0x40 MLOAD DUP1 SWAP2 SUB SWAP1 LOG4 POP POP POP POP POP JUMP JUMPDEST PUSH0 PUSH0 PUSH0 DUP4 DUP2 MSTORE PUSH1 0x20 ADD SWAP1 DUP2 MSTORE PUSH1 0x20 ADD PUSH0 KECCAK256 PUSH0 SWAP1 SLOAD SWAP1 PUSH2 0x100 EXP SWAP1 DIV PUSH20 0xFFFFFFFFFFFFFFFFFFFFFFFFFFFFFFFFFFFFFFFF AND SWAP1 POP SWAP2 SWAP1 POP JUMP JUMPDEST PUSH2 0x1582 DUP1 PUSH2 0x8A3 DUP4 CODECOPY ADD SWAP1 JUMP JUMPDEST PUSH0 PUSH1 0x40 MLOAD SWAP1 POP SWAP1 JUMP JUMPDEST PUSH0 PUSH0 REVERT JUMPDEST PUSH0 PUSH0 REVERT JUMPDEST PUSH0 PUSH20 0xFFFFFFFFFFFFFFFFFFFFFFFFFFFFFFFFFFFFFFFF DUP3 AND SWAP1 POP SWAP2 SWAP1 POP JUMP JUMPDEST PUSH0 PUSH2 0x384 DUP3 PUSH2 0x35B JUMP JUMPDEST SWAP1 POP SWAP2 SWAP1 POP JUMP JUMPDEST PUSH2 0x394 DUP2 PUSH2 0x37A JUMP JUMPDEST DUP2 EQ PUSH2 0x39E JUMPI PUSH0 PUSH0 REVERT JUMPDEST POP JUMP JUMPDEST PUSH0 DUP2 CALLDATALOAD SWAP1 POP PUSH2 0x3AF DUP2 PUSH2 0x38B JUMP JUMPDEST SWAP3 SWAP2 POP POP JUMP JUMPDEST PUSH0 PUSH1 0x20 DUP3 DUP5 SUB SLT ISZERO PUSH2 0x3CA JUMPI PUSH2 0x3C9 PUSH2 0x353 JUMP JUMPDEST JUMPDEST PUSH0 PUSH2 0x3D7 DUP5 DUP3 DUP6 ADD PUSH2 0x3A1 JUMP JUMPDEST SWAP2 POP POP SWAP3 SWAP2 POP POP JUMP JUMPDEST PUSH0 DUP2 SWAP1 POP SWAP2 SWAP1 POP JUMP JUMPDEST PUSH2 0x3F2 DUP2 PUSH2 0x3E0 JUMP JUMPDEST DUP3 MSTORE POP POP JUMP JUMPDEST PUSH0 PUSH1 0x20 DUP3 ADD SWAP1 POP PUSH2 0x40B PUSH0 DUP4 ADD DUP5 PUSH2 0x3E9 JUMP JUMPDEST SWAP3 SWAP2 POP POP JUMP JUMPDEST PUSH0 DUP2 SWAP1 POP SWAP2 SWAP1 POP JUMP JUMPDEST PUSH2 0x423 DUP2 PUSH2 0x411 JUMP JUMPDEST DUP2 EQ PUSH2 0x42D JUMPI PUSH0 PUSH0 REVERT JUMPDEST POP JUMP JUMPDEST PUSH0 DUP2 CALLDATALOAD SWAP1 POP PUSH2 0x43E DUP2 PUSH2 0x41A JUMP JUMPDEST SWAP3 SWAP2 POP POP JUMP JUMPDEST PUSH0 PUSH0 REVERT JUMPDEST PUSH0 PUSH0 REVERT JUMPDEST PUSH0 PUSH1 0x1F NOT PUSH1 0x1F DUP4 ADD AND SWAP1 POP SWAP2 SWAP1 POP JUMP JUMPDEST PUSH32 0x4E487B7100000000000000000000000000000000000000000000000000000000 PUSH0 MSTORE PUSH1 0x41 PUSH1 0x4 MSTORE PUSH1 0x24 PUSH0 REVERT JUMPDEST PUSH2 0x492 DUP3 PUSH2 0x44C JUMP JUMPDEST DUP2 ADD DUP2 DUP2 LT PUSH8 0xFFFFFFFFFFFFFFFF DUP3 GT OR ISZERO PUSH2 0x4B1 JUMPI PUSH2 0x4B0 PUSH2 0x45C JUMP JUMPDEST JUMPDEST DUP1 PUSH1 0x40 MSTORE POP POP POP JUMP JUMPDEST PUSH0 PUSH2 0x4C3 PUSH2 0x34A JUMP JUMPDEST SWAP1 POP PUSH2 0x4CF DUP3 DUP3 PUSH2 0x489 JUMP JUMPDEST SWAP2 SWAP1 POP JUMP JUMPDEST PUSH0 PUSH8 0xFFFFFFFFFFFFFFFF DUP3 GT ISZERO PUSH2 0x4EE JUMPI PUSH2 0x4ED PUSH2 0x45C JUMP JUMPDEST JUMPDEST PUSH2 0x4F7 DUP3 PUSH2 0x44C JUMP JUMPDEST SWAP1 POP PUSH1 0x20 DUP2 ADD SWAP1 POP SWAP2 SWAP1 POP JUMP JUMPDEST DUP3 DUP2 DUP4 CALLDATACOPY PUSH0 DUP4 DUP4 ADD MSTORE POP POP POP JUMP JUMPDEST PUSH0 PUSH2 0x524 PUSH2 0x51F DUP5 PUSH2 0x4D4 JUMP JUMPDEST PUSH2 0x4BA JUMP JUMPDEST SWAP1 POP DUP3 DUP2 MSTORE PUSH1 0x20 DUP2 ADD DUP5 DUP5 DUP5 ADD GT ISZERO PUSH2 0x540 JUMPI PUSH2 0x53F PUSH2 0x448 JUMP JUMPDEST JUMPDEST PUSH2 0x54B DUP5 DUP3 DUP6 PUSH2 0x504 JUMP JUMPDEST POP SWAP4 SWAP3 POP POP POP JUMP JUMPDEST PUSH0 DUP3 PUSH1 0x1F DUP4 ADD SLT PUSH2 0x567 JUMPI PUSH2 0x566 PUSH2 0x444 JUMP JUMPDEST JUMPDEST DUP2 CALLDATALOAD PUSH2 0x577 DUP5 DUP3 PUSH1 0x20 DUP7 ADD PUSH2 0x512 JUMP JUMPDEST SWAP2 POP POP SWAP3 SWAP2 POP POP JUMP JUMPDEST PUSH0 PUSH0 PUSH1 0x40 DUP4 DUP6 SUB SLT ISZERO PUSH2 0x596 JUMPI PUSH2 0x595 PUSH2 0x353 JUMP JUMPDEST JUMPDEST PUSH0 PUSH2 0x5A3 DUP6 DUP3 DUP7 ADD PUSH2 0x430 JUMP JUMPDEST SWAP3 POP POP PUSH1 0x20 DUP4 ADD CALLDATALOAD PUSH8 0xFFFFFFFFFFFFFFFF DUP2 GT ISZERO PUSH2 0x5C4 JUMPI PUSH2 0x5C3 PUSH2 0x357 JUMP JUMPDEST JUMPDEST PUSH2 0x5D0 DUP6 DUP3 DUP7 ADD PUSH2 0x553 JUMP JUMPDEST SWAP2 POP POP SWAP3 POP SWAP3 SWAP1 POP JUMP JUMPDEST PUSH0 PUSH1 0x20 DUP3 DUP5 SUB SLT ISZERO PUSH2 0x5EF JUMPI PUSH2 0x5EE PUSH2 0x353 JUMP JUMPDEST JUMPDEST PUSH0 PUSH2 0x5FC DUP5 DUP3 DUP6 ADD PUSH2 0x430 JUMP JUMPDEST SWAP2 POP POP SWAP3 SWAP2 POP POP JUMP JUMPDEST PUSH2 0x60E DUP2 PUSH2 0x37A JUMP JUMPDEST DUP3 MSTORE POP POP JUMP JUMPDEST PUSH0 PUSH1 0x20 DUP3 ADD SWAP1 POP PUSH2 0x627 PUSH0 DUP4 ADD DUP5 PUSH2 0x605 JUMP JUMPDEST SWAP3 SWAP2 POP POP JUMP JUMPDEST PUSH32 0x4E487B7100000000000000000000000000000000000000000000000000000000 PUSH0 MSTORE PUSH1 0x11 PUSH1 0x4 MSTORE PUSH1 0x24 PUSH0 REVERT JUMPDEST PUSH0 PUSH2 0x664 DUP3 PUSH2 0x3E0 JUMP JUMPDEST SWAP2 POP PUSH32 0xFFFFFFFFFFFFFFFFFFFFFFFFFFFFFFFFFFFFFFFFFFFFFFFFFFFFFFFFFFFFFFFF DUP3 SUB PUSH2 0x696 JUMPI PUSH2 0x695 PUSH2 0x62D JUMP JUMPDEST JUMPDEST PUSH1 0x1 DUP3 ADD SWAP1 POP SWAP2 SWAP1 POP JUMP JUMPDEST PUSH0 DUP2 PUSH1 0x60 SHL SWAP1 POP SWAP2 SWAP1 POP JUMP JUMPDEST PUSH0 PUSH2 0x6B7 DUP3 PUSH2 0x6A1 JUMP JUMPDEST SWAP1 POP SWAP2 SWAP1 POP JUMP JUMPDEST PUSH0 PUSH2 0x6C8 DUP3 PUSH2 0x6AD JUMP JUMPDEST SWAP1 POP SWAP2 SWAP1 POP JUMP JUMPDEST PUSH2 0x6E0 PUSH2 0x6DB DUP3 PUSH2 0x37A JUMP JUMPDEST PUSH2 0x6BE JUMP JUMPDEST DUP3 MSTORE POP POP JUMP JUMPDEST PUSH0 DUP2 SWAP1 POP SWAP2 SWAP1 POP JUMP JUMPDEST PUSH2 0x700 PUSH2 0x6FB DUP3 PUSH2 0x3E0 JUMP JUMPDEST PUSH2 0x6E6 JUMP JUMPDEST DUP3 MSTORE POP POP JUMP JUMPDEST PUSH0 DUP2 SWAP1 POP SWAP2 SWAP1 POP JUMP JUMPDEST PUSH2 0x720 PUSH2 0x71B DUP3 PUSH2 0x411 JUMP JUMPDEST PUSH2 0x706 JUMP JUMPDEST DUP3 MSTORE POP POP JUMP JUMPDEST PUSH0 PUSH2 0x731 DUP3 DUP8 PUSH2 0x6CF JUMP JUMPDEST PUSH1 0x14 DUP3 ADD SWAP2 POP PUSH2 0x741 DUP3 DUP7 PUSH2 0x6EF JUMP JUMPDEST PUSH1 0x20 DUP3 ADD SWAP2 POP PUSH2 0x751 DUP3 DUP6 PUSH2 0x70F JUMP JUMPDEST PUSH1 0x20 DUP3 ADD SWAP2 POP PUSH2 0x761 DUP3 DUP5 PUSH2 0x6EF JUMP JUMPDEST PUSH1 0x20 DUP3 ADD SWAP2 POP DUP2 SWAP1 POP SWAP6 SWAP5 POP POP POP POP POP JUMP JUMPDEST PUSH2 0x77C DUP2 PUSH2 0x411 JUMP JUMPDEST DUP3 MSTORE POP POP JUMP JUMPDEST PUSH0 DUP2 MLOAD SWAP1 POP SWAP2 SWAP1 POP JUMP JUMPDEST PUSH0 DUP3 DUP3 MSTORE PUSH1 0x20 DUP3 ADD SWAP1 POP SWAP3 SWAP2 POP POP JUMP JUMPDEST DUP3 DUP2 DUP4 MCOPY PUSH0 DUP4 DUP4 ADD MSTORE POP POP POP JUMP JUMPDEST PUSH0 PUSH2 0x7B4 DUP3 PUSH2 0x782 JUMP JUMPDEST PUSH2 0x7BE DUP2 DUP6 PUSH2 0x78C JUMP JUMPDEST SWAP4 POP PUSH2 0x7CE DUP2 DUP6 PUSH1 0x20 DUP7 ADD PUSH2 0x79C JUMP JUMPDEST PUSH2 0x7D7 DUP2 PUSH2 0x44C JUMP JUMPDEST DUP5 ADD SWAP2 POP POP SWAP3 SWAP2 POP POP JUMP JUMPDEST PUSH0 PUSH1 0xA0 DUP3 ADD SWAP1 POP PUSH2 0x7F5 PUSH0 DUP4 ADD DUP9 PUSH2 0x605 JUMP JUMPDEST PUSH2 0x802 PUSH1 0x20 DUP4 ADD DUP8 PUSH2 0x773 JUMP JUMPDEST PUSH2 0x80F PUSH1 0x40 DUP4 ADD DUP7 PUSH2 0x605 JUMP JUMPDEST PUSH2 0x81C PUSH1 0x60 DUP4 ADD DUP6 PUSH2 0x605 JUMP JUMPDEST DUP2 DUP2 SUB PUSH1 0x80 DUP4 ADD MSTORE PUSH2 0x82E DUP2 DUP5 PUSH2 0x7AA JUMP JUMPDEST SWAP1 POP SWAP7 SWAP6 POP POP POP POP POP POP JUMP JUMPDEST PUSH32 0x45766964656E636520494420616C726561647920657869737473000000000000 PUSH0 DUP3 ADD MSTORE POP JUMP JUMPDEST PUSH0 PUSH2 0x86E PUSH1 0x1A DUP4 PUSH2 0x78C JUMP JUMPDEST SWAP2 POP PUSH2 0x879 DUP3 PUSH2 0x83A JUMP JUMPDEST PUSH1 0x20 DUP3 ADD SWAP1 POP SWAP2 SWAP1 POP JUMP JUMPDEST PUSH0 PUSH1 0x20 DUP3 ADD SWAP1 POP DUP2 DUP2 SUB PUSH0 DUP4 ADD MSTORE PUSH2 0x89B DUP2 PUSH2 0x862 JUMP JUMPDEST SWAP1 POP SWAP2 SWAP1 POP JUMP INVALID PUSH2 0x100 PUSH1 0x40 MSTORE PUSH1 0x1 PUSH1 0x4 PUSH0 PUSH2 0x100 EXP DUP2 SLOAD DUP2 PUSH1 0xFF MUL NOT AND SWAP1 DUP4 ISZERO ISZERO MUL OR SWAP1 SSTORE POP CALLVALUE DUP1 ISZERO PUSH2 0x2A JUMPI PUSH0 PUSH0 REVERT JUMPDEST POP PUSH1 0x40 MLOAD PUSH2 0x1582 CODESIZE SUB DUP1 PUSH2 0x1582 DUP4 CODECOPY DUP2 DUP2 ADD PUSH1 0x40 MSTORE DUP2 ADD SWAP1 PUSH2 0x4C SWAP2 SWAP1 PUSH2 0x55E JUMP JUMPDEST DUP5 PUSH20 0xFFFFFFFFFFFFFFFFFFFFFFFFFFFFFFFFFFFFFFFF AND CALLER PUSH20 0xFFFFFFFFFFFFFFFFFFFFFFFFFFFFFFFFFFFFFFFF AND EQ PUSH2 0xB1 JUMPI PUSH1 0x40 MLOAD PUSH32 0x2D102AA100000000000000000000000000000000000000000000000000000000 DUP2 MSTORE PUSH1 0x4 ADD PUSH1 0x40 MLOAD DUP1 SWAP2 SUB SWAP1 REVERT JUMPDEST DUP3 PUSH20 0xFFFFFFFFFFFFFFFFFFFFFFFFFFFFFFFFFFFFFFFF AND DUP3 PUSH20 0xFFFFFFFFFFFFFFFFFFFFFFFFFFFFFFFFFFFFFFFF AND EQ PUSH2 0x116 JUMPI PUSH1 0x40 MLOAD PUSH32 0xDC0971B00000000000000000000000000000000000000000000000000000000 DUP2 MSTORE PUSH1 0x4 ADD PUSH1 0x40 MLOAD DUP1 SWAP2 SUB SWAP1 REVERT JUMPDEST PUSH0 PUSH20 0xFFFFFFFFFFFFFFFFFFFFFFFFFFFFFFFFFFFFFFFF AND DUP4 PUSH20 0xFFFFFFFFFFFFFFFFFFFFFFFFFFFFFFFFFFFFFFFF AND SUB PUSH2 0x184 JUMPI PUSH1 0x40 MLOAD PUSH32 0x8C379A000000000000000000000000000000000000000000000000000000000 DUP2 MSTORE PUSH1 0x4 ADD PUSH2 0x17B SWAP1 PUSH2 0x671 JUMP JUMPDEST PUSH1 0x40 MLOAD DUP1 SWAP2 SUB SWAP1 REVERT JUMPDEST PUSH0 PUSH0 SHL DUP5 SUB PUSH2 0x1C8 JUMPI PUSH1 0x40 MLOAD PUSH32 0x8C379A000000000000000000000000000000000000000000000000000000000 DUP2 MSTORE PUSH1 0x4 ADD PUSH2 0x1BF SWAP1 PUSH2 0x6FF JUMP JUMPDEST PUSH1 0x40 MLOAD DUP1 SWAP2 SUB SWAP1 REVERT JUMPDEST PUSH0 DUP2 MLOAD SUB PUSH2 0x20B JUMPI PUSH1 0x40 MLOAD PUSH32 0x8C379A000000000000000000000000000000000000000000000000000000000 DUP2 MSTORE PUSH1 0x4 ADD PUSH2 0x202 SWAP1 PUSH2 0x78D JUMP JUMPDEST PUSH1 0x40 MLOAD DUP1 SWAP2 SUB SWAP1 REVERT JUMPDEST DUP5 PUSH20 0xFFFFFFFFFFFFFFFFFFFFFFFFFFFFFFFFFFFFFFFF AND PUSH1 0x80 DUP2 PUSH20 0xFFFFFFFFFFFFFFFFFFFFFFFFFFFFFFFFFFFFFFFF AND DUP2 MSTORE POP POP DUP3 PUSH20 0xFFFFFFFFFFFFFFFFFFFFFFFFFFFFFFFFFFFFFFFF AND PUSH1 0xA0 DUP2 PUSH20 0xFFFFFFFFFFFFFFFFFFFFFFFFFFFFFFFFFFFFFFFF AND DUP2 MSTORE POP POP PUSH1 0xA0 MLOAD PUSH1 0x1 PUSH0 PUSH2 0x100 EXP DUP2 SLOAD DUP2 PUSH20 0xFFFFFFFFFFFFFFFFFFFFFFFFFFFFFFFFFFFFFFFF MUL NOT AND SWAP1 DUP4 PUSH20 0xFFFFFFFFFFFFFFFFFFFFFFFFFFFFFFFFFFFFFFFF AND MUL OR SWAP1 SSTORE POP TIMESTAMP PUSH1 0xE0 DUP2 DUP2 MSTORE POP POP PUSH1 0x2 PUSH1 0x40 MLOAD DUP1 PUSH1 0x40 ADD PUSH1 0x40 MSTORE DUP1 DUP6 PUSH20 0xFFFFFFFFFFFFFFFFFFFFFFFFFFFFFFFFFFFFFFFF AND DUP2 MSTORE PUSH1 0x20 ADD PUSH1 0xE0 MLOAD DUP2 MSTORE POP SWAP1 DUP1 PUSH1 0x1 DUP2 SLOAD ADD DUP1 DUP3 SSTORE DUP1 SWAP2 POP POP PUSH1 0x1 SWAP1 SUB SWAP1 PUSH0 MSTORE PUSH1 0x20 PUSH0 KECCAK256 SWAP1 PUSH1 0x2 MUL ADD PUSH0 SWAP1 SWAP2 SWAP1 SWAP2 SWAP1 SWAP2 POP PUSH0 DUP3 ADD MLOAD DUP2 PUSH0 ADD PUSH0 PUSH2 0x100 EXP DUP2 SLOAD DUP2 PUSH20 0xFFFFFFFFFFFFFFFFFFFFFFFFFFFFFFFFFFFFFFFF MUL NOT AND SWAP1 DUP4 PUSH20 0xFFFFFFFFFFFFFFFFFFFFFFFFFFFFFFFFFFFFFFFF AND MUL OR SWAP1 SSTORE POP PUSH1 0x20 DUP3 ADD MLOAD DUP2 PUSH1 0x1 ADD SSTORE POP POP DUP4 PUSH1 0xC0 DUP2 DUP2 MSTORE POP POP DUP1 PUSH1 0x3 SWAP1 DUP2 PUSH2 0x379 SWAP2 SWAP1 PUSH2 0x9BB JUMP JUMPDEST POP POP POP POP POP POP PUSH2 0xA8A JUMP JUMPDEST PUSH0 PUSH1 0x40 MLOAD SWAP1 POP SWAP1 JUMP JUMPDEST PUSH0 PUSH0 REVERT JUMPDEST PUSH0 PUSH0 REVERT JUMPDEST PUSH0 PUSH20 0xFFFFFFFFFFFFFFFFFFFFFFFFFFFFFFFFFFFFFFFF DUP3 AND SWAP1 POP SWAP2 SWAP1 POP JUMP JUMPDEST PUSH0 PUSH2 0x3BE DUP3 PUSH2 0x395 JUMP JUMPDEST SWAP1 POP SWAP2 SWAP1 POP JUMP JUMPDEST PUSH2 0x3CE DUP2 PUSH2 0x3B4 JUMP JUMPDEST DUP2 EQ PUSH2 0x3D8 JUMPI PUSH0 PUSH0 REVERT JUMPDEST POP JUMP JUMPDEST PUSH0 DUP2 MLOAD SWAP1 POP PUSH2 0x3E9 DUP2 PUSH2 0x3C5 JUMP JUMPDEST SWAP3 SWAP2 POP POP JUMP JUMPDEST PUSH0 DUP2 SWAP1 POP SWAP2 SWAP1 POP JUMP JUMPDEST PUSH2 0x401 DUP2 PUSH2 0x3EF JUMP JUMPDEST DUP2 EQ PUSH2 0x40B JUMPI PUSH0 PUSH0 REVERT JUMPDEST POP JUMP JUMPDEST PUSH0 DUP2 MLOAD SWAP1 POP PUSH2 0x41C DUP2 PUSH2 0x3F8 JUMP JUMPDEST SWAP3 SWAP2 POP POP JUMP JUMPDEST PUSH0 PUSH0 REVERT JUMPDEST PUSH0 PUSH0 REVERT JUMPDEST PUSH0 PUSH1 0x1F NOT PUSH1 0x1F DUP4 ADD AND SWAP1 POP SWAP2 SWAP1 POP JUMP JUMPDEST PUSH32 0x4E487B7100000000000000000000000000000000000000000000000000000000 PUSH0 MSTORE PUSH1 0x41 PUSH1 0x4 MSTORE PUSH1 0x24 PUSH0 REVERT JUMPDEST PUSH2 0x470 DUP3 PUSH2 0x42A JUMP JUMPDEST DUP2 ADD DUP2 DUP2 LT PUSH8 0xFFFFFFFFFFFFFFFF DUP3 GT OR ISZERO PUSH2 0x48F JUMPI PUSH2 0x48E PUSH2 0x43A JUMP JUMPDEST JUMPDEST DUP1 PUSH1 0x40 MSTORE POP POP POP JUMP JUMPDEST PUSH0 PUSH2 0x4A1 PUSH2 0x384 JUMP JUMPDEST SWAP1 POP PUSH2 0x4AD DUP3 DUP3 PUSH2 0x467 JUMP JUMPDEST SWAP2 SWAP1 POP JUMP JUMPDEST PUSH0 PUSH8 0xFFFFFFFFFFFFFFFF DUP3 GT ISZERO PUSH2 0x4CC JUMPI PUSH2 0x4CB PUSH2 0x43A JUMP JUMPDEST JUMPDEST PUSH2 0x4D5 DUP3 PUSH2 0x42A JUMP JUMPDEST SWAP1 POP PUSH1 0x20 DUP2 ADD SWAP1 POP SWAP2 SWAP1 POP JUMP JUMPDEST DUP3 DUP2 DUP4 MCOPY PUSH0 DUP4 DUP4 ADD MSTORE POP POP POP JUMP JUMPDEST PUSH0 PUSH2 0x502 PUSH2 0x4FD DUP5 PUSH2 0x4B2 JUMP JUMPDEST PUSH2 0x498 JUMP JUMPDEST SWAP1 POP DUP3 DUP2 MSTORE PUSH1 0x20 DUP2 ADD DUP5 DUP5 DUP5 ADD GT ISZERO PUSH2 0x51E JUMPI PUSH2 0x51D PUSH2 0x426 JUMP JUMPDEST JUMPDEST PUSH2 0x529 DUP5 DUP3 DUP6 PUSH2 0x4E2 JUMP JUMPDEST POP SWAP4 SWAP3 POP POP POP JUMP JUMPDEST PUSH0 DUP3 PUSH1 0x1F DUP4 ADD SLT PUSH2 0x545 JUMPI PUSH2 0x544 PUSH2 0x422 JUMP JUMPDEST JUMPDEST DUP2 MLOAD PUSH2 0x555 DUP5 DUP3 PUSH1 0x20 DUP7 ADD PUSH2 0x4F0 JUMP JUMPDEST SWAP2 POP POP SWAP3 SWAP2 POP POP JUMP JUMPDEST PUSH0 PUSH0 PUSH0 PUSH0 PUSH0 PUSH1 0xA0 DUP7 DUP9 SUB SLT ISZERO PUSH2 0x577 JUMPI PUSH2 0x576 PUSH2 0x38D JUMP JUMPDEST JUMPDEST PUSH0 PUSH2 0x584 DUP9 DUP3 DUP10 ADD PUSH2 0x3DB JUMP JUMPDEST SWAP6 POP POP PUSH1 0x20 PUSH2 0x595 DUP9 DUP3 DUP10 ADD PUSH2 0x40E JUMP JUMPDEST SWAP5 POP POP PUSH1 0x40 PUSH2 0x5A6 DUP9 DUP3 DUP10 ADD PUSH2 0x3DB JUMP JUMPDEST SWAP4 POP POP PUSH1 0x60 PUSH2 0x5B7 DUP9 DUP3 DUP10 ADD PUSH2 0x3DB JUMP JUMPDEST SWAP3 POP POP PUSH1 0x80 DUP7 ADD MLOAD PUSH8 0xFFFFFFFFFFFFFFFF DUP2 GT ISZERO PUSH2 0x5D8 JUMPI PUSH2 0x5D7 PUSH2 0x391 JUMP JUMPDEST JUMPDEST PUSH2 0x5E4 DUP9 DUP3 DUP10 ADD PUSH2 0x531 JUMP JUMPDEST SWAP2 POP POP SWAP3 SWAP6 POP SWAP3 SWAP6 SWAP1 SWAP4 POP JUMP JUMPDEST PUSH0 DUP3 DUP3 MSTORE PUSH1 0x20 DUP3 ADD SWAP1 POP SWAP3 SWAP2 POP POP JUMP JUMPDEST PUSH32 0x496E76616C69642043726561746F723A2063616E6E6F74206265207A65726F20 PUSH0 DUP3 ADD MSTORE PUSH32 0x6164647265737300000000000000000000000000000000000000000000000000 PUSH1 0x20 DUP3 ADD MSTORE POP JUMP JUMPDEST PUSH0 PUSH2 0x65B PUSH1 0x27 DUP4 PUSH2 0x5F1 JUMP JUMPDEST SWAP2 POP PUSH2 0x666 DUP3 PUSH2 0x601 JUMP JUMPDEST PUSH1 0x40 DUP3 ADD SWAP1 POP SWAP2 SWAP1 POP JUMP JUMPDEST PUSH0 PUSH1 0x20 DUP3 ADD SWAP1 POP DUP2 DUP2 SUB PUSH0 DUP4 ADD MSTORE PUSH2 0x688 DUP2 PUSH2 0x64F JUMP JUMPDEST SWAP1 POP SWAP2 SWAP1 POP JUMP JUMPDEST PUSH32 0x496E76616C69642065766964656E63652049443A2049442063616E6E6F742062 PUSH0 DUP3 ADD MSTORE PUSH32 0x6520656D70747900000000000000000000000000000000000000000000000000 PUSH1 0x20 DUP3 ADD MSTORE POP JUMP JUMPDEST PUSH0 PUSH2 0x6E9 PUSH1 0x27 DUP4 PUSH2 0x5F1 JUMP JUMPDEST SWAP2 POP PUSH2 0x6F4 DUP3 PUSH2 0x68F JUMP JUMPDEST PUSH1 0x40 DUP3 ADD SWAP1 POP SWAP2 SWAP1 POP JUMP JUMPDEST PUSH0 PUSH1 0x20 DUP3 ADD SWAP1 POP DUP2 DUP2 SUB PUSH0 DUP4 ADD MSTORE PUSH2 0x716 DUP2 PUSH2 0x6DD JUMP JUMPDEST SWAP1 POP SWAP2 SWAP1 POP JUMP JUMPDEST PUSH32 0x496E76616C6964206465736372697074696F6E3A206465736372697074696F6E PUSH0 DUP3 ADD MSTORE PUSH32 0x2063616E6E6F7420626520656D70747900000000000000000000000000000000 PUSH1 0x20 DUP3 ADD MSTORE POP JUMP JUMPDEST PUSH0 PUSH2 0x777 PUSH1 0x30 DUP4 PUSH2 0x5F1 JUMP JUMPDEST SWAP2 POP PUSH2 0x782 DUP3 PUSH2 0x71D JUMP JUMPDEST PUSH1 0x40 DUP3 ADD SWAP1 POP SWAP2 SWAP1 POP JUMP JUMPDEST PUSH0 PUSH1 0x20 DUP3 ADD SWAP1 POP DUP2 DUP2 SUB PUSH0 DUP4 ADD MSTORE PUSH2 0x7A4 DUP2 PUSH2 0x76B JUMP JUMPDEST SWAP1 POP SWAP2 SWAP1 POP JUMP JUMPDEST PUSH0 DUP2 MLOAD SWAP1 POP SWAP2 SWAP1 POP JUMP JUMPDEST PUSH32 0x4E487B7100000000000000000000000000000000000000000000000000000000 PUSH0 MSTORE PUSH1 0x22 PUSH1 0x4 MSTORE PUSH1 0x24 PUSH0 REVERT JUMPDEST PUSH0 PUSH1 0x2 DUP3 DIV SWAP1 POP PUSH1 0x1 DUP3 AND DUP1 PUSH2 0x7F9 JUMPI PUSH1 0x7F DUP3 AND SWAP2 POP JUMPDEST PUSH1 0x20 DUP3 LT DUP2 SUB PUSH2 0x80C JUMPI PUSH2 0x80B PUSH2 0x7B5 JUMP JUMPDEST JUMPDEST POP SWAP2 SWAP1 POP JUMP JUMPDEST PUSH0 DUP2 SWAP1 POP DUP2 PUSH0 MSTORE PUSH1 0x20 PUSH0 KECCAK256 SWAP1 POP SWAP2 SWAP1 POP JUMP JUMPDEST PUSH0 PUSH1 0x20 PUSH1 0x1F DUP4 ADD DIV SWAP1 POP SWAP2 SWAP1 POP JUMP JUMPDEST PUSH0 DUP3 DUP3 SHL SWAP1 POP SWAP3 SWAP2 POP POP JUMP JUMPDEST PUSH0 PUSH1 0x8 DUP4 MUL PUSH2 0x86E PUSH32 0xFFFFFFFFFFFFFFFFFFFFFFFFFFFFFFFFFFFFFFFFFFFFFFFFFFFFFFFFFFFFFFFF DUP3 PUSH2 0x833 JUMP JUMPDEST PUSH2 0x878 DUP7 DUP4 PUSH2 0x833 JUMP JUMPDEST SWAP6 POP DUP1 NOT DUP5 AND SWAP4 POP DUP1 DUP7 AND DUP5 OR SWAP3 POP POP POP SWAP4 SWAP3 POP POP POP JUMP JUMPDEST PUSH0 DUP2 SWAP1 POP SWAP2 SWAP1 POP JUMP JUMPDEST PUSH0 DUP2 SWAP1 POP SWAP2 SWAP1 POP JUMP JUMPDEST PUSH0 PUSH2 0x8BC PUSH2 0x8B7 PUSH2 0x8B2 DUP5 PUSH2 0x890 JUMP JUMPDEST PUSH2 0x899 JUMP JUMPDEST PUSH2 0x890 JUMP JUMPDEST SWAP1 POP SWAP2 SWAP1 POP JUMP JUMPDEST PUSH0 DUP2 SWAP1 POP SWAP2 SWAP1 POP JUMP JUMPDEST PUSH2 0x8D5 DUP4 PUSH2 0x8A2 JUMP JUMPDEST PUSH2 0x8E9 PUSH2 0x8E1 DUP3 PUSH2 0x8C3 JUMP JUMPDEST DUP5 DUP5 SLOAD PUSH2 0x83F JUMP JUMPDEST DUP3 SSTORE POP POP POP POP JUMP JUMPDEST PUSH0 PUSH0 SWAP1 POP SWAP1 JUMP JUMPDEST PUSH2 0x900 PUSH2 0x8F1 JUMP JUMPDEST PUSH2 0x90B DUP2 DUP5 DUP5 PUSH2 0x8CC JUMP JUMPDEST POP POP POP JUMP JUMPDEST JUMPDEST DUP2 DUP2 LT ISZERO PUSH2 0x92E JUMPI PUSH2 0x923 PUSH0 DUP3 PUSH2 0x8F8 JUMP JUMPDEST PUSH1 0x1 DUP2 ADD SWAP1 POP PUSH2 0x911 JUMP JUMPDEST POP POP JUMP JUMPDEST PUSH1 0x1F DUP3 GT ISZERO PUSH2 0x973 JUMPI PUSH2 0x944 DUP2 PUSH2 0x812 JUMP JUMPDEST PUSH2 0x94D DUP5 PUSH2 0x824 JUMP JUMPDEST DUP2 ADD PUSH1 0x20 DUP6 LT ISZERO PUSH2 0x95C JUMPI DUP2 SWAP1 POP JUMPDEST PUSH2 0x970 PUSH2 0x968 DUP6 PUSH2 0x824 JUMP JUMPDEST DUP4 ADD DUP3 PUSH2 0x910 JUMP JUMPDEST POP POP JUMPDEST POP POP POP JUMP JUMPDEST PUSH0 DUP3 DUP3 SHR SWAP1 POP SWAP3 SWAP2 POP POP JUMP JUMPDEST PUSH0 PUSH2 0x993 PUSH0 NOT DUP5 PUSH1 0x8 MUL PUSH2 0x978 JUMP JUMPDEST NOT DUP1 DUP4 AND SWAP2 POP POP SWAP3 SWAP2 POP POP JUMP JUMPDEST PUSH0 PUSH2 0x9AB DUP4 DUP4 PUSH2 0x984 JUMP JUMPDEST SWAP2 POP DUP3 PUSH1 0x2 MUL DUP3 OR SWAP1 POP SWAP3 SWAP2 POP POP JUMP JUMPDEST PUSH2 0x9C4 DUP3 PUSH2 0x7AB JUMP JUMPDEST PUSH8 0xFFFFFFFFFFFFFFFF DUP2 GT ISZERO PUSH2 0x9DD JUMPI PUSH2 0x9DC PUSH2 0x43A JUMP JUMPDEST JUMPDEST PUSH2 0x9E7 DUP3 SLOAD PUSH2 0x7E2 JUMP JUMPDEST PUSH2 0x9F2 DUP3 DUP3 DUP6 PUSH2 0x932 JUMP JUMPDEST PUSH0 PUSH1 0x20 SWAP1 POP PUSH1 0x1F DUP4 GT PUSH1 0x1 DUP2 EQ PUSH2 0xA23 JUMPI PUSH0 DUP5 ISZERO PUSH2 0xA11 JUMPI DUP3 DUP8 ADD MLOAD SWAP1 POP JUMPDEST PUSH2 0xA1B DUP6 DUP3 PUSH2 0x9A0 JUMP JUMPDEST DUP7 SSTORE POP PUSH2 0xA82 JUMP JUMPDEST PUSH1 0x1F NOT DUP5 AND PUSH2 0xA31 DUP7 PUSH2 0x812 JUMP JUMPDEST PUSH0 JUMPDEST DUP3 DUP2 LT ISZERO PUSH2 0xA58 JUMPI DUP5 DUP10 ADD MLOAD DUP3 SSTORE PUSH1 0x1 DUP3 ADD SWAP2 POP PUSH1 0x20 DUP6 ADD SWAP5 POP PUSH1 0x20 DUP2 ADD SWAP1 POP PUSH2 0xA33 JUMP JUMPDEST DUP7 DUP4 LT ISZERO PUSH2 0xA75 JUMPI DUP5 DUP10 ADD MLOAD PUSH2 0xA71 PUSH1 0x1F DUP10 AND DUP3 PUSH2 0x984 JUMP JUMPDEST DUP4 SSTORE POP JUMPDEST PUSH1 0x1 PUSH1 0x2 DUP9 MUL ADD DUP9 SSTORE POP POP POP JUMPDEST POP POP POP POP POP POP JUMP JUMPDEST PUSH1 0x80 MLOAD PUSH1 0xA0 MLOAD PUSH1 0xC0 MLOAD PUSH1 0xE0 MLOAD PUSH2 0xABA PUSH2 0xAC8 PUSH0 CODECOPY PUSH0 PUSH2 0x347 ADD MSTORE PUSH0 DUP2 DUP2 PUSH2 0x1B9 ADD MSTORE PUSH2 0x3BA ADD MSTORE PUSH0 DUP2 DUP2 PUSH2 0x40A ADD MSTORE PUSH2 0x52B ADD MSTORE PUSH0 POP POP PUSH2 0xABA PUSH0 RETURN INVALID PUSH1 0x80 PUSH1 0x40 MSTORE CALLVALUE DUP1 ISZERO PUSH2 0xF JUMPI PUSH0 PUSH0 REVERT JUMPDEST POP PUSH1 0x4 CALLDATASIZE LT PUSH2 0x9C JUMPI PUSH0 CALLDATALOAD PUSH1 0xE0 SHR DUP1 PUSH4 0x60C9269D GT PUSH2 0x64 JUMPI DUP1 PUSH4 0x60C9269D EQ PUSH2 0x136 JUMPI DUP1 PUSH4 0x7CE7D376 EQ PUSH2 0x154 JUMPI DUP1 PUSH4 0x9E91BC54 EQ PUSH2 0x15E JUMPI DUP1 PUSH4 0xA18A186B EQ PUSH2 0x17C JUMPI DUP1 PUSH4 0xF2FDE38B EQ PUSH2 0x19A JUMPI PUSH2 0x9C JUMP JUMPDEST DUP1 PUSH4 0x3563F36 EQ PUSH2 0xA0 JUMPI DUP1 PUSH4 0x4E88D574 EQ PUSH2 0xBE JUMPI DUP1 PUSH4 0x4EFDC623 EQ PUSH2 0xDC JUMPI DUP1 PUSH4 0x4F7EAE94 EQ PUSH2 0xFA JUMPI DUP1 PUSH4 0x581C49A1 EQ PUSH2 0x118 JUMPI JUMPDEST PUSH0 PUSH0 REVERT JUMPDEST PUSH2 0xA8 PUSH2 0x1B6 JUMP JUMPDEST PUSH1 0x40 MLOAD PUSH2 0xB5 SWAP2 SWAP1 PUSH2 0x756 JUMP JUMPDEST PUSH1 0x40 MLOAD DUP1 SWAP2 SUB SWAP1 RETURN JUMPDEST PUSH2 0xC6 PUSH2 0x1DD JUMP JUMPDEST PUSH1 0x40 MLOAD PUSH2 0xD3 SWAP2 SWAP1 PUSH2 0x787 JUMP JUMPDEST PUSH1 0x40 MLOAD DUP1 SWAP2 SUB SWAP1 RETURN JUMPDEST PUSH2 0xE4 PUSH2 0x1E5 JUMP JUMPDEST PUSH1 0x40 MLOAD PUSH2 0xF1 SWAP2 SWAP1 PUSH2 0x7BA JUMP JUMPDEST PUSH1 0x40 MLOAD DUP1 SWAP2 SUB SWAP1 RETURN JUMPDEST PUSH2 0x102 PUSH2 0x1FA JUMP JUMPDEST PUSH1 0x40 MLOAD PUSH2 0x10F SWAP2 SWAP1 PUSH2 0x843 JUMP JUMPDEST PUSH1 0x40 MLOAD DUP1 SWAP2 SUB SWAP1 RETURN JUMPDEST PUSH2 0x120 PUSH2 0x28A JUMP JUMPDEST PUSH1 0x40 MLOAD PUSH2 0x12D SWAP2 SWAP1 PUSH2 0x986 JUMP JUMPDEST PUSH1 0x40 MLOAD DUP1 SWAP2 SUB SWAP1 RETURN JUMPDEST PUSH2 0x13E PUSH2 0x344 JUMP JUMPDEST PUSH1 0x40 MLOAD PUSH2 0x14B SWAP2 SWAP1 PUSH2 0x787 JUMP JUMPDEST PUSH1 0x40 MLOAD DUP1 SWAP2 SUB SWAP1 RETURN JUMPDEST PUSH2 0x15C PUSH2 0x36B JUMP JUMPDEST STOP JUMPDEST PUSH2 0x166 PUSH2 0x407 JUMP JUMPDEST PUSH1 0x40 MLOAD PUSH2 0x173 SWAP2 SWAP1 PUSH2 0x9B5 JUMP JUMPDEST PUSH1 0x40 MLOAD DUP1 SWAP2 SUB SWAP1 RETURN JUMPDEST PUSH2 0x184 PUSH2 0x42E JUMP JUMPDEST PUSH1 0x40 MLOAD PUSH2 0x191 SWAP2 SWAP1 PUSH2 0x9B5 JUMP JUMPDEST PUSH1 0x40 MLOAD DUP1 SWAP2 SUB SWAP1 RETURN JUMPDEST PUSH2 0x1B4 PUSH1 0x4 DUP1 CALLDATASIZE SUB DUP2 ADD SWAP1 PUSH2 0x1AF SWAP2 SWAP1 PUSH2 0x9FC JUMP JUMPDEST PUSH2 0x456 JUMP JUMPDEST STOP JUMPDEST PUSH0 PUSH32 0x0 SWAP1 POP SWAP1 JUMP JUMPDEST PUSH0 PUSH0 SLOAD SWAP1 POP SWAP1 JUMP JUMPDEST PUSH0 PUSH1 0x4 PUSH0 SWAP1 SLOAD SWAP1 PUSH2 0x100 EXP SWAP1 DIV PUSH1 0xFF AND SWAP1 POP SWAP1 JUMP JUMPDEST PUSH1 0x60 PUSH1 0x3 DUP1 SLOAD PUSH2 0x209 SWAP1 PUSH2 0xA54 JUMP JUMPDEST DUP1 PUSH1 0x1F ADD PUSH1 0x20 DUP1 SWAP2 DIV MUL PUSH1 0x20 ADD PUSH1 0x40 MLOAD SWAP1 DUP2 ADD PUSH1 0x40 MSTORE DUP1 SWAP3 SWAP2 SWAP1 DUP2 DUP2 MSTORE PUSH1 0x20 ADD DUP3 DUP1 SLOAD PUSH2 0x235 SWAP1 PUSH2 0xA54 JUMP JUMPDEST DUP1 ISZERO PUSH2 0x280 JUMPI DUP1 PUSH1 0x1F LT PUSH2 0x257 JUMPI PUSH2 0x100 DUP1 DUP4 SLOAD DIV MUL DUP4 MSTORE SWAP2 PUSH1 0x20 ADD SWAP2 PUSH2 0x280 JUMP JUMPDEST DUP3 ADD SWAP2 SWAP1 PUSH0 MSTORE PUSH1 0x20 PUSH0 KECCAK256 SWAP1 JUMPDEST DUP2 SLOAD DUP2 MSTORE SWAP1 PUSH1 0x1 ADD SWAP1 PUSH1 0x20 ADD DUP1 DUP4 GT PUSH2 0x263 JUMPI DUP3 SWAP1 SUB PUSH1 0x1F AND DUP3 ADD SWAP2 JUMPDEST POP POP POP POP POP SWAP1 POP SWAP1 JUMP JUMPDEST PUSH1 0x60 PUSH1 0x2 DUP1 SLOAD DUP1 PUSH1 0x20 MUL PUSH1 0x20 ADD PUSH1 0x40 MLOAD SWAP1 DUP2 ADD PUSH1 0x40 MSTORE DUP1 SWAP3 SWAP2 SWAP1 DUP2 DUP2 MSTORE PUSH1 0x20 ADD PUSH0 SWAP1 JUMPDEST DUP3 DUP3 LT ISZERO PUSH2 0x33B JUMPI DUP4 DUP3 SWAP1 PUSH0 MSTORE PUSH1 0x20 PUSH0 KECCAK256 SWAP1 PUSH1 0x2 MUL ADD PUSH1 0x40 MLOAD DUP1 PUSH1 0x40 ADD PUSH1 0x40 MSTORE SWAP1 DUP2 PUSH0 DUP3 ADD PUSH0 SWAP1 SLOAD SWAP1 PUSH2 0x100 EXP SWAP1 DIV PUSH20 0xFFFFFFFFFFFFFFFFFFFFFFFFFFFFFFFFFFFFFFFF AND PUSH20 0xFFFFFFFFFFFFFFFFFFFFFFFFFFFFFFFFFFFFFFFF AND PUSH20 0xFFFFFFFFFFFFFFFFFFFFFFFFFFFFFFFFFFFFFFFF AND DUP2 MSTORE PUSH1 0x20 ADD PUSH1 0x1 DUP3 ADD SLOAD DUP2 MSTORE POP POP DUP2 MSTORE PUSH1 0x20 ADD SWAP1 PUSH1 0x1 ADD SWAP1 PUSH2 0x2AD JUMP JUMPDEST POP POP POP POP SWAP1 POP SWAP1 JUMP JUMPDEST PUSH0 PUSH32 0x0 SWAP1 POP SWAP1 JUMP JUMPDEST PUSH1 0x4 PUSH0 SWAP1 SLOAD SWAP1 PUSH2 0x100 EXP SWAP1 DIV PUSH1 0xFF AND PUSH2 0x3B0 JUMPI PUSH1 0x40 MLOAD PUSH32 0xBE35019E00000000000000000000000000000000000000000000000000000000 DUP2 MSTORE PUSH1 0x4 ADD PUSH1 0x40 MLOAD DUP1 SWAP2 SUB SWAP1 REVERT JUMPDEST PUSH2 0x3B8 PUSH2 0x529 JUMP JUMPDEST PUSH32 0x0 PUSH32 0x14A361A50D98FBE05E22DF9359B451B51CF087DC7F912CC7B41BA235754083DD PUSH1 0x40 MLOAD PUSH1 0x40 MLOAD DUP1 SWAP2 SUB SWAP1 LOG2 JUMP JUMPDEST PUSH0 PUSH32 0x0 SWAP1 POP SWAP1 JUMP JUMPDEST PUSH0 PUSH1 0x1 PUSH0 SWAP1 SLOAD SWAP1 PUSH2 0x100 EXP SWAP1 DIV PUSH20 0xFFFFFFFFFFFFFFFFFFFFFFFFFFFFFFFFFFFFFFFF AND SWAP1 POP SWAP1 JUMP JUMPDEST PUSH1 0x4 PUSH0 SWAP1 SLOAD SWAP1 PUSH2 0x100 EXP SWAP1 DIV PUSH1 0xFF AND PUSH2 0x49B JUMPI PUSH1 0x40 MLOAD PUSH32 0xBE35019E00000000000000000000000000000000000000000000000000000000 DUP2 MSTORE PUSH1 0x4 ADD PUSH1 0x40 MLOAD DUP1 SWAP2 SUB SWAP1 REVERT JUMPDEST PUSH0 PUSH1 0x1 PUSH0 SWAP1 SLOAD SWAP1 PUSH2 0x100 EXP SWAP1 DIV PUSH20 0xFFFFFFFFFFFFFFFFFFFFFFFFFFFFFFFFFFFFFFFF AND SWAP1 POP PUSH2 0x4CA CALLER DUP4 PUSH2 0x5CF JUMP JUMPDEST TIMESTAMP DUP3 PUSH20 0xFFFFFFFFFFFFFFFFFFFFFFFFFFFFFFFFFFFFFFFF AND DUP3 PUSH20 0xFFFFFFFFFFFFFFFFFFFFFFFFFFFFFFFFFFFFFFFF AND PUSH32 0xC13A1166D81CD3B0B352A367AEBAB95F3A6F6BC695FDAB8E9A9D335239C3861B PUSH1 0x40 MLOAD PUSH1 0x40 MLOAD DUP1 SWAP2 SUB SWAP1 LOG4 POP POP JUMP JUMPDEST PUSH32 0x0 PUSH20 0xFFFFFFFFFFFFFFFFFFFFFFFFFFFFFFFFFFFFFFFF AND CALLER PUSH20 0xFFFFFFFFFFFFFFFFFFFFFFFFFFFFFFFFFFFFFFFF AND EQ PUSH2 0x5AE JUMPI PUSH1 0x40 MLOAD PUSH32 0xE260DD6400000000000000000000000000000000000000000000000000000000 DUP2 MSTORE PUSH1 0x4 ADD PUSH1 0x40 MLOAD DUP1 SWAP2 SUB SWAP1 REVERT JUMPDEST TIMESTAMP PUSH0 DUP2 SWAP1 SSTORE POP PUSH0 PUSH1 0x4 PUSH0 PUSH2 0x100 EXP DUP2 SLOAD DUP2 PUSH1 0xFF MUL NOT AND SWAP1 DUP4 ISZERO ISZERO MUL OR SWAP1 SSTORE POP JUMP JUMPDEST DUP2 PUSH1 0x1 PUSH0 SWAP1 SLOAD SWAP1 PUSH2 0x100 EXP SWAP1 DIV PUSH20 0xFFFFFFFFFFFFFFFFFFFFFFFFFFFFFFFFFFFFFFFF AND PUSH20 0xFFFFFFFFFFFFFFFFFFFFFFFFFFFFFFFFFFFFFFFF AND DUP2 PUSH20 0xFFFFFFFFFFFFFFFFFFFFFFFFFFFFFFFFFFFFFFFF AND EQ PUSH2 0x656 JUMPI PUSH1 0x40 MLOAD PUSH32 0xE4FD561400000000000000000000000000000000000000000000000000000000 DUP2 MSTORE PUSH1 0x4 ADD PUSH1 0x40 MLOAD DUP1 SWAP2 SUB SWAP1 REVERT JUMPDEST DUP2 PUSH1 0x1 PUSH0 PUSH2 0x100 EXP DUP2 SLOAD DUP2 PUSH20 0xFFFFFFFFFFFFFFFFFFFFFFFFFFFFFFFFFFFFFFFF MUL NOT AND SWAP1 DUP4 PUSH20 0xFFFFFFFFFFFFFFFFFFFFFFFFFFFFFFFFFFFFFFFF AND MUL OR SWAP1 SSTORE POP PUSH1 0x2 PUSH1 0x40 MLOAD DUP1 PUSH1 0x40 ADD PUSH1 0x40 MSTORE DUP1 DUP5 PUSH20 0xFFFFFFFFFFFFFFFFFFFFFFFFFFFFFFFFFFFFFFFF AND DUP2 MSTORE PUSH1 0x20 ADD TIMESTAMP DUP2 MSTORE POP SWAP1 DUP1 PUSH1 0x1 DUP2 SLOAD ADD DUP1 DUP3 SSTORE DUP1 SWAP2 POP POP PUSH1 0x1 SWAP1 SUB SWAP1 PUSH0 MSTORE PUSH1 0x20 PUSH0 KECCAK256 SWAP1 PUSH1 0x2 MUL ADD PUSH0 SWAP1 SWAP2 SWAP1 SWAP2 SWAP1 SWAP2 POP PUSH0 DUP3 ADD MLOAD DUP2 PUSH0 ADD PUSH0 PUSH2 0x100 EXP DUP2 SLOAD DUP2 PUSH20 0xFFFFFFFFFFFFFFFFFFFFFFFFFFFFFFFFFFFFFFFF MUL NOT AND SWAP1 DUP4 PUSH20 0xFFFFFFFFFFFFFFFFFFFFFFFFFFFFFFFFFFFFFFFF AND MUL OR SWAP1 SSTORE POP PUSH1 0x20 DUP3 ADD MLOAD DUP2 PUSH1 0x1 ADD SSTORE POP POP POP POP POP JUMP JUMPDEST PUSH0 DUP2 SWAP1 POP SWAP2 SWAP1 POP JUMP JUMPDEST PUSH2 0x750 DUP2 PUSH2 0x73E JUMP JUMPDEST DUP3 MSTORE POP POP JUMP JUMPDEST PUSH0 PUSH1 0x20 DUP3 ADD SWAP1 POP PUSH2 0x769 PUSH0 DUP4 ADD DUP5 PUSH2 0x747 JUMP JUMPDEST SWAP3 SWAP2 POP POP JUMP JUMPDEST PUSH0 DUP2 SWAP1 POP SWAP2 SWAP1 POP JUMP JUMPDEST PUSH2 0x781 DUP2 PUSH2 0x76F JUMP JUMPDEST DUP3 MSTORE POP POP JUMP JUMPDEST PUSH0 PUSH1 0x20 DUP3 ADD SWAP1 POP PUSH2 0x79A PUSH0 DUP4 ADD DUP5 PUSH2 0x778 JUMP JUMPDEST SWAP3 SWAP2 POP POP JUMP JUMPDEST PUSH0 DUP2 ISZERO ISZERO SWAP1 POP SWAP2 SWAP1 POP JUMP JUMPDEST PUSH2 0x7B4 DUP2 PUSH2 0x7A0 JUMP JUMPDEST DUP3 MSTORE POP POP JUMP JUMPDEST PUSH0 PUSH1 0x20 DUP3 ADD SWAP1 POP PUSH2 0x7CD PUSH0 DUP4 ADD DUP5 PUSH2 0x7AB JUMP JUMPDEST SWAP3 SWAP2 POP POP JUMP JUMPDEST PUSH0 DUP2 MLOAD SWAP1 POP SWAP2 SWAP1 POP JUMP JUMPDEST PUSH0 DUP3 DUP3 MSTORE PUSH1 0x20 DUP3 ADD SWAP1 POP SWAP3 SWAP2 POP POP JUMP JUMPDEST DUP3 DUP2 DUP4 MCOPY PUSH0 DUP4 DUP4 ADD MSTORE POP POP POP JUMP JUMPDEST PUSH0 PUSH1 0x1F NOT PUSH1 0x1F DUP4 ADD AND SWAP1 POP SWAP2 SWAP1 POP JUMP JUMPDEST PUSH0 PUSH2 0x815 DUP3 PUSH2 0x7D3 JUMP JUMPDEST PUSH2 0x81F DUP2 DUP6 PUSH2 0x7DD JUMP JUMPDEST SWAP4 POP PUSH2 0x82F DUP2 DUP6 PUSH1 0x20 DUP7 ADD PUSH2 0x7ED JUMP JUMPDEST PUSH2 0x838 DUP2 PUSH2 0x7FB JUMP JUMPDEST DUP5 ADD SWAP2 POP POP SWAP3 SWAP2 POP POP JUMP JUMPDEST PUSH0 PUSH1 0x20 DUP3 ADD SWAP1 POP DUP2 DUP2 SUB PUSH0 DUP4 ADD MSTORE PUSH2 0x85B DUP2 DUP5 PUSH2 0x80B JUMP JUMPDEST SWAP1 POP SWAP3 SWAP2 POP POP JUMP JUMPDEST PUSH0 DUP2 MLOAD SWAP1 POP SWAP2 SWAP1 POP JUMP JUMPDEST PUSH0 DUP3 DUP3 MSTORE PUSH1 0x20 DUP3 ADD SWAP1 POP SWAP3 SWAP2 POP POP JUMP JUMPDEST PUSH0 DUP2 SWAP1 POP PUSH1 0x20 DUP3 ADD SWAP1 POP SWAP2 SWAP1 POP JUMP JUMPDEST PUSH0 PUSH20 0xFFFFFFFFFFFFFFFFFFFFFFFFFFFFFFFFFFFFFFFF DUP3 AND SWAP1 POP SWAP2 SWAP1 POP JUMP JUMPDEST PUSH0 PUSH2 0x8B5 DUP3 PUSH2 0x88C JUMP JUMPDEST SWAP1 POP SWAP2 SWAP1 POP JUMP JUMPDEST PUSH2 0x8C5 DUP2 PUSH2 0x8AB JUMP JUMPDEST DUP3 MSTORE POP POP JUMP JUMPDEST PUSH2 0x8D4 DUP2 PUSH2 0x76F JUMP JUMPDEST DUP3 MSTORE POP POP JUMP JUMPDEST PUSH1 0x40 DUP3 ADD PUSH0 DUP3 ADD MLOAD PUSH2 0x8EE PUSH0 DUP6 ADD DUP3 PUSH2 0x8BC JUMP JUMPDEST POP PUSH1 0x20 DUP3 ADD MLOAD PUSH2 0x901 PUSH1 0x20 DUP6 ADD DUP3 PUSH2 0x8CB JUMP JUMPDEST POP POP POP POP JUMP JUMPDEST PUSH0 PUSH2 0x912 DUP4 DUP4 PUSH2 0x8DA JUMP JUMPDEST PUSH1 0x40 DUP4 ADD SWAP1 POP SWAP3 SWAP2 POP POP JUMP JUMPDEST PUSH0 PUSH1 0x20 DUP3 ADD SWAP1 POP SWAP2 SWAP1 POP JUMP JUMPDEST PUSH0 PUSH2 0x934 DUP3 PUSH2 0x863 JUMP JUMPDEST PUSH2 0x93E DUP2 DUP6 PUSH2 0x86D JUMP JUMPDEST SWAP4 POP PUSH2 0x949 DUP4 PUSH2 0x87D JUMP JUMPDEST DUP1 PUSH0 JUMPDEST DUP4 DUP2 LT ISZERO PUSH2 0x979 JUMPI DUP2 MLOAD PUSH2 0x960 DUP9 DUP3 PUSH2 0x907 JUMP JUMPDEST SWAP8 POP PUSH2 0x96B DUP4 PUSH2 0x91E JUMP JUMPDEST SWAP3 POP POP PUSH1 0x1 DUP2 ADD SWAP1 POP PUSH2 0x94C JUMP JUMPDEST POP DUP6 SWAP4 POP POP POP POP SWAP3 SWAP2 POP POP JUMP JUMPDEST PUSH0 PUSH1 0x20 DUP3 ADD SWAP1 POP DUP2 DUP2 SUB PUSH0 DUP4 ADD MSTORE PUSH2 0x99E DUP2 DUP5 PUSH2 0x92A JUMP JUMPDEST SWAP1 POP SWAP3 SWAP2 POP POP JUMP JUMPDEST PUSH2 0x9AF DUP2 PUSH2 0x8AB JUMP JUMPDEST DUP3 MSTORE POP POP JUMP JUMPDEST PUSH0 PUSH1 0x20 DUP3 ADD SWAP1 POP PUSH2 0x9C8 PUSH0 DUP4 ADD DUP5 PUSH2 0x9A6 JUMP JUMPDEST SWAP3 SWAP2 POP POP JUMP JUMPDEST PUSH0 PUSH0 REVERT JUMPDEST PUSH2 0x9DB DUP2 PUSH2 0x8AB JUMP JUMPDEST DUP2 EQ PUSH2 0x9E5 JUMPI PUSH0 PUSH0 REVERT JUMPDEST POP JUMP JUMPDEST PUSH0 DUP2 CALLDATALOAD SWAP1 POP PUSH2 0x9F6 DUP2 PUSH2 0x9D2 JUMP JUMPDEST SWAP3 SWAP2 POP POP JUMP JUMPDEST PUSH0 PUSH1 0x20 DUP3 DUP5 SUB SLT ISZERO PUSH2 0xA11 JUMPI PUSH2 0xA10 PUSH2 0x9CE JUMP JUMPDEST JUMPDEST PUSH0 PUSH2 0xA1E DUP5 DUP3 DUP6 ADD PUSH2 0x9E8 JUMP JUMPDEST SWAP2 POP POP SWAP3 SWAP2 POP POP JUMP JUMPDEST PUSH32 0x4E487B7100000000000000000000000000000000000000000000000000000000 PUSH0 MSTORE PUSH1 0x22 PUSH1 0x4 MSTORE PUSH1 0x24 PUSH0 REVERT JUMPDEST PUSH0 PUSH1 0x2 DUP3 DIV SWAP1 POP PUSH1 0x1 DUP3 AND DUP1 PUSH2 0xA6B JUMPI PUSH1 0x7F DUP3 AND SWAP2 POP JUMPDEST PUSH1 0x20 DUP3 LT DUP2 SUB PUSH2 0xA7E JUMPI PUSH2 0xA7D PUSH2 0xA27 JUMP JUMPDEST JUMPDEST POP SWAP2 SWAP1 POP JUMP INVALID LOG2 PUSH5 0x6970667358 0x22 SLT KECCAK256 DIV PUSH17 0xF9DFD0551D79D38EECB184FD1C4941DF79 LOG2 0xD3 PUSH16 0x3FB6012883E308F9A4064736F6C6343 STOP ADDMOD 0x1E STOP CALLER LOG2 PUSH5 0x6970667358 0x22 SLT KECCAK256 RJUMPI 0xCFEE INVALID SWAP6 LOG2 RJUMP 0xABDA PUSH7 0xE75368D7F1A8AA 0xBE 0xD7 MSTORE 0xDF GAS EXTDELEGATECALL CALLDATASIZE SWAP6 PUSH1 0x83 0x25 CODESIZE 0xC9 MSTORE MLOAD PUSH5 0x736F6C6343 STOP ADDMOD 0x1E STOP CALLER "
		},
		"gasEstimates": {
			"creation": {
				"codeDepositCost": "1554000",
				"executionCost": "1622",
				"totalCost": "1555622"
			},
			"external": {
				"createEvidence(bytes32,string)": "infinite",
				"getCreatorNonce(address)": "2807",
				"getEvidenceContractAddress(bytes32)": "2873"
			}
		},
		"methodIdentifiers": {
			"createEvidence(bytes32,string)": "2ca5fea7",
			"getCreatorNonce(address)": "17ef8257",
			"getEvidenceContractAddress(bytes32)": "c839131c"
		}
	},
	"abi": [
		{
			"anonymous": false,
			"inputs": [
				{
					"indexed": true,
					"internalType": "address",
					"name": "creator",
					"type": "address"
				},
				{
					"indexed": true,
					"internalType": "bytes32",
					"name": "evidenceId",
					"type": "bytes32"
				},
				{
					"indexed": true,
					"internalType": "bytes32",
					"name": "metadataHash",
					"type": "bytes32"
				},
				{
					"indexed": false,
					"internalType": "uint256",
					"name": "nonce",
					"type": "uint256"
				}
			],
			"name": "EvidenceCreated",
			"type": "event"
		},
		{
			"inputs": [
				{
					"internalType": "bytes32",
					"name": "metadataHash",
					"type": "bytes32"
				},
				{
					"internalType": "string",
					"name": "description",
					"type": "string"
				}
			],
			"name": "createEvidence",
			"outputs": [],
			"stateMutability": "nonpayable",
			"type": "function"
		},
		{
			"inputs": [
				{
					"internalType": "address",
					"name": "creator",
					"type": "address"
				}
			],
			"name": "getCreatorNonce",
			"outputs": [
				{
					"internalType": "uint256",
					"name": "nonce",
					"type": "uint256"
				}
			],
			"stateMutability": "view",
			"type": "function"
		},
		{
			"inputs": [
				{
					"internalType": "bytes32",
					"name": "evidenceId",
					"type": "bytes32"
				}
			],
			"name": "getEvidenceContractAddress",
			"outputs": [
				{
					"internalType": "address",
					"name": "evidenceContractAddress",
					"type": "address"
				}
			],
			"stateMutability": "view",
			"type": "function"
		}
	]
}